:020000040000FA
:2B000000FFFF62FF2500FFFFFFFFFFFFFFFFFFFFFFFFFFFFFFFFFFFFFFFFFFFFFFFFFFFFFFFFFFFFFFFFFFFFFFFFFF76
:2B002B00601886611886611886611886611886611986010000000018866118866118866118866118866118866180F63F
:2B005600401004411004411004411004411004E11004010000000010044110044110044110044110044110044100CF14
:2B008100000000000000000000000000000000000000000000000000000000000000000000000000000000000080E7ED
:2B00AC00000000000000000000000000000000000000000000000000000000000000000000000000000000000080E7C2
:2B00D700000000000000000000000000000000800000000000000000000000000000000000000000000000000000EF8F
:2B010200000000000000000000000000000000201000000000000000000000000000000000000000000000000080C65C
:2B012D00000000000000000000000000000000000000000000000000000000000000000000000000000000000080E740
:2B015800000000000000000000000000000000000000000000000000000000000000000000000000000000000080E715
:2B018300000000000000000000000000000000000000000000000000000000000000000000000000000000000080E7EA
:2B01AE00000000000000000000000000000000000000000000000000000000000000000000000000000000000080E7BF
:2B01D900000000000000000000000000000000000000000000000000000000000000000000000000000000000080E794
:2B020400000000000000000000000000000000000000000000000000000000000000000000000000000000000080E768
:2B022F00000000000000000000000000000000000000000000000000000000000000000000000000000000000080E73D
:2B025A00000000000000000000000000000000000000000000000000000000000000000000000000000000000008EF82
:2B028500000000000000000000000000000000000000000000000000000000000000000000000000000000000080E7E7
:2B02B000000000000000000000000000000000000000000000000000000000000000000000000000000040000008AB30
:2B02DB00000000000000000000000000000000000000000000000000000000000000000000000000000000000080E791
:2B030600000000000000000000000000000000000000000000000000000000000000000000000000000000000080E765
:2B033100000000000000000000000000000000000000000000000000000000000000000000000000000000000080E73A
:2B035C00000000000000000000000000000000000000000000000000000000000000000000000000000000000080E70F
:2B038700000000000000000000000000000000000000000000000000000000000000000008000000000000000000EF54
:2B03B200020000000000000000000000000000002000000000000000000000000000000000000000000000000008EF07
:2B03DD00000000000000000000000000000000000000000000000000000000000000000000000000000000000080E78E
:2B040800000000000000000000000000000000000000000000000000000000000000000000000000000000000080E762
:2B043300000000000000000000000000000000002000000000000000000000000000000008000000000000000000ED89
:2B045E00000000000000000000000000000000000000000000000000000000000000000000000000000000000080E70C
:2B048900020000000000000000000000000000000000000000000000000000000000000000000000000000000008ED51
:2B04B400800008800008800008800008800008800008000000000020000220000220000220200220000220200280E77A
:2B04DF00800008800008800008800008800008800008000000000020000220000220000200000220000200000280E7CF
:2B050A00000000000000000000000000000000000040000000000000000000000000000000000000000000000080A363
:2B053500020000000000000000000000000000000006000000000000000000000000000018010000000078020008E810
:2B056000000000000000000000000000000000000002000000000000000000000000000000010000000008000000CE97
:2B058B00000000000000000000000000000000000004000000000000000000000000000010000000000078000000C9F0
:2B05B60000000000000000000000000000000000001A00000000000000000000000000000002000000004802008092A2
:2B05E10000000000000000000000000000000000001A0000000000000000000000000000000000000000A8000000F439
:2B060C00020000000000000000000000000000000018000000000000000000000000000000000000000040000088B031
:2B0637000000000000000000000000000000000000180000000000000000000000000000600000000000A02000809A46
:2B066200000000000000000000000000000000000000000000000000000000000000000000000000000000000080E706
:2B068D000000000000000000000000000000000000660000000000000000000000000000180400000000D8020000A343
:2B06B800020000000000000000000000000000000002000000000000000000000000000000000000000008000088C5BE
:2B06E300000000000000000000000000000000000004000000000000000000000000000090400000000058000080AB95
:2B070E0000000000000000000000000000000000001A000000000000000000000000000060010000000068000080D786
:2B07390000000000000000000000000000000000001A000000000000000000000000000080000000000028010000F5DD
:2B0764000000000000000000000000000000000000180000000000000000000000000000000000000000600100009958
:2B078F00020000000000000000000000000000000018000000000000000000000000000000000000000020000088D6A7
:2B07BA00000000000000000000000000000000000080000000000000000000000000000040000000000000020000A1B1
:2B07E500000000000000000000000000000000000026000000000000000000000000000058010000000018000080E0F2
:2B0810000000000000000000000000000000000000020000000000000000000000000000480000000000000400008FE0
:2B083B0002000000000000000000000000000000000400000000000000000000000000005800000000007000008887B5
:2B08660000000000000000000000000000000000001A0000000000000000000000000000480100000000800000889B61
:2B08910000000000000000000000000000000000001A0000000000000000000000000000280000000000600000809288
:2B08BC00000000000000000000000000000000000018000000000000000000000000000040020000000000000088B07F
:2B08E700000000000000000000000000000000000018000000000000000000000000000020000000000060000088B214
:2B0912000200000000000000000000000000000000000000000000000000000000000000600000000000000000088BC5
:2B093D0000000000000000000000000000000000001E0200000000000000000000000000F88249000000780200808131
:2B096800000000000000000000000000000000000002000000000000000000000000000060800000000008000080A159
:2B0993000000000000000000000000000000000000BC000000000000000000000000000070010100000078000000840F
:2B09BE00020000000000000000000000000000000002040000000000000000000000000060810600000068000008AE01
:2B09E900000000000000000000000000000000000022000000000000000000000000000060800600000088200000C56E
:2B0A14000000000000000000000000000000000000180000000000000000000000000000600206000000600000009A3D
:2B0A3F00000000000000000000000000000000000018000000000000000000000000000020000600000000000000BA94
:2B0A6A00000000000000000000000000000000000000000000000000000000000000000000000000000000000080E7FA
:2B0A9500020000000000000000000000000000000086000000000000000000000000000078812100000018020008F37F
:2B0AC000000000000000000000000000000000000002000000000000000000000000000008800000000000020080C53A
:2B0AEB00000000000000000000000000000000000004000000000000000000000000000078000100000090000080D87B
:2B0B160000000000000000000000000000000000001A000000000000000000000000000068810600000000000000DFCC
:2B0B410002000000000000000000000000000000001A00000000000000000000000000000880060000008020000892A5
:2B0B6C00000000000000000000000000000000000018000000000000000000000000000060000600000000000000FEE2
:2B0B9700000000000000000000000000000000000018000000000000000000000000000000000600000060000000FEB7
:2B0BC2000000000000000000000000000000000000800000000000000000000000000000600010000000000000008098
:2B0BED000000000000000000000000000000000000060000000000000000000000000000788101000000780100009EC6
:2B0C1800020000000000000000000000000000000002000000000000000000000000000068800000000008000088A392
:2B0C4300000000000000000000000000000000000004000000000000000000000000000078000100000078000080B65B
:2B0C6E0000000000000000000000000000000000001A000000000000000000000000000008800600000068010080D7F3
:2B0C990000000000000000000000000000000000001A000000000000000000000000000008800600000008000080B050
:2B0CC400020000000000000000000000000000000018000000000000000000000000000000000600000060000088F409
:2B0CEF000000000000000000000000000000000000180000000000000000000000000000000006000000000000009824
:2B0D1A00000000000000000000000000000000000000000000000000000000000000000000010000000060000080804D
:2B0D45000000000000000000000000000000000000460000000000000000000000000000F8801900000018020000BFD3
:2B0D7000000000000000000000000000000000000002000000000000000000000000000008800000000000020080C587
:2B0D9B00020000000000000000000000000000000004000000000000000000000000000078000100000090000008D244
:2B0DC60000000000000000000000000000000000001A000000000000000000000000000068820600000000000000DC1C
:2B0DF10000000000000000000000000000000000001A000000000000000000000000000088800600000080020000BA73
:2B0E1C00000000000000000000000000000000000018000000000000000000000000000060000600000000000000FE2F
:2B0E4700000000000000000000000000000000000018000000000000000000000000000000000600000000000088904A
:2B0E7200020000000000000000000000000000000040000000000000000000000000000000010000000000000008A862
:2B0E9D000200000000000000000000000000000000260000000000000000000000000000988011000000B80100009C84
:2B0EC800020000000000000000000000000000000002000000000000000000000000000000800000000000020088C72A
:2B0EF300020000000000000000000000000000000004000000000000000000000000000010010100000010000008BDE7
:2B0F1E0000000000000000000000000000000000001A0000000000000000000000000000008106000000200400089F3C
:2B0F490000000000000000000000000000000000001A00000000000000000000000000000080060000002000008092AB
:2B0F7400000000000000000000000000000000000018000000000000000000000000000000020600000000200000BA58
:2B0F9F00000000000000000000000000000000000018000000000000000000000000000040000600000000000000DCED
:2B0FCA00020000000000000000000000000000000008000000000000000000000000000020000200000020000000CFE1
:2B0FF500000000000000000000000000000000000000000000000000000000000000000000000000000000000080E76A
:2B102000800008800008800008800008800008800000000000000020000220000220000200000020000200000200CD26
:2B104B00800008800008800008800008800008800008000000000020000220000220000220000220000220000280E717
:2B107600000000000000000000000000000000000000000000000000000000000000000008000000000090020080FC39
:2B10A100000000000000000000000000000000000000000000000000000000000000000000000400800000800080A3FD
:2B10CC00000000000000000000000000000000000000000000000000000000000000000000000000000000000080E792
:2B10F700000000000000000000000000000000000000000000000000000000000000000000000000000020000080C569
:2B112200000000000000000000000000000000000000000000000000000000000000000008000400800090820080B8CC
:2B114D00000000000000000000000000000000000020000000000000000000000000000000000200000010000080F6CF
:2B117800000000000000000000000000000000000000000000000000000000000000000000000000000000000080E7E5
:2B11A300000000000000000000000000000000000000000000000000000000000000000000000000000000000080E7BA
:2B11CE00000000000000000000000000000000000000000000000000000000000000000000000000000000000080E78F
:2B11F900000000000000000000000000000000000000000000000000000000000000000040000000000000100008BBB8
:2B122400000000000000000000000000000000000000000000000000000000000000000000080000000000080080E728
:2B124F00000000000000000000000000000000000000000000000000000000000000000000000000000000000080E70D
:2B127A00000000000000000000000000000000000000000000000000000000000000000000000000000000000008EF52
:2B12A500000000000000000000000000000000000000000000000000000000000000000000000000000000000080E7B7
:2B12D000000000000000000000000000000000000000000000000000000000000000000000000000000000000080E78C
:2B12FB00000000000000000000000000000000000000000000000000000000000000000000200000000000000080C761
:2B132600000000000000000000000000000000000000000000000000000000000000000000000000000000000080E735
:2B135100000000000000000000000000000000000000000000000000000000000000000000000000000000000080E70A
:2B137C00000000000000000000000000000000000080000000000000000000000000000000000000000000000000E7DF
:2B13A700000000000000000000000000000000000000000000000000000000000000000000000000000000000080E7B4
:2B13D200000000000000000000000000000000000000000000000000000000000000000000000000000000000080E789
:2B13FD00000000000000000000000000000000000000000000000000000000000000000000000000000000000080E75E
:2B142800000000000000000000000000000000000000000000000000000000000000000000000000000000000080E732
:2B145300000000000000000000000000000000000000000000000000000000000000000000000000000000000080E707
:2B147E00000000000000000000000000000000000000000000000000000000000000000000000000000000000080E7DC
:2B14A900000000000000000000000000000000000000000000000000000000000000000000000000000000000090F692
:2B14D400000000000000000000000000000000000000000000000000000000000000000000000000000000000080E786
:2B14FF00000000000000000000000000000000000000000000000000000200000000000000000000000000000080C57B
:2B152A00000000000000000000000000000000000000000000000000000000000000000000000000000000000080E72F
:2B155500000000000000000000000000000000000000000000000000000000000000000000000000000000000080E704
:2B158000000000000000000000000000000000000000000000000000000000000000000000000000000000000080E7D9
:2B15AB00000000000000000000000000000000000000000000000000000000000000000000000000000000000080E7AE
:2B15D600000000000000000000000000000000000000000000000000000040000000000000000000000000000080A387
:2B160100000000000000000000000000000000000000000000000000000000000000000000000080000000000000E757
:2B162C00020000000000000000000000000000000000000000000000000000000000000000000000000000000008ED9C
:2B165700000000000000000000000000000000000000000000000000000000000000000000000040000000000080A305
:2B168200000000000000000000000000000000000000000000000000000000000000000000000000000000000080E7D6
:2B16AD00000000000000000000000000000000000000000000000000000000000000000000000080000000000000E7AB
:2B16D800000000000000000000000000000000000000000000000000000000000000000000000000000000000080E780
:2B170300020000000000000000000000000000000000000000000000000000000000000000000000000000000008EDC4
:2B172E00800008800008800008800008800008800008000000000020000220000220000220000220000220000280E72D
:2B175900800008800008800008800008800008800008000000000020000220000220000220000220000220000280E702
:2B178400000000000000000000000000000000000000000000000000000000000000000000000000000000000080E7D3
:2B17AF00020000000000000000000000000000000000000000000000000000802118020000000000000000000008ED5D
:2B17DA00000000000000000000000000000000000000000000000000000000800008000000000000000000000080E7F5
:2B180500000000000000000000000000000000000000000000000000000000000110000000000000000000000080E740
:2B183000000000000000000000000000000000000000000000000000000000800668000000000000000000000080E738
:2B185B00000000000000000000000000000000000000000000000000000000800668000000000000000000000080E70D
:2B188600020000000000000000000000000000000000000000000000000000000660000000000000000000000008EDDA
:2B18B100000000000000000000000000000000000000000000000000000000000660000000000000000000000080E73F
:2B18DC00000000000000000000000000000000000000000000000000000000002000020000000000000000000080E758
:2B190700000000000000000000000000000000000000000000000000000000800998000000000000000000000080E72D
:2B193200020000000000000000000000000000000000000000000000000000800008000000000000000000000008ED0B
:2B195D00000000000000000000000000000000000000000000000000000000000110000000000000000000000008EF57
:2B198800000000000000000000000000000000000000000000000000000000800668000000000000000000000090F6C0
:2B19B300000000000000000000000000000000000000000000000000000000800668000000000000000000000008EF24
:2B19DE00000000000000000000000000000000000000000000000000000000000660000000000000000000000008EF81
:2B1A0900020000000000000000000000000000000000000000000000000000000660000000000000000000000008ED55
:2B1A3400000000000000000000000000000000000000000000000000000000000880000000000000000000000080E798
:2B1A5F00000000000000000000000000000000000000000000000000000000800FF8000000000098010000000080FFBD
:2B1A8A00000000000000000000000000000000000000000000000000000000801008010000000008000000000000EFA1
:2B1AB500000000000000000000000000000000000000000000000000000000000F70000000000010000000000088FEF1
:2B1AE0000200000000000000000000000000000000000000000000000000008040080000000000680000000000008F1A
:2B1B0B000200000000000000000000000000000000000000000000000000008008080400000000680000000000808FA2
:2B1B360002000000000000000000000000000000000000000000000000000000066000000000006000000000008083B9
:2B1B6100020000000000000000000000000000000000000000000000000000000660000000000060000000000080838E
:2B1B8C00000000000000000000000000000000000000000000000000000000002000020000000000000000000008EF15
:2B1BB700000000000000000000000000000000000000000000000000000000800118000000000000000000000080E703
:2B1BE200000000000000000000000000000000000000000000000000000000800008000000000000000000000080E7E9
:2B1C0D00000000000000000000000000000000000000000000000000000000000110000000000000000000000080E734
:2B1C3800020000000000000000000000000000000000000000000000000000800668000000000000000000000008ED9C
:2B1C6300000000000000000000000000000000000000000000000000000000800668000000000000000000000008EF71
:2B1C8E00000000000000000000000000000000000000000000000000000000000660000000000000000000000090F63F
:2B1CB900000000000000000000000000000000000000000000000000000000000660000000000000000000000008EFA3
:2B1CE400000000000000000000000000000000000000000000000000001000000000000000000000000000000008EECF
:2B1D0F00020000000000000000000000000000000000000000000000800900802998010000000000000000000008F7DD
:2B1D3A00000000000000000000000000000000000000000000000000800000800008000000000000000000000000EF87
:2B1D6500000000000000000000000000000000000000000000000000000100000110000000000000000000000080F6CB
:2B1D9000000000000000000000000000000000000000000000000000800600800668000000000000000000000000892B
:2B1DBB000000000000000000000000000000000000000000000000008006008006680000000000000000000000888180
:2B1DE6000200000000000000000000000000000000000000000000000006000006600000000000000000000000808361
:2B1E11000200000000000000000000000000000000000000000000000006000006600000000000000000000000808335
:2B1E3C00020000000000000000000000000000000000000000000000000800001000000000000000000000000000E47D
:2B1E6700020000000000000000000000000000000000000000000000800F00800198020000000098400000000000C10B
:2B1E9200000000000000000000000000000000000000000000000000800000800008000000000008000000000008EF1E
:2B1EBD00000000000000000000000000000000000000000000000000004F000001100000000000100000000000008505
:2B1EE80000000000000000000000000000000000000000000000000080000180066800000000006800000000008091E7
:2B1F13000000000000000000000000000000000000000000000000008008008006680000000000680000000000008144
:2B1F3E00020000000000000000000000000000000000000000000000000600000660000000000060000000000008EDB5
:2B1F6900000000000000000000000000000000000000000000000000000600000660000000000060000000000008EF8A
:2B1F9400000000000000000000000000000000000000000000000000000000000000000000000000000000000090F69C
:2B1FBF00000000000000000000000000000000000000000000000000801100801918010000000018010000000088EF24
:2B1FEA00000000000000000000000000000000000000000000000000800000800008000000000008000000000008EFC5
:2B201500020000000000000000000000000000000000000000000000000100000110000000000010000000000008ED87
:2B204000000000000000000000000000000000000000000000000000800600800668000000000068000000000080E732
:2B206B00000000000000000000000000000000000000000000000000800600800668000000000068000000000080E707
:2B209600000000000000000000000000000000000000000000000000000600000660000000000060000000000080E7EC
:2B20C100000000000000000000000000000000000000000000000000000600000660000000000060000000000008EF31
:2B20EC00020000000000000000000000000000000000000000000000001040000000010000000000010000000080A055
:2B211700020000000000000000000000000000000000000000000000800178C01198000000000098000000000000DBC6
:2B214200020000000000000000000000000000000000000000000000800020800008000000000008000000000080C7F9
:2B216D000200000000000000000000000000000000000000000000000001700801100000000000100000000000809A91
:2B219800000000000000000000000000000000000000000000000000800660C00668000000000068000000000008C9CF
:2B21C3000000000000000000000000000000000000000000000000008006C0800668000000000068000000000000A3B2
:2B21EE000000000000000000000000000000000000000000000000000006600406600000000000600000000000808591
:2B221900020000000000000000000000000000000000000000000000000620000660000000000060000000000080C765
:2B2244000A0000000000000000000000000000000000000000000000000200000220000000000020000000000080EDB4
:2B226F00000000000000000000000000000000000000000000000000000000000000000000000000000000000080E7DD
:2B229A00800008800008800008800008800008800008000000000020000020000000000220000200000220000280E7FA
:2B22C500800008800008800008800008800008800008000000000020000220000220000220000220000220000280E78B
:2B22F000000000000000000000000000000000000000000000000000800000000800200000000000000000000080CFCC
:2B231B00000000000000000000000000000000000000000000000000000000000000000000000000000000000080E730
:2B234600000000000000000000000000000000000000000000000000000000000000000000000000000008000000EF75
:2B237100000000000000000000000000000000000000000000000000000020000000000000000000000000000080C5DC
:2B239C00000000000000000000000000000000000000000000000000800000000800200000000000000008000000C79F
:2B23C700000000000000000000000000000000000000000000000000000000000040000000000000000000000080A388
:2B23F200000000000000000000000000000000000000000000000000000100200310000000000000000000000080F418
:2B241D00000000000000000000000000000000000000000000000000000000000000000000000000000000000080E72D
:2B244800000000000000000000000000000000000000000000000000000000000000000000000000000000000080E702
:2B24730000000000000000000000000000000000000000000000000000008000000000000000000020000000005092BC
:2B249E00000000000000000000000000000000000000000000000000000000000000000000000000000000000080E7AC
:2B24C9000000000000000000000000000000000000000000000000000000000000000000000000000000000000C0A385
:2B24F400000000000000000000000000000000000000000000000000000000000000000000000000000000000080E756
:2B251F00000000000000000000000000000000000000000000000000000000000000000000000000000000000080E72A
:2B254A00000000000000000000000000000000000000000000000000000000000000000000000000000000000080E7FF
:2B257500000000000000000000000000000000000000000000000000000000400000000000000000000000000080A7D4
:2B25A000000000000000000000000000000000000000000000000000000000000000000000000000000000000080E7A9
:2B25CB00000000000000000000000000000000000000000000000000000000000000000000000000000000000090F65F
:2B25F600000000000000000000000000000000000000000000000000002000000000000000000000000000000080E535
:2B262100000000000000000000000000000000000000000000000000000000000000000000000000000000000080E727
:2B264C000000000000000000000000000000000000000000000000000000000000000000000000000000000000A0C5FE
:2B267700000000000000000000000000000000000000000000000000000000000000000000000000000000000080E7D1
:2B26A200000000000000000000000000000000000000000000000000000000000000000000000000000000000080E7A6
:2B26CD00000000000000000000000000000000000000000000000000000000000000000000000000000000000080E77B
:2B26F800000000000000000000000000000000000000000000000000000000000000000000000000000000000080E750
:2B272300000000000000000000000000000000000000000000000000000000000000000000000000000000000080E724
:2B274E00000000000000000000000000000000000000000000000000000000000000000000000000000000000080E7F9
:2B277900000000000000000000000000000000000000000000000000000000000000000000000000000200000080C5EE
:2B27A4000000000000000000000000000000000000000000000000000000000000000000000000000002000000A0E781
:2B27CF00000000000000000000000000000000000000000000000000000000000000000000000000000000000080E778
:2B27FA00000000000000000000000000000000000000000000000000000000000000000000000000000800000000E7C5
:2B282500000000000000000000000000000000000000000000000000000000000000000000000000001000000080E612
:2B285000000000000000000000000000000000000000000000000000000000000000000000000000000000000080E7F6
:2B287B00000000000000000000000000000000001000000000000000000000000000020000000080000000000000E4BC
:2B28A600000000000000000000000000000000000000000000000000000000000000000000000000000000000008EF10
:2B28D100020000000000000000000000000000001000000000000000000000000000000000000000000000000080E466
:2B28FC00020000000000000000000000000000000000000000000000000000000000000000000080000000000000E54A
:2B2927000200000000000000000000000000000000000000000000000000000000000A0000000000000000000080EF0A
:2B295200020000000000000000000000000000000000000000000000000000000000000000000000000000000080E5F3
:2B297D00000000000000000000000000000000000000000000000000000000000000000000000000000000000008EF38
:2B29A800800008800008800008800008800008800008000000000020000220000220000220000220000220000280E7A1
:2B29D300800008800008800008800008800008800008000000000020000220000220000220000220000220000280E776
:2B29FE00000000000000000000000000000000000800000000000000000000000000000000000000000000000000E7BF
:2B2A290002000000000000000000000000000060000000000000000000000000000080210000000000000080010CCF23
:2B2A5400000000000000000000000000000000200000000000000000000000000000800000000000000000800008CF60
:2B2A7F00000000000000000000000000000000400000000000000000000000000000000100000000000000000190B6A4
:2B2AAA00000000000000000000000000000000A00100000000000000000000000000800600000000000000800688D6F6
:2B2AD500000000000000000000000000000000A00100000000000000000000000000800600000000000000800688D6CB
:2B2B0000020000000000000000000000000000800100000000000000000000000000000600000000000000000688F49F
:2B2B2B00000000000000000000000000000000800100000000000000000000000000000600000000000000000600FEF4
:2B2B5600000000000000000000000000000000000800000000000000000000000000000000000000000004002000A583
:2B2B8100000000000000000000000000000000600200000000000000000000000000801900000000800700800900DB43
:2B2BAC00020000000000000000000000000000200000000000000000000000000000800000000000800000800088C50F
:2B2BD700000000000000000000000000000000400000000000000000000000000000000100000000000702000180F018
:2B2C0200000000000000000000000000000000A00100000000000000000000000000800600000000800800800600D69C
:2B2C2D00000000000000000000000000000000A00100000000000000000000000000800600000000800000800680D6F9
:2B2C58000000000000000000000000000000008001000000000000000000000000000006000000000006000006009826
:2B2C83000200000000000000000000000000008001000000000000000000000000000006000000000006000006889277
:2B2CAE00000000000000000000000000000000000000000000000000000000000000002000000000000000000084A5B2
:2B2CD900000000000000000000000000000000600800000000000000000000000000800900000000802900800780FA35
:2B2D0400000000000000000000000000000000200000000000000000000000000000800000000000800000800002EF13
:2B2D2F00000000000000000000000000000000400000000000000000000000000000000100000000000100000F00D058
:2B2D5A00020000000000000000000000000000A0010000000000000000000000000080060000000080060080000C9C77
:2B2D8500020000000000000000000000000000A00100000000000000000000000000800600000000800600800888DC88
:2B2DB0000200000000000000000000000000008001000000000000000000000000000006000000000006000006889249
:2B2DDB00020000000000000000000000000000800100000000000000000000000000000600000000000600000688921E
:2B2E0600000000000000000000000000000000000001000000000000000000000000000000000000004400002080B507
:2B2E3100000000000000000000000000000000E00100000000000000000000000000801100000000800F00800100E014
:2B2E5C00000000000000000000000000000000200000000000000000000000000000800000000000000200800080E5C4
:2B2E8700000000000000000000000000000000C00700000000000000000000000000000100000000008700000100A729
:2B2EB200000000000000000000000000000000200000000000000000000000000000800600000000008600800608A19A
:2B2EDD00020000000000000000000000000000208200000000000000000000000000800600000000000C00800600AB63
:2B2F0800020000000000000000000000000000800100000000000000000000000000000600000000000E000006809AE7
:2B2F3300020000000000000000000000000000800100000000000000000000000000000600000000000A00000680DE7C
:2B2F5E00020000000000000000000000000000000400000000000000000000000000000004000000000400000080A515
:2B2F8900000000000000000000000000000000600200000000000000000000000000800700000000804F00802988B282
:2B2FB400000000000000000000000000000000200000000000000000000000000000800000000000000200800080E56B
:2B2FDF00000000000000000000000000000000400000000000000000000000000000002F0000000000070200010094BA
:2B300A00000000000000000000000000000000A00100000000000000000000000000800000000000000600800600DE10
:2B303500000000000000000000000000000000A00100000000000000000000000000800804000000004400800680B841
:2B30600002000000000000000000000000000080010000000000000000000000000000060000000000060100068882A5
:2B308B00020000000000000000000000000000800100000000000000000000000000000600000000000A00000608D6A3
:2B30B600020000000000000000000000000000000000000000000000000000000000001000000000008400001008A1A0
:2B30E100020000000000000000000000000000600A00000000000000000000000000800100000000800700800108D0F7
:2B310C00000000000000000000000000000000200000000000000000000000000000800000000000000202800080C52F
:2B313700000000000000000000000000000000400000000000000000000000000000000100000000000700000180D0D4
:2B316200000000000000000000000000000000A00100000000000000000000000000800600000000000600800600B8D7
:2B318D00000000000000000000000000000000A00100000000000000000000000000800600000000008C0080068092CC
:2B31B800020000000000000000000000000000800100000000000000000000000000000600000000000600000688923D
:2B31E3000000000000000000000000000000008001000000000000000000000000000006000000000002040006009C92
:2B320E00000000000000000000000000000000000000000000000000000000000000002000000000002000000080E7EE
:2B323900000000000000000000000000000000600400000000000000000000000000800100000000800100801100DB98
:2B326400000000000000000000000000000000200000000000000000000000000000800000000000800000800000CFD0
:2B328F00020000000000000000000000000000400000000000000000000000000000000100000000000100000108BC0B
:2B32BA00000000000000000000000000000000A00100000000000000000000000000800600000000800600800680B086
:2B32E500000000000000000000000000000000A00100000000000000000000000000800600000000800600800680B05B
:2B3310000000000000000000000000000000008001000000000000000000000000000006000000000006000006009867
:2B333B00000000000000000000000000000000800100000000000000000000000000000600000000000600000600983C
:2B336600020000000000000000000000000000000400000000000000000000000000001000000000000402000008CC4C
:2B339100020000000000000000000000000000600000000000000000000000000000800900000000800F00802188F07E
:2B33BC00020000000000000000000000000000200000000000000000000000000000800000000000000600800008AB0B
:2B33E700020000000000000000000000000000400000000000000000000000000000000100000000001700000108DB7D
:2B341200000000000000000000000000000000A00100000000000000000000000000800600000000001600800600B913
:2B343D00000000000000000000000000000000A00100000000000000000000000000800600000000000600800600B8F9
:2B346800000000000000000000000000000000800100000000000000000000000000000600000000000600000600980E
:2B3493001200000000000000000000000000008001000000000000000000000000000006000000000026000006888041
:2B34BE001A00000000000000000000000000008000000000000000000000000000000002000000000002000002A8FD9E
:2B34E900000000000000000000000000000000000000000000000000000000000000000000000000000000000080E751
:2B351400800008800008800008800008800008000008000000000020000220000220000020000220000020000000CD49
:2B353F00800008800008800008800008800008800008000000000020000220000220000220000220000220000280E7FE
:2B356A00000000000000000000000000000000000050000000000000000000000000000000000000000800000880B2A4
:2B359500000000000000000000000000000000000010000000000000000008000000000000000000000000000400BA35
:2B35C000000000000000000000000000000000000000000000000000000000000000000000000800000010000000F6D2
:2B35EB00000000000000000000000000000000000000000000000000000000000000000000000000000200000280E74A
:2B361600000000000000000000000000000000000050000000000000000008000000000000000800000810000C80EF96
:2B364100000000000000000000000000000000000000000000000000000000000000000000000000000404000080E3F3
:2B366C00000000000000000000000000000000000001000000000000000000000000000004000000001004000084B6E0
:2B369700000000000000000000000000000000000000000000000000000000000000000002000000000000000080C7BF
:2B36C200000000000000000000000000000000000000000000000000000000000000000000000000000100000082D684
:2B36ED00000000000000000000000000000000000000000000000000000000000000000000000000000000000080E74B
:2B371800000000000000000000000000000000000000000000000000000000000000000000000000000001000080F70E
:2B374300000000000000000000000000000000000000000000000000000000000000000000000000000000000080E7F4
:2B376E00000000000000000000000000000000000000000000000000000000000000000000000000000000000080E7C9
:2B379900000000000000000000000000000000000000000000000000000000000000000000000000000100000080F68E
:2B37C400000000000000000000000000000000000000000000000000000000000000000000000000008000000080EFEB
:2B37EF00000000000000000000000000000000000000000000000000000000000000000000000000008800000004AF74
:2B381A00000000000000000000000000000000000000000000000000000000000000000000000000000000000081F70B
:2B384500000000000000000000000000000000004000000000000000000000000000000000000000000000000080E3B5
:2B387000000000000000000000000000000000000000000000000000000000000000000000000000002000000080E5A8
:2B389B00000000000000000000000000000000000000000000000000000000000000000000002000000400001080A0AE
:2B38C600000000000000000000000000000000000020020000000000000000000000000000008800000000000200ED3E
:2B38F100000000000000000000000000000000000000000000000000000000000000000000000000000000000080E745
:2B391C00000000000000000000000000000000000000000000000000000000000000000000000000000000000080E719
:2B39470040100441100441100441100441100441108403000000001004411004411004411004E110844310844300EF44
:2B397200601886611886611886611886611886611886050000000018866118866118866118866119866518866580F3B6
:02399D00FFFF2A
:00000001FF
