:020000040000FA
:2B000000FFFF62FF2500FFFFFFFFFFFFFFFFFFFFFFFFFFFFFFFFFFFFFFFFFFFFFFFFFFFFFFFFFFFFFFFFFFFFFFFFFF76
:2B002B00601886611886611886611886651886611886010000000018866118866118866118866118866118866180E34F
:2B005600401004411004411004411084431004411004010000000010044110044110044110044110044110044100E51C
:2B008100000000000000000000000000000000000000000000000000000000000000000000000000000000000080E7ED
:2B00AC00000000000000000000000000000000000000000000000000000000000000000000000000000000000080E7C2
:2B00D700000000000000000000000000020000000000000000000000000000000000000000000000000000000080E597
:2B0102000000000000000000000000C0000000000000000000000000000000000000000000000000000000000000A36F
:2B012D00000000000000000000000000000000000000000000000000000000000000000000000000000000000080E740
:2B015800000000000000000000000000000000000000000000000000000000000000000000000000000000000080E715
:2B018300000000000000000000000000000000000000000000000000000000000000000000000000000000000080E7EA
:2B01AE00000000000000000000000000000000000000000000000000000000000000000000000000000000000080E7BF
:2B01D900000000000000000000000000000000000000000000000000000000000000000000000000000000000080E794
:2B020400000000000000000000000000000000000000000000000000000000000000000000000000000000000080E768
:2B022F00000000000000000000000000000000000000000000000000000000000000000000000000000000000080E73D
:2B025A00000000000000000000000000000000000000000000000000000000000000000000000000000000000080E712
:2B028500000000000000000000000000000000000000000000000000000000000000000000000000000000000080E7E7
:2B02B000000000000000000000000000000000000000000000000000000000000000000000000000000000000080E7BC
:2B02DB00000000000000000000000000000000000000000000000000000000000000000000000000000000000080E791
:2B030600000000000000000000000000000000000000000000000000000000000000000000000000000000000080E765
:2B033100000000000000000000000000000000000000000000000000000000000000000000000000000000000080E73A
:2B035C00000000000000000000000000000000000000000000000000000000000000000000000000000000000080E70F
:2B038700000000000000000000000000000000000000000000000000000000000000000000000000000000000080E7E4
:2B03B200020000000000000000000000000008000000000000000000000000000000000000000000000000000088E5A9
:2B03DD00000000000000000000000000000000000000000000000000000000000000000000000000000000000080E78E
:2B040800000000000000000000000000000000000000000000000000000000000000000000000000000000000080E762
:2B043300000000000000000000000000000008000000000000000000000000000000000000000000000000000000EFA7
:2B045E00000000000000000000000000000000000000000000000000000000000000000000000000000000000080E70C
:2B048900020000000000000000000000000000000000000000000000000000000000000000000000000000000008ED51
:2B04B400800008800008800008800008800008800008000000000020000220000220000220000220000220000280E7BA
:2B04DF00800008800008800008800008800008800008000000000020000220000220000220000220000220000280E78F
:2B050A00000000000000000000000000008000080000000000000000000000000000000000000000000000000080E7D7
:2B0535000200000000006012000000006002060000000000000000000000000000000000000000000000000000088C2B
:2B056000000000000000000000000000000200000000000000000000000000000000000000000000000000000080C529
:2B058B00000000000000404000000000400224100000000000000000000000000000000000000000000000000080B31C
:2B05B600000000000000004000000000000000000000000000000000000000000000000000000000000000000080E377
:2B05E1000000000000000000000000000000A0000000000000000000000000000000000000000000000000000000C58A
:2B060C00020000000000001000000000800100000000000000000000000000000000000000000000000000000088F5B3
:2B063700000000000000000300000000800118000000000000000000000000000000000000000000000000000080D4A8
:2B066200000000000000020800000000000000080000000000000000000000000000000000000000000000000000ED6E
:2B068D00000000000026600200000000000016000000000000000000000000000000000000000000000000000080968E
:2B06B800020000000000000000000000000002000000000000000000000000000000000000000000000000000008CD3E
:2B06E300000000000024480400000000000034100000000000000000000000000000000000000000000000000080EACE
:2B070E00000000000000000000000000000002000000000000000000000000000000000000000000000000000080C777
:2B0739000000000000000000000000000000B2000000000000000000000000000000000000000000000000000000F4EF
:2B076400000000000018800100000000000010080000000000000000000000000000000000000000000000000080FE3B
:2B078F00020000000018800100000000000020000000000000000000000000000000000000000000000000000008CFAD
:2B07BA00000000000000020000000000000010010000000000000000000000000000000000000000000000000080F58C
:2B07E500000000000036600B0000000000001E000000000000000000800999400000000000000000000000000080CE7A
:2B081000000000000002200000000000000018000000000000000000000000000000000000000000000000000000FE85
:2B083B0002000000003448090000000000001C0100000000000000000021100200000000000000000000000000089F14
:2B086600000000000082200800000000000018000000000000000000000000000000000000000000000000000000FEA7
:2B089100000000000012200100000000000098000000000000000000000000000000000000000000000000000080FEF3
:2B08BC00000000000010088100000000000018000000000000000000000660000000000000000000000000000000FEFC
:2B08E700000000000020000200000000000018100000000000000000000660000000000000000000000000000000EE48
:2B091200020000000080000000000000000010000000000000000000000000000000000000000000000000000088FCA4
:2B093D00000000000006600A000000000000BE000000000000000000800999400000000000000000000000000000CE31
:2B096800000000000012200000000000000058000000000000000000800008000000000000000000000000000000ABA7
:2B099300000000000094C0090000000000003C00000000000000000000277002000000000000000000000000008094F3
:2B09BE0002000000000220800000000000005800000000000000000080000A200000000000000000000000000088B828
:2B09E9000000000000B2A00300000000000018000000000000000000800EE8000000000000000000000000000000F60A
:2B0A1400000000000010080000000000000018000000000000000000000000000000000000000000000000000000E7A0
:2B0A3F00000000000020000000000000000038010000000000000000000000000000000000000000000000000000FF34
:2B0A6A00000000000000001100000000000080000000000000000000000000000000000000000000000000000000F7D9
:2B0A9500020000000046E003000000000000260000000000000000008017D84000000000000000000000182000888AEC
:2B0AC0000000000000428041000000000000420000000000000000000016080000000000000000000000080000009D03
:2B0AEB0000000000001CC0010000000000001C000000000000000000000F500200000000000000000000100000808F67
:2B0B1600000000000002880100000000000002080000000000000000000608010000000000000000000068000000FFA9
:2B0B410002000000003A80050000000000003A000000000000000000002648000000000000000000000068000088F63A
:2B0B6C000000000000008001000000000000000000000000000000000006402000000000000000000000600000009A7D
:2B0B9700000000000000800900000000000000000000000000000000000680000000000000000000000060000000FEC6
:2B0BC200000000000000020800000000000018000000000000000080000000010000000000000000000000010000FC68
:2B0BED0000000000002660020000000060123E040000000000000098800D19000000000000000000000018000000AF9C
:2B0C18000200000000002000000000000000181000000000000000088000480000000000000000000000080000888087
:2B0C4300000000000024C8050000000040063C000000000000000070012550010000000000000000000010000080A9F3
:2B0C6E00000000000080208000000000000090000000000000000008A000080200000000000000000000680000809A77
:2B0C9900000000000000A003000000000000180000000000000000E8801448000000000000000000000068000000E465
:2B0CC4000200000000000000000000008001180000000000000000000004422000000000000000000000600000088B11
:2B0CEF000000000000900000000000008001180200000000000000000008800000000000000000000000600000009235
:2B0D1A00000000000010000100000000004080000000000000000000000040010000000000000000000000000000A6F6
:2B0D450000000000009EE04100000000600036000000000000000000801178000000000000000000000098010000AFDD
:2B0D7000000000000098800900000000200442000000000000000000801460000000000000000000000008000080C491
:2B0D9B0002000000001CC00100000000C00314000000000000000000000D70020000000000000000000010000008F6EA
:2B0DC600000000000058800300000000208042000000000000000000802060000000000000000000000068000080CF8E
:2B0DF100000000000018800100000000200332000000000000000000800460010000000000000000000068000080A27A
:2B0E1C00000000000018800500000000000010080000000000000000000462000000000000000000000060000080DED2
:2B0E47000200000000389001000000008004200000000000000000000008E02000000000000000000000600000889190
:2B0E7200000000080000000000000000000080000000000000000000000000000000000000000000000000000000EFDE
:2B0E9D00601306000046600A00000000601226000000000000000000800999400000000000000000000018010080FA74
:2B0EC800200002000040000000000000200040000000000000000000000000000000000000000000000008000000CF66
:2B0EF30040417C000004400800000000C00704000000000000000000002110020000000000000000000010000000E39A
:2B0F1E00220002080000000800000000200840000000000000000000000000010000000000000000000068000088EE2D
:2B0F490020073A000000000000000000A00320000000000000000000001000000000000000000000000068000000FDE4
:2B0F740000810000001800000000000000000000000000000000000000100000000000000000000000006000000080C9
:2B0F9F00000200000018800100000000000018000000000000000000000C40010000000000000000000060000080BB8C
:2B0FCA00800008000008800000000000800008000000000000000020000220000000000000000000000020000080E79B
:2B0FF500000000000000000000000000000000000000000000000000000000000000000000000000000000000080E76A
:2B102000000000800000000008800008000000800008000000000000000000000220000220000220000200000280E73C
:2B104B00800008800008800008800008800008800008000000000020000220000220000220000220000220000280E717
:2B107600200002000022400080020000202A00000000000000000000D40010010000000000000000000000000000EB2F
:2B10A100000000000000000200000000000000008802000000000000000000000000000000000000000040004880ADE3
:2B10CC00000000000000000000000000000000000000000000000000000000000000000000000000000000000080E792
:2B10F700000000000000000000000000002008000000000000000000000000000000000000000000000000000000EDB9
:2B112200200002000022400280000000200A00008802000000000000C40010010000000000000000000040004800B1DA
:2B114D00800000000000800000000000800080000000000000000000000000000000000000000000000000000080EF08
:2B117800000000000000000000000000000000000000000000000000000000000000000000000000000000000080E7E5
:2B11A300000000000000000000000000000020000000000000000000002000000000000000000000000000000080C79A
:2B11CE00000000000040000000000000000000000000000000000010000000000000000000000000000000000080B274
:2B11F900001000000000081000000000000018080000000000000000000000200000000000000000000000000000DE85
:2B122400000000020000801000000000401000020000000000000000000000000000000000000000000000000000AF0C
:2B124F00000000000000400000000000000000000000000000000000000000000000000000000000000000000080A70D
:2B127A00000000000000000000000000000000000000000000000000000000000000000000000000000000000080E7E2
:2B12A500000000000000040000000000000000000000000000000000000000100000000000000000000000000080F397
:2B12D000004000040000044000000000004000040000000000000000100001100000000000000000000000000080F78F
:2B12FB00000000000000000000000000000000100000000000000000000000000000000000000000000000080080FF31
:2B132600000000000000000000000000000010080000000000000000000000000000000000000000000000000080FE06
:2B135100000000000000000000000000000000000000000000000000000000000000000000000000000000000080E70A
:2B137C00000000000000000000000000000000000000000000000000000000000000000000000000000000000080E7DF
:2B13A7000000000000000000000000000000000000000000000000000000000000000000000002000000000000C081D8
:2B13D200000000000000000000000000000000000000000000000000000000000000000000000000000000000080E789
:2B13FD00000000000000000000000000000000000020000000000000000000002000000000000000000000000080C73E
:2B142800000000000000000000000000000000000000000000000000000000000010000000000000000000000090E712
:2B145300000000000000000000008000000000000000000000000000000000000000000002200002000000000080CF7B
:2B147E00000000000000000000000000000000000000000000000000000000000000000000000000000000000080E7DC
:2B14A900000000000000000000000000000000000000000000000000000000000000000000000000000000000080E7B1
:2B14D400000000000000000000000000000000000000000000000000000000000000000000000000000000000080E786
:2B14FF00000000000000000000000000000000000000000000000000000000000000000000000000000000000080E75B
:2B152A00000000000000000000000000000000000000000000000000000000000000000000000000000000000080E72F
:2B155500000000000000000000000000000000000000000000000000000000000000000000000000000000000080E704
:2B158000000000000000000000000000000000000000000000000000000000000000000000000000000000000008EF49
:2B15AB00000000000000000000000000000000000000000000000000000000000000000000000000000000000080E7AE
:2B15D600000000000000000000000000000000000000000000000000000000000000000000000000000000000080E783
:2B160100000000000000000000000000000002000400000000000000000000000000000080200000000000000000A375
:2B162C00020000000000000000000000000000000000000000000000000000000000000000000000000000000008ED9C
:2B165700000000000000000000000000000002000100000000000000000000000000000000000000000000000008DE7F
:2B168200000000000000000000000000000000000000000000000000000000000000000000000000000000000090F6B7
:2B16AD000000000000000000000000000000000005000000000000000000000000000000803000000000000000888A4B
:2B16D800000000000000000000000000000000000000000000000000000000000000000000000000000000000008EFF0
:2B170300020000000000000000000000000000000000000000000000000000000000000000000000000000000008EDC4
:2B172E00800008800008800008800008800008800008000000000020000220000220000220000220000220000280E72D
:2B175900800008800008800008800008800008800008000000000020000220000220000220000220000220000280E702
:2B178400000000000000000000000000000000000000000000000000000000000000000000010000000000000080E6D3
:2B17AF0000000000000000000060080000000000000000000000000000000000000080211880110000000000000895C0
:2B17DA00020000000000000000200000000000000000000000000000000000000000800008800000000000000000CDED
:2B180500020000000000000000400000000000000000000000000000000000000000000110000100000000000080B430
:2B183000020000000000000000A00100000000000000000000000000000000000000800668800600000000000080B244
:2B185B00020000000000000000A00100000000000000000000000000000000000000800668800600000000000080B219
:2B1886000000000000000000008001000000000000000000000000000000000000000006600006000000000000889032
:2B18B1000000000000000000008001000000000000000000000000000000000000000006600006000000000000009887
:2B18DC00000000000000000000000800000000000000000000000000000000000000002000021000000000000000E6C1
:2B190700000000000000000000600200000000000000000000000000000000000000800998800100000000000000BCF5
:2B193200020000000000000000200000000000000000000000000000000000000000800008800000000000000088C513
:2B195D00000000000000000000400000000000000000000000000000000000000000000110000100000000000008BE47
:2B198800000000000000000000A00100000000000000000000000000000000000000800668800600000000000090A1EE
:2B19B300000000000000000000A00100000000000000000000000000000000000000800668800600000000000008B834
:2B19DE0000000000000000000080010000000000000000000000000000000000000000066000060000000000008890D9
:2B1A090002000000000000000080010000000000000000000000000000000000000000066000060000000000008892A9
:2B1A3400000000000000000000000400000000000000080000000000000000000000000000010000000000000080AA50
:2B1A5F0000000000000000000060020000000000003E000000000000000000000000801998802900000000000000E4FE
:2B1A8A00000000000000000000200000000000000058000000000000000000000000800008800000000000000080929F
:2B1AB50000000000000000000040000000000000003C000000000000000000000000000110000100000000000088C52B
:2B1AE000020000000000000000A00100000000000000000000000000000000000000800668800600000000000080B292
:2B1B0B00020000000000000000A00100000000000000010000000000000000000000800668800600000000000080B364
:2B1B3600020000000000000000800100000000000018000000000000000000000000000660000600000000000080837A
:2B1B6100020000000000000000800100000000000018000000000000000000000000000660000600000000000080834F
:2B1B8C00000000000000000000000800000000000000000000000000000000000000002000001000000000000088EC82
:2B1BB700000000000000000000600000000000000086000000000000000000000000800198810900000000000080FFFB
:2B1BE20000000000000000000020000000000000001A080000000000000000000000800008800000000000000080FE10
:2B1C0D0000000000000000000040000000000000003C000000000000000000000000000110000100000000000000CD51
:2B1C3800020000000000000000A001000000000000020000000000000000000000008006688006000000000000089AC6
:2B1C6300000000000000000000A00100000000000002000000000000000000000000800668800600000000000008989F
:2B1C8E0000000000000000000080010000000000000000000000000000000000000000066000060000000000001089A5
:2B1CB90000000000000000000080010000000000000000000000000000000000000000066000060000000000008890FB
:2B1CE400000000000000000000000000000000000000000000000000000000000000000000000000000000000008EFDE
:2B1D0F00020000000000000000600A00000000000086000000000000000000000000801118822100000000000088D70C
:2B1D3A00000000000000000000200000000000000042000000000000000000000000800008800000000000000000AB69
:2B1D650000000000000000000040000000000000001C000000000000000000000000000110000100000000000000EFF6
:2B1D9000000000000000000000A001000000000000020000000000000000000000008006688006000000000000809001
:2B1DBB00000000000000000000A0010000000000001A02000000000000000000000080066880060000000000008883C1
:2B1DE6000200000000000000008001000000000000000000000000000000000000000006600006000000000000009A49
:2B1E11000200000000000000008001000000000000000000000000000000000000000006600006000000000000009A1D
:2B1E3C00020000000000000000000400000000000000000000000000000000000000000000002000000000000080A332
:2B1E6700020000000000000000600000000000000096000000000000000000000000802998820100000000000080ED27
:2B1E9200000000000000000000200000000000000042000000000000000000000000800008800000000000000088A390
:2B1EBD00000000000000000000400000000000000014000000000000000000000000000110000100000000000080E72D
:2B1EE800000000000000000000A0010000000000000200000000000000000000000080066880060000000000008090A8
:2B1F1300000000000000000000A00100000000000052000000000000000000000000800668800600000000000080C5F7
:2B1F3E000200000000000000008001000000000000100000000000000000000000000006600006000000000000008BEE
:2B1F69000000000000000000008001000000000000000200000000000000000000000006600006000000000000889244
:2B1F9400000000000000000000000000000000000080000000000000000000000000001000000000000000000088EE1C
:2B1FBF0000000000000000000060060000000000000600000000000000000000000080011881190000000000000890C0
:2B1FEA00000000000000000000200000000000000022000000000000000000000000800008800000000000000088C535
:2B201500020000000000000000C00301000000000024000000000000000000000000000F14000100000000000080DB37
:2B204000000000000000000000A0110000000000005A000000000000000000000000800668800600000000000000CC2A
:2B206B00000000000000000000A00300000000000022000000000000000000000000800E6A800600000000000000B057
:2B209600000000000000000000000000000000000018000000000000000000000000000060000600000000000000FEA3
:2B20C10000000000000000000080010000000000001800000000000000000000000000066000060000000000008081EE
:2B20EC000200000000000000000000000000000000000000000000000000000004C4001000022000000000000088AC99
:2B2117000200000000000000006004000000000000860000000000000000008007F8800918800900000000000088B0D0
:2B21420002000000000000000020000000000000004000000000000000000000022080000880000000000000008881DD
:2B216D00020000000000000000400000000000000004000000000000000000000F710801F0400F04000000000088E4C9
:2B219800000000000000000000A00100000000000000000000000000000000000E60C00668840600000000000000F461
:2B21C300000000000000000000A001000000000000400000000000000000000004C0800668804E00000000000080F020
:2B21EE000000000000000000008001000000000000000000000000000000000006601006000000000000000000008841
:2B2219000A00000000000000008001000000000000180000000000000000000002A4000660000600000000000000CB1A
:2B2244000A0000000000000000800000000000000008000000000000000000000000000220000200000000000090DE4B
:2B226F00000000000000000000000000000000000000000000000000000000000000000000000000000000000080E7DD
:2B229A00800008800008800008000008800008800000000000000020000220000220000000000020000220000280C584
:2B22C500800008800008800008800008800008800008000000000020000220000220000220000220000220000280E78B
:2B22F000000000000000000000000050000000000000000000000000000020000000300400000000000000000080E4BB
:2B231B00000000000000000000000010000000000000000000000000000000000000000000000000000000004080F2D5
:2B234600000000000000000000000000000800000010000000000000000000000000000400000000000000000000B29E
:2B237100000000000000000000000000000000000008000000000000000020000000000000000000000000000000CD4C
:2B239C0000000000000000000000005000080000000000000000000000000000000020000000000000000000400096C8
:2B23C700000000000000000000000000000000000010000000000000000000000104000000000000000000000080A7AF
:2B23F2000000000000000000008000000000000000000000000000000000000000002000400000000000000000008B55
:2B241D00000000000000000000000000000000000000000000000000000000000000000001000000000000000080F71C
:2B244800000000000000000000000000000000000000000000000000000000000000000000000000000000000080E702
:2B247300000000000000000000000000000000000000000000000000000000000080000000000000000000000040A3DB
:2B249E00000000000000000000000000000000000004000000000000000000000000000000000000000000000080A7E8
:2B24C9000000000000000000000000000000000000000000000000000000000000000000000000000000000000C0A385
:2B24F400000000000000000000000000000000000000000000000000000000000004000000000000000000000080A792
:2B251F00000000000000000000000000000000000000000000000000000000000000000000000000000000000080E72A
:2B254A00000000000000000000000000000000000000040000000000000000000000000000000000000000000080E3FF
:2B257500000000000000000000000000000000000000000000000000000000000000000000000000000000000080E7D4
:2B25A000000000000000000000000000000000000000000000000000000000000000000000000000000000000080E7A9
:2B25CB00000000000000000000000000000000000000000000000000000000000000000000000000000000000080E77E
:2B25F600000000000000000000000000000000000000000000000000000000000000020000000000000000000080E553
:2B2621000000000000000000000000000000000000000000000000000000000000000000000000000000000000A0C529
:2B264C00000000000000000000000000000000000000000000000000000000000000000000000000000000000080E7FC
:2B267700000000000000000000000000000000000000000000000000000000000000000000000000000000000080E7D1
:2B26A200000000000000000000000000000000000000000000000000000000000000000000000000000000008080EF1E
:2B26CD00000000000000000000000000080000000000000000000000000000000000000000000000200002000082CF67
:2B26F800000000000000000000000000000000000000000000000000000000000000000000000000000000000008EFC0
:2B272300000000000000000000000000000000000000000000000000000000000000000000000000000000000080E724
:2B274E00000000000000000000000000000000000000000000000000000000000000000000000000000000000080E7F9
:2B277900000000000000000000000000000000000000000000000000000000000000000000000000000000000080E7CE
:2B27A400000000000000000000000000000000000000000000000000000000000000000000000000000000000080E7A3
:2B27CF00000000000000000000000000000000000000000000000000000000000000000000000000000000000080E778
:2B27FA00000000000000000000000000000000000000000000000000000000000000000000000000000000000082C76B
:2B282500000000000000000000000000000000000000000000000000000000000000000000000000000000000800E799
:2B285000000000000000000000000000000000000000000000000000000000000000000000000000000000000480A336
:2B287B00000000000000000000000004000000000400000000000000000000000000000000000000002000000080E1A9
:2B28A600000000000000000000000000000000000000000000000000000000000000000000000000000000000008EF10
:2B28D100020000000000000000000000000000000000000000000000000000000000000000000000000000000080E575
:2B28FC00020000000000000000000000000000000400000000000000000000000000000000000000000000000080A18A
:2B292700020000000000000000000004000000000000000000000000000000000000000000000000002000000080A738
:2B295200020000000000000000000000000000000000000000000000000000000000000000000000000000000080E5F3
:2B297D00000000000000000000000000000000000000000000000000000000000000000000000000000000000008EF38
:2B29A800800008800008800008800008800008800008000000000020000220000220000220000220000220000280E7A1
:2B29D300800008800008800008800008800008800008000000000020000220000220000220000220000220000280E776
:2B29FE00000000000000000000000040000000000000000000000000000000000000000000000000002000001080A01E
:2B2A29000200000000000000000000060000000000000000000000000000000000000000000000988201008001089640
:2B2A5400000000000000000000000002000000000000000000000000000000000000000000000008800000800088C7FE
:2B2A7F00000000000000000000000004000000000000000000000000000000000000000000000010000100000190A7DF
:2B2AAA0000000000000000000000001A000000000000000000000000000000000000000000000068800600800608B8B3
:2B2AD50000000000000000000000001A000000000000000000000000000000000000000000000068800600800608B888
:2B2B0000020000000000000000000018000000000000000000000000000000000000000000000060000600000688920A
:2B2B2B000000000000000000000000180000000000000000000000000000000000000000000000600006000006009863
:2B2B560000000000000000008000008000000000800000000000000000000000000000000000000002000000048289C3
:2B2B8100000000000000000006000026000000600000000000000000000000000000000000000018801100800700DB92
:2B2BAC00020000000000000000000002000000000400000000000000000000000000000000000008800000000208ABB9
:2B2BD700000000000000000044000004000000400000000000000000000000000000000000000010000100004F00905B
:2B2C020000000000000000000000001A000000000000000000000000000000000000000000000068800600000600B8E1
:2B2C2D0000000000000000000000001A00000000080000000000000000000000000000000000006880060000848092D6
:2B2C58000000000000000000180000180000000000000000000000000000000000000000000000600006000046808570
:2B2C8300020000000000000018000018000000800100000000000000000000000000000000000060000600000288D6AD
:2B2CAE00000000000000000000000000000000000000000000000000000000000000000000000000000000000484E390
:2B2CD900000000000000000006080066000000600A00000000000000000000000000000000000018812100800F00B7F2
:2B2D04000000000000000000000000020000002080000000000000000000000000000000000000088000000002848D67
:2B2D2F00000000000000000004040004000000C00300000000000000000000000000000000000010000100000788E723
:2B2D5A0002000000000000000000001A000000200800000000000000000000000000000000000068800600000609828B
:2B2D850002000000000000006000001A000000200000000000000000000000000000000000000068800600000C90CF2E
:2B2DB0000200000000000000000000180000008001000000000000000000000000000000000000600006000006088B5E
:2B2DDB00020000000000000018000018000000000000000000000000000000000000000000000060000600004208CB20
:2B2E060000000000000000000000000000000000800000000000000000000000000000000000000002100000000CA45F
:2B2E31000000000000000000A6000046000000600000000000000000000000000000000000000098800900800180F810
:2B2E5C00000000000000000012080002000000208100000000000000000000000000000000000008800000800000CFB7
:2B2E8700000000000000000034000004000000400300000000000000000000000000000000000010000100000F0490F1
:2B2EB20000000000000000004200001A000000200400000000000000000000000000000000000068800600800E88B8B9
:2B2EDD0002000000000000000200001A000000200000000000000000000000000000000000000068800600800680B2E6
:2B2F0800020000000000000010000018000000000100000000000000000000000000000000000060000600000000FC11
:2B2F33000200000000000000880000180000008008000000000000000000000000000000000000600006000006009A43
:2B2F5E00020000000000000080000080000000008000000000000000000000000000000000000000002000000080EF37
:2B2F890000000000000000000600000600000060000000000000000000000000000000000000001882090080210896CF
:2B2FB400000000000000000012080002000000208000000000000000000000000000000000000008800000800000DE50
:2B2FDF00000000000000000034000004000000C00300000000000000000000000000000000000010000100000100BEFC
:2B300A0000000000000000000200001A000000200400000000000000000000000000000000000068800600800680F473
:2B30350000000000000000004200001A000000200000000000000000000000000000000000000068800600800608FC7C
:2B306000020000000000000050000018000000800100000000000000000000000000000000000060000600000608DE08
:2B308B000200000000000000080000180000000000000000000000000000000000000000000000600006000006908379
:2B30B600020000000000000080000000000000000100000000000000000000000000000000000000001000000488B917
:2B30E1000200000000000000060000A6000000E0090000000000000000000000000000000000009881010080078AE81A
:2B310C000000000000000000020800020000008001000000000000000000000000000000000000088000000026889A3B
:2B31370000000000000000003C000004000000C04100000000000000000000000000000000000010000100000780F69E
:2B31620000000000000000000200001A000000800500000000000000000000000000000000000068800600000680C568
:2B318D0000000000000000004200001A000000800300000000000000000000000000000000000068800600002E00E537
:2B31B800020000000000000018000018000000800900000000000000000000000000000000000060000600000608922B
:2B31E30000000000000000000000001800000080010000000000000000000000000000000000006000060000068191AA
:2B320E00000000000000000050000000000000000000000000000000000000000000000000000000010000002080B1F3
:2B32390000000000000000001E000086000000600A00000000000000000000000000000000000018801900800980A4FE
:2B326400000000000000000018000002000000208100000000000000000000000000000000000008800000800080EF0D
:2B328F0002000000000000005C00003C100000400300000000000000000000000000000000000010000100000108F914
:2B32BA0000000000000000001800001A0000002008000000000000000000000000000000000000688006008006808912
:2B32E50000000000000000007800003A080000200000000000000000000000000000000000000068800600800600C5AB
:2B331000000000000000000018000000000000000500000000000000000000000000000000000060000600000600CD3C
:2B333B00000000000000000098000018000000800200000000000000000000000000000000000060000600000680AB9E
:2B3366000200000000000000000000400000000000000000000000000000000000000000000000000100000002088A65
:2B339100020000608000000006080026000000600A0000000000000000000000000000000000009880290080010AD6EF
:2B33BC00020000208000000012080002000000000800000000000000000000000000000000000008800000802008D61A
:2B33E700020000C003000000340000040000004000000000000000000000000000000000000000F0400F04000188F4BE
:2B34120000000020000000000200001A000000000400000000000000000000000000000000000068840E00800000963F
:2B343D0000000020060000000204001A0000000002000000000000000000000000000000000000E8800E00802800946A
:2B346800000000800100000010000018000000000000000000000000000000000000000000000000000000000080F61A
:2B3493001200000000000000680000180000008001000000000000000000000000000000000000600006000000018B09
:2B34BE001A0000800000000008000008000000800000000000000000000000000000000000000020000200000208D7B6
:2B34E900000000000000000000000000000000000000000000000000000000000000000000000000000000000080E751
:2B351400800008000008800000800000800008000008000000000020000220000220000220000200000020000080C57F
:2B353F00800008800008800008800008800008800008000000000020000220000220000220000220000220000280E7FE
:2B356A0000000020000000010000000000000000003000000000000000000000000000000000000000A000004080EB9A
:2B359500000000000000000100000000000000004000000000000000000008000000000800000000000000000480BE78
:2B35C000000000000000000000000000000002000000000000000000000000000000000000000000000080000000C797
:2B35EB00000000000000000000000000000000002000000000000000000000000000000000000000000000008280CFC4
:2B3616000000002000000001000000000000020040200000000000000000080000000008000000000020800044009A78
:2B364100000000000000000000000000000000000000000000000000000000000000000000000000000000000480A337
:2B366C00000000000000000000000000000000000000000000000000000000000000000000000020000000000080C5CE
:2B369700000000000000000000000000000000000000000000000000000000000000000000000000000000000080E7A1
:2B36C200000000000000000000000000000000000000000000000000000000000000000000000000000100000080F666
:2B36ED00000000000000000000010000000000001000000000000000000000000000000000000000000000004080E3FE
:2B371800000000000000000000000000000000002000000000000000000000000000000000000000000000000084A53D
:2B374300000000000000000000000000000000000000000000000000000000000000000000000000000000000080E7F4
:2B376E00000000000000000000000000000000000000000000000000000000000000000000000000000000000080E7C9
:2B379900000000000000000000000000000000000000000000000000000000000000000000000000000000000180F68E
:2B37C400000000004000000000040000000000004000000000000000000000000000000000000000000000000080E3F3
:2B37EF00000000002000000000020000000000000000000000000000000000000000000000000000000000008280CDBE
:2B381A000000000000000000000000000000000000000000000000000000000000000000000000000000000000A0C51E
:2B384500000000000000000000000000040000000000000000000000000000000000000000000000000000000080E3F1
:2B387000000000000000000000000000000000000000000000000000000000000000000000000000000000002080E5A8
:2B389B00000000000000000000000000000000000000000000000000000000000000000000000000000000020480A1DB
:2B38C600000000000000000000000000000000000020020000000000000000000000000000000000000080080200ED3E
:2B38F100000000000000000000000000000000000000000000000000000000000000000000000000000000000080E745
:2B391C00000000000000000000000000000000000000000000000000000000000000000000000000000000000080E719
:2B3947004010044110044110044110044110044110840300000000100441100441100441100441100441108E4380C506
:2B397200601886611886611886611886611886611886050000000018866118866118866118866118866118966580B7E7
:02399D00FFFF2A
:00000001FF
