:020000040000FA
:2B000000FFFF62FF2500FFFFFFFFFFFFFFFFFFFFFFFFFFFFFFFFFFFFFFFFFFFFFFFFFFFFFFFFFFFFFFFFFFFFFFFFFF76
:2B002B006018866118866118866118066F7007771886010000000018866118DC6118866118866118866118866100B330
:2B0056004010044110044110044110844228844210040100000000100441100A4110044110044110044110044100EA79
:2B008100000000000000000000000000000000000000000000000000000000000000000000000000000000000080E7ED
:2B00AC00000000000000000000000000000000000000000000000000000000000000000000000000000000000080E7C2
:2B00D700000000000000000000000000000000000000000000000000000000000000000000000000000000000080E797
:2B010200000000000000000000000000000000000000000000000000000000000000000000000000000000000080E76B
:2B012D00000000000000000000000000000000000000000000000000000000000000000000000000000000000080E740
:2B015800020000000000000000000000000080000000000000000000000000020000002000000000000000000000E5F3
:2B018300000010000000000000000000000000000000000000000000000000000000100000000000000000000080E6CB
:2B01AE000000000000000000000000000000000C0000040000000000000000000000000000000000000000000080EFA7
:2B01D900080080000000000000000000000080000004000000000000002000000000020000000000000000000080AF9E
:2B020400000000000000000000000000000000000080000000000000000004000010400100000000000000000000E713
:2B022F00000000000000000000000000000000000000000000000000000000000000000000000000000000000080E73D
:2B025A00000000000000000000000000000000000000000000000000000000000000000000000000000000000080E712
:2B028500000008000000000000000000000000000000000000000000000000000000000000000000000000000000EF57
:2B02B0000A0000000000000000000000000010000000000000000000000001000000000000000000000000000080EC9C
:2B02DB00000000000000000000000000000000000000000000000000000000000000000000000000000000000080E791
:2B030600000000000000000000000000000000000000000000000000000000000000000000000000000000000080E765
:2B033100000020000000000000000000000000000000000000000000000880000080000800000000000000000080C52C
:2B035C00000000000000000000000000000000000000000000000000000000000000000000000000000000000080E70F
:2B038700000022000200000000200000101022010080000000000000000000040000800800000000000000000000F9BF
:2B03B200020000000000000000000000000000000000000000000000000000000000000000000000000000000008ED29
:2B03DD00000000000000000000000000000000000000000000000000000000000000000000000000000000000080E78E
:2B040800000020000200000000200000101020010000000000000000000000040000000000000000000000000080F1D1
:2B043300000002000000000000000000000002000080000000000000000000000000800C00000000000000000000ABE3
:2B045E00000000000000000000000000000008000008000000000000000002040000000000000000000000000080C31A
:2B048900020000080000000000000000000000000000000000000000000000000080040000000000000000000088E151
:2B04B400800000800008800008800008800000800000000000000020000000000200000220000220000220000200CDAE
:2B04DF00800008800008800008800008800008800008000000000020000220000220000220000220000220000280E78F
:2B050A00000000000000000000000000000000000000000000000000000440000040000000000000000000000080A31F
:2B053500020000000000000000000000000000000000000000000000800558000058000000000000000000000088B02C
:2B056000020000000000000000000000000000000000000000000000800448000048000000000000000000000000A9B1
:2B058B00040000000000000000000000000000000000000000000000000550000050000000000000000000000080B666
:2B05B600020000000000000000000000000000000000000000000000800448000048000000000000000000000000A95B
:2B05E100020000000000000000000000000000000000000000000000800448000048000000000000000000000000A930
:2B060C000200000000000000000000000000000000000000000000000004400400C0000000000000000000000088AD84
:2B063700000000000000000000000000000000000000000000000000000DD10000D0000000000000000000000000A248
:2B066200000000000000000000000000000000000000000000000000000440000040000000000000000000000080A3C6
:2B068D00000000000000000000000000000000000016010000000000800558000058000000000000000000000000CA2C
:2B06B80002000000000000000000000000000000001A0000000000008004480000480000000000000000000000089847
:2B06E30000000000000000000000000000000000003C010000000000000550000050000000000000000000000000C842
:2B070E0000000000000000000000000000000000001A0800000000008004480000480000000000000000000000809A70
:2B07390000000000000000000000000000000000003A000000000000800448000048000000000000000000000080B017
:2B076400000000000000000000000000000000000058000000000000000444100040400000000000000000000000EE4C
:2B078F0002000000000000000000000000000000001C0000000000000005C0000040000000000000000000000008E133
:2B07BA00000000000000000000000000000000000000000000000000000440000040000400000000000000000080E725
:2B07E500000000000000000000000000000000000000000000000000800558000058800500000000000000000080E7C8
:2B081000000000000000000000000000000000000000000000000000800448000048800400000000000000000080E7BE
:2B083B00020000000000000000000000000000000000000000000000000550000050000500000000000000000008EDF1
:2B086600020000000000000000000000000000000000000000000000800448000048800400000000000000000080E568
:2B089100040000000000000000000000000000000000000000000000800448000048800400000000000000000080E33D
:2B08BC000200000000000000000000000000000000000000000000000004401000C0000C00000000000000000080F57A
:2B08E700020000000000000000000000000000000000000000000000000CD10000C0000C00000000000000000080E4D7
:2B091200020040000000000000000000000000040010000000000000000440000080000800000000000000000008BCD4
:2B093D0000001600000000000000000000001600001600000000000080055800001880010000000000000000008096C1
:2B09680000001800000000000000000000001A010012000000000000800448000000002000000000000000000080F5BE
:2B09930000001C01000000000000000000001C0000140000000000000005500000B0020100000000000000000000974D
:2B09BE0002001800000000000000000000001A080012000000000000800448000000000000000000000000000008F4F8
:2B09E90002005800000000000000000000003A00001200000000000080044800000008800000000000000000008092D7
:2B0A140004001800000000000000000000001800003000000000000000044404000000000000000000000000008094F3
:2B0A3F0002007800000000000000000000007C0000100000000000000004C000000040020400000000000000000096E6
:2B0A6A0002002000000000000000000000000000001000000000000000088000004000080000000000000000000092CD
:2B0A9500020006000000000000000000000036100016000000000000800118000058800100000000000000000008FB5D
:2B0AC00000005000000000000000000000001A100012000000000000000000020048001000000000000000000080E5C0
:2B0AEB0000002400000000000000000000003C000014000000000000002930000050000900000000000000000000CBEF
:2B0B160000000000000000000000000000001A080012000000000000000000000048000000000000000000000080AB0D
:2B0B410002000002000000000000000000003A0000120000000000000080000800480080000000000000000000088160
:2B0B6C00020000000000000000000000000058000010040000000000000000000040000000000000000000000000E9C7
:2B0B970004000010000000000000000000003C0000300000000000000002044000C0100204000000000000000080AF68
:2B0BC200020020000000000000000000000000000000010000000000000800000000000800000000000000000080C68F
:2B0BED000200060000000000000000000000000000360000000000008001D80400D8A00100000000000000000080F257
:2B0C180002000000000000000000000000000000001A100000000000002060010060010000000000000000000088C655
:2B0C430000000410000000000000000000000000001C0000000000000009700000F0001900000000000000000080EF65
:2B0C6E0000000000000000000000000000000000001A080000000000000060000060000000000000000000000000D6A3
:2B0C990000000002000000000000000000000000003A000000000000008060040060048000000000000000000000FE2E
:2B0CC400020018000000000000000000000000000018000000000000000060000060020000000000000000000008EF1A
:2B0CEF0000000000000000000000000000000000009C0000000000000002E40200E0000204000000000000000080BC34
:2B0D1A00000010000000000000000000000010000010000000000000000080000080000400000000000000000080B248
:2B0D450000001600000000000000000000001600001600000000000080151800001880050000000000000000008097E0
:2B0D7000000012000000000000000000000012000012000000000000000600020000820400000000000000000000FC98
:2B0D9B000200140000000000000000000000140000140000000000000007B2000030000500000000000000000088BEBB
:2B0DC600000012000000000000000000000012000012000000000000000600000000800400000000000000000000FC46
:2B0DF100000012000000000000000000000012000012000000000000004600080000880400000000000000000000F8CF
:2B0E1C00000010000000000000000000000010000010020000000000002600000000000401000000000000000080C40A
:2B0E4700020034040000000000000000000030040010000000000000000600400000400C000000000000000000889E4A
:2B0E7200020010000000000000000000000010000020000000000000001000400080000400000000000000000000C27D
:2B0E9D000400160000000000000000000000160000360000000000008005D8000018800500000000000000000000F4D6
:2B0EC80002001200000000000000000000001200001A000000000000000662010000810400000000000000000080B0A1
:2B0EF30002001400000000000000000000001400003C100000000000000FF0000030000500000000000000000000E842
:2B0F1E0002001200000000000000000000001200005A000000000000000660000000800400000000000000000008DC5A
:2B0F490000001200000000000000000000001200003A000000000000004660020000880400000000000000000080BEAD
:2B0F7400000010000000000000000000000010040018080000000000000660000000004400000000000000000000B2B2
:2B0F9F0000003004000000000000000000003000003C000000000000002660040000400C000000000000000000809A97
:2B0FCA00000000000000000000000000000000020000020000000000000000000000040000000000000000000080E391
:2B0FF500000020010000000000000000000020000020000000000000004880100000000002000000000000000080F026
:2B102000800000800008800008800008800000800000000000000020000000000200000020000220000220000200EF16
:2B104B00800008800008800008800008800008800008000000000020000220000220000220000220000220000280E717
:2B107600000000000000000000000000000000A80080000000000000001110040000342C00000000000000000000B0F2
:2B10A100000000000002000222000002000000000000000000000000000000000000000000000080800080800080C7B5
:2B10CC00000000000000000000000000000000000000000000000000000000000000000000000000010000000080E692
:2B10F700000000020000000000000000000000000000000000000000000000000000000000000000000000000080E567
:2B112200000000000002000222000002000000280080000000000000001110040000242800000080810080800080CD13
:2B114D00000004100000000000000000000000000018000000000000000314420030400104000000000000000000ACD1
:2B117800000000000000000000000000000000000000000000000000000000000000000000000000000000000080E7E5
:2B11A300000000000000000000000000000000000000000000000000000000000000000000000000000000000080E7BA
:2B11CE0000000000000000000000000000000000002400000000000000002000000000020000000000000000008085AB
:2B11F9001800000200000000000000000000000000000800000000000004600000400080000000000000000000809B6A
:2B122400020000000000000000000000000000000000100000000000008040000040000000000000000000000080FD10
:2B124F00000000000000000000000000000000000000000000000000000000000000000000000000000000000080E70D
:2B127A00000000000000000000000000000000010000000000000000000000000000000000000000000000000080E6E2
:2B12A500000000000000000000000000000000080000000000000000000000000000000000000000000000000080EFA7
:2B12D000080000000000000000000000000000000000000000000000000000000000000000000000000000000080EF7C
:2B12FB00000000000000000000000000000000000000000000000000008000000000000000000000000000000080EFD9
:2B132600000000000000000000000000000040000040000000000000000000200000000000000000000000000080C7B5
:2B135100100000000000000000000000000000000000000000000000000000000000000000000000000000000080F7EA
:2B137C00000000000000000000000000000000000008000000000000000000000000000000000000000000000000EF4F
:2B13A700000000000000000000000000000000000000000000000000000000000000000000000000000000000080E7B4
:2B13D200000000000000020000000000020000000000000000000000000000000000000000008000000000000080EFFD
:2B13FD00000000000000000000000000000000000000000000000000000000000000000000000000000000000080E75E
:2B142800000000000000000000000000000000000000000000000000000000000000000000000000000000000080E732
:2B145300000000000000000004000000001000000000000000000000000000000000000000002000000000000080A416
:2B147E00000000000000000000100000000000000000000000000000000000000000000110400004000000000080F767
:2B14A900000000000000000000000000000000000000000000000000000000000000000000000000000000000080E7B1
:2B14D400000000000000000000000000000000000000000000000000000000000000000000000000000000000080E786
:2B14FF00000000000000040008800000000000000000000000000000000000000000000000000000000000000080E3D3
:2B152A00000000000000000000000000000000000000000000000000000000000000000000000000000000000080E72F
:2B155500000000000000000000000000000000000000000000000000000000000000000000000000000000000080E704
:2B158000000000000000000000000000000000000000000000000000000000000000000000000000000000000080E7D9
:2B15AB00000200000200000000000020000000000000000000000000000000000000000080000000000000000000C5AC
:2B15D600000000000000000100000000000000000000000000000000000000000400000000000000000000000080B2B3
:2B160100000000000200000000000000101000010000000000000000000000040000000000000000000000000080D146
:2B162C00020000000000000000800000000000000000000000000000000000000000000000000000000000000088E5A4
:2B165700000000000000000000000000000010000000000000000000000000000000000000000000000000000080F6E2
:2B168200000000000200000000000000101000010000000000000000000000040000000000000000000000000080D1C5
:2B16AD00000000000000000000800000000010000000000000000000000000000000000000000000000000000000FE84
:2B16D800000000000000000000000000020000000000000000000000000000000000000000000000000000000080E580
:2B170300020000000000000000088020000000000000000000000000000000000000000000000000000000000008CF3A
:2B172E00800008800008800000000000800008800008000000000020000220000220000220000220000220000200EF35
:2B175900800008800008800008800008800008800008000000000020000220000220000220000220000220000280E702
:2B178400000000000000000010000000000000000000000000000000000000000000000000000000000000000080F6B4
:2B17AF000200000000000000160000000000000000000000000000000000000000000000000000000000000000089C53
:2B17DA00000000000000000012000000000000000000000000000000000000000000000000000000000000000080D67C
:2B180500000000000000000014000000000000000000000000000000000000000000000000000000000000000080B66E
:2B183000000000000000000012000000000000000000000000000000000000000000000000000000000000000080D625
:2B185B00000000000000000012000000000000000000000000000000000000000000000000000000000000000080D6FA
:2B188600020000000000000030000000000000000000000000000000000000000000000000000000000000000008DE1F
:2B18B100000000000000000014000000000000000000000000000000000000000000000000000000000000000080B6C2
:2B18DC00000000000000000010000020000000000000000000000000000000000000000000000000000000000080D45D
:2B190700000000000000000016000006000000000000000000000000000000000000000000000000000000000080F623
:2B193200020000000000000012000090000000000000000000000000000000000000000000000000000000000088CD91
:2B195D00000000000000000014000004000000000000000000000000000000000000000000000000000000000080F6D1
:2B198800000000000000000012000000000000000000000000000000000000000000000000000000000000000080D6CC
:2B19B300000000000000000012000000020000000000000000000000000000000000000000000000000000000080D4A1
:2B19DE00000000000000000010100000000000000000000000000000000000000000000000000000000000000080E658
:2B1A0900020000000000000014000000100000000000000000000000000000000000000000000000000000000008ACD8
:2B1A3400000000000000000010000110000000000000000000000000000000000000000040000000000000000080B2F4
:2B1A5F00000000000000000016600116000000000000000000000000000000000000000058000000000000000000CBAC
:2B1A8A000000000000000000122001120000000000000000000000000000000000000000480000000000000000009A0A
:2B1AB500020000000000000014400114000000000000000000000000000000000000000050000000000000000008E95A
:2B1AE0000000000000000000122001120000000000000000000000000000000000000000480000000000000000009AB4
:2B1B0B000000000000000000122001120000000000000000000000000000000000000000480000000000000000009A88
:2B1B3600000000000000000030000110080000000000000000000000000000000000000040400000000000000080D863
:2B1B6100000000000000000010401110000000000000000000000000000000000000000040000000000000000080F335
:2B1B8C00020000000000000010000100000000000000000000000000000000000000000040000000000000000008A92A
:2B1BB7000000000000000000166001B6608300000000000000000000000000000000000058000000000000000080B269
:2B1BE200000000000000000012200118000400000000000000000000000000000000000048000000000000000080F6CB
:2B1C0D0000000000000000001440017C400300000000000000000000000000000000000050000000000000000000FE4A
:2B1C3800020000000000000012200118102000000000000000000000000000000000000048000000000000000008AA0A
:2B1C6300000000000000000012200118000100000000000000000000000000000000000048000000000000000080A39F
:2B1C8E00000000000000000010101118808100000000000000000000000000000000000040080000000000000080B267
:2B1CB900000000000000000010400318880300000000000000000000000000000000000040000000000000000080EB5F
:2B1CE4000000000000000000000000100000000000000000000000000000000004020000400004000000000000809269
:2B1D0F00020000000000000036682116000000000000000000000000000000800900000058800500000000000008ADB7
:2B1D3A000000000000000000808005120000000000000000000000000000000000010000488004000000000000809B7F
:2B1D6500000000000000000034C00314000000000000000000000000000000000900000050000500000000000080AFBB
:2B1D90000000000000000000008101120000000000000000000000000000000000040000488004000000000000008E36
:2B1DBB0002000000000000001080051200000000000000000000000000000000080000004880040000000000000890E8
:2B1DE6000000000000000000188803100000000000000000000000000000000040000000C0000400000000000000D843
:2B1E11000000000000000000388003341000000000000000000000000000000000000000C0000C0100000000008094C6
:2B1E3C00000000000000000000000110000100000000000000000000000400000000000080000000000000000000B233
:2B1E67000000000000000000366801166001000000000000000000008005000000000000180000000000000000808994
:2B1E9200020000000000000000200112200100000000000000000000800400000000000040000000000000000088D4AF
:2B1EBD000000000000000000B44001144001000000000000000000000005000000000000100200000000000000008316
:2B1EE8000000000000000000002101122001000000000000000000008004000000000000000000000000000000009B5B
:2B1F1300000000000000000030200112200100000000000000000000800400000000000000080000000000000000A1F2
:2B1F3E00020000000000000018081110080100000000000000000000000400000000000000000000000000000088A000
:2B1F69000000000000000000380003140013000000000000000000000044000000000000004000000000000000008CDB
:2B1F9400000000000000000000080000000100000000000000000000000000000000000080000400000000000000BADB
:2B1FBF0000000000000000001660093668010000000000000000000000000000000000001880050000000000000089B3
:2B1FEA00000000000000000058000040200100000000000000000000000000000000000040820400000000000080C508
:2B20150002000000000000001C4083144001000000000000000000000000000000000000100005000000000000888B42
:2B2040000000000000000000380080202001000000000000000000000000000000000000008004000000000000808BED
:2B206B00000000000000000038000330200100000000000000000000000000000000000000880400000000000080A909
:2B209600000000000000000098800118080100000000000000000000000000000000000000000404000000000080E37A
:2B20C100020000000000000018802338004100000000000000000000000000000000000000400400000000000088E70B
:2B20EC00000200800310008000000000000000000000000000000040000040000040000480000400000000000080A349
:2B211700600000600016600216618336688300000000000000000058000058000058800518800500000000000080BBE5
:2B214200000000000012004018000800000000000000000000000048000048000048800440810400000000000000C21D
:2B216D0040000140001540025C400154400500000000000000000050000050000050000510000500000000000000DC53
:2B219800820100000012000139000000040000000000000000000048000048000048800400800400000000000088B72A
:2B21C3000020000020120002380043100043000000000000000000480000480000488004008804000000000000809ACD
:2B21EE00000000000010081018808118888100000000000000000040040040000040000C0000040200000000000097F7
:2B2219000000000000100000988003388003000000000000000000C00000C04000C0040C00400400000000000000944C
:2B224400000000000000000000000000010000000000000000000000000000000000000000040000000000000080E208
:2B226F00000000000020080020011220008000000000000000000080200882200080200882000802000000000000E7E4
:2B229A00800008800000800000000000000008800008000000000000000000000200000000000020000220000200CDEE
:2B22C500800008800008800008800008800008800008000000000020000220000220000220000220000220000280E78B
:2B22F00020000020000200013000000800000000000000000000001000401000001200011004D104000000000000806C
:2B231B00000000000004000000000000000000000000000000000000000000000000000000000000000000000080A76C
:2B234600000080000000000100000010000000000000000000000000000000000000000000000000011000000100F6D3
:2B237100000000000000000008800008800000000000000000000000000000000000000000000000000004044080A7C2
:2B239C002000802000060000200000000000000000000000000000100040100000120001100451040110040441009169
:2B23C700400001400001000000000004100000000000000000000000000000000000000010400000000000000080E69F
:2B23F200000000000000008010000008000000000000000000000000000000000002000020000000000000000000F412
:2B241D00000000000000000000000400000800000000000000000000000000000000000000000000000000000000A3E5
:2B2448000000000000000008008200040100000000000000000000200000000020000000800000000000000000008C8E
:2B247300000000000000000000044000064000000000000000000000000000000000000000000000000000000080E54F
:2B249E00000000000000000000044000044000000000000000000000000000000000000000000000000000000080E724
:2B24C9000000000000000000000001000800000000000000000000000004002000000000000000000000000000809AA1
:2B24F400000000000000000008000000000200000000000000000000000000000000000000000000000000000000CDE6
:2B251F00000000000000000010000000000000000000000000000000000000000000000000000000000000000080F60B
:2B254A00000000000000004000000000000000000000000000000000000000000001000000000000000000000080F3B2
:2B257500000000000000000000022000002000000000000000000000100001100000100001000001000000000080E561
:2B25A000000000000000000004400040100000000000000000000000000000000000000000000000000000000080B349
:2B25CB00000000000000000000000A00800000000000000000000000000000000020000000000000000000000080EFCC
:2B25F600000000000000000000000000000000000000000000000000000000000000000000000000000000000080E753
:2B262100000000000000000000000000000000000000000000000000000000000000000000000000000000000080E727
:2B264C00100000000000000000000000000000000000000000000000000000000000000000000000000000000080F7DC
:2B267700000000000000000000000000000000000000000000000000000000000000000000000000000000000080E7D1
:2B26A200000200000000000000000000000000004000000000000000000000000000000000000000000000000080C18A
:2B26CD00000000000000000000000000000000000000000000000000000000000000000000000000000000000080E77B
:2B26F800000000000000000000000000000000000000000000000000000000000000000000000000000000000080E750
:2B272300000000000000000000000000000000001000000000000000000000000000000000000000000000000080E615
:2B274E00020000000000000000000000000000000000000000000000000000000000000000000000000000000080E5F9
:2B277900000000000000000000004000004000800000000000000000000000000000000000000000000000000000EF46
:2B27A400920000000000000000000000000000000000000000000000000000000000000000000000000000000000FD7B
:2B27CF00000000000000000000000000000000000000000000000000000000000000000000000000000000000080E778
:2B27FA00000000000000000000000000000000000000000000000000000000000000000000000000000000000080E74D
:2B282500000220000000000000000000000000000400000000000080000080000800000000000000000080000080A3B7
:2B285000000000000110000100000000000000000000000000000000000000000000000000000040000400000480B2D1
:2B287B002000300003000008000000000000000000000800000000000000004000000000000000000000000000008F00
:2B28A600020000000000000000000000000000000000000000000000000000000000000000000000000000000008ED10
:2B28D100020000000000000000000000000000000000000000000000000000000000000000000000000000000080E575
:2B28FC00040010000100000000000000000000000000000000000000000000000000000000000000000000000080E339
:2B2927002200200002000008000000000000000000000C00000000000000005000000000000000000000000000009944
:2B295200820000000000000000000000000000800000000000000000200000040002000000000000000000000080E1D1
:2B297D00020000000000000000000000000000000000000000000000000080000000000000000000000000000088ED38
:2B29A800000008800008800008800008800008000008000000000000000200000020000220000220000220000280C505
:2B29D300800008800008800008800008800008800008000000000020000220000220000220000220000220000280E776
:2B29FE00000000000000000000000000000000000000000000000000000000000000000000000000000000000080E747
:2B2A2900020000000000000000000000000000000000000000000000000000801D00000000000000000000000008B12A
:2B2A54000000000000000000000000000000000000000000000000000000000016000000000000000000000000808041
:2B2A7F00000000000000000000000000000000000000000000000000000000000F00000000000000000000000000908D
:2B2AAA00000000000000000000000000000000000000000000000000000000000604000000000000000000000080C1B6
:2B2AD50000000000000000000000000000000000000000000000000000000000060000000000000000000000008081CF
:2B2B00000200000000000000000000000000000000000000000000000000000006000000000000000000000000088B0F
:2B2B2B00000000000000000000000000000000000000000000000000000000000E02000000000000000000000000A1CE
:2B2B5600000000000000000100000000000000000000000000000000000000000000000000000000000000000080F6DD
:2B2B8100000000000000600100000000000000604100000000000000000000000000000000000000000000000080E3C4
:2B2BAC00020000000000200100000000000000A00500000000000000000000000000000000000000000000000088A10D
:2B2BD700000000000000400100000000000000C00300000000000000000000000000000000000000000000000000CD02
:2B2C0200000000000000200100000000000000A08100000000000000000000000000000000000000000000000000E77E
:2B2C2D00000000000000200100000000000000A00300000000000000000000000000000000000000000000000000CDEB
:2B2C5800000000000000000100000000000000804100000000000000000000000000000000000000000000000000EBA4
:2B2C8300020000000000001300000000000000C001000000000000000000000000000000000000000000000000888642
:2B2CAE00000020008000000000000000000000000200000000000000000000000400000000000000000000000080AB2A
:2B2CD900000006600200000000000000000000600000000000000000000000800500000000000000000000000000F88B
:2B2D0400000000004000000000000000000000000100000000000000000000800400000000000000000000000000BE21
:2B2D2F00020004500200000000000000000000400201000000000000000000000500000000000000000000000008F8D9
:2B2D5A00020000000001000000000000000000000000000000000000000000800400000000000000000000000000B90E
:2B2D8500040000020200000000000000000000002200000000000000000000800400000000000000000000000000AFC6
:2B2DB000020000001100000000000000000000000000000000000000000000000400000000000000000000000080B1B0
:2B2DDB00020018000000000000000000000000000001000000000000000000000D04000000000000000000000080F928
:2B2E0600020200000000000000000000000000000200000000000000000040000400000000000000000000000008ED62
:2B2E3100600300000000000000000000000000600000000000000000000058800500000000000000000000000080D482
:2B2E5C00A00100000000000000000000000000000100000000000000000048800400000000000000000000000000CF0E
:2B2E8700C00700000000000000000000000000404200000000000000000050000500000000000000000000000000BEC4
:2B2EB200A22100000000000000000000000000000000000000000000000048800400000000000000000000000088D608
:2B2EDD00A00100000000000000000000000000002200000000000000000048800400000000000000000000000000FE3D
:2B2F0800801100000000000000000000000000000000000000000000000040000400000000000000000000000000FFCA
:2B2F3300C003000000000000000000000000000000010000000000000000C0040C04000000000000000000000000C813
:2B2F5E00000000000000000000000000000000000100000000000040000040000400000000000000000000000080B291
:2B2F8900020000000000000000000000000000600100000000000058000058800500000000000000000000000088C13C
:2B2FB4000000000000000000000000000000002001000000000000480000488004000000000000000000000000009A23
:2B2FDF00000000000000000000000000000000400100000000000050000050000500000000000000000000000080E37E
:2B300A000000000000000000000000000000002001000000000000480000488004000000000000000000000000009ACC
:2B3035000200000000000000000000000000002001000000000000480000488004000000000000000000000000889021
:2B306000000000000000000000000000000000000100000000000040000040000400000000000000000000000080B28E
:2B308B000000000000000000000000000000000011000000000000500400D0044400000000000000000000000000B7E6
:2B30B600000200000000000100000000000000000800000000000040000080000800000000000400000000000000D444
:2B30E1006000000000006001000000000000006001000000000000580000188001000000008005000000000000808725
:2B310C0002050000000020010000000000000080010000000000004800000001100000000080040000000000008890FA
:2B313700400200000000400100000000000000C08300000000000050000030000300000000000500000000000000A778
:2B316200000000000000200100000000000000800300000000000048000000000000000000800400000000000000EDE5
:2B318D00002000000000200100000000000000800300000000000048000000088000000000800400000000000000EF10
:2B31B800024000000000000100000000000000800500000000000040000000000000000000000400000000000088A5B3
:2B31E300000000000000000301000000000000800100000000000040040000400004000000004C00000000000080DD0B
:2B320E00000100000000000100000100000000000000000000000080000080000800000000000000200080000080D694
:2B3239006001000000006001006001000000006009000000000000180000188001000000000000D8000018000000BA83
:2B326400200100000000200100200100000000800100000000000000010080000000000000000000100000000080DE6C
:2B328F00420100000000400100400100000000C02100000000000010000090002300000000000090000070400088F0F3
:2B32BA00200100000000200100200100000000800300000000000000000000000000000000000000400000000000AD16
:2B32E500200100000000200100200100000000800300000000000000080000088000000000000080000000080080ED53
:2B331000000100000000000100000100000000801100000000000000000000000000000000000000040000000000EA10
:2B333B0002130000000000110000130000000080030000000000002040002040000400000000000000000000008886D9
:2B336600020000000000088010000010000100002000000000000000010400010800000000000000000002000002B2AD
:2B3391006405000000266002160000166001006001000000000000D88005D88001000000000000008009008009809258
:2B33BC00820100000010044012000012200100A00100000000000060880460002000000000000000000001000001A318
:2B33E700C24100000024400214000014400100C00500000000000070000570010100000000000000000900000D80F5B2
:2B341200820101000000100013000012200100A08100000000000060C0046040000000000000000000000400008CA898
:2B343D00800100000020000212000012200100A00300000000000060800460008000000000000000000C00000800D42D
:2B346800800100000000011010000010000100800101000000000060000460000000000000000000004000004080A29E
:2B349300800101000000000130100010010301C00100000000000060010C64020204000000000000000000000000D3C9
:2B34BE00008000000000000000080000080000000000000000000000000000004000000000000002000000000080CBC6
:2B34E900000000000000000600008200008200001200000000000080100881100800000000000000000000000080B239
:2B351400000008800008000000000000000008000008000000000000000000000020000220000020000220000200CD99
:2B353F00800008800008800008800008800008800008000000000020000220000220000220000220000220000280E7FE
:2B356A000000000000020002120C02020000302000000000000000280014100A0000000000002080800080800000BF8B
:2B359500000000000000000010200020200000000000000000000000000000000000000000000040000040000080D4C7
:2B35C000000080000000000000000000000000000000000000000000000000000000000000000000001000000100F758
:2B35EB00000000000008000000000000000000000000000000000000000000000000000000000000000204044200AFB2
:2B3616000000800000020002122802222000202000000000000000080010100200000000000020C08010C4844180B6EE
:2B364100400004100000000000000000000000400801000000000010422010420104000000000000000010400000A503
:2B366C00001000008000088000000000000000000000000000000000000000000000000000000000200002000082CEA9
:2B369700000000000000000000000000000000000000000000000000000000000000000000000000000000000080E7A1
:2B36C200400000000880000800000000000000000000000000000000000000000000000000000000022000002000A526
:2B36ED0000100100000000000000000000000000C000000000000000000000000001000000000000000000000080EA76
:2B371800022000000000000000020000020000000001000000000080480020408204000000008000000000000000BF72
:2B374300000000000000008100080010008000000100000000000040000002000402000000000000000000000080FE7B
:2B376E00000000000000000000000000000000000000000000000000000000000000000000000000000000000080E7C9
:2B379900000000000000000000000000000000000000000000000000000000000000000000000000000000000080E79E
:2B37C400000000004000044000000000000000000200000000000000000000000000000000000000100001000081D1F1
:2B37EF00000000000000000000000000000000000200000000000000000000000000000000000000000000000080C568
:2B381A00000001000000000000000000000000C01000000000000000000010000000000000000000000000000000AFF3
:2B384500800000000000800000800000000000000000000000000000000020000000000000000200000000000000EFC7
:2B387000000000000000000000000000000000000000000000000000000000000000000000000000000000000080E7C6
:2B389B00000000000000000000000000000000000000000000000000000000000000000000000000000000000080E79B
:2B38C600000000000000000000000000000000000000000000000000000000000000000000000000000000000080E770
:2B38F100000000000000000000000000000000000000000000000000000000000000000000000000000000000080E745
:2B391C00000000000000000000000000000000000000000000000000000000000000000000000000000000000080E719
:2B39470040100441100441100441100441100441100401000000001004411004411004411004412884A2108AA200D2A7
:2B3972006018866118866118866118866118866118860100000000188661188661188661188661F006CF1B5CD705B26A
:02399D00FFFF2A
:00000001FF
