:020000040000FA
:2B000000FFFF62FF2500FFFFFFFFFFFFFFFFFFFFFFFFFFFFFFFFFFFFFFFFFFFFFFFFFFFFFFFFFFFFFFFFFFFFFFFFFF76
:2B002B00601886611886611886611986611886611886010000000018866118866118866118866118866118866180F63F
:2B005600401004411004411004E11004411004411004010000000010044110044110044110044110044110044100CF14
:2B008100000000000000000000000000000000000000000000000000000000000000000000000000000000000080E7ED
:2B00AC00000000000000000000000000000000000000000000000000000000000000000000000000000000000080E7C2
:2B00D700000000000000000000800000000000000000000000000000000000000000000000000000000000000000EF8F
:2B010200000000000000000000800000000000000000000000000000000000000000000000000000000000000000EF63
:2B012D00000000000000000000000000000000000000000000000000000000000000000000000000000000000080E740
:2B015800000000000000000000000000000000000000000000000000000000000000000000000000000000000080E715
:2B018300000000000000000000000000000000000000000000000000000000000000000000001000000000000080E6DB
:2B01AE00000000000000000000000000000000000000000000000000000000000000000000000000000000000080E7BF
:2B01D900000000000000000040000000000000000000000000000000000000000000000000000000000000000080A398
:2B020400000000000000000000000000000000000000000000000000000000000000000000000000000000000080E768
:2B022F00000000000000000000000000000000000000000000000000000000000000000000400000000000000080A73D
:2B025A00000000000000000000000000000000000000000000000000000000000000000000000100000000000080F602
:2B028500000000000000000000000008000000000000000000000000000000000000000000000000000000000000EF57
:2B02B000000000000000000000000000000000000000000000000000000000000000000000000000000000000080E7BC
:2B02DB00000000080000000000000000000000000000000000000000000000000000000000000000000000000080EF81
:2B030600000000000000000000000000000000000000000000000000000000000000000000000000000000000080E765
:2B033100000000000000000000000000000000000000000000000000000000000000000000000000000000000080E73A
:2B035C00000000000020000200000000000020000200000000000080000800000000000000000080000000000000E743
:2B038700000440000200000000000000000000000000000000000000000000000000000010000100000000800000CDA7
:2B03B200020000000000000000000000000000000000000000000000000000000000000000000000000000000008ED29
:2B03DD00000000000000000000000000000000000000000000000000000000000000000000000000000000000080E78E
:2B040800000000000000000000000000000000000000000000000000000000000000000000000000000000800000EF5A
:2B043300000550000200000000000000000000000000000000000000000000000000000010000100000000000080C5F1
:2B045E00008000080000000000080000080000000000000000000000000000000000000000044000000000000080E730
:2B048900020000000000000000000000000000000000000000000000000000000000000080000800000000000008EDC9
:2B04B400000000800008800000800000800008800008000000000020000220000220000200000020000220000280E774
:2B04DF00800008800008800008800008800008800008000000000020000220000220000220000220000220000280E78F
:2B050A00000000000000000000000000000000000000000000000000000000000000000000000000000000000080E75F
:2B0535000200000000000000000000000000000000000000000000000000000000000000F8C00F04000000000008EDD9
:2B056000000000000000000000000000000000000000000000000000000000000000000008C00000000000000080A781
:2B058B000000000000000000000000000000000000000000000000000000000000000000F0008F00000000000080EF57
:2B05B600000000000000000000000000000000000000000000000000000000000000000008822000000000000080E709
:2B05E100000000000000000000000000000000000000000000000000000000000000000008800000000000000080E700
:2B060C00020000000000000000000000000000000000000000000000000000000000000060000600000000000008ED66
:2B063700000000000000000000000000000000000000000000000000000000000000000070000700000000000080E7BA
:2B066200000000000000000000000000000000000000000000000000000000000000000000000000000000000080E706
:2B068D000000000000000000000000000000000000000000000000000000000000000000F8C00F04000000000080E710
:2B06B800020000000000000000000000000000000000000000000000000000000000000008800000000000000008ED98
:2B06E300000000000000000000000000000000000000000000000000000000000000000070204F00000000000000C34A
:2B070E00000000000000000000000000000000000000000000000000000000000000000008801000000000000080E6C2
:2B073900000000000000000000000000000000000000000000000000000000000000000008810800000000000000E61E
:2B076400000000000000000000000000000000000000000000000000000000000000000060000600000000000080E79D
:2B078F00020000000000000000000000000000000000000000000000000000000000000070000700000000000008EDD1
:2B07BA00000010000000000000000000000000000000000000000000000000000000000040000400000000000080F64A
:2B07E500000016E08100000000000000000000000000000000000000000000000000000058800500000000000000E7AE
:2B081000000010202000000000000000000000000000000000000000000000000000000040000400000000000080D4D5
:2B083B00020014C00300000000000000000000000000000000000000000000000000000050000500000000000088C715
:2B086600000010200800000000000000000000000000000000000000000000000000000040000400000000000000D615
:2B089100000010200000000000000000000000000000000000000000000000000000000040000400000000000080D672
:2B08BC00000050800100000000000000000000000000000000000000000000000000000040010400000000000000AA51
:2B08E700000030800100000000000000000000000000000000000000000000000000000040001400000000000000CC15
:2B091200020100000000000010000010000000000000000000000000000000000000000000000000000000000008FC93
:2B093D006001000000000000160000160000000000000000000000000000000000000000F8A00F020000000000809643
:2B096800000100000000000010000010000000000000000000000000000000000000000008800000000000000080F645
:2B0993004001000000000000140000140000000000000000000000000000000000000000F0022F00000000000080B679
:2B09BE00020100000000000010000010000000000000000000000000000000000000000008840800000000000088F8D7
:2B09E900000100000000000010000010000000000000000000000000000000000000000008800800000000000000F63C
:2B0A1400000500000000000010010010000000000000000000000000000000000000000060000600000000000080B3F8
:2B0A3F00000300000000000010000030010000000000000000000000000000000000000060000600000000000080F76B
:2B0A6A00000110000000000000080010000000020000000000000000000000000000000000000400080000000080B0FA
:2B0A9500620116E0810000003E0000160000060000000000000000000000000000000000F8A00518000000000008CD78
:2B0AC0000001102080000000420000100000380000000000000000000000000000000000080204E0000000000000A939
:2B0AEB00400114C0030000003C00001400001C0000000000000000000000000000000000F0000570000000000080BABD
:2B0B160000011020040000000200001000001800000000000000000000000000000000000800046000000000008081E8
:2B0B41000201102000000000820000100000180000000000000000000000000000000000084004600000000000888FE9
:2B0B6C00000110800100000018000050000018000000000000000000000000000000000060000460000000000000EF99
:2B0B9700004330880100000018000030000018000000000000000000000000000000000060002C6000000000008087E4
:2B0BC200000110000000000010000010000000022000000000000000000000000000000040000000080000000080AB42
:2B0BED00600116000000000016000016000006600000000000000000000000000000000058800F1A000000000080FC57
:2B0C18000201100000000000100000100000388003000000000000000000000000000000408020E0000000000008C536
:2B0C430040011400000000001400001400001CC00100000000000000000000000000000050000F70000000000000B2AB
:2B0C6E00000110000000000010000010000018800100000000000000000000000000000040800062000000000000ED82
:2B0C9900000110000000000010000010000018800100000000000000000000000000000040800060000000000000CD79
:2B0CC400020110000000000050000010000018800100000000000000000000000000000040000660000000000008ED5E
:2B0CEF00000770000000000010000070000018800100000000000000000000000000000040020660000000000080C75B
:2B0D1A0000022000000000002000000008001000010000000000000000000000000000004000044000000000008089C6
:2B0D4500E0033EE0810000003E00003E000016600100000000000000000000000000000058800558000000000080CB8E
:2B0D7000200002200000000002000002000010000100000000000000000000000000000040000440000000000080837A
:2B0D9B00C2033DD0430000003C02007C000014400100000000000000000000000000000050000550000000000088815B
:2B0DC600200002200400000002000002000010000100000000000000000000000000000040000440000000000080C7DC
:2B0DF100200442200200000042000082000010000100000000000000000000000000000040000440000000000000E511
:2B0E1C00800118800100000018000018000050000100000000000000000000000000000040000440010000000000FF8C
:2B0E4700C2011C80010000001C0000180000100005000000000000000000000000000000C0022440000000000008B4F5
:2B0E7200008000080000022010002020000010002000000000000000088000000000000040000440000000000080811E
:2B0E9D00E0033E00001EE00116E0033E000016E00100000000000078800700000000000058800558000000000080C365
:2B0EC800200442000018800110204002000010800100000000000060000600000000000040000440000000000000BE55
:2B0EF300C0033C00007CC00714C0031C010014C007000000000000F0011F00000000000050000550000000000000AE60
:2B0F1E00220442000020000210200042000010000200000000000080000800000000000040000440000000000008CFB7
:2B0F4900200002000000000010200602000010000000000000000000000000000000000040000440000000000080C54A
:2B0F7400800118000000000050800118000010000000000000000000000000000000000040022440000000000080E7B3
:2B0F9F0080011800000000003080011C0000500000000000000000000000000000000000C0000C400100000000808460
:2B0FCA00000000000000000000000000100000000000000000000000000000000000000000200002000000000080F753
:2B0FF500001000010001000000010001000000000000000000000000000000000000000080000800000000000080E6CF
:2B102000000000000008800000000000800008800008000000000020000220000220000200000020000220000280E7FC
:2B104B00800008800008800008800008800008800008000000000020000220000220000220000220000220000280E717
:2B107600000032A08200000034283300000022200200000000000008800000000000000020004788000000000000C4ED
:2B10A100000000000000000010000000000010000100000000000000000000000000000040000441000000802880A8AE
:2B10CC00000000000000000000000000000000000000000000000000000000000000000000000000000000000080E792
:2B10F700000000800000000000000000000008800000000000000020000200000000000020000020000000000000EF75
:2B1122000000222082000000342812000000322003000000000000088000000000000000400045C9000000802880D449
:2B114D00000000000004400000000000000004400000000000000010000100000000000000000210000000000080D478
:2B117800400004000000000004000004000000000000000000000000000000000000000040000000000000000080A39D
:2B11A300008000000000000000000000000000000000000000000000000000000000000000000000000000000080EF32
:2B11CE00000000000000000000000000000000000000000000000000000000000000000000000000000000000080E78F
:2B11F900000910040000000010000000000000000000000000000000000000000000000000300003000000000000F279
:2B122400006000060400000010060800160000000000000000000000000000000000000020100201000000000000A22C
:2B124F00000000000000000000000000000000000000000000000000000000000000000000000000000000000080E70D
:2B127A00000000000000000000000000000000000000000000000000000000000000000000000000000000000080E7E2
:2B12A500000000000000000000000010000000000000000000000000000000000000000000000000000000000080F698
:2B12D000000000000000000000000000000000000000000000000000000000000000000000000000000000000080E78C
:2B12FB00000000002801000000000001000000000000000000000000000000000000000000080000000000000000EDA9
:2B1326000000000040000000000004000000000000000000000000000000000000000000002000000000000000808731
:2B135100000000000000000000000000000000000000000000000000000000000000000000000000000000000080E70A
:2B137C00000000000000000000000000000000000000000000000000000000000000000000008000000000000080EF57
:2B13A700000000000000000000000000000000000000000000000000000000000000000000000000000000000090F695
:2B13D2000000000000000000000000000000000000000000000000000000000000000000000000000000000000C0A38D
:2B13FD00000000000000000000000000000000000000000000000000000000000000000001000000000000000080F74D
:2B142800000000000000000000000000000000000000000000000000000000000000000000000000000000000080E732
:2B145300000000000000000000000000000000000000000000000000000000000000000000000000000400000080A347
:2B147E00000000000000000000000000000000000000000000000000000000000000000000000000000000000080E7DC
:2B14A900000000000000000000000000000000000000000000000000000000000000000000000000000000000080E7B1
:2B14D400000000000000000000000000000000000000000000000000000000000000000000000000000000000080E786
:2B14FF00000000000000000000000000000000000000000000000000000000000000000000000000000000040080E35B
:2B152A000000000000000000000000000000000000000000000000000000000000000000000000000000000000D29232
:2B155500080000000000000000000000000000000000000000000000000000000000000000000000000000000080EFF4
:2B158000000000000000000000000000000000000000000000000000000000000000000000000000000000000080E7D9
:2B15AB00000000000000000000000000000200000000000000000000000000000000000000000000000000000080C5CE
:2B15D6000002200002000000000000000000000000000000000000000000000000800004000000000000000008808139
:2B16010000000000000000000000000000000000004000000000000000000000000800200000000000000080008281D3
:2B162C00020000000000000000000000000000000000000000000000000000000000000000000000000000000208CFB8
:2B165700000000000000000000000000000000000000000000000000000000000040000000000000000000000408EF2D
:2B168200000000000000000000000000000000000000000000000000000000000000000000000000000000000090F6B7
:2B16AD0000000000000000000000000000000000004000000000000000000000004800200000000000000080000BDD02
:2B16D800000000000000000000000000000200000000000000000000000000000000000800000000000800000008CD00
:2B170300020000000000000000000000000000000000000000000000000000000080010000000000000000000088ECC4
:2B172E00800008800008800008800008000008800008000000000020000220000200000020000220000020000200CD6B
:2B175900800008800008800008800008800008800008000000000020000220000220000220000220000220000280E702
:2B178400000000000000000000000000000100000000000000000000000000000000000000000000000040000080B2C7
:2B17AF00000000000000000000000000600100000000000000000000000000000000000000000000000058000088C30B
:2B17DA00020000000000000000000000000100000000000000000000000000000000000000000000000040000080B071
:2B180500020000000000000000000000400100000000000000000000000000000000000000000000000050000080E1C4
:2B183000020000000000000000000000000100000000000000000000000000000000000000000000000040000080B01A
:2B185B00020000000000000000000000000100000000000000000000000000000000000000000000000040000080B0EF
:2B188600000000000000000000000000000100000000000000000000000000000000000000000000000040000008BA34
:2B18B100000000000000000000000000008100000000000000000000000000000000000000000000000040100080AA11
:2B18DC00000000000000000000000000000100000000000000000000000000000000000000000000000040008080BAE6
:2B1907000000000000000000000000006001000000000000000000000000000000008009040000000000588001808BE3
:2B193200020000000000000000000000000100000000000000000000000000000000800600000000000048000E88B86B
:2B195D00000000000000000000000000400100000000000000000000000000000000002700000000000050000708E9AF
:2B198800000000000000000000000000000100000000000000000000000000000000800001000000000048000690D5FF
:2B19B300000000000000000000000000000100000000000000000000000000000000800E00000000000048000688BAEA
:2B19DE00000000000000000000000000000100000000000000000000000000000000000000000000000040020608DEAF
:2B1A09000200000000000000000000000043000000000000000000000000000000000007000000000000400006088F89
:2B1A3400000000000000000000000000000100000010000000000000000000000040000800000000000440000400E7FF
:2B1A5F00000000000000000000000000600100000016000000000000000000000058800F000000008005588005809884
:2B1A8A00000000000000000000000000000100000012000000000000000000000040800000000000000440000400CF47
:2B1AB500000000000000000000000000400100000014000000000000000000000050002F000000000005500005889AB6
:2B1AE0000200000000000000000000000001000000120000000000000000000000408000040000000004400004008D2D
:2B1B0B00020000000000000000000000000100000012000000000000000000000040800800000000000440000480CD3D
:2B1B3600020000000000000000000000008100000050000000000000000000000040000600000000000440040480CBD4
:2B1B61000200000000000000000000000003000000300000000000000000000000C0100600000000001440002C8090BE
:2B1B8C00000000000000000000000000000100000000000000000000000000000080000400000000000440001088BB12
:2B1BB7000000000000000000000000006001000000000000000000000000000000F8800500000000800558800780CB76
:2B1BE200000000000000000000000000000100000000000000000000000000000008010400000000000440800080B3D3
:2B1C0D000000000000000000000000004001000000000000000000000000000000F0000500000000000550000702C355
:2B1C3800020000000000000000000000000100000000000000000000000000000008020400000000000440800008BAEA
:2B1C630000000000000000000000000000010000000000000000000000000000000800040000000000044080088A9A59
:2B1C8E00000000000000000000000000000500000000000000000000000000000060002400000000001440200690C4D4
:2B1CB900000000000000000000000000000100000000000000000000000000000060000400000000000440000608BA8F
:2B1CE400000010000000000000000000000200000000000000000000000000000040000400000000008040008008989F
:2B1D0F00020016000000000000000000E00300000000000000000000000000000058800500000000800F588007889A41
:2B1D3A00000010000000000000000000200400000000000000000000000000000040000400000000800048001680B1F7
:2B1D6500000014000000000000000000C00300000000000000000000000000000050000500000000001F500007809998
:2B1D90000000100000000000000000002008000000000000000000000000000000400004000000008040480008809686
:2B1DBB000000100000000000000000002000000000000000000000000000000000400004000000008008480000889A97
:2B1DE600020010080000000000000000800100000000000000000000000000000040001400000000000640000000C6D7
:2B1E1100020010000000000000000000800100000000000000000000000000000040020C00000000000640020080CF2E
:2B1E3C00020000020000000000000000000000000010000000000000000000000000080000000000008040001080B35C
:2B1E6700020006000000000000000000600201000016000000000000000000000018800904000000800F58800700BB01
:2B1E9200000038000000000000000000A001000000100000000000000000000000E0801600000000801040800008B0BE
:2B1EBD0000001C000000000000000000C00B00000014000000000000000000000070000700000000000F50000781D1D0
:2B1EE800000018000000000000000000200001000010000000000000000000000060804000000000800840800002D14B
:2B1F1300000018000000000000000000A00300000010000000000000000000000060800600000000800840800800B8EA
:2B1F3E00020018000000000000000000000000000010080000000000000000000060000000000000000640000688CF43
:2B1F6900000018000000000000000000C001000000300000000000000000000000600007000000000006C040068889C0
:2B1F940000002000000000000000010000000000001000000000000000000000000000080000000000004000101091F8
:2B1FBF0000003E000000000000600100600201000016000000000000000000000098C00F0000000080095C800788BBC9
:2B1FEA00000002080000000000000100A00100000010000000000000000000000068810000000000802648800009A10F
:2B20150002003C000000000000400100C00900000014000000000000000000000070001700000000000750000F089BB4
:2B204000000042000000000000000100200000000010000000000000000000000008800000000000800048800000EF43
:2B206B00000002000000000000000100A02100000010000000000000000000000068C01800000000804648800004B5EF
:2B209600000018000000000000004100000000000010010000000000000000000000000600000000000040000600BFAA
:2B20C100000018000000000000000100C00100000030000000000000000000000070000600000000000740010608C856
:2B20EC000200100020000000200001000000000000100000000000000000000000400004000000000000400010089931
:2B211700E20716E0010000003E60010060020100001600000000000000000000005880050000000080095C80071091BB
:2B214200022010800100000002200100A0090000001200000000000000000000004000040000000080064880000C94AF
:2B216D00420014C0070000003C480100C00300000014000000000000000000000050000500000000002750000F089C4F
:2B21980080031000020000000220010020100000001200000000000000000000004000040000000080004880000A8A02
:2B21C300800110000000000002220100A00300000012000000000000000000000040000400000000808E48800080F4F8
:2B21EE000000100000000000180005000000000000100000000000000000000000400004000000000000400206008B72
:2B221900020050000000000018000300C00100000050000000000000000000000040010C020000000007C0000680E29E
:2B2244000A0000000000000000800000000000000008000000000000000000000000000000000000000020002080CD50
:2B226F000000600000000000200100000012000000000000000000000000000000800448000000000048000000008518
:2B229A00800000800008800000000008000008800000000000000020000220000200000020000220000000000000CDAE
:2B22C500800008800008800008800008800008800008000000000020000220000220000220000220000220000280E78B
:2B22F000C0055040000000000200000020020C0C00040000000000000000000000100B08000000C0800080A05000B2A9
:2B231B00000000000000000000000000000000000000000000000000002000010800002000000000000000000000E668
:2B2346000000000000000000000000000000000400000000000000000000000000000000880008020000010004018F41
:2B237100000000000000000008800000000000000000000000000000000000000000000000000000008020008280E730
:2B239C00400440400000000002000000200204080004000000000000002000010810032888000882800080A05000D3E5
:2B23C700400004400000000000000000000800000000000000000000000000000010420000000000001000000100E418
:2B23F200000000000000000000000000808000000000000000000000000000000000000000000000000000000000E7D9
:2B241D00000000000000000028000000C00000000000000000000000000000000020000300000000000300004080A323
:2B244800000004000000000004000000400000000000000000000000000000000010000100000000001000000080A6DA
:2B24730000000000000000000000000000000000000000000000000000000000000000000000000000000000004DFBF6
:2B249E00000000040000000000000000000000000008040000000000000000000000000000000000000040080000A318
:2B24C9000000000000000000000000000000000000000000000000000000000000000000000000000000000000C0A385
:2B24F400000000000000000000000000000000000000000000000000000000000000000000000000000000000080E756
:2B251F0000000000000000000000000000A000000000000000000000000000000000200002000000000002000090DC61
:2B254A00000000020000000000000000004000000000000000000000000000000000000000000000000000002080E3A1
:2B257500000000000000000000040000000000000000000000000000000000000000000000000000000000208080CB4C
:2B25A000000000000000000000000000000000000000000000000000000000000000000002000000000300008009E49E
:2B25CB00000000000000000000000000000000000000000000000000000000000000000000000000000000000080E77E
:2B25F600000000000000000000001000000000000000000000000000000000000000002000000000000000000080E426
:2B262100020000000000000000000000000000000000000000000000000000000000000000000000000000000080E527
:2B264C00000000000000000000000000000000000000000000000000000000000000000000000000000000000080E7FC
:2B267700000000000000000000000000000000000000000000000000000000000000000000000400000000000080A311
:2B26A200000000000000000000000000000000000000000000000000000000000000000000000000000000000080E7A6
:2B26CD00000000000000000000000000000000000000000000000000000000000000000000000000000000000080E77B
:2B26F800000000000000000000000000000000000000000000000000000000000000000000000000000000000080E750
:2B272300000000000000000000000000000000000000000000000000000000000000000000000000000000000080E724
:2B274E00000000000000000000000000000000000000000000000000000000000000000000000000000000000080E7F9
:2B277900000000000000000000000400000000000000000000000000000000000000000000000000000000000080A30E
:2B27A400000000000000000000000000000000000000000000000000000010000110020000000010000000000080E572
:2B27CF00000000000000000000000000000000000000000000000000000000000000000000000000000000000080E778
:2B27FA00000000000000000000000000000000000000000000000000000000000000000000000000000000000080E74D
:2B282500000000000000000000000000000000000000000000000000000000000000000000000000000000000080E721
:2B285000000000000000000000000000000000000000000000000000000000000000000000000000000000000080E7F6
:2B287B00000000008000000000000002000000000000000000000000000000000880000000000000000000000800CF51
:2B28A600020000000000000000000000000000000000000000000000000000000000000000000000000000000008ED10
:2B28D100000000000000000000000000000000000000000000000000000000000000000000000000000000000080E775
:2B28FC00000000000000000000000000000000000000000000000000000000000080000000000000000000000880E7C2
:2B292700000000008000000000000002000000000000000000000000000000000C000000000000000000000000008B6C
:2B295200000000080000000000008000000000000000000000000000040080000080000000000000000000000080E36B
:2B297D00021000000000000000000000000000000000000000000080000080000080000000000000000000000088EC29
:2B29A800000000800008800008000008800008800008000000000000000200000200000220000220000220000200CDA3
:2B29D300800008800008800008800008800008800008000000000020000220000220000220000220000220000280E776
:2B29FE00000100002000000000000000000000000000000000000000000000000000000000000000000000000080F419
:2B2A2900620100E00300000000000000000000000000000000000000000000000000000000000000000000000088C7ED
:2B2A5400000100200200000000000000000000000000000000000000000000000000000000000000000000000080F4C0
:2B2A7F00400100C00300000000000000000000000000000000000000000000000000000000000000000000000000CD5B
:2B2AAA00000100200800000000000000000000000000000000000000000000000000000000000000000000000000D602
:2B2AD500000100200200000000000000000000000000000000000000000000000000000000000000000000000080F43F
:2B2B0000020900800100000000000000000000000000000000000000000000000000000000000000000000000008E531
:2B2B2B00000100800100000000000000000000000000000000000000000000000000000000000000000000000000EF0E
:2B2B5600000100000000000000000000000000000000000000000000000000000000000000000000000000000080F6DD
:2B2B810060010000000000000000000000000000000000000000000000000000000000000000000000000000008096B2
:2B2BAC00020100000000000000000000000000000000000000000000000000000000000000000000000000000008FCF7
:2B2BD700400100000000000000000000000000000000000000000000000000000000000000000000000000000080B65C
:2B2C0200000100000000000000000000000000000000000000000000000000000000000000000000000000000080F630
:2B2C2D00000100000000000000000000000000000000000000000000000000000000000000000000000000000080F605
:2B2C5800000100000000000000000000000000000000000000000000000000000000000000000000000000000080F6DA
:2B2C8300020900000000000000000000000000000000000000000000000000000000000000000000000000000088FC97
:2B2CAE00002000000000000000000000000000000000000000000000100000000000000000000000000000000080F556
:2B2CD900E003000000000000000000000000000000000000000000F8000000000000000000000000000000000000C332
:2B2D0400200000000000000000000000000000000000000000000008000000000000000000000000000000000000CFAD
:2B2D2F00C20500000000000000000000000000000000000000000070400000000000000000000000000000000088C7B3
:2B2D5A00220800000000000000000000000000000000000000000008010000000000000000000000000000000080CCCF
:2B2D8500240000000000000000000000000000000000000000000088000000000000000000000000000000000080CB2C
:2B2DB0008201000000000000000000000000000000000000000000600000000000000000000000000000000000009A7B
:2B2DDB008201000000000000000000000000000000000000000000700000000000000000000000000000000000008B4F
:2B2E0600022010000000000000000110000000000000000000000040000000000040000000000000000000000008FED8
:2B2E3100E003160000000000006001160000000000000000000000580000F8400058000000000000000000000000F22C
:2B2E5C00200410000000000000000112000000000000000000000040000008000040000000000000000000000000BAC2
:2B2E8700C00114000000000000400114000000000000000000000050000070010050000000000000000000000000994C
:2B2EB200220010000000000000000112000000000000000000000040000008000040000000000000000000000088F4AC
:2B2EDD00200810000000000000000112000000000000000000000040000088010040000000000000000000000000FF77
:2B2F08008001100100000000000001100000000000000000000000C00000600000400000000000000000000000808893
:2B2F33008001300000000000000023700000000000000000000000400000600000C0010000000000000000000080EC62
:2B2F5E00008010000000000020000100000000000000000000000000000040000000000000000000000000000080894E
:2B2F8900E2031600000000003E6001000000000000000000000000F82000580000F81000000000000000000000888003
:2B2FB400200010000000000002000100000000000000000000000008020040000008100000000000000000000080B12C
:2B2FDF00C0031500000000003C4101000000000000000000000000700000500000F0000000000000000000000000A31E
:2B300A00200010000000000002040100000000000000000000000008000040000008000000000000000000000080A7ED
:2B303500220A10000000000002000100000000000000000000000088400040000008020000000000000000000008C94E
:2B306000800150000000000018000500000000000000000000000060000040000060000000000000000000000080A334
:2B308B00C00130000000000018000300000000000000000000000060000040020070000000000000000000000080F08C
:2B30B600008020000000000200000200000000000000000000000040000400000440000000000000000000000080CD76
:2B30E100E0033E000000E00300E003000000000000000000000000588005F89005580000000000000000000000808813
:2B310C00224002100000200000200200000000000000000000000040000408080440000000000000000000000088DBE7
:2B313700C0013C000000C02100C00100000000000000000000000050000570000550000000000000000000000080B084
:2B316200200842000000200000200400000000000000000000000040000408010440000000000000000000000080EE95
:2B318D00200202000000200001200000000000000000000000000040000408000440000000000000000000000000DD45
:2B31B800820118000000800100800100000000000000000000000040020460000440400000000000000000000008C954
:2B31E300C0011C000000800100C001000000000000000000000000400004740084C0000000000000000000000000980E
:2B320E00000100082000000000008000000000000000000000000040000040000440000000000000000000000080F4B4
:2B32390060013EE00300000000E00300000000000000000000000058000058800558000000800F020000000000009255
:2B326400000102208000000000200000000000000000000000000040000040000440000000800000000000000000D662
:2B328F0042015CC00300000000C00500000000000000000000000050000050000550000000004700000000000088B475
:2B32BA00000102200400000000200000000000000000000000000040000040000440000000808000000000000000924C
:2B32E500000182200200000000200800000000000000000000000040000040000440000000800800000000000080FC29
:2B331000000518800100000000800100000000000000000000000040010040000440010000000600000000000000CDDA
:2B333B00020118800100000000800100000000000000000000000040000040011C4000000000060000000000000883DC
:2B336600000110000010000000000110000100000000000000000000100040000000000001000000000000000080A395
:2B3391006001160000160000006001166001000000000000000000F8000058800FF9C007000000F8900F02000080DA1A
:2B33BC0000011000001000000000011000010000000000000000000820004080800881000000000880800000008082B8
:2B33E7004001140000140000004001144001000000000000000000700000500007700087000000F0040F00000080BEBD
:2B341200020110000010000000000110000100000000000000000008000040800008800000000008800000000008A9D1
:2B343D000001100000100000000001100001000000000000000000080200408010088108020000888840000000808D67
:2B346800000110000010040000000110000100000000000000000060000040000660000600000060000600000080A769
:2B3493000005500000100000000005300803010000000000000000700000C0040660000600000060000600000000EA78
:2B34BE00000000000000008000080008000000000000000000000000200000040800040002000082000002000000EFAE
:2B34E900000001010001000000001000000000000000000000000080000080000880000800000880000800000080E71E
:2B351400000000000008000000000000800008800008000000000000000200000000000020000000000020000200EF41
:2B353F00800008800008800008800008800008800008000000000020000220000220000220000220000220000280E7FE
:2B356A00200224000204000800480080020050000000000000000000420C00800030008C40010000000D000000809BD5
:2B359500000000000000000004000000000000080000000000000000000040000400000000000000002002000082AD6A
:2B35C000000000200000000020000000000022200200000000000008800000000000000000000088000000000080EDDF
:2B35EB00000000000000000000000000000000000000000000000000008000000000008000000000000000000080E74E
:2B361600200224200204000824480080000062280200000000000008C20840800410000800010088002902000082E2D7
:2B364100000000000000000000000000000000000000000000000000000000000000000000000000000400000080A337
:2B366C00000004000000400004400000000000000000000000000000000080000000000000001000000000000000E635
:2B369700000000000000000000400000000000000000000000000010000000000000000001000000000000000080A691
:2B36C200000000080000000000000000000000000000000000000000000000000000200000000000000000000080CF66
:2B36ED00000110000000000001000100000000000000000000000000100000200000200000000001010001000080F7D5
:2B3718000040080600000020000360000000000000000000000000201A0020000020004001000001000001000000C632
:2B374300000000000000000200000000000000000000000000000000200000000000000000000000000000000080E5D4
:2B376E00000000000000000000000000000000000000000000000000000000000000000000000000000000000080E7C9
:2B379900000000000000000008000000000000000000000000000000000020000000000000000000000000000000CD10
:2B37C400000000000000000000000000000000000000000000000000000000000000000000000000000000000080E773
:2B37EF00008001000001000000000000048000000000000000000000400004022800020800000020020000000080C1CE
:2B381A00001400404400010000000000000000000000000000000000000000000800000000000000001000000000A230
:2B384500000000000000000000000000000000000000000000000000000000000000000000000000000000000080E7F1
:2B387000000000000000000000000000000000000000000000000000000000000000000000000000000000000080E7C6
:2B389B00000000000000000000000000000000000000000000000000000000000000000000000000000020000080C59D
:2B38C600000000000000000000000000000000000000000000000000000000000000000000000000000000080080EF60
:2B38F100000000000000000000000000000000000000000000000000000000000000000000000000000000000080E745
:2B391C00000000000000000000000000000000000000000000000000000000000000000000000000000000000080E719
:2B3947004010044110044110044110044110044110040100000000100441100441100441100441100441100E4180EDE2
:2B397200601886611886611886611886611886611886010000000018866118866118866118866118866118966180F7AF
:02399D00FFFF2A
:00000001FF
