:020000040000FA
:2B000000FFFF62FF2500FFFFFFFFFFFFFFFFFFFFFFFFFFFFFFFFFFFFFFFFFFFFFFFFFFFFFFFFFFFFFFFFFFFFFFFFFF76
:2B002B00601886611886611886611886611886611886010000000018866118866118866518866118866118866180A38F
:2B005600401004411004411004411004411004411004010000000010044110044110844310044110044110044100CD34
:2B008100000000000000000000000000000000000000000000000000000000000000000000000000000000000080E7ED
:2B00AC00000000000000000000000000000000000000000000000000000000000000000000000000000000000080E7C2
:2B00D700000000000000000000000000000000000000000000000000000000000000000200000000000000000080C5B7
:2B010200000000000000000000000000000000000000000000000000000000000000000200000000000000000080C58B
:2B012D00000000000000000000000000000000000000000000000000000000000000000000000000000000000080E740
:2B015800000000000000000000000000000000000000000000000000000000000000000000000000000000000080E715
:2B018300000000000000000000000000000000000000000000000000000000000000000000000000000000000080E7EA
:2B01AE00000000000000000000000000000000000000000000000000000000000000000000000000000000000080E7BF
:2B01D900000000000000000000000000000000000000000000000000000000000000000000000000000000000080E794
:2B020400000000000000000000000000000000000000000000000000000000000000000000000000000000000080E768
:2B022F00000000000000000000000000000000000000000000000000000000000000000000000000000000000080E73D
:2B025A00000000000000000000000000000000000000000000000000000000000000000000000000000000000080E712
:2B028500000000000000000000000000000000000000000000000000000000000000000000000000000000000080E7E7
:2B02B000000000000000000000000000000000000000000000000000000000000000000000000000000000000080E7BC
:2B02DB00000000000000000000000000000000000000000000000000000000000000000000000000000000000080E791
:2B030600000000000000000000000000000000000000000000000000000000000000000000000000000000000080E765
:2B033100000000000000000000000000000000000000000000000000000000000000000000000000000000000080E73A
:2B035C00000000000000000000000000000000000000000000000000000000000000000000000000000000000080E70F
:2B038700000000000000000000000000000000000000000000000000000000000000000000000000000000000080E7E4
:2B03B200020000000000000000000000000000000000000000000000000000000000000000000000000000000008ED29
:2B03DD00000000000000000000000000000000000000000000000000000000000000000000000000000000000080E78E
:2B040800000000000000000000000000000000000000000000000000000000000000000000000000000000000080E762
:2B043300000000000000000000000000000000000000000000000000000000000000000000000000000000000080E737
:2B045E00000000000000000000000000000000000000000000000000000000000000000000000000000000000080E70C
:2B048900020000000000000000000000000000000000000000000000000000000000000000000000000000000008ED51
:2B04B400800008800008800008800008800008800008000000000020000220000220000220000220000220000280E7BA
:2B04DF00800008800008800008800008800008800008000000000020000220000220000220000220000220000280E78F
:2B050A00000000000000000000000000000000000000000000000000000000000000000000000000000000000080E75F
:2B053500020000000000000000000000000000000000000000000000000000000000000000000000000000000008EDA4
:2B056000000000000000000000000000000000000000000000000000000000000000000000000000000000000080E709
:2B058B00000000000000000000000000000000000000000000000000000000000000000000000000000000000080E7DE
:2B05B600000000000000000000000000000000000000000000000000000000000000000000000000000000000080E7B3
:2B05E100000000000000000000000000000000000000000000000000000000000000000000000000000000000080E788
:2B060C00020000000000000000000000000000000000000000000000000000000000000000000000000000000008EDCC
:2B063700000000000000000000000000000000000000000000000000000000000000000000000000000000000080E731
:2B066200000000000000000000000000000000000000000000000000000000000000000000000000000000000080E706
:2B068D00000000000000000000000000000000000000000000000000000000000000000000000000000000000080E7DB
:2B06B800020000000000000000000000000000000000000000000000000000000000000000000000000000000008ED20
:2B06E300000000000000000000000000000000000000000000000000000000000000000000000000000000000080E785
:2B070E00000000000000000000000000000000000000000000000000000000000000000000000000000000000080E759
:2B073900000000000000000000000000000000000000000000000000000000000000000000000000000000000080E72E
:2B076400000000000000000000000000000000000000000000000000000000000000000000000000000000000080E703
:2B078F00020000000000000000000000000000000000000000000000000000000000000000000000000000000008ED48
:2B07BA00000000000000000000000000000000000000000000000000000000000000000000000000000000000080E7AD
:2B07E500000000000000000000000000000000000000000000000000000000000000000000000000000000000080E782
:2B081000000000000000000000000000000000000000000000000000000000000000000000000000000000000080E756
:2B083B00020000000000000000000000000000000000000000000000000000000000000000000000000000000008ED9B
:2B086600000000000000000000000000000000000000000000000000000000000000000000000000000000000080E700
:2B089100000000000000000000000000000000000000000000000000000000000000000000000000000000000080E7D5
:2B08BC00000000000000000000000000000000000000000000000000000000000000000000000000000000000080E7AA
:2B08E700000000000000000000000000000000000000000000000000000000000000000000000000000000000080E77F
:2B091200020000000000000000000000000000000000000000000000000000000000000000000000000000000008EDC3
:2B093D00000000000000000000000000000000000000000000000000000000000000000000000000000000000080E728
:2B096800000000000000000000000000000000000000000000000000000000000000000000000000000000000080E7FD
:2B099300000000000000000000000000000000000000000000000000000000000000000000000000000000000080E7D2
:2B09BE00020000000000000000000000000000000000000000000000000000000000000000000000000000000008ED17
:2B09E900000000000000000000000000000000000000000000000000000000000000000000000000000000000080E77C
:2B0A1400000000000000000000000000000000000000000000000000000000000000000000000000000000000080E750
:2B0A3F00000000000000000000000000000000000000000000000000000000000000000000000000000000000080E725
:2B0A6A00000000000000000000000000000000000000000000000000000000000000000000000000000000000080E7FA
:2B0A9500020000000000000000000000000000000000000000000000000000000000000000000000000000000008ED3F
:2B0AC000000000000000000000000000000000000000000000000000000000000000000000000000000000000080E7A4
:2B0AEB00000000000000000000000000000000000000000000000000000000000000000000000000000000000080E779
:2B0B1600000000000000000000000000000000000000000000000000000000000000000000000000000000000080E74D
:2B0B4100020000000000000000000000000000000000000000000000000000000000000000000000000000000008ED92
:2B0B6C00000000000000000000000000000000000000000000000000000000000000000000000000000000000080E7F7
:2B0B9700000000000000000000000000000000000000000000000000000000000000000000000000000000000080E7CC
:2B0BC200000000000000000000000000000000000000000000000000000000000000000000000000000000000080E7A1
:2B0BED00000000000000000000000000000000000000000000000000000000000000000000000000000000000080E776
:2B0C1800020000000000000000000000000000000000000000000000000000000000000000000000000000000008EDBA
:2B0C4300000000000000000000000000000000000000000000000000000000000000000000000000000000000080E71F
:2B0C6E00000000000000000000000000000000000000000000000000000000000000000000000000000000000080E7F4
:2B0C9900000000000000000000000000000000000000000000000000000000000000000000000000000000000080E7C9
:2B0CC400020000000000000000000000000000000000000000000000000000000000000000000000000000000008ED0E
:2B0CEF00000000000000000000000000000000000000000000000000000000000000000000000000000000000080E773
:2B0D1A00000000000000000000000000000000000000000000000000000000000000000000000000000000000080E747
:2B0D4500000000000000000000000000000000000000000000000000000000000000000000000000000000000080E71C
:2B0D7000000000000000000000000000000000000000000000000000000000000000000000000000000000000080E7F1
:2B0D9B00020000000000000000000000000000000000000000000000000000000000000000000000000000000008ED36
:2B0DC600000000000000000000000000000000000000000000000000000000000000000000000000000000000080E79B
:2B0DF100000000000000000000000000000000000000000000000000000000000000000000000000000000000080E770
:2B0E1C00000000000000000000000000000000000000000000000000000000000000000000000000000000000080E744
:2B0E4700020000000000000000000000000000000000000000000000000000000000000000000000000000000008ED89
:2B0E7200000000000000000000000000000000000000000000000000000000000000000000000000000000000080E7EE
:2B0E9D00000000000000000000000000000000000000000000000000000000000000000000000000000000000080E7C3
:2B0EC800000000000000000000000000000000000000000000000000000000000000000000000000000000000080E798
:2B0EF300000000000000000000000000000000000000000000000000000000000000000000000000000000000080E76D
:2B0F1E00020000000000000000000000000000000000000000000000000000000000000000000000000000000008EDB1
:2B0F4900000000000000000000000000000000000000000000000000000000000000000000000000000000000080E716
:2B0F7400000000000000000000000000000000000000000000000000000000000000000000000000000000000080E7EB
:2B0F9F00000000000000000000000000000000000000000000000000000000000000000000000000000000000080E7C0
:2B0FCA00000000000000000000000000000000000000000000000000000000000000000000000000000000000080E795
:2B0FF500000000000000000000000000000000000000000000000000000000000000000000000000000000000080E76A
:2B102000800008800008800008800008800008800008000000000020000220000220000220000220000220000280E742
:2B104B00800008800008800008800008800008800008000000000020000220000220000220000220000220000280E717
:2B107600000000000000000000000000000000000000000000000000000000000000000000000000000000000080E7E8
:2B10A100000000000000000000000000000000000000000000000000000000000000000000000000000000000080E7BD
:2B10CC00000000000000000000000000000000000000000000000000000000000000000000000000000000000080E792
:2B10F700000000000000000000000000000000000000000000000000000000000000000000000000000000000080E767
:2B112200000000000000000000000000000000000000000000000000000000000000000000000000000000000080E73B
:2B114D00000000000000000000000000000000000000000000000000000000000000000000000000000000000080E710
:2B117800000000000000000000000000000000000000000000000000000000000000000000000000000000000080E7E5
:2B11A300000000000000000000000000000000000000000000000000000000000000000000000000000000000080E7BA
:2B11CE00000000000000000000000000000000000000000000000000000000000000000000000000000000000080E78F
:2B11F900000000000000000000000000000000000000000000000000000000000000000000000000000000000080E764
:2B122400000000000000000000000000000000000000000000000000000000000000000000000000000000000080E738
:2B124F00000000000000000000000000000000000000000000000000000000000000000000000000000000000080E70D
:2B127A00000000000000000000000000000000000000000000000000000000000000000000000000000000000080E7E2
:2B12A500000000000000000000000000000000000000000000000000000000000000000000000000000000000080E7B7
:2B12D000000000000000000000000000000000000000000000000000000000000000000000000000000000000080E78C
:2B12FB00000000000000000000000000000000000000000000000000000000000000000000000000000000000080E761
:2B132600000000000000000000000000000000000000000000000000000000000000000000000000000000000080E735
:2B135100000000000000000000000000000000000000000000000000000000000000000000000000000000000080E70A
:2B137C00000000000000000000000000000000000000000000000000000000000000000000000000000000000080E7DF
:2B13A700000000000000000000000000000000000000000000000000000000000000000000000000000000000280C5D4
:2B13D200000000000000000000000000000000000000000000000000000000000000000000000000000000000090F66A
:2B13FD00000000000000000000000000000000000000000000000000000000000000000000000000000000000080E75E
:2B142800000000000000000000000000000000000000000000000000000000000000000000000000000000000080E732
:2B145300000000000000000000000000000000000000000000000000000000000000000000000000000000000080E707
:2B147E00000000000000000000000000000000000000000000000000000000000000000000000000000000000080E7DC
:2B14A900000000000000000000000000000000000000000000000000000000000000000000000000000000000080E7B1
:2B14D4000000000000000000000000000000000000000000000000000000000000000000000000000000000000C0A38A
:2B14FF00000000000000000000000000000000000000000000000000000000000000000000000000000000000080E75B
:2B152A000000000000000000000000000000000000000000000000000000000000000000000000000000000000D0B214
:2B155500000000000000000000000000000000000000000000000000000000000000000000000000000000000080E704
:2B158000000000000000000000000000000000000000000000000000000000000000000000000000000000000008EF49
:2B15AB00000000000000000000000000000000000000000000000000000000000000000000000000000000000080E7AE
:2B15D600000000000000000000000000000000000000000000000000000000000000000000000000000000000080E783
:2B160100000000000000000000000000000000000000000000000000000000000000000000000802000000000000C7ED
:2B162C00020000000000000000000000000000000000000000000000000000000000000000000000000000000008ED9C
:2B165700000000000000000000000000000000000000000000000000000000000000000000000000000000000008EF71
:2B168200000000000000000000000000000000000000000000000000000000000000000000000000000000000090F6B7
:2B16AD00000000000000000000000000000000000000000000000000000000000000000000000803000000000088DFA0
:2B16D800000000000000000000000000000000000000000000000000000000000000000000000000000000000008EFF0
:2B170300020000000000000000000000000000000000000000000000000000000000000000000000000000000008EDC4
:2B172E00800008800008800008800008800008800008000000000020000220000220000220000220000220000280E72D
:2B175900800008800008800008800008800008800008000000000020000220000220000220000220000220000280E702
:2B178400000000000000000000000000000000000000000000000000000000000000000000000000000000000080E7D3
:2B17AF00000000000000000000000000000000000000000000000000000000000000000000000000000000000008EF18
:2B17DA00020000000000000000000000000000000000000000000000000000000000000000000000000000000080E57D
:2B180500020000000000000000000000000000000000000000000000000000000000000000000000000000000080E551
:2B183000020000000000000000000000000000000000000000000000000000000000000000000000000000000080E526
:2B185B00020000000000000000000000000000000000000000000000000000000000000000000000000000000080E5FB
:2B188600000000000000000000000000000000000000000000000000000000000000000000000000000000000008EF40
:2B18B100000000000000000000000000000000000000000000000000000000000000000000000000000000000080E7A5
:2B18DC00000000000000000000000000000000000000000000000000000000000000000040000000000000000080A37E
:2B190700000000000000000000000000000000000000000000000000000000000000000058000000000000000000BAA3
:2B193200020000000000000000000000000000000000000000000000000000000000000048000000000000000088A117
:2B195D00000000000000000000000000000000000000000000000000000000000000000050000000000000000008BA4D
:2B198800000000000000000000000000000000000000000000000000000000000000000048000000000000000010BA22
:2B19B300000000000000000000000000000000000000000000000000000000000000000048000000000000000088A396
:2B19DE00000000000000000000000000000000000000000000000000000000000000000040100000000000000008BBCB
:2B1A09000200000000000000000000000000000000000000000000000000000000000000C0000000000000000088A9BF
:2B1A3400000000000000000000000000000000000000000000000000000000000000000000000400000000000080A360
:2B1A5F00000000000000000000000000000000000000000000000000000000000000000000800500000000000000BA1D
:2B1A8A00000000000000000000000000000000000000000000000000000000000000000000800400000000000000AB02
:2B1AB500000000000000000000000000000000000000000000000000000000000000000000000500000000000008BA3F
:2B1AE000020000000000000000000000000000000000000000000000000000000000000000800400000000000000A9AC
:2B1B0B00020000000000000000000000000000000000000000000000000000000000000000800400000000000000A980
:2B1B3600020000000000000000000000000000000000000000000000000000000000000000000C00000000000000A1D5
:2B1B6100020000000000000000000000000000000000000000000000000000000000000000000400000000000080A132
:2B1B8C00000000000000000000000000000000000000000000000000000000000000000000000000000000000008EF37
:2B1BB700000000000000000000000000000000000000000000000000000000000000000000000000000000000080E79C
:2B1BE200000000000000000000000000000000000000000000000000000000000000000000000000000000000080E771
:2B1C0D00000000000000000000000000000000000000000000000000000000000000000000000000000000000080E745
:2B1C3800020000000000000000000000000000000000000000000000000000000000000000000000000000000008ED8A
:2B1C6300000000000000000000000000000000000000000000000000000000000000000000000000000000000008EF5F
:2B1C8E00000000000000000000000000000000000000000000000000000000000000000000000000000000000090F6A5
:2B1CB900000000000000000000000000000000000000000000000000000000000000000000000000000000000008EF09
:2B1CE400000000000000000000000000000000000000000000000000000000000000000000000000000000000008EFDE
:2B1D0F00020000000000000000000000000000000000000000000000000000000000000000000000000000000008EDB2
:2B1D3A00000000000000000000000000000000000000000000000000000000000000000000000000000000000080E717
:2B1D6500000000000000000000000000000000000000000000000000000000000000000000000000000000000080E7EC
:2B1D9000000000000000000000000000000000000000000000000000000000000000000000000000000000000080E7C1
:2B1DBB00000000000000000000000000000000000000000000000000000000000000000000000000000000000008EF06
:2B1DE600020000000000000000000000000000000000000000000000000000000000000000000000000000000080E56B
:2B1E1100020000000000000000000000000000000000000000000000000000000000000000000000000000000080E53F
:2B1E3C00020000000000000000000000000000000000000000000000000000000000000000000040000000000480E5D0
:2B1E6700020000000000000000000000000000000000000000000000000000000000000000000058000000800580E50C
:2B1E9200000000000000000000000000000000000000000000000000000000000000000000000048000000800408EF62
:2B1EBD00000000000000000000000000000000000000000000000000000000000000000000000050000000000580E73E
:2B1EE800000000000000000000000000000000000000000000000000000000000000000000000048000000800480E79C
:2B1F1300000000000000000000000000000000000000000000000000000000000000000000000048000000800480E770
:2B1F3E00020000000000000000000000000000000000000000000000000000000000000000000040400000000480A5CD
:2B1F69000000000000000000000000000000000000000000000000000000000000000000000000C0000000004C08EB4E
:2B1F9400000000000000000000000000000000000000000000000000000000000000000000000000000000000408AB6B
:2B1FBF00000000000000000000000000000000000000000000000000000000000000000000000000000000800588B238
:2B1FEA00000000000000000000000000000000000000000000000000000000000000000000000000000000800488A31D
:2B201500020000000000000000000000000000000000000000000000000000000000000000000000000000000580B069
:2B204000000000000000000000000000000000000000000000000000000000000000000000000000000000800400AB46
:2B206B00000000000000000000000000000000000000000000000000000000000000000000000000000000800400AB1B
:2B209600000000000000000000000000000000000000000000000000000000000000000000000000000000004480A7B4
:2B20C100000000000000000000000000000000000000000000000000000000000000000000000000000000000480A3CD
:2B20EC00020000000000000000000000000000000000000000000000000000000000000400000000000400000408A90A
:2B211700020000000000000000000000000000000000000000000000000000000000800500000000800500800588B0D4
:2B214200020000000000000000000000000000000000000000000000000000000000800400000000800400800488A1BB
:2B216D00020000000000000000000000000000000000000000000000000000000000000500000000000500000508B876
:2B219800000000000000000000000000000000000000000000000000000000000000800400000000800400800400ABE5
:2B21C300000000000000000000000000000000000000000000000000000000000000800400000000800400800400ABBA
:2B21EE00000000000000000000000000000000000000000000000000000000000000000400000000000400004480A753
:2B2219000A0000000000000000000000000000000000000000000000000000000000004400000000000C02000C808D25
:2B2244000A0000000000000000000000000000000000000000000000000000000000000220000220000200000290FC91
:2B226F00000000000000000000000000000000000000000000000000000000000000000000000000000000000080E7DD
:2B229A00800008800008800008800008800008800008000000000020000220000220000000000000000020000080E7FE
:2B22C500800008800008800008800008800008800008000000000020000220000220000220000220000220000280E78B
:2B22F000000000000000000000000000000000000000000000000000000000000000000000000000000043000080936D
:2B231B00000000000000000000000000000000000000000000000000000000000000000000000000000000000080E730
:2B234600000000000000000000000000000000000000000000000000000000000000000000000000000040000080A309
:2B237100000000000000000000000000000000000000000000000000000000000000000200000000000200008280CD6E
:2B239C00000000000000000000000000000000000000000000000000000000000000000000000000000002000080C7CD
:2B23C700000000000000000000000000000000000000000000000000000000000000000400000100000000000080B2B4
:2B23F200000000000000000000000000000000000000000000000000000000000000000000000000200000000680A179
:2B241D00000000000000000000000000000000000000000000000000000000000000000000000000000001000080F71C
:2B244800000000000000000000000000000000000000000000000000000000000000000000000000000000000080E702
:2B2473000000000000000000000000000000000000000000000000000000000000000000000000000000000000C0A3DB
:2B249E00000000000000000000000000000000000000000000000000000000000000000000000000000000000080E7AC
:2B24C900000000000000000000000000000000000000000000000000000000000000000000000000000000000080E781
:2B24F400000000000000000000000000000000000000000000000000000000000000000000000000000000000080E756
:2B251F00000000000000000000000000000000000000000000000000000000000000000000000000000000000080E72A
:2B254A00000000000000000000000000000000000000000000000000000000000000000000000000000000000080E7FF
:2B257500000000000000000000000000000000000000000000000000000000000000000000000000000000000080E7D4
:2B25A000000000000000000000000000000000000000000000000000000000000000000000000000000000000080E7A9
:2B25CB000000000000000000000000000000000000000000000000000000000000000000000000000000000000C0A382
:2B25F600000000000000000000000000000000000000000000000000000000000000000000020000000000000080E553
:2B262100000000000000000000000000000000000000000000000000000000000000000000000000000000000080E727
:2B264C00100000000000000000000000000000000000000000000000000000000000000000000000000000000080F7DC
:2B267700000000000000000000000000000000000000000000000000000000000000000000000000000000000080E7D1
:2B26A200020000000000000000000000000000000000000000000000000000000000000000000000000000000080E5A6
:2B26CD00000000000000000000000000000000000000000000000000000000000000000000000000000000000080E77B
:2B26F800000000000000000000000000000000000000000000000000000000000000000000000000000000000080E750
:2B272300000000000000000000000000000000000000000000000000000000000000000000000000000000000080E724
:2B274E00000000000000000000000000000000000000000000000000000000000000000000000000000000000080E7F9
:2B277900000000000000000000000000000000000000000000000000000000000000000000000000000000000080E7CE
:2B27A400100000000000000000000000000000000000000000000000000000000000000000000000000000000080F783
:2B27CF00000000000000000000000000000000000000000000000000000000000000000000000000000000000080E778
:2B27FA00000000000000000000000000000000000000000000000000000000000000000000000000000000000080E74D
:2B282500000000000000000000000000000000000000000000000000000000000000000000000000000080000000E721
:2B28500000000000000000000000000000000000002000000000000000000000000000000000000000004000008081FC
:2B287B00000000000000000000000000000000000002080000000000000000000000000000000000000000000080CFD9
:2B28A600020000000000000000000000000000000000000000000000000000000000000000000000000000000008ED10
:2B28D100020000000000000000000000000000000000000000000000000000000000000000000000000000000080E575
:2B28FC00040000000000000000000000000000000000000000000000000000000000000000000000000000000080E34A
:2B292700020000000000000000000000000000000002080000000000000000000000000000000000000000000080CD2C
:2B295200020000000000000000000000000000000000000000000000000000000000000000000000000000000080E5F3
:2B297D00020000000000000000000000000000000000000000000000000000000000000000000000000000000008ED38
:2B29A800800008800008800008800008800008800008000000000020000220000220000220000220000220000280E7A1
:2B29D300800008800008800008800008800008800008000000000020000220000220000220000220000220000280E776
:2B29FE00000000000000000000000000000000000000000000000000000000000000000000000000000000000080E747
:2B2A29000200000000000000000000000000000000860000000000000000000000000000000000000000000000888DE5
:2B2A5400000000000000000000000000000000000000020000000000000000000000000000000000000000000080E5F0
:2B2A7F0000000000000000000000000000000000001C000000000000000000000000000000000000000000000000BE52
:2B2AAA00000000000000000000000000000000000000000000000000000000000000000000000000000000000080E79A
:2B2AD500000000000000000000000000000000000018040000000000000000000000000000000000000000000000FAC0
:2B2B0000020000000000000000000000000000000000000000000000000000000000000000000000000000000008EDB3
:2B2B2B00000000000000000000000000000000000018000000000000000000000000000000000000000000000000FE69
:2B2B5600000000000000000000000000000000000000000000000000000000000000000000000000000000000080E7ED
:2B2B8100000000000000000000000000000000000000000000000000000000000000000000000000000000000080E7C2
:2B2BAC00020000000000000000000000000000000000000000000000000000000000000000000000000000000008ED07
:2B2BD700000000000000000000000000000000000000000000000000000000000000000000000000000000000080E76C
:2B2C0200000000000000000000000000000000000000000000000000000000000000000000000000000000000080E740
:2B2C2D00000000000000000000000000000000000000000000000000000000000000000000000000000000000080E715
:2B2C5800000000000000000000000000000000000000000000000000000000000000000000000000000000000080E7EA
:2B2C8300020000000000000000000000000000000000000000000000000000000000000000000000000000000008ED2F
:2B2CAE00000000000000000000000000000000000000000000000000000000000000000000000000000000000080E794
:2B2CD900000000000000000000000000000000000000000000000000000000000000000000000000000000000080E769
:2B2D0400000000000000000000000000000000000000000000000000000000000000000000000000000000000080E73D
:2B2D2F00020000000000000000000000000000000000000000000000000000000000000000000000000000000008ED82
:2B2D5A00020000000000000000000000000000000000000000000000000000000000000000000000000000000080E5E7
:2B2D8500000000000000000000000000000000000000000000000000000000000000000000000000000000000080E7BC
:2B2DB000020000000000000000000000000000000000000000000000000000000000000000000000000000000080E591
:2B2DDB00020000000000000000000000000000000000000000000000000000000000000000000000000000000080E566
:2B2E0600020000000000000000000000000000000000000000000000000000000000000000000000000020010008CEA8
:2B2E31000000000000000000000000000000000000860000000000000000000000000000000000000000980000009EBA
:2B2E5C00000000000000000000000000000000000018020000000000000000000000000000000000000040000000B839
:2B2E8700000000000000000000000000000000000004000000000000000000000000000000000000000090010000B7D4
:2B2EB200020000000000000000000000000000000018040000000000000000000000000000000000000000000088F05F
:2B2EDD00020000000000000000000000000000000020000000000000000000000000000000000000000020080080ED13
:2B2F0800040000000000000000000000000000000018000000000000000000000000000000000000000000000000FA88
:2B2F3300020000000000000000000000000000000000000000000000000000000000000000000000000040400080E190
:2B2F5E00020000000000000000000000000000000000000000000000000000000000000000000000000000000080E5E1
:2B2F8900020000000000000000000000000000000000000000000000000000000000000000000000000018020088F683
:2B2FB400000000000000000000000000000000000000000000000000000000000000000000000000000000000080E78B
:2B2FDF00000000000000000000000000000000000000000000000000000000000000000000000000000010010080F73F
:2B300A000000000000000000000000000000000000000000000000000000000000000000000000000000600400808532
:2B303500020000000000000000000000000000000000000000000000000000000000000000000000000000000008ED79
:2B306000000000000000000000000000000000000000000000000000000000000000000000000000000000000080E7DE
:2B308B0000000000000000000000000000000000000000000000000000000000000000000000000000006000008081B9
:2B30B600000000000000000000000000000000000000000000000000000000000000000000000000000040000080A38C
:2B30E100000000000000000000000000000000000000000000000000000000000000000000000000000058000000BAB2
:2B310C00020000000000000000000000000000000000000000000000000000000000000000000000000048000088A125
:2B313700000000000000000000000000000000000000000000000000000000000000000000000000000050000080B2EB
:2B316200000000000000000000000000000000000000000000000000000000000000000000000000000048000000AB4F
:2B318D00000000000000000000000000000000000000000000000000000000000000000000000000000048000000AB24
:2B31B800020000000000000000000000000000000000000000000000000000000000000000000000000040040008ADF1
:2B31E300000000000000000000000000000000000000000000000000000000000000000000000000000040000080A35E
:2B320E00000000000000000000000000000000000000000000000000000000000000000000000000000040000080A332
:2B323900000000000000000000000000000000000000000000000000000000000000000000000000000058000000BA58
:2B326400000000000000000000000000000000000000000000000000000000000000000000000000000048000000AB4C
:2B328F00020000000000000000000000000000000000000000000000000000000000000000000000000050000008B802
:2B32BA00000000000000000000000000000000000000000000000000000000000000000000000000000048000000ABF6
:2B32E500000000000000000000000000000000000000000000000000000000000000000000000000000048000000ABCB
:2B331000000000000000000000000000000000000000000000000000000000000000000000000000000040000080A32F
:2B333B00000000000000000000000000000000000000000000000000000000000000000000000000000040080008A374
:2B336600020000000000000000000000000000000000000000000000000000000000000000000000000040000080A1D9
:2B339100020000000000000000000000000000000000000000000000000000000000000000000000000058000000B8FF
:2B33BC00020000000000000000000000000000000000000000000000000000000000000000000000000048000000A9F3
:2B33E700020000000000000000000000000000000000000000000000000000000000000000000000000050000080B039
:2B341200000000000000000000000000000000000000000000000000000000000000000000000000000048000088A31C
:2B343D00000000000000000000000000000000000000000000000000000000000000000000000000000048000000AB71
:2B346800000000000000000000000000000000000000000000000000000000000000000000000000000040000080A3D6
:2B349300000000000000000000000000000000000000000000000000000000000000000000000000000040400080E32B
:2B34BE00020000000000000000000000000000000000000000000000000000000000000000000000000020000080C77A
:2B34E900000000000000000000000000000000000000000000000000000000000000000000000000000000000080E751
:2B351400800008800008800008800008800008800008000000000020000220000220000220000220000200000280C56B
:2B353F00800008800008800008800008800008800008000000000020000220000220000220000220000220000280E7FE
:2B356A00000000000000000000000000000000000000000000000000000000000000000000000000000000400080A7CF
:2B359500000000000000000000000000000000000000000000000000000000000000000000000000000000000080E7A4
:2B35C000000000000000000000000000000000000000000000000000000000000000000000000000000000000080E779
:2B35EB00000000000000000000000000000000000000000000000000000000000000000000000000000000000080E74E
:2B361600000000000000000000000000000000000000000000000000000000000000000000000000000000400080A722
:2B364100000000000000000000000000000000000000000000000000000000000000000000000000000000400080A7F7
:2B366C00000000000000000000000000000000000000000000000000000000000000000000000000000000000080E7CC
:2B369700000000000000000000000000000000000000000000000000000000000000000000000000000000000080E7A1
:2B36C200000000000000000000000000000000000000000000000000000000000000000000000000000000000080E776
:2B36ED00100000000000000000000000000000000000000000000000000000000000000000000000000000000080F72B
:2B371800000000000000000000000000000000000000000000000000000000000000000000000000000000000080E71F
:2B374300000000000000000000000000000000000000000000000000000000000000000000000000000000000080E7F4
:2B376E00000000000000000000000000000000000000000000000000000000000000000000000000000000000080E7C9
:2B379900000000000000000000000000000000000000000000000000000000000000000000000000000000000080E79E
:2B37C400000000000000000000000000000000000000000000000000000000000000000000000000000000000080E773
:2B37EF00000000000000000000000000000000000000000000000000000000000000000000000000000000000080E748
:2B381A00100000000000000000000000000000000000000000000000000000000000000000000000000000000080F7FC
:2B384500000000000000000000000000000000000000010000000000000000000000000000000000000000000080E6F1
:2B387000000000000000000000000000000000000080000000000000000000000000000000000000000000000000E7C6
:2B389B0000000000000000000000000000000000000000000000000000000000000000000000000000040000028191EA
:2B38C600000000000000000000000000000000000000000000000000000000000000000000000000000280088200E7E4
:2B38F100000000000000000000000000000000000000000000000000000000000000000000000000000000000080E745
:2B391C00000000000000000000000000000000000000000000000000000000000000000000000000000000000080E719
:2B3947004010044110044110044110044110044110040100000000100441100441100441100441108443108EE380E744
:2B397200601886611886611886611886611886611886010000000018866118866118866118866118866518966581E7B6
:02399D00FFFF2A
:00000001FF
