:020000040000FA
:2B000000FFFF62FF2500FFFFFFFFFFFFFFFFFFFFFFFFFFFFFFFFFFFFFFFFFFFFFFFFFFFFFFFFFFFFFFFFFFFFFFFFFF76
:2B002B00601886611886611886611886611886651986010000000018866118866118866118866118866118866180F23F
:2B005600401004411004411004411004411084E31004010000000010044110044110044110044110044110044180CD14
:2B008100000000000000000000000000000000000000000000000000000000000000000000000000000000000080E7ED
:2B00AC00000000000000000000000000000000000000000000000000000000000000000000000000000000000080E7C2
:2B00D700000000000000000000000000000000820000000000000000000000000000000000000000000000000000ED8F
:2B010200000000000000000000000000000080840000000000000000000000000000000000000000000000000080EB63
:2B012D000000000000000000000000000000000000000000000000000000000000000000000000000000000000A0C542
:2B015800000000000000000000000000000000000000000000000000000000000000000000000000000000000008EF85
:2B018300000000000000000020000000000000000000000000000000000000000000000000000000000000000080C5EC
:2B01AE00000000000000000000000000000000000000000000000000000000000000000000000000000000000080E7BF
:2B01D900000000000000000000000000000000000000000000000000000000000000000000000000000000000080E794
:2B020400000000000000000000000000000000000000000000000000000000000000000000000000000000000080E768
:2B022F00000000000000000000000000000000000000000000000000000000000000000000000000000000000080E73D
:2B025A00000000000000000000000000000000000000000000000000000000000000000000000000000000000080E712
:2B028500000000000000000000000000000000000000000000000000000000000000000000000000000000000080E7E7
:2B02B000000000000000000000000000000000000000000000000000000040000000000000000000000000000008AB30
:2B02DB00000000000000000000000000000000000000000000000000000000000000000000000000000000000080E791
:2B030600000000000000000000000000000000000000000000000000000000000000000000000000000000000080E765
:2B033100000000000000000000000000000000000000000000000000000000000000000000000000000000000080E73A
:2B035C00000220000000000000000200000000000000000000000000000800000000000000000800000000000800C575
:2B038700000000000002000000000000000000000000000000000008000000802000000000000000000000000080C55C
:2B03B200020000000000000000000000000000000000000000000000000000000000000000000000000000000008ED29
:2B03DD00000000000000000000000000000000000000000000000000000000000000000000000000000000000080E78E
:2B040800000000000000000000000000000000000000000000000000000000000000000000000000000000000080E762
:2B04330000000000000200000000000000000000000000000000000800000080A000000000000000000000000080CD27
:2B045E00000000004000040000080000000000000000000000000000000000000000200000000002000000000080EF96
:2B048900020000000020000000000000000000000000000000000000080000000000001800010800000000000008C72E
:2B04B400800008000000800000800008800008800008000000000020000220000200000220000020000220000200EFE4
:2B04DF00800008800008800008800008800008800008000000000020000220000220000220000220000220000280E78F
:2B050A00000000000000000000000000000000000000000000000040000000000000000000000000000000000080A363
:2B053500020000000000000000000000000000000000000000000058000000000000000000000000000000000088B009
:2B056000000000000000000000000000000000000000000000000040000000000000000000000000000000000008AB7D
:2B058B00000000000000000000000000000000000000000000000050000000000000000000000000000000000090A3C2
:2B05B600000000000000000000000000000000000000000000000040000000000000000000000000000000000008AB27
:2B05E100000000000000000000000000000000000000000000000040000000000000000000000000000000000008ABFC
:2B060C00020000000000000000000000000000000000000000000040000000000000000000000000000000000008A9D0
:2B0637000000000000000000000000000000000000000000000000C0020000000000000000000000000000000000A135
:2B066200000000000000000000000000000000000000000000000000000000000000000000000000000000000080E706
:2B068D0000000000000000001E0100000000000000000000000000180100000000000000000000000000000000808703
:2B06B800020000000000000002100000000000000000000000000000040000000000000000000000000000000008D91E
:2B06E30000000000000000003C0000000000000000000000000000100000000000000000000000000000000000008D13
:2B070E00000000000000000082000000000000000000000000000060000000000000000000000000000000000000A13D
:2B073900000000000000000002000000000000000000000000000060000000000000000000000000000000000080A112
:2B076400000000000000000018000000000000000000000000000000000000000000000000000000000000000000FE54
:2B078F0002000000000000001C000000000000000000000000000000000000000000000000000000000000000088B4E5
:2B07BA00000000000110000010000000000000000000000000000040000080000000000000008000000000000000BAF9
:2B07E500000000600116000016000000000000000000000000000058000018000000000000800100000000000000CBA0
:2B081000000000000110000010000000000000000000000000000040000000040000000000000604000000000080903E
:2B083B00020000400114000014000000000000000000000000000050000010000000000000000F000000000000888FA1
:2B086600000000000110000010000000000000000000000000000040000000000000000000000600000000000008DC1C
:2B0891000000000001100000100000000000000000000000000000400000804000000000000006000000000000108580
:2B08BC00000000000510010050000000000000000000000000000040000060000000000000000600000000000008BB42
:2B08E700000000000110000030000000000000000000000000000040100000000000000000000600000000000008EE59
:2B091200020000001000000010000000000000000000000000000040000000000004000000000400000000000008BD8B
:2B093D00000000E0033E0100160000000000000000000000000000580000008009000000008005000000000000808EE3
:2B096800000000200402000010000000000000000000000000000040000000000800000000000400000000000000B230
:2B099300000000C0033C100014000000000000000000000000000050000000000500000000000500000000000080F349
:2B09BE00020000200042000010000000000000000000000000000040000000001000000000000400000000000008B985
:2B09E900000000200822000010000000000000000000000000000040000000000800000000000400000000000080D4E9
:2B0A1400000000800118000010000000000000000000000000000040020000004000000000001400000000000080F107
:2B0A3F0000000080011C0000100200000000000000000000000000C0000000000600000000000C00000000000080D2B9
:2B0A6A00000000001010000010002000000000000000000000000060010000000000001600000400000000000080A076
:2B0A9500020000E00316000016600000000000000000000000000068000000000078840600800500000000000088F05E
:2B0AC000000000200010000010800101000000000000000000000068000000000008C00600000400000000000080C2CD
:2B0AEB00000000C00714000014C003000000000000000000000000700000000000F00007000005000000000000008141
:2B0B1600000000200410000010800100000000000000000000000008000000000008800000000400000000000080D605
:2B0B41000200002000100000108001000000000000000000000000080000000000088100000004000000000000089990
:2B0B6C00000000800110000010800100000000000000000000000000000000000060000000000400000000000080C593
:2B0B9700000000800110100010840100000000000000000000000000000000000070000100001400000000000080D028
:2B0BC2000000000001000200000001000000000000000000000000000000000000440000600000000000000080808FD1
:2B0BED0000000060011E00001E610100000000000000000000000098010000800958000068810F04000000800700954C
:2B0C180002000000010200002200010000000000000000000000000002000000084000006880000000000000068CC9FC
:2B0C430000000040019C00003C400100000000000000000000000030000000000750000070004700000000000F80A7B8
:2B0C6E00000000000182000002000100000000000000000000000000000000004040000008800000000000000000A726
:2B0C9900000000000102000082000100000000000000000000000000400000000040000008802000000000001000E092
:2B0CC400020000000118000018000500000000000000000000000000010000000640010000000600000000000008ED8A
:2B0CEF0000000000091800001C0003000000000000000000000000400000000006C00000000007000000000000809479
:2B0D1A00000000020210000000002000000000000000000000000000000000000400000020000840004000000000F2DC
:2B0D450000001EE0031600003E6100000000000000000000000000980100008005F8040098900F58800F00000000E4B1
:2B0D7000000018300210000002800101000000000000000000000060000000000408010040800040800002000000DFAC
:2B0D9B0002003CC001140000BCC00300000000000000000000000010400000000570000010081750000F00000008A0A0
:2B0DC600000040200010000042800100000000000000000000000000010000000408000000800040801000000080E70B
:2B0DF10000002020041000000280010000000000000000000000000000000000040810002081004280080000000092E7
:2B0E1C000000008001100000188001000000000000000000000000000000000004600000000006C00006000000808948
:2B0E4700020000C00150000018800100000000000000000000000060000000001C600000C00106C0000600000008A5BE
:2B0E7200002000000200020110000100000000000000000000000060008000000440000660000440000400000080FECF
:2B0E9D00E00100E0031E6001166001000000000000000000000000E8810700800558801EE881055880050000000080BA
:2B0EC800800101200002000110000100000000000000000000000068000604000440800668000440000400000080F3EA
:2B0EF300C00300C0411C480114400100000000000000000000000070000F00000550000770000550000500000080949D
:2B0F1E00020000200842000110000100000000000000000000000008000000000440800008000440000400000008F412
:2B0F4900000600200002000110000100000000000000000000000008001800000440800008000440000400000080DDB2
:2B0F7400000000800118001110000500000000000000000000000000000000000440010000002440011400000080F461
:2B0F9F00000000C001180001B00001000000000000000000000000100000000014400000100004C0000C00000000D187
:2B0FCA00000000000000080000000000000000000000000000000000000000000000000200000000000000000080CDA5
:2B0FF5000000000082200000001000000000000000000000000000802000000000004000200018000008020000009C61
:2B102000800008000000800000800008800008800008000000000030000220000200000110000020000020000200DC82
:2B104B00800008800008800008800008800008800008000000000020000220000220000220000220000220000280E717
:2B107600400040A002B000282040000000000000000000000000000002A100000080B000883009088000000A0080B897
:2B10A100000010400004000000000000008800000044010000000000000000000000000000000000200000000000DB08
:2B10CC00000000000000000000000000000000000000000000000000000000000000000000000000000000000080E792
:2B10F700800000000000800008802000000000000000000000000000000200000020000000000200000000000080C7BB
:2B1122004000506002A4000820400000008800000044010000000000022100000080A00088200908A000000200809F1A
:2B114D00000000000000000010000000000000000000000000000000000000000040000000020000000000000080B0F5
:2B117800008000880000000000008000000000000000000000000000000002000002000000000002000200000002C5F5
:2B11A300000000004008000008100000000000000000000000000000000000000020400000000000000001000080815F
:2B11CE00000000401080000000000000000000000000000000000000000000000000000000000100000000000000B76E
:2B11F900000000001000000000010000000000000000000000000080540010000100000080008400000000000080FF52
:2B1224000000000000100000040800000000000000000000000000000000000000002000000000000000000000809E45
:2B124F00000000000000000000000000000000000000000000000000000000000000000000000000000000000080E70D
:2B127A00000000000000000000000000000000000000000000000000000000000000000000000000000000000080E7E2
:2B12A500000000000000000000000000000000000000000000000000000000000000000000000002000000000080C7D5
:2B12D000000000000020040000020000000000000000000000000000000000000000080000000001000000000080DB69
:2B12FB000000004000001A00000000000000000000000000000000000000002000000400000000000000000000809931
:2B132600000000000000000100000000000000000000000000000040000000000400000000000010000001000080F7CF
:2B135100000000000000000000000000000000000000000000000000000000000000000000000000000000000080E70A
:2B137C00000000000000000000000000000000000000000000000000000000000000000000000000000000000080E7DF
:2B13A700000000000000000000000000000000000000000000000000000000000000000000000000000020000090D497
:2B13D200000000000000000000000000000000000000000000000000000000000000000000000000000000000080E789
:2B13FD00000000000000000000000000000000000000000000000000000000000000000000000000000000000080E75E
:2B142800000000000000000000000000000000000000000000000000000000000000000000000000000000000080E732
:2B145300000000000000000000000000000000000000000000000000000000000000000000000000000000000080E707
:2B147E00000000000000000000000000000000000000000000000000000000000000000000000000000000000080E7DC
:2B14A900000000000000000000000000000000000000000000000000000000000000000000000000000000000080E7B1
:2B14D400000000000000000000000000000000000000000000000000000000000000000000000000000000000080E786
:2B14FF000000000000000000000000000000000000000000000000000000000000000000000000000000000000C0A35F
:2B152A000000000000000000000000000000000000000000000000000000000000000000000000000000010000D0A223
:2B155500000000000000000000000000000000000000000000000000000000000000000000000000000000000080E704
:2B158000000000000000000000000000000000000000000000000000000000000000000000000000000000000008EF49
:2B15AB00000000000000000000000000000000000000000000000000000000000000000000000000000000000800E726
:2B15D600000000000200000000000000000000000000000000000000000080000000000080000000000000000080C5A3
:2B160100000000000000000000000000000000100040000000000000000000000000000000000000000000000800B3B3
:2B162C00020000000000000000000008000000000000000000000000000000000000000000000000000200000288E518
:2B165700000000000000000000000000000000000000000000000000000000000000000000000000000001000008FF60
:2B168200000000000000000000000000000000000000000000000000000000000000000000000000000000000090F6B7
:2B16AD00000000000000000000000000000000100050000000000000000000000000000000000000000001000C88FE1F
:2B16D800000000000000000000000000088008800000000000000000000000000000000000000000200022000208EF9C
:2B170300020000000000000000000000000000000000000000000000000000000000000000000000000000000008EDC4
:2B172E00800008800008800008800000000000000008000000000020000220000220000220000200000000000080E781
:2B175900800008800008800008800008800008800008000000000020000220000220000220000220000220000280E702
:2B178400000000000000000000000000000010000100000000000000000000000000000000000000000040000480E77E
:2B17AF00000000000000000000000000000016600100000000000000000000000000000000000000000058800508EFC4
:2B17DA00020000000000000000000000000012000100000000000000000000000000000000000000000040000480C546
:2B180500020000000000000000000000000014400100000000000000000000000000000000000000000050000580E5A7
:2B183000020000000000000000000000000012000100000000000000000000000000000000000000000040000480C5EF
:2B185B00020000000000000000000000000012000100000000000000000000000000000000000000000040000480C5C4
:2B188600000000000000000000000000000010000500000000000000000000000000000000000000000040000408AB2B
:2B18B1000000000000000000000000000000940003000000000000000000000000000000000000000000400214008699
:2B18DC00000000000000000000000000000010000100000000000000000000000000000000000000100040000480F705
:2B1907000000000000000000000000000000166001000000000000000000000000000000000000780000588005009851
:2B193200020000000000000000000000000010000100000000000000000000000000000000000008000040000488E5BE
:2B195D0000000000000000000000000000001440010000000000000000000000000000000000007001005000050899A3
:2B198800000000000000000000000000000010000100000000000000000000000000000000000008000040000410FEC9
:2B19B300000000000000000000000000000010000100000000000000000000000000000000000008200040000488C73D
:2B19DE000000000000000000000000000000100801000000000000000000000000000000000000600000400104088098
:2B1A09000200000000000000000000000000300005000000000000000000000000000000000000600000C0001C08EC4B
:2B1A3400000000000000000000000010000110000100000000000000000000000000000000000000000440000480A3FA
:2B1A5F00000000000000000000000016600116600100000000000000000000000000000000000000800558800500BA52
:2B1A8A00000000000000000000000010000110000100000000000000000000000000000000000000000440000480A3A4
:2B1AB500000000000000000000000014400114400100000000000000000000000000000000000000000550000508BA40
:2B1AE000020000000000000000000010000110000100000000000000000000000000000000000000000440000480A14E
:2B1B0B00020000000000000000000010000110000100000000000000000000000000000000000000000440000480A122
:2B1B36000200000000000000000000500001100001000000000000000000000000000000000000000004C0000400E573
:2B1B6100020000000000000000000010000570008300000000000000000000000000000000000000002440000481BBAB
:2B1B8C00000000000000000000000000040110000100000000000000000000000000000000000040000000200408DAD2
:2B1BB70000000000000000000000001E600116600100000000000000000000000000000000000058800F9C800500C93C
:2B1BE2000000000000000000000000020001102001000000000000000000000000000000000000408000688204009A5C
:2B1C0D0000000000000000000000005C400114400100000000000000000000000000000000000050001770000500AA34
:2B1C3800020000000000000000000002000110200100000000000000000000000000000000000040800008800488F483
:2B1C63000000000000000000000000221001102001000000000000000000000000000000000000408000EC840408E6D0
:2B1C8E000000000000000000000000180005500001000000000000000000000000000000000000400006000024109AA9
:2B1CB900000000000000000000000018000130400B000000000000000000000000000000000000C0020660000D08B47B
:2B1CE400000000000000000000000000040010000100000000000000000000000000000000080000100440000408B7A1
:2B1D0F0002000000000000000000001EE0031760010000000000000000000000000000007800007880055880058882D2
:2B1D3A000000000000000000000000022000100001000000000000000000000000000000604000080004400004008DCE
:2B1D650000000000000000000000007CC007144001000000000000000000000000000000F00000F0010550000580B34D
:2B1D9000000000000000000000000002300010000100000000000000000000000000000000010088000440000480BADA
:2B1DBB000000000000000000000000022012100001000000000000000000000000000000000000880004400004088060
:2B1DE600020000000000000000000018800110010300000000000000000000000000000000000060001440208480CD7E
:2B1E1100020000000000000000000018800110000100000000000000000000000000000000000060000C40000400C783
:2B1E3C00020000000100000000000020000010008000000000000000000000000000000000000000080840000002A3D3
:2B1E670002000060010000000000003EE003176002000000000000000000000000000000000000F8800F58800900F3F8
:2B1E9200000000000100000000000002210412A0050000000000000000000000000000000000000880004A801688F462
:2B1EBD0000000040010000000000001CC00314C001000000000000000000000000000000000000F0400F50000700FE71
:2B1EE800000000000100000000000042200212201000000000000000000000000000000000000008802048804080C236
:2B1F1300000000000100000000000022200212A00300000000000000000000000000000000000008820048800600FC55
:2B1F3E00020000000500000000000018800190000000000000000000000000000000000000000060000640020088EF29
:2B1F690000000000030000000000001C8001148001000000000000000000000000000000000000700007D0000608E7DC
:2B1F9400000000002000000000000010002000008000000000000000000000000000000000080040000000200490C78F
:2B1FBF00000000600000000000000016E00306610200000000000000000000000000000018000058800F9C800508B954
:2B1FEA0000000080010100000000001020001AA009000000000000000000000000000000604000408000688104889EE4
:2B201500020000C00300000000000014C081BCC001000000000000000000000000000000F0000050001F70000588C2EB
:2B20400000000080010000000000001020080220000000000000000000000000000000006000004080000C800400E109
:2B206B0000000080010000000000001020003AA24100000000000000000000000000000060000040800068C00480A30D
:2B209600000000800100000000000010800100000000000000000000000000000000000060000040010600000480F7EB
:2B20C100000000800100000000000090C00118800100000000000000000000000000000060000040000660002D80C313
:2B20EC0002000000200000000000002000200000010000000000000000000008000000004000000008084000008AFE46
:2B211700020000E0010000000000003EE003066101000000000000000000780000000000580000F8800F58800908E20F
:2B21420002000080010100000000000230005A20010000000000000000006040000000004000000880004C802608BA25
:2B216D00020000C0030000000000003CC0011D4001000000000000000000F00000000000500000F0040F50000788A85D
:2B219800000000000000000000000082200002240100000000000000000000000000000040000008811048800000F2C0
:2B21C30000000000060000000000000220083A200100000000000000000080010000000040000088800048808680C40B
:2B21EE00000000000000000000000018800100000900000000000000000000000000000040010060000640000000F746
:2B2219000A000000000000000000001CC001184003000000000000000000000000000000C00000700007D0020600F257
:2B2244000A0000000000000000000000000000004000000000000000000000000000000000000000000000000080E9BC
:2B226F00000000000000000000000020088220080200000000000000000000000000000000000080200882200882EFAD
:2B229A00800008800008800008800000000000000008000000000020000220000220000220000200000000000080E70A
:2B22C500800008800008800008800008800008800008000000000020000220000220000220000220000220000280E78B
:2B22F000000000400000140000A068002002220008800200000000000000000014000000100003488220C08AA083C05B
:2B231B00000002000000000200000000000000000000000000000080000000000000000800002000000000000080E784
:2B234600000000000000200002005000004000000000000000000000000000000008000000000040100000000000BAA8
:2B237100000000000000000000000000002000800000000000000000000000000000000000000000000020000000CFB2
:2B239C00000002400000300202201800200222020880000000000080000000001008000810002108822080822082B5C6
:2B23C700000000000000000000000000800040001000000000000000000000000000000000000020000000400000C8F3
:2B23F200000000008000000000000000400000800000000000000000000000200000000000200010000000000400F23A
:2B241D0000000000000000000000000004C000000000000000000000000000000000000000000000100003000080CF6E
:2B244800000000000000000000000004010400000000000000000000000000000000000000000000050100000080F6E4
:2B2473000000000000000000000000000820004040000000000000000000000000000000000000000000040040C0A9E9
:2B249E00000000000000000000000000100010040000000000000000000000000000000000000000000000080800EAF5
:2B24C900000000000000000000000000000000040000000000000000000000000000000000000000000000100081E370
:2B24F400000000000000000000000000000000000800000000000000000000000000000000000000000000000000E7CE
:2B251F00000000000000000000000000000000000000000000000000000000000000000000000000000000000090F60B
:2B254A000000000000000000000000000000000000000000000000000000000000000000000000000000000000C0A303
:2B257500000000000000000000000000000001000000000000000000000000000000000000000000280010000080CEB4
:2B25A0000000000000000000000000100800000000000000000000000000000000000000000000000000060000809ED4
:2B25CB00000000000000000000000000000010000000000000000000000000000000000000000000000000000080F65F
:2B25F600000000000000000000000000022080004000000000000000000000000000000000000000088000100001E35C
:2B262100000000000000000000000000000000000000000000000000000000000000000000000000000000000080E727
:2B264C00000000000000000000000000000000000000000000000000000000000000000000000000000000000080E7FC
:2B267700000000000000000000000000400000000000000000000000000800000000004000000000000000000000A30D
:2B26A200000000000000000000000100000000000000000000000000000000000000000000000000000000000080F696
:2B26CD00000000000000000000000000000000000000000000000000000000000000000000000000000000000080E77B
:2B26F800000000000000000000000000000000000000000000000000000000000000000000000000000000000080E750
:2B272300000000000000000000000000000000000000000000000000000000000000000000000000000000000080E724
:2B274E00000000000000000000000000000000000000000000000000000000000000000000000000000000000080E7F9
:2B277900000000000000000000000000000000000000000000000000000000000000000000000000000000000080E7CE
:2B27A400000000000000000000000000000000000000000000000000000000000000000000000000000000000080E7A3
:2B27CF00000000000000000000000000000000000000000000000000000000000000000000000000000000000080E778
:2B27FA00000000000000000000000000000000000000000000000000000000000000000000000000000000000080E74D
:2B282500000000000000000000000000000000000000000000000000000000000000000000000000000000000080E721
:2B285000000000000220000000000000000000000020000000000000000000000000000000000000000000000080C5D6
:2B287B00000000000000000000080002000000000000000000000000000000000000000000000000800002000000E7BF
:2B28A600020000000000000000000000000000000000000000000000000000000000000000000000000000000008ED10
:2B28D100000000000000000000000000000000000000000000000000000000000000000000000000000000000080E775
:2B28FC00000000000000000000000002000000000000000000000000000000000000000000000000800002000000EF3E
:2B292700000000000000000000080000000000000000000000000000000000000000000000000000000000000080EF0E
:2B295200000000000000008000040000000000000000000000000000000000000001100002200001000000000080FB27
:2B297D00020001000000000000000000000000000000000000000000000000000080000000000000000000000088FD27
:2B29A800000008800008000000800008800008800008000000000020000220000000000000000020000220000200CD89
:2B29D300800008800008800008800008800008800008000000000020000220000220000220000220000220000280E776
:2B29FE00000000000000000010000000000000000000000000000000000000000000000000000000000000000080F628
:2B2A29000200000000000000160000000000000000000000000000000000000000000000000000000000000000089CC6
:2B2A5400000000000000000010000000000000000000000000000000000000000000000000000000000000000080F6D1
:2B2A7F00000000000000000014000000000000000000000000000000000000000000000000000000000000000080B6E2
:2B2AAA00000000000000000010000000000000000000000000000000000000000000000000000000000000000080F67B
:2B2AD500000000000000000010000000000000000000000000000000000000000000000000000000000000000080F650
:2B2B0000020000000000000050000000000000000000000000000000000000000000000000000000000000000008B898
:2B2B2B00000000000000000010000000000000000000000000000000000000000000000000000000000000000080F6F9
:2B2B5600000000000000000000010000000000000000000000000000000000000040000000000000000000000080A2F1
:2B2B810000000000000000003E000000000000000000000000000000000000000058000000000000000000000080E132
:2B2BAC000200000000000000020000000000000000000000000000000000000000400000000000000000000000088929
:2B2BD70000000000000000009C000000000000000000000000000000000000000050000000000000000000000080EB7C
:2B2C02000000000000000000020000000000000000000000000000000000000000400000000000000000000000808362
:2B2C2D000000000000000000A2000000000000000000000000000000000000000040000000000000000000000000A1F9
:2B2C5800000000000000000018000000000000000000000000000000000000000040000000000000000000000000BA3F
:2B2C8300020000000000000018000000000000000000000000000000000000000040400000000000000000000088F014
:2B2CAE00000000000000000000010000000000000000020000000000000000004040000000000000000000000080A454
:2B2CD90000000000000000003E000000000000000006000000000000000000800F58000000000000000000000080FE27
:2B2D0400000000000000000042000000000000000018100000000000000000800040000000000000000000000080C634
:2B2D2F0002000000000000001C00000000000000003C000000000000000000001F50000000000000000000000088EC3C
:2B2D5A000000000000000000820000000000000000180000000000000000008020400000000000000000000000009044
:2B2D85000000000000000000020000000000000000180000000000000000008000400000000000000000000000809237
:2B2DB000000000000000000018000000000000000018000000000000000000000640000000000000000000000080C53D
:2B2DDB00000000000000000018000000000000000018000000000000000000000640200000000000000000000080E5D2
:2B2E0600020000000000000020000000000000000000020000000000000000004000000000000000000000000008C96C
:2B2E3100000000000000E0113E000000000000000006000000000000000000800FF8884778040000000000000080AC43
:2B2E5C00000000000000200002000000000000000018100000000000000000801008800008040000000000000000EBF2
:2B2E8700000000000000C0411C10000000000000003C000000000000000000000F7008077100000000000000008090A8
:2B2EB200020000000000200002000000000000000018000000000000000000800008811008010000000000000088F51A
:2B2EDD00000000000000200462000000000000000018000000000000000000802008800008000000000000000000DE1E
:2B2F0800000000000000800118000000000000000018000000000000000000000660000660000000000000000000FE23
:2B2F3300000000000000C0011C000000000000000018000000000000000000000670000770000000000000000000EFA2
:2B2F5E00000000000000000120000000000000000000020000000000000000000440000440004000000000000080D20B
:2B2F8900E2130000000060013E000000000000000006000000000000000000800558800558800F0000000000000882B0
:2B2FB400200000000000000102000000000000000018100000000000000000000440000440800000000000000080F728
:2B2FDF00C0210000000040011C04000000000000003C000000000000000000000550000550001F00000000000080BD43
:2B300A00200000000000000142000000000000000018000000000000000000000440000440801000000000000080A2E6
:2B3035002204000000000001220000000000000000180000000000000000000004400004408000000000000000088B74
:2B3060008001000000000081180000000000000000180000000000000000000004400004400006000000000000008104
:2B308B00C0010000000000031C0000000000000000180000000000000000000024C0011CC0010600000000000080A832
:2B30B600000100000000000110000000000000000010000000000000000000000400000440000400000000000080E71A
:2B30E1006001000000006001160000000000000000160000000000000000008005F8C00558800500000000000080D85F
:2B310C00020100000000000110000000000000000010000000000000000000000408000440000400000000000088E5B3
:2B3137004001000000004001140000000000000000140000000000000000000005F004055000050000000000000094DC
:2B316200000100000000000110000000000000000010000000000000000000000408000440000400000000000000EFDD
:2B318D00000100000000000110000000000000000010000000000000000000000488020440000400000000000080EDB2
:2B31B800020500000000000110000000000000000010000000000000000000002460004440000400000000000008C9E7
:2B31E300000300000000000790000000000000000090000000000000000000000460000440101C00000000000000D4EF
:2B320E00000000000000000110000000000000000010000000000040000000008040000440000400000000000080BAF2
:2B323900E00301000000600116000000000000000016000000000058808F00800F588005588005000000000000808841
:2B326400200400000000000110000000000000000010000000000040800000804040000440000400000000000080D2A0
:2B328F00C20100000000400114000000000000000014000000000050008700000750000550000500000000000088B820
:2B32BA0020100000000000011000000000000000001000000000004080000080104000044000040000000000008092AE
:2B32E500200000000000000110000000000000000010000000000040804000800040000440000400000000000080965F
:2B331000800100000000000190000000000000000090000000000040000600000640000440001400000000000000AA62
:2B333B00820100000000000910000000000000000010000000000040080600000740022440020400000000000008BAF8
:2B336600000110002000020010000000000000000010000000000000000000008000000000000800000000000000EF72
:2B339100600116E0011EE01316E01100E003010000160000000000000000F8C00FF8C04FF8840F000000000000008EC0
:2B33BC00000110800119300010201000200200000010000000000000000008800808800008800000000000000000E415
:2B33E700400114C0033CC00914C00100C003000000140000000000000000F0200F70022770020701000000000080AE92
:2B341200020110000000200410200000200200000010000000000000000088800008820008801000000000000088A89C
:2B343D00000110000660200010208200200000000010000000000000000008801008801008810800000000000000EC3E
:2B346800000510000000800110800100800100000050000000000000000060000660000660000600000000000000FE11
:2B3493000001100200008001B0800100800100000010000000000000000060000760000660000700000000000080DE26
:2B34BE00008000000000000000008000008000000000000000000000000002200000200000000000000000000080CFD2
:2B34E900000200000000000021080000000200000000000000000000000080000882000004400802000000000080DDD6
:2B351400000008800008000000000008000008800008000000000020000000000000000000000020000220000200CD33
:2B353F00800008800008800008800008800008800008000000000020000220000220000220000220000220000280E7FE
:2B356A002002004000042028000000302000000000440100000000000008088008888200080A8000000000000000D9E6
:2B359500000000000000000100008000000000000010000000000040000000000000000400000080000000000000EFC7
:2B35C000400040000000000000400000000000000000000000000000000100000000000000000100000000000080A3FB
:2B35EB00000008800008000000000000000000000008020000000000000000000000000000008000000000000080ED2E
:2B36160060024040000420090040802020000000005401000000004000090880088882040802018000000000008086AD
:2B364100000000000000000100000100000000000000000000000000001000000020000440000000000000000080C4A4
:2B366C00000000008000080008000000400000000000080000000000000000000300000000000200000000000000B6A0
:2B369700800001000000800001040000000000000000000000000000000000000001010224400001000000000080E237
:2B36C200000000000000000004010000000000000000000000000000000000005000020000004100000000000080B411
:2B36ED00000000000000000000114000000000000000000000000000000410100000080000044000000000000080BFB2
:2B371800000000000000004000000000000000000000000000000000000000000000000040000000000000000080A7DF
:2B374300000000000000000000000000000000000000000000000000000000000000000000000000000000000080E7F4
:2B376E00000000000000000000000000000000000000000000000000000000000000000000000000000000000080E7C9
:2B379900008000000000000000000000008000000000000000000000000000200000200000000000000000000080E75E
:2B37C400004000000000002000002000004000000000000000000000008000100000108000080000000000000080EF83
:2B37EF00000220000000001000000000000000000000000000000080000000000080400000000000000000000080A617
:2B381A00000100000000000000000000000000000000000000000000000000000400000400000000000000000080F604
:2B384500000000000000000000000000000000000000000000000000000000000000000000000000000000000080E7F1
:2B387000000000000000000000000000000000000000000000000000000000000000000000000000000000000080E7C6
:2B389B00000000000000000000000000000000000000000000000000000000000000000000000000000020000080C59D
:2B38C60000000000000000000000000000000000000000000000000000000000000000000000000000000008068089C0
:2B38F100000000000000000000000000000000000000000000000000000000000000000000000000000000000080E745
:2B391C00000000000000000000000000000000000000000000000000000000000000000000000000000000000080E719
:2B3947004010044110044110044110044110044110040100000000100441100441100441100441100441108E4300C706
:2B397200601886611886611886611886611886611886010000000018866118866118866118866118866118966580B3EF
:02399D00FFFF2A
:00000001FF
