:020000040000FA
:2B000000FFFF62FF2500FFFFFFFFFFFFFFFFFFFFFFFFFFFFFFFFFFFFFFFFFFFFFFFFFFFFFFFFFFFFFFFFFFFFFFFFFF76
:2B002B00601886611886611886611886611886611886010000000018866118866118866118866118866118866180E74F
:2B005600401004411004411004411004411004411004010000000010044110044110044110044110044110044180E71C
:2B008100000000000000000000000000000000000000000000000000000000000000000000000000000000000080E7ED
:2B00AC00000000000000000000000000000000000000000000000000000000000000000000000000000000000080E7C2
:2B00D700000000000000000000000000000000000000000000000000000000000000000000000000000000000080E797
:2B010200000000000000000000000000000000000000000000000000000000000000000000000000000000000080E76B
:2B012D000000000000000000000000000000000000000000000000000000000000000000000000000000000000A0C542
:2B015800000000000000000000000000000000000000000000000000000000000000000000000000000000000008EF85
:2B018300000000000000000000000000000000000000000000000000000000000000000000000000000000000080E7EA
:2B01AE00000000000000000000000000000000000000000000000000000000000000000000000000000000000080E7BF
:2B01D900000000000000000000000000000000000000000000000000000000000000000000000000000000000080E794
:2B020400000000000000000000000000000000000000000000000000000000000000000000000000000000000080E768
:2B022F00000000000000000000000000000000000000000000000000000000000000000000000000000000000080E73D
:2B025A00000000000000000000000000000000000000000000000000000000000000000000000000000000000080E712
:2B028500000000000000000000000000000000000000000000000000000000000000000000000000000000000080E7E7
:2B02B000000000000000000000000000000000000000000000000000000000000000000000000000000000000008EF2C
:2B02DB00000000000000000000000000000000000000000000000000000000000000000000000000000000000080E791
:2B030600000000000000000000000000000000000000000000000000000000000000000000000000000000000080E765
:2B033100000000000000000000000000000000000000000000000000000000000000000000000000000000000080E73A
:2B035C00000000000000000000000000000000000000000000000000000000000000000000000040000000000080A313
:2B038700000000000000000000000000000000000000000000000000000000000000000000000000802000000000EDBE
:2B03B200020000000000000000000000000000000000000000000000000000000000000000000000000000000008ED29
:2B03DD00000000000000000000000000000000000000000000000000000000000000000000000000000000000080E78E
:2B040800000000000000000000000000000000000000000000000000000000000000000000000000000000000080E762
:2B04330000000000000000000000000000000000000000000000000000000000000000000000000080A000000000E599
:2B045E00000000000000000000000000000000000000000000000000000000000000000000000000000000000080E70C
:2B048900020000000000000000000000000000000000000000000000000000000000000000000000000000000008ED51
:2B04B400800008800008800008800008800008800008000000000020000220000220000220000220000220000280E7BA
:2B04DF00800008800008800008800008800008800008000000000020000220000220000220000220000220000280E78F
:2B050A00000000000000000000000000000000000000000000000000000000000000000000000000000000000080E75F
:2B053500020000000000000000000000600A00000000000000000000000000000000000000000098822900000088AFB5
:2B056000000000000000000000000000200000000000000000000000000000000000000000000008800000000008CFF1
:2B058B00000000000000000000000000400000000000000000000000000000000000000000000010000100000090B6AE
:2B05B600000000000000000000000000A00100000000000000000000000000000000000000000068800600000088D62D
:2B05E100000000000000000000000000A00100000000000000000000000000000000000000000068800600000088D602
:2B060C00020000000000000000000000800100000000000000000000000000000000000000000060000600000088F45E
:2B063700000000000000000000000000800100000000000000000000000000000000000000000060000600000000FEB3
:2B066200000000000000000000000000000100000000000000000000000000000000000000000040000400000080F6B2
:2B068D0000000000000000000000000060010000000000000000000000000000000000000000005880050000008096EE
:2B06B800020000000000000000000000200100000000000000000000000000000000000000000048800400000008DC44
:2B06E300000000000000000000000000400100000000000000000000000000000000000000000050000500000080B620
:2B070E00000000000000000000000000200100000000000000000000000000000000000000000048800400000080D67D
:2B073900000000000000000000000000200100000000000000000000000000000000000000000048800400000080D652
:2B076400000000000000000000000000000100000000000000000000000000000000000000000040040404000080B2EB
:2B078F00020000000000000000000000001100000000000000000000000000000000000000000040000C00000088FD5B
:2B07BA00000000000000000000000000000000000000000000000000000000000000000000000000001000000080E69E
:2B07E5000000000000000000000000006008000000000000000000000000000000000000000000988101000000808661
:2B081000000000000000000000000000200000000000000000000000000000000000000000000008800000000080C7CE
:2B083B00020000000000000000000000400000000000000000000000000000000000000000000010000100000008AD8A
:2B086600000000000000000000000000A00100000000000000000000000000000000000000000068800600000088D67A
:2B089100000000000000000000000000A00100000000000000000000000000000000000000000068800600000010CFCE
:2B08BC00000000000000000000000000800100000000000000000000000000000000000000000060000600000088F6AC
:2B08E700000000000000000000000000800100000000000000000000000000000000000000000060000600000088F681
:2B091200020000000000000000000000000800000000000000000000000000000000000000000000011000000088ED2A
:2B093D00000000000000000000000000600200000000000000000000000000000000000000000018800900000000A5E7
:2B096800000000000000000000000000200000000000000000000000000000000000000000000008800000000080C775
:2B099300000000000000000000000000400000000000000000000000000000000000000000000010000100000080A7C1
:2B09BE00020000000000000000000000A00100000000000000000000000000000000000000000068800600000088D421
:2B09E900020000000000000000000000A00100000000000000000000000000000000000000000068800600000000DC76
:2B0A1400040000000000000000000000800100000000000000000000000000000000000000000060000600000000FAD2
:2B0A3F00020000000000000000000000800100000000000000000000000000000000000000000060000600000000FCA7
:2B0A6A00020000000000000000000000000000000000000000000000000000000000000000000000022000000080E5D8
:2B0A9500020000000000000000000000600600000000000000000000000000000000000000000098800900000008EBBA
:2B0AC000000000000000000000000000200000000000000000000000000000000000000000000008800000000080C71C
:2B0AEB00000000000000000000000000400000000000000000000000000000000000000000000010000100000080A768
:2B0B1600000000000000000000000000A00100000000000000000000000000000000000000000068800600000000DE47
:2B0B4100000000000000000000000000A00100000000000000000000000000000000000000000068800600000088D69C
:2B0B6C00020000000000000000000000800100000000000000000000000000000000000000000060000600000000FC79
:2B0B9700020000000000000000000000800100000000000000000000000000000000000000000060000600000000FC4E
:2B0BC200020000000000000000000000000400000000000000000000000000000000000000000000010000000080A0E1
:2B0BED00020000000000000000000000600200000000000000000000000000000000000000000098801900000080A622
:2B0C1800000000000000000000000000200000000000000000000000000000000000000000000008800000000008CF32
:2B0C4300000000000000000000000000400000000000000000000000000000000000000000000010000100000080A70E
:2B0C6E00000000000000000000000000A00100000000000000000000000000000000000000000068800600000000DEEE
:2B0C9900000000000000000000000000A00100000000000000000000000000000000000000000068800600000000DEC3
:2B0CC400020000000000000000000000800100000000000000000000000000000000000000000060000600000088F4A0
:2B0CEF00000000000000000000000000800100000000000000000000000000000000000000000060000600000000FEF5
:2B0D1A00000000000000000000000000000400000000000000000000000000000000000000000000000000000080A387
:2B0D45000000000000000000000000006000000000000000000000000000000000000000000000188211000000808474
:2B0D7000000000000000000000000000200000000000000000000000000000000000000000000008800000000080C769
:2B0D9B00020000000000000000000000400000000000000000000000000000000000000000000010000100000008AD25
:2B0DC600000000000000000000000000A00100000000000000000000000000000000000000000068800600000000DE95
:2B0DF100000000000000000000000000A00100000000000000000000000000000000000000000068800600000000DE6A
:2B0E1C00000000000000000000000000800100000000000000000000000000000000000000000060000600000000FEC6
:2B0E4700000000000000000000000000800100000000000000000000000000000000000000000060000600000088F61B
:2B0E7200020000000000000000000010000800000000000000000000000000000000000000000000002000000000F625
:2B0E9D00020000000000000000000016600000000000000000000000000000000000000000000018810100000080F5A3
:2B0EC800020000000000000000000012200000000000000000000000000000000000000000000008800000000080F4CF
:2B0EF300020000000000000000000014400000000000000000000000000000000000000000000010000100000080F4F9
:2B0F1E00000000000000000000000012A00100000000000000000000000000000000000000000068800600000088E798
:2B0F4900000000000000000000000012A00100000000000000000000000000000000000000000068800600000000EFED
:2B0F7400000000000000000000000010840100000000000000000000000000000000000000000060000600000000EB6C
:2B0F9F00000000000000000000000030800100000000000000000000000000000000000000000060000600000000CD43
:2B0FCA000A0000000000000000000008800000000000000000000000000000000000000000000020000200000080EDDB
:2B0FF500000000000000000000000000000000000000000000000000000000000000000000000000000000000080E76A
:2B102000800008800008800008800000000008800008000000000020000220000220000220000200000020000280E7EC
:2B104B00800008800008800008800008800008800008000000000020000220000220000220000220000220000280E717
:2B1076000000000000000000000000000000000C0000000000000000000000000000000000000000000000000080EBD8
:2B10A100000000000000000000000000000000000000000000000000000000000000000000000000000000000080E7BD
:2B10CC00000000000000000000000000000000000000000000000000000000000000000000000000000000000080E792
:2B10F700000000000000000000000008000000000000000000000000000000000000000000000000000000000000EFD7
:2B112200000000000000000000000000000000080000000000000000000000000000000000000000000000000080EF2B
:2B114D00000000000000000000000000000100000000000000000000000000000000000000000000000000000080F600
:2B117800000000000000000000000000000000000000000000000000000000000000000000000000000002000080C703
:2B11A300000000000000000000000000000000000000000000000000000000000000000000000000000000000080E7BA
:2B11CE00000000000000000000000000000000000000000000000000000000000000000000000000000000000080E78F
:2B11F900100000000000000000000000000000000000000000000000000000000000000000000000000000000080F744
:2B122400000000000000000000000000000000000000000000000000000000000000000000000000000000000080E738
:2B124F00000000000000000000000000000000000000000000000000000000000000000000000000000000000080E70D
:2B127A00000000000000000000000000000000000000000000000000000000000000000000000000000000000080E7E2
:2B12A500000000000000000000000000000000000000000000000000000000000000000000000000000000000080E7B7
:2B12D000000000000000000000000000000000000000000000000000000000000000000000000000000000000080E78C
:2B12FB00000000000000000000000000000000000000000000000000000000000000000000000000000000000080E761
:2B132600000000000000000000000000000000000000000000000000000000000000000000000000000000000080E735
:2B135100100000000000000000000000000000000000000000000000000000000000000000000000000000000080F7EA
:2B137C00000000000000000000000080000000000000000000000000000000000000000000000000000000000000E7DF
:2B13A700000000000000000000000000000000000000000000000000000000000000000000000000000000000080E7B4
:2B13D200000000000000000000000000000000000000000000000000000000000000000000000000000000000080E789
:2B13FD00000000000000000000000000000000000000000000000000000000000000000000000000000000000080E75E
:2B142800000000000000000000000000000000000000000000000000000000000000000000000000000000000080E732
:2B145300080000000000000000000000000000000000000000000000000000000000000000000000000000000080EFF7
:2B147E00000000000000000000000000000000000000000000000000000000000000000000000000000000000080E7DC
:2B14A900020000000000000000000000000000000000000000000000000000000000000000000000000000000080E5B1
:2B14D400000000000000000000000000000000000000000000000000000000000000000000000000000000000080E786
:2B14FF00000000000000000000000000000000000000000000000000000000000000000000000000000000000080E75B
:2B152A00080000000000000000000000000000000000000000000000000000000000000000000000000000000080EF1F
:2B155500000000000000000000000000000000000000000000000000000000000000000000000000000000000080E704
:2B158000000000000000000000000000000000000000000000000000000000000000000000000000000000000080E7D9
:2B15AB00000000000000000000000000000020000000000000000000000000000000000000000000000000000080C5B0
:2B15D600000000000000000000000000000000000000000000000000000000000000000000000000000000000080E783
:2B160100000000000000000000000000000000200080000000000000000000000000000000000000000000000000C757
:2B162C00020000000000000000000000000000000000000000000000000000000000000000000000000000000008ED9C
:2B165700000000000000000000000000000000000000000000000000000000000000000000000000000000000080E701
:2B168200000000000000000000000000000000000000000000000000000000000000000000000000000000000080E7D6
:2B16AD00000000000000000000000000000000200080000000000000000000000000000000000000000000000000C7AB
:2B16D800000000000000000000000000000000000000000000000000000000000000000000000000000000000080E780
:2B170300020000000000000000000000000000000000000000000000000000000000000000000000000000000008EDC4
:2B172E00800008800008800008800008800008800008000000000020000220000220000220000220000220000280E72D
:2B175900800008800008800008800008800008800008000000000020000220000220000220000220000220000280E702
:2B178400000000000000000000000000000000000400000000000000000000000000000000000000000000000080A313
:2B17AF000200000000000000000000000000A6600000000000000000000000000000000000000000000098020088D411
:2B17DA00020000000000000000000000000002200000000000000000000000000000000000000000000008000000EDCB
:2B180500040000000000000000000000000004400000000000000000000000000000000000000000000010000080F2EE
:2B18300002000000000000000000000000001AA001000000000000000000000000000000000000000000680000008BDD
:2B185B0002000000000000000000000000001AA001000000000000000000000000000000000000000000680000008BB2
:2B1886000200000000000000000000000000188001000000000000000000000000000000000000000000600000088BA9
:2B18B1000000000000000000000000000000188001000000000000000000000000000000000000000000600000808112
:2B18DC00000000000000000000000000000010000840000000000000000000000000000000000000000040000000F653
:2B190700000000000000000000000000000016600226000000000000000000000000000000000000000058000000CBF4
:2B19320002000000000000000000000000001220000200000000000000000000000000000000000000004800008890F4
:2B195D00000000000000000000000000000014400004000000000000000000000000000000000000000050000080E354
:2B198800000000000000000000000000000012A0011A0000000000000000000000000000000000000000480000009A85
:2B19B300000000000000000000000000000012A0011A0000000000000000000000000000000000000000480000009A5A
:2B19DE00000000000000000000000000000010800118000000000000000000000000000000000000000040100080A2C3
:2B1A09000200000000000000000000000000108201180000000000000000000000000000000000000000C0000088BA03
:2B1A3400000000000000000000000000000000000000000000000000000000000000000000000000000000000080E720
:2B1A5F00000000000000000000000000000086600A261000000000000000000000000000000000000000180200008C90
:2B1A8A00000000000000000000000000000002200002000000000000000000000000000000000000000008000000CF36
:2B1AB500020000000000000000000000000004400004000000000000000000000000000000000000000010000008BCE8
:2B1AE00002000000000000000000000000001AA0011A000000000000000000000000000000000000000068000080B26A
:2B1B0B0004000000000000000000000000001AA0011A000000000000000000000000000000000000000068000080B43A
:2B1B36000200000000000000000000000000188001180000000000000000000000000000000000000000600000009AD7
:2B1B61000200000000000000000000000000188001180000000000000000000000000000000000000000600000009AAC
:2B1B8C00020000000000000000000000000080000440000000000000000000000000000000000000000000020088EFEF
:2B1BB7000000000000000000000000000000266002060000000000000000000000000000000000000000980000809EBF
:2B1BE200000000000000000000000000000002200002000000000000000000000000000000000000000008000000CFDD
:2B1C0D00000000000000000000000000000004400004000000000000000000000000000000000000000010000080B61E
:2B1C380002000000000000000000000000001AA0011A000000000000000000000000000000000000000068000008BA80
:2B1C630000000000000000000000000000001AA0011A000000000000000000000000000000000000000068000080B0E9
:2B1C8E000000000000000000000000000000188001180000000000000000000000000000000000000000600000009882
:2B1CB9000000000000000000000000000000188001180000000000000000000000000000000000000000600000009857
:2B1CE400000000000000000000000000000040000180000000000000000000000000000000000000000000010000B360
:2B1D0F00020000000000000000000000000026600106000000000000000000000000000000000000000098000008A7D3
:2B1D3A00000000000000000000000000000002200102000000000000000000000000000000000000000008000000DE73
:2B1D6500000000000000000000000000000004400104000000000000000000000000000000000000000010000080A7D3
:2B1D900000000000000000000000000000001A20011A000000000000000000000000000000000000000068000000B8B3
:2B1DBB0002000000000000000000000000001A20011A000000000000000000000000000000000000000068000088B204
:2B1DE600020000000000000000000000000018000318000000000000000000000000000000000000000060000080B00D
:2B1E110004000000000000000000000000001800011800000000000000000000000000000000000000006000008094FD
:2B1E3C00020000000000000000000000000000000000000000000000000000000000000000000000000000010080E414
:2B1E6700020000000000000000000000000066600666000000000000000000000000000000000000000018000000FA0A
:2B1E9200020000000000000000000000000002200002000000000000000000000000000000000000000008000088C5AA
:2B1EBD00000000000000000000000000000004400004000000000000000000000000000000000000000010000080B66C
:2B1EE80000000000000000000000000000001AA0011A000000000000000000000000000000000000000068000080B062
:2B1F130000000000000000000000000000001AA0011A000000000000000000000000000000000000000068000080B036
:2B1F3E00020000000000000000000000000018800118000000000000000000000000000000000000000060000088924B
:2B1F690000000000000000000000000000001880011800000000000000000000000000000000000000006000000098A4
:2B1F9400000000000000000000000000000080000000000000000000000000000000000000000000000000020000E5BB
:2B1FBF000000000000000000000000000000066004460000000000000000000000000000000000000000180000009E91
:2B1FEA00000000000000000000000000000002200002000000000000000000000000000000000000000008000000CFD1
:2B201500020000000000000000000000000004400004000000000000000000000000000000000000000010000008BC82
:2B20400000000000000000000000000000001AA0011A000000000000000000000000000000000000000068000080B008
:2B206B0000000000000000000000000000001AA0011A000000000000000000000000000000000000000068000080B0DD
:2B2096000000000000000000000000000000188001180000000000000000000000000000000000000000600000009876
:2B20C10000000000000000000000000000001880011800000000000000000000000000000000000000006000008890CB
:2B20EC00020000000000000000000000000040000800000000000000000000000000000000000000000000000088A94E
:2B2117000200000000000000000000000000066000860000000000000000000000000000000000000000180100908C7A
:2B214200020000000000000000000000000002200002000000000000000000000000000000000000000008000088C5F7
:2B216D00020000000000000000000000000004400004000000000000000000000000000000000000000010000008BC29
:2B21980000000000000000000000000000001AA0011A000000000000000000000000000000000000000068000008B81F
:2B21C30000000000000000000000000000001AA0011A000000000000000000000000000000000000000068000080B084
:2B21EE00000000000000000000000000000018800118000000000000000000000000000000000000000060000000981D
:2B22190000000000000000000000000000001880011800000000000000000000000000000000000000006000000098F1
:2B224400020000000000000000000000000008800008000000000000000000000000000000000000000020000000CFEE
:2B226F00000000000000000000000000000000000000000000000000000000000000000000000000000000000080E7DD
:2B229A00800008800008800008800008800000000000000000000020000220000220000220000220000200000200CD00
:2B22C500800008800008800008800008800008800008000000000020000220000220000220000220000220000280E78B
:2B22F000000000000000000000000000000080000000000000000000000000000000000000000000000008000080EFCC
:2B231B00000000000000000000000000000000000000000000000000000000000000000000000000000000000080E730
:2B234600000000000000000000000002000000000000000000000000000000000000000000000000000000000080C723
:2B237100000000000000000000000000000000000000000000000000000000000000000000000000000000000080E7DA
:2B239C00000000000000000000000002000080000000000000000000000000000000000000000000000008000080CF3D
:2B23C700000000000000000000000000000000400000000000000000000000000000000000000000000000000080A784
:2B23F200000000000000000000000000000000000000000000000000000000000000000000000000000000000080E759
:2B241D00000000000000000000000000000000000000000000000000000000000000000000000000000000000080E72D
:2B244800000000000000000000000000000000000000000000000000000000000000000000000000000000000080E702
:2B247300000000000000000000000000000000000000080000000000000000000000000000000000000000000080EFC7
:2B249E00000000000000000000000000000000000000000000000000000000000000000000000000000000000008EF1C
:2B24C900000000000000000000000000000000000000000000000000000000000000000000000000000000000080E781
:2B24F400000000000000000000000000000000000000000000000000000000000000000000000000000000000080E756
:2B251F00000000000000000000000000000000000000000000000000000000000000000000000000000000000080E72A
:2B254A00000000000000000000000000000000000000000000000000000000000000000000000000000000000080E7FF
:2B257500000000000000000000000000000000000000000000000000000000000000000000000000000000000080E7D4
:2B25A000080000000000000000000000000000000000000000000000000000000000000000000000000000000080EF99
:2B25CB00000000000000000000000000000000000000000000000000000000000000000000000000000000000080E77E
:2B25F600000000000000000000000000000000000000000000000000000000000000000000000000000000020080E553
:2B262100000000000000000000000000000000000000000000000000000000000000000000000000000000000080E727
:2B264C00000000000000000000000000000000000000000000000000000000000000000000000000000000000080E7FC
:2B267700000000000000000000000000000000000000000000000000000000000000000000000000000000000080E7D1
:2B26A200000000000000000000000000000000000000000000000000000000000000000000000000000000000080E7A6
:2B26CD00000000000000000000000000000000000000000000000000000000000000000000000000000000000080E77B
:2B26F800000000000000000000000000000000000000000000000000000000000000000000000000000000000080E750
:2B272300000000000000000000000000000000000000000000000000000000000000000000000000000000000080E724
:2B274E00000000000000000000000000000000000000000000000000000000000000000000000000000000000080E7F9
:2B277900000000000000000000000000000000000000000000000000000000000000000000000000000000000080E7CE
:2B27A400000000000000000000000000000000000000000000000000000000000000000000000000000000000080E7A3
:2B27CF00000000000000000000000000000000000000000000000000000000000000000000000000000000000080E778
:2B27FA00000000000000000000000000000000000000000000000000000000000000000000000000000000000080E74D
:2B282500000000000000000000000000000000000000000000000000000000000000000000000000000000000080E721
:2B285000000000000000000000000000000000000000000000000000000000000000000000000000000000000080E7F6
:2B287B00000000000000000000000000000000000000000000000000000000000000000000000000000000000080E7CB
:2B28A600020000000000000000000000000000000000000000000000000000000000000000000000000000000008ED10
:2B28D100000000000000000000000000000000000000000000000000000000000000000000000000000000000080E775
:2B28FC00000000000000000000000000000000000000000000000000000000000000000000000000000000000080E74A
:2B292700000000000000000000000000000000000000000000000000000000000000000000000000000000000080E71E
:2B295200000000000000000000000000000000000000000000000000000000000000000000000000000000000080E7F3
:2B297D00020000000000000000000000000000000000000000000000000000000000000000000000000000000008ED38
:2B29A800800008800008800008800008800008800008000000000020000220000220000220000220000220000280E7A1
:2B29D300800008800008800008800008800008800008000000000020000220000220000220000220000220000280E776
:2B29FE00000000000000000000000000000000000000000000000000000000000000000000000000000000000080E747
:2B2A2900020000000000000000000000000000000000000000000000000000000000000000000000000000802908F6D9
:2B2A5400000000000000000000000000000000000000000000000000000000000000000000000000000000800000EFE8
:2B2A7F00000000000000000000000000000000000000000000000000000000000000000000000000000000000180F6B5
:2B2AAA0000000000000000000000000000000000000000000000000000000000000000000000000000000080060089F2
:2B2AD50000000000000000000000000000000000000000000000000000000000000000000000000000000080060089C7
:2B2B00000200000000000000000000000000000000000000000000000000000000000000000000000000000006088B0F
:2B2B2B000000000000000000000000000000000000000000000000000000000000000000000000000000000006808178
:2B2B5600000000000000000000000000000000000000000000000000000000000000000000000000000000000480A32D
:2B2B8100000000000000000000000000000000000000000000000000000000000000000000000000000000800500BAEA
:2B2BAC00020000000000000000000000000000000000000000000000000000000000000000000000000000800488A14F
:2B2BD700000000000000000000000000000000000000000000000000000000000000000000000000000000000580B29C
:2B2C0200000000000000000000000000000000000000000000000000000000000000000000000000000000800400AB78
:2B2C2D00000000000000000000000000000000000000000000000000000000000000000000000000000000800400AB4D
:2B2C5800000000000000000000000000000000000000000000000000000000000000000000000000000000000480A32A
:2B2C830002000000000000000000000000000000000000000000000000000000000000000000000000000000040CE92B
:2B2CAE00000000000000000000000000000000000000000000000000000000000000000000000000000000002080E576
:2B2CD900000000000000000000000000000000000000000000000000000000000000000000000000000000800980FEC9
:2B2D0400000000000000000000000000000000000000000000000000000000000000000000000000000000800000EF35
:2B2D2F00020000000000000000000000000000000000000000000000000000000000000000000000000000000108FC72
:2B2D5A00000000000000000000000000000000000000000000000000000000000000000000000000000000800600893F
:2B2D85000000000000000000000000000000000000000000000000000000000000000000000000000000008006008914
:2B2DB00000000000000000000000000000000000000000000000000000000000000000000000000000000000068081F1
:2B2DDB0000000000000000000000000000000000000000000000000000000000000000000000000000000000068081C6
:2B2E0600020000000000000000000000000000000000000000000000000000000000000000000000000000002008EF88
:2B2E3100000000000000000000000000000000000000000000000000000000000000000000000000000000800100FEF7
:2B2E5C00000000000000000000000000000000000000000000000000000000000000000000000000000000800000EFDC
:2B2E8700000000000000000000000000000000000000000000000000000000000000000000000000000000000180F6A9
:2B2EB2000200000000000000000000000000000000000000000000000000000000000000000000000000008006888362
:2B2EDD0000000000000000000000000000000000000000000000000000000000000000000000000000000080060089BB
:2B2F08000000000000000000000000000000000000000000000000000000000000000000000000000000000006808197
:2B2F3300000000000000000000000000000000000000000000000000000000000000000000000000000000000680816C
:2B2F5E00000000000000000000000000000000000000000000000000000000000000000000000000000000000080E7E1
:2B2F8900020000000000000000000000000000000000000000000000000000000000000000000000000000801188F50D
:2B2FB400000000000000000000000000000000000000000000000000000000000000000000000000000000800000EF83
:2B2FDF00000000000000000000000000000000000000000000000000000000000000000000000000000000000180F650
:2B300A00000000000000000000000000000000000000000000000000000000000000000000000000000000800600898C
:2B30350002000000000000000000000000000000000000000000000000000000000000000000000000000080068883DD
:2B306000000000000000000000000000000000000000000000000000000000000000000000000000000000000680813E
:2B308B000000000000000000000000000000000000000000000000000000000000000000000000000000000006808113
:2B30B600000000000000000000000000000000000000000000000000000000000000000000000000000000001080E679
:2B30E100000000000000000000000000000000000000000000000000000000000000000000000000000000800980FEBD
:2B310C00020000000000000000000000000000000000000000000000000000000000000000000000000000800088E5A9
:2B313700000000000000000000000000000000000000000000000000000000000000000000000000000000000180F6F6
:2B3162000000000000000000000000000000000000000000000000000000000000000000000000000000008006008933
:2B318D000000000000000000000000000000000000000000000000000000000000000000000000000000008006008908
:2B31B8000200000000000000000000000000000000000000000000000000000000000000000000000000000006088B51
:2B31E30000000000000000000000000000000000000000000000000000000000000000000000000000000000068081BA
:2B320E00000000000000000000000000000000000000000000000000000000000000000000000000000000000080E72E
:2B323900000000000000000000000000000000000000000000000000000000000000000000000000000000802100FCCD
:2B326400000000000000000000000000000000000000000000000000000000000000000000000000000000800000EFD0
:2B328F00020000000000000000000000000000000000000000000000000000000000000000000000000000000108FC0D
:2B32BA0000000000000000000000000000000000000000000000000000000000000000000000000000000080060089DA
:2B32E50000000000000000000000000000000000000000000000000000000000000000000000000000000080060089AF
:2B331000000000000000000000000000000000000000000000000000000000000000000000000000000000000680818B
:2B333B000200000000000000000000000000000000000000000000000000000000000000000000000000000006088BCC
:2B336600000000000000000000000000000000000000000000000000000000000000000000000000000000001008EE36
:2B339100000000000000000000000000000000000000000000000000000000000000000000000000000000800110EF91
:2B33BC00000000000000000000000000000000000000000000000000000000000000000000000000000000800088E7F7
:2B33E700000000000000000000000000000000000000000000000000000000000000000000000000000000000108FEB4
:2B34120002000000000000000000000000000000000000000000000000000000000000000000000000000080068883FC
:2B343D000000000000000000000000000000000000000000000000000000000000000000000000000000008006008955
:2B3468000000000000000000000000000000000000000000000000000000000000000000000000000000000006808132
:2B3493000000000000000000000000000000000000000000000000000000000000000000000000000000000006808107
:2B34BE00000000000000000000000000000000000000000000000000000000000000000000000000000000000280C59C
:2B34E900000000000000000000000000000000000000000000000000000000000000000000000000000000000080E751
:2B351400800008800008800008800008800008800008000000000020000220000220000220000220000220000080C54D
:2B353F00800008800008800008800008800008800008000000000020000220000220000220000220000220000280E7FE
:2B356A00000000000000000000000000000000000000000000000000000000000000000000000000000000800000EFC7
:2B359500000000000000000000000000000000000000000000000000000000000000000000000000000000000080E7A4
:2B35C000000000000000000000000000000000000000000000000000000000000000000000000000000000000080E779
:2B35EB00000000000000000000000000000000000000000000000000000000000000000000000000000000000080E74E
:2B361600000000000000000000000000000000000000000000000000000000000000000000000000000000800000EF1A
:2B364100000000000000000000000000000000000000000000000000000000000000000000000000000000000084A733
:2B366C00000000000000000000000000000000000000000000000000000000000000000000000000000000000080E7CC
:2B369700000000000000000000000000000000000000000000000000000000000000000000000000000000000080E7A1
:2B36C200000000000000000000000000000000000000000000000000000000000000000000000000000000000080E776
:2B36ED00000000000000000000000000000000000000000000000000000000000000000000000000000000000008EFBB
:2B371800000000000000000000000000000000000000000000000000000000000000000000000000000000000080E71F
:2B374300000000000000000000000000000000000000000000000000000000000000000000000000000000000008EF64
:2B376E00000000000000000000000000000000000000000000000000000000000000000000000000000000000080E7C9
:2B379900000000000000000000000000000000000000000000000000000000000000000000000000000000000080E79E
:2B37C400000000000000000000000000000000000000000000000000000000000000000000000000000000000080E773
:2B37EF00000000000000000000000000000000000000000000000000000000000000000000000000000000000080E748
:2B381A00000000000000000000000000000000000000000000000000000000000000000000000000000000000080E71C
:2B384500000000000000000000000000000000000000000000000000000000000000000000000000000000000080E7F1
:2B387000000000000000000000000000000000000000000000000000000000000000000000000000000000000080E7C6
:2B389B00000000000000000000000000000000000000000000000000000000000000000000000000000000000080E79B
:2B38C600000000000000000000000000000000000000000000000000000000000000000000000000000000000080E770
:2B38F100000000000000000000000000000000000000000000000000000000000000000000000000000000000080E745
:2B391C00000000000000000000000000000000000000000000000000000000000000000000000000000000000080E719
:2B394700401004411004411004411004411004411004010000000010044110044110044110044110044110044180E7F2
:2B397200601886611886611886611886611886611886010000000018866118866118866118866118866118866180E7CF
:02399D00FFFF2A
:00000001FF
