:020000040000FA
:2B000000FFFF62FF2500FFFFFFFFFFFFFFFFFFFFFFFFFFFFFFFFFFFFFFFFFFFFFFFFFFFFFFFFFFFFFFFFFFFFFFFFFF76
:2B002B00601886611886611886611886611886611886010000000018866118866118866118866118866118866180E74F
:2B005600401004411004411004411004411004411004010000000010044110044110044110044110044110044180E71C
:2B008100000000000000000000000000000000000000000000000000000000000000000000000000000000000080E7ED
:2B00AC00000000000000000000000000000000000000000000000000000000000000000000000000000000000080E7C2
:2B00D700000000000000000000000000000000000000000000000000000000000000000000000000000000000080E797
:2B010200000000000000000000000000000000000000000000000000000000000000000000000000000000000080E76B
:2B012D00000000000000000000000000000000000000000000000000000000000000000000000000000000000080E740
:2B015800000000000000000000000000000000000000000000000000000000000000000000000000000000000080E715
:2B018300000000000000000000000000000000000000000000000000000000000000000000000000000000000080E7EA
:2B01AE00000000000000000000000000000000000000000000000000000000000000000000000000000000000080E7BF
:2B01D900000000000000000000000000000000000000000000000000000000000000000000000000000000000080E794
:2B020400000000000000000000000000000000000000000000000000000000000000000000000000000000000080E768
:2B022F00000000000000000000000000000000000000000000000000000000000000000000000000000000000080E73D
:2B025A00000000000000000000000000000000000000000000000000000000000000000000000000000000000080E712
:2B028500000000000000000000000000000000000000000000000000000000000000000000000000000000000080E7E7
:2B02B000000000000000000000000000000000000000000000000000000000000000000000000000000000000080E7BC
:2B02DB00000000000000000000000000000000000000000000000000000000000000000000000000000000000080E791
:2B030600000000000000000000000000000000000000000000000000000000000000000000000000000000000080E765
:2B033100000000000000000000000000000000000000000000000080000000000000000000000000000000000000E73A
:2B035C00000000000000000000000000000000000000000000000000000000000000000000000000000000000080E70F
:2B038700000000000000000000000000000000000000000000000000000000000000000000000000000000000080E7E4
:2B03B200020000000000000000000000000000000000000000000000000000000000000000000000000000000008ED29
:2B03DD00000000000000000000000000000000000000000000000000000000000000000000000000000000000080E78E
:2B040800000000000000000000000000000000000000000000000000000000000000000000000000000000000080E762
:2B043300000000000000000000000000000000000000000000000000000000000000000000000000000000000080E737
:2B045E00000000000000000000000000000000000000000000000000000000000000000000000000000000000080E70C
:2B048900020000000000000000000000000000000000000000000000000000000000000000000000000000000008ED51
:2B04B400800008800008800008800008800008800008000000000020000220000220000220000220000220000280E7BA
:2B04DF00800008800008800008800008800008800008000000000020000220000220000220000220000220000280E78F
:2B050A00000000000000000000000000000000000000000000000000000000000000001000000000000000000080E650
:2B053500020000000000000000000000000000000000000000000000000000000000800900000000000000000008F414
:2B056000000000000000000000000000000000000000000000000000000000000000800000000000000000000000EF01
:2B058B00000000000000000000000000000000000000000000000000000000000000000100000000000000000080F6CE
:2B05B600000000000000000000000000000000000000000000000000000000000000800600000000000000000000890B
:2B05E10000000000000000000000000000000000000000000000000000000000000080060000000000000000000089E0
:2B060C000200000000000000000000000000000000000000000000000000000000000006000000000000000000088B28
:2B0637000000000000000000000000000000000000000000000000000000000000000006000000000000000000808191
:2B066200000000000000000000000000000000000000000000000000000000000000000000000000000000000080E706
:2B068D00000000000000000000000000000000000000000000000000000000000000800902000000000000000080DE59
:2B06B800020000000000000000000000000000000000000000000000000000000000800000000000000000000088E528
:2B06E300000000000000000000000000000000000000000000000000000000000000000100000000000000000080F675
:2B070E0000000000000000000000000000000000000000000000000000000000000080060000000000000000000089B1
:2B0739000000000000000000000000000000000000000000000000000000000000008006000000000000000000008986
:2B0764000000000000000000000000000000000000000000000000000000000000000006000000000000000000808163
:2B078F000200000000000000000000000000000000000000000000000000000000000006000000000000000000088BA4
:2B07BA00000000000000000000000000000000000000000000000000000000000000000000000000000000000080E7AD
:2B07E500000000000000000000000000000000000000000000000000000000000000802100000000000000000000FC4C
:2B081000000000000000000000000000000000000000000000000000000000000000800000000000000000000000EF4E
:2B083B00020000000000000000000000000000000000000000000000000000000000000100000000000000000008FC8B
:2B0866000000000000000000000000000000000000000000000000000000000000008006000000000000000000008958
:2B089100000000000000000000000000000000000000000000000000000000000000800600000000000000000000892D
:2B08BC00000000000000000000000000000000000000000000000000000000000000000600000000000000000080810A
:2B08E70000000000000000000000000000000000000000000000000000000000000000060000000000000000008081DF
:2B091200020000000000000000000000000000000000000000000000000400000000000000000000000000000008A903
:2B093D00000000000000000000000000000000000000000000000000800500000000802900000000000000000000A1C0
:2B096800000000000000000000000000000000000000000000000000800400000000800000000000000000000080A33D
:2B099300000000000000000000000000000000000000000000000000000500000000000100000000000000000080A310
:2B09BE00020000000000000000000000000000000000000000000000800400000000800600000000000000000008CF2B
:2B09E900000000000000000000000000000000000000000000000000800400000000800600000000000000000080C594
:2B0A1400000000000000000000000000000000000000000000000000000400000000000600000000000000000080C568
:2B0A3F000000000000000000000000000000000000000000000000000004040000000006000000000000000000808579
:2B0A6A00000000000000000000000000000000000000000000000000000000000000002000000000000000000080E5DC
:2B0A9500020000000000000000000000000000000000000000000000802100000098810100000000000000000008F77A
:2B0AC000000000000000000000000000000000000000000000000000800000000008800000000000000000000000EF14
:2B0AEB00000000000000000000000000000000000000000000000000000100000010000100000000000000000080F658
:2B0B160000000000000000000000000000000000000000000000000080060000006880060000000000000000000089B7
:2B0B41000200000000000000000000000000000000000000000000008006000000688006000000000000000000888308
:2B0B6C000000000000000000000000000000000000000000000000000006000000600006000000000000000000088961
:2B0B970000000000000000000000000000000000000000000000000000060000006000060000000000000000009090A7
:2B0BC200000000000000000000000000000000000000000000000000001000000000001000000000000000000008EFF1
:2B0BED00000000000000000000000000000000000000000000000000800900000098C00100000000000000000088B6BD
:2B0C1800020000000000000000000000000000000000000000000000800000000008800000000000000000000088E53A
:2B0C4300000000000000000000000000000000000000000000000000000100000010000100000000000000000080F6FE
:2B0C6E00000000000000000000000000000000000000000000000000800600000068800600000000000000000000895E
:2B0C99000000000000000000000000000000000000000000000000008006000000688006000000000000000000008933
:2B0CC4000200000000000000000000000000000000000000000000000006000000600006000000000000000000088B04
:2B0CEF00000000000000000000000000000000000000000000000000000600000060000600000000000000000080816D
:2B0D1A00000000000000000000000000000000000000000000000000001000000000010000000000000000000080E736
:2B0D4500000000000000000000000000000000000000000000000000800100000018801100000000000000000000FF5A
:2B0D7000000000000000000000000000000000000000000000000000800000000008800000000000000000000000EF61
:2B0D9B00020000000000000000000000000000000000000000000000000100000010000100000000000000000008FC15
:2B0DC6000000000000000000000000000000000000000000000000008006000000688006000000000000000000008905
:2B0DF10000000000000000000000000000000000000000000000000080060000006880060000000000000000000089DA
:2B0E1C00000000000000000000000000000000000000000000000000000600000060000600000000000000000080813E
:2B0E47000200000000000000000000000000000000000000000000000006000000600006000000000000000000088B7F
:2B0E7200000000000000000000000000000000000000000000000040000000000000002000000000000000000008A944
:2B0E9D00000000000000000000000000000000000000000000000058801100000018810900000000000000000010B2DD
:2B0EC800000000000000000000000000000000000000000000000048800000000008800000000000000000000008ABFC
:2B0EF300000000000000000000000000000000000000000000000050000100000010000100000000000000000008ABBF
:2B0F1E00020000000000000000000000000000000000000000000048800600000068800600000000000000000008CF13
:2B0F4900000000000000000000000000000000000000000000000048800600000068800600000000000000000080C57C
:2B0F7400000000000000000000000000000000000000000000000040000600000060000600000000000000000080C561
:2B0F9F00000000000000000000000000000000000000000000000040080600000060000600000000000000000080CD26
:2B0FCA00000000000000000000000000000000000000000000000020000200000020000200000000000000000080E751
:2B0FF500000000000000000000000000000000000000000000000000000000000000000000000000000000000080E76A
:2B102000800008800008800008800008800008800008000000000000000020000200000020000220000220000280E786
:2B104B00800008800008800008800008800008800008000000000020000220000220000220000220000220000280E717
:2B10760000000000000000000000000000000000000000000000000880000000000080A000000000000000000000E5C2
:2B10A100000000000000000000000000000000000000000000000000000000000000000000000000000000000080E7BD
:2B10CC00000000000000000000000000000000000000000000000000000000000000000000000000000000000080E792
:2B10F700000000000000000000000000000000000000000000000000000000000000000000000000000000000080E767
:2B112200000000000000000000000000000000000000000000000008800000000000802000000000000000000000ED8D
:2B114D00000000000000000000000000000000000000000000000000000004000000000000000000000000000080A74C
:2B117800000000000000000000000000000000000000000000000000000000000000000000000000000000000080E7E5
:2B11A300000000000000000000000000000000000000000000000000000000000000000000000000000000000080E7BA
:2B11CE00000000000000000000000000000000000000000000000000000000000000000000000000000000000080E78F
:2B11F900000000000000000000000000000000000000000000000000000000000000200001000000000000000028FD85
:2B122400000000000000000000000000000000000000000000000000000000000000000000000000000000000080E738
:2B124F00000000000000000000000000000000000000000000000000000000000000000000000000000000000008EF7D
:2B127A00000000000000000000000000000000000000000000000000000000000000000000000000000000000080E7E2
:2B12A500000000000000000000000000000000000000000000000000000000000000000000000000000000000080E7B7
:2B12D0000000000000000000000000000000000000000000000000000000000000000000000000000000000000A0C58E
:2B12FB00000000000000000000000000000000000000000000000000000000000000000000000000000000000080E761
:2B132600000000000000000000000000000000000000000000000000000000000000000000000000000000000080E735
:2B135100000000000000000000000000000000000000000000000000000000000000000000000000000000000080E70A
:2B137C00000000000000000000000000000000000000000000000000000000000000000000000000000000000080E7DF
:2B13A700000000000000000000000000000000000000000000000000000000000000000000000000000000000080E7B4
:2B13D2000000000000000000000000000000000000000000000000000000000000000000000000000000000000D0B26E
:2B13FD00000000000000000000000000000000000000000000000000000000000000000000000000000000000080E75E
:2B142800000000000000000000000000000000000000000000000000000000000000000000000000000000000080E732
:2B145300000000000000000000000000000000000000000000000000000000000000000000000000000000000080E707
:2B147E00000000000000000000000000000000000000000000000000000000000000000000000000000000000080E7DC
:2B14A900000000000000000000000000000000000000000000000000000000000000000000000000000000000080E7B1
:2B14D400000000000000000000000000000000000000000000000000000000000000000000000000000000000080E786
:2B14FF00000000000000000000000000000000000000000000000000000000000000000000000000000000000080E75B
:2B152A000000000000000000000000000000000000000000000000000000000000000000000000000000000000D0B214
:2B155500000000000000000000000000000000000000000000000000000000000000000000000000000000000080E704
:2B158000000000000000000000000000000000000000000000000000000000000000000000000000000000000080E7D9
:2B15AB00000000000000000000000000000000000000000000000000000000000000000000000000000000000080E7AE
:2B15D600000000000000000000000000000000000000000000000000000000000000000000000000000040000080A387
:2B160100000000000000000000000000000000000000000000000000000000000000000000000800000000000002C7ED
:2B162C00020000000000000000000000000000000000000000000000000000000000000000000000000000000008ED9C
:2B165700000000000000000000000000000000000000000000000000000000000000000000000000000000000008EF71
:2B168200000000000000000000000000000000000000000000000000000000000000000000000000000000000090F6B7
:2B16AD00000000000000000000000000000000000000000000000000000000000000000000000C0000000000008B9BE0
:2B16D800000000000000000000000000000000000000000000000000000000000000000000000000000000000008EFF0
:2B170300020000000000000000000000000000000000000000000000000000000000000000000000000000000008EDC4
:2B172E00800008800008800008800008800008800008000000000020000220000220000220000220000220000280E72D
:2B175900800008800008800008800008800008800008000000000020000220000220000220000220000220000280E702
:2B178400000000000000000000000000000000000000000000000000000000000000000000000000000040000080A3D7
:2B17AF00020000000000000000000000000000000000000000000000000000000000000000000000000058000088B07D
:2B17DA00000000000000000000000000000000000000000000000000000000000000000000000000000048000000ABF1
:2B180500000000000000000000000000000000000000000000000000000000000000000000000000000050000080B236
:2B183000000000000000000000000000000000000000000000000000000000000000000000000000000048000000AB9A
:2B185B00000000000000000000000000000000000000000000000000000000000000000000000000000048000000AB6F
:2B188600020000000000000000000000000000000000000000000000000000000000000000000000000040100008B924
:2B18B1000000000000000000000000000000000000000000000000000000000000000000000000000000C0000000A3A9
:2B18DC00000000000000000000000000000000000000000000000000000040000000000000000000000000000080A37E
:2B190700000000000000000000000000000000000000000000000000000058000000000000000000000018020080A122
:2B193200020000000000000000000000000000000000000000000000000048000000000000000000000008000008A987
:2B195D00000000000000000000000000000000000000000000000000000050000000000000000000000010000008AB4C
:2B198800000000000000000000000000000000000000000000000000000048000000000000000000000068000090D420
:2B19B300000000000000000000000000000000000000000000000000000048000000000000000000000068000008CD84
:2B19DE00000000000000000000000000000000000000000000000000000040000000000000000000000060000008CD69
:2B1A0900020000000000000000000000000000000000000000000000000040040000000000000000000060000008CB39
:2B1A3400000000000000000000000000000000000000000000000000000000000000000000001000000040000080A215
:2B1A5F00000000000000000000000000000000000000000000000000000018020000000018810900000058000000A0A8
:2B1A8A00000000000000000000000000000000000000000000000000000008000000000008800000000048000080A336
:2B1AB500020000000000000000000000000000000000000000000000000010000000000010000100000050000008A9E2
:2B1AE000000000000000000000000000000000000000000000000000000068000000000068800600000048000080C5F8
:2B1B0B00000000000000000000000000000000000000000000000000000068000000000068800600000048000080C5CC
:2B1B3600000000000000000000000000000000000000000000000000000060000000000060000600000040040080C139
:2B1B6100000000000000000000000000000000000000000000000000000060000000000060000600000040000080C50E
:2B1B8C00020000000000000000000000000000000000000000000000000000010000000000020004000000000008AE6F
:2B1BB700000000000000000000000000000000000000000000000000000018000000000018800100000018100080F7B3
:2B1BE200000000000000000000000000000000000000000000000000000008000000000008800000000008000080E7D9
:2B1C0D00000000000000000000000000000000000000000000000000000010000000000010000100000010000080E714
:2B1C3800020000000000000000000000000000000000000000000000000068000000000068800600000068000008EDCC
:2B1C6300000000000000000000000000000000000000000000000000000068000000000068800600000068000008EFA1
:2B1C8E00000000000000000000000000000000000000000000000000000060000000000060000600000060000090F67F
:2B1CB900000000000000000000000000000000000000000000000000000060000000000060000600000060000008EFE3
:2B1CE400000000000000000000000000000000000000000000000000000000000000000080002000000000020088EFBC
:2B1D0F00020000000000000000000000000000000000000000000000000098020000000098800100000018000008EFE5
:2B1D3A00000000000000000000000000000000000000000000000000000008000000000008800000000008000080E77F
:2B1D6500000000000000000000000000000000000000000000000000000010000000000010000100000010000080E7BB
:2B1D9000000000000000000000000000000000000000000000000000000068000000000068800600000068000080E703
:2B1DBB00000000000000000000000000000000000000000000000000000068000000000068800600000068000008EF48
:2B1DE600020000000000000000000000000000000000000000000000000060000000000060000600000060000080E545
:2B1E1100020000000000000000000000000000000000000000000000000060000000000060000600000060000080E519
:2B1E3C00020000000000000000000000000000000000000000000000000000020000000000000000000000020080E510
:2B1E6700020000000000000000000000000000000000000000000000000018000000000098812100000098000080E6FE
:2B1E9200000000000000000000000000000000000000000000000000000008000000000008800000000008000008EF96
:2B1EBD00000000000000000000000000000000000000000000000000000010000000000010000100000010000080E762
:2B1EE800000000000000000000000000000000000000000000000000000068000000000068800600000068000080E7AA
:2B1F1300000000000000000000000000000000000000000000000000000068000000000068800600000068000080E77E
:2B1F3E00020000000000000000000000000000000000000000000000000060000000000060000600000060000008ED5B
:2B1F6900000000000000000000000000000000000000000000000000000060000000000060000600000060000080E7C0
:2B1F9400000000000000000000000000000000000000000000000000000000000000000000010000000000010080E7B9
:2B1FBF00000000000000000000000000000000000000000000000000000018010000000018801900000018000000E72E
:2B1FEA00000000000000000000000000000000000000000000000000000008000000000008800000000008000080E7CD
:2B201500020000000000000000000000000000000000000000000000000010000000000010000100000010000008ED78
:2B204000000000000000000000000000000000000000000000000000000068000000000068800600000068000080E750
:2B206B00000000000000000000000000000000000000000000000000000068000000000068800600000068000080E725
:2B209600000000000000000000000000000000000000000000000000000060000000000060000600000060000080E792
:2B20C100000000000000000000000000000000000000000000000000000060000000000060000600000060000008EFD7
:2B20EC00020000000000000000000000000000000000000000000000000000010000000000010000000000000080E560
:2B211700020000000000000000000000000000000000000000000000000098000000000098801100000018010080E55C
:2B214200020000000000000000000000000000000000000000000000000008000000000008800000000008000080E573
:2B216D00020000000000000000000000000000000000000000000000000010000000000010000100000010000080E5AF
:2B219800000000000000000000000000000000000000000000000000000068000000000068800600000068000008EF67
:2B21C300000000000000000000000000000000000000000000000000000068000000000068800600000068000080E7CC
:2B21EE00000000000000000000000000000000000000000000000000000060000000000060000600000060000080E739
:2B221900000000000000000000000000000000000000000000000000000060000000000060000600000060000080E70D
:2B2244000A0000000000000000000000000000000000000000000000000020000000000020000200000020000080ED96
:2B226F00000000000000000000000000000000000000000000000000000000000000000000000000000000000080E7DD
:2B229A00800008800008800008800008800008800008000000000020000200000220000200000020000200000280E718
:2B22C500800008800008800008800008800008800008000000000020000220000220000220000220000220000280E78B
:2B22F000000000000000000000000000000000000000000000000000000008000000000000000002000088000000C76A
:2B231B00000000000000000000000000000000000000000000000000000000000000000000000000000000000080E730
:2B234600000000000000000000000000000000000000000000000000000000000000000000000000000000000080E705
:2B237100000000000000000000000000000000000000000000000000000000000000000000000000000000000080E7DA
:2B239C00000000000000000000000000000000000000000000000000000008000000000000000002000088000000C7BD
:2B23C700000000000000000000000000000000000000000000000000000040000000000000000000000000000080A388
:2B23F200000000000000000000000000000000000000000000000000000000000000000010000000000000000080F63A
:2B241D00000000000000000000000000000000000000000000000000000000000000000000000000000000000080E72D
:2B244800000000000000000000000000000000000000000000000000000000000000000000000000000000000080E702
:2B247300000000000000000000000000000000000000000000000000000000000000000000000000000000040080E3D7
:2B249E00000000000000000000000000000000000000000000000000000000000000000000000004000000000080A7E8
:2B24C900000000000000000000000000000000000000000000000000000000000000000000000000000000000080E781
:2B24F400000000000000000000000000000000000000000000000000000000000000000000000000000000000080E756
:2B251F00000000000000000000000000000000000000000000000000000000000000000000000000000000000080E72A
:2B254A00000000000000000000000000000000000000000000000000000000000000000000000000000000000080E7FF
:2B257500000000000000000000000000000000000000000000000000000000000000000000000000000000000080E7D4
:2B25A0000000000000000000000000000000000000000000000000000000000000000000000000000000000000C0A3AD
:2B25CB00000000000000000000000000000000000000000000000000000000000000000000000000000000000080E77E
:2B25F600000000000000000000000000000000000000000000000000000000000000000000000000000000020080E553
:2B2621000000000000000000000000000000000000000000000000000000000000000000000000000000000000A0C529
:2B264C00000000000000000000000000000000000000000000000000000000000000000000000000000000000080E7FC
:2B267700000000000000000000000000000000000000000000000000000000000000000000000000000000000080E7D1
:2B26A200000000000000000000000000000000000000000000000000000000000000000000000000000000000080E7A6
:2B26CD00000000000000000000000000000000000000000000000000000000000000000000000000000000000008EFEB
:2B26F800000000000000000000000000000000000000000000000000000000000000000000000000000000000080E750
:2B272300000000000000000000000000000000000000000000000000000000000000000000000000000000000080E724
:2B274E00000000000000000000000000000000000000000000000000000000000000000000000000000000000080E7F9
:2B277900000000000000000000000000000000000000000000000000000000000000000000000000000000000080E7CE
:2B27A400000000000000000000000000000000000000000000000000000000000000000000000000000000000008EF13
:2B27CF00000000000000000000000000000000000000000000000000000000000000000000000000000000000080E778
:2B27FA00000000000000000000000000000000000000000000000000000000000000000000000000000000000080E74D
:2B282500000000000000000000000000000000000000000000000000000000000000000000000000000000000080E721
:2B285000000000000000000000000000000000000000000000000000000000000000000000000000000000000080E7F6
:2B287B00000000000000000000000000000000000000000000000000000000000000000000000008002000000000ED1D
:2B28A600020000000000000000000000000000000000000000000000000000000000000000000000000000000008ED10
:2B28D100000000000000000000000000000000000000000000000000000000000000000000000000000000000080E775
:2B28FC00000000000000000000000000000000000000000000000000000000000000000000000000000000000080E74A
:2B292700000000000000000000000000000000000000000000000000000000000000000000000008002000000000ED70
:2B295200000000000000000000000000000000000000000000000000000000000000000000000000000000000080E7F3
:2B297D00020000000000000000000000000000000000000000000000000000000000000000000000000000000008ED38
:2B29A800800008800008800008800008800008800008000000000020000220000220000220000220000220000280E7A1
:2B29D300800008800008800008800008800008800008000000000020000220000220000220000220000220000280E776
:2B29FE00000000000000000000000000000000000000000000000000000000000000000000000000000000002080E529
:2B2A2900020000000000000000000000000000000000000000000000000000000000000000000000000000800188F483
:2B2A5400000000000000000000000000000000000000000000000000000000000000000000000000000000800088E768
:2B2A7F00000000000000000000000000000000000000000000000000000000000000000000000000000000000190E7B4
:2B2AAA000000000000000000000000000000000000000000000000000000000000000000000000000000008006888172
:2B2AD5000000000000000000000000000000000000000000000000000000000000000000000000000000008006888147
:2B2B00000200000000000000000000000000000000000000000000000000000000000000000000000000000006088B0F
:2B2B2B000000000000000000000000000000000000000000000000000000000000000000000000000000000006808178
:2B2B5600000000000000000000000000000000000000000000000000000000000400000000000000000000000480E7E5
:2B2B8100000000000000000000000000000000000000000000000000000000800500000000000000802100800500FC82
:2B2BAC00020000000000000000000000000000000000000000000000000000800400000000000000800000800488E507
:2B2BD700000000000000000000000000000000000000000000000000000000000500000000000000000100000580F652
:2B2C02000000000000000000000000000000000000000000000000000000008004000000000000008006008004008990
:2B2C2D000000000000000000000000000000000000000000000000000000008004000000000000008006008004008965
:2B2C5800000000000000000000000000000000000000000000000000000000000401000000000000000600000484D1ED
:2B2C8300020000000000000000000000000000000000000000000000000000000C00000000000000000600000C088B73
:2B2CAE00000000000000000000000000000000000000000000000000000000000000000000000000000000000480A3D4
:2B2CD900000000000000000000000000000000000000000000000000000000802100000000000018010000800500B9D8
:2B2D0400000000000000000000000000000000000000000000000000000000800000000000000008000000800400ABED
:2B2D2F00020000000000000000000000000000000000000000000000000000000100000000000010000000000508B8A1
:2B2D5A00000000000000000000000000000000000000000000000000000000800600000000000068000000800488A3B1
:2B2D8500000000000000000000000000000000000000000000000000000000800600000000000068000000800410BAE7
:2B2DB000000000000000000000000000000000000000000000000000000000000600000000000060000000000C88AB53
:2B2DDB00000000000000000000000000000000000000000000000000000000000600000000000060000000000408ABB0
:2B2E060002000000000000000000000000000000000000000000000000000000100000000000000002000000000ACEB5
:2B2E3100000000000000000000000000000000000000000000000000000000800100000000000018801900800980E655
:2B2E5C00000000000000000000000000000000000000000000000000000000800000000000000008800000800080E75C
:2B2E8700000000000000000000000000000000000000000000000000000000000100000000000010000100000180E7A6
:2B2EB200020000000000000000000000000000000000000000000000000000800600000000000068800600800608ED04
:2B2EDD00000000000000000000000000000000000000000000000000000000800600000000000068800600800680E769
:2B2F0800000000000000000000000000000000000000000000000000000000000600000000000060000600000680E7C5
:2B2F3300000000000000000000000000000000000000000000000000000000000600000000000060000600000680E79A
:2B2F5E00000000000000000000000000000000000000000000000000000000000000000000000000000004000080A71D
:2B2F8900020000000000000000000000000000000000000000000000000000802900000000000098840100802988E93B
:2B2FB400000000000000000000000000000000000000000000000000000000800000000000000008800000800080E703
:2B2FDF00000000000000000000000000000000000000000000000000000000000100000000000010000100000180E74D
:2B300A00000000000000000000000000000000000000000000000000000000800600000000000068800600800680E73A
:2B303500020000000000000000000000000000000000000000000000000000800600000000000068800600800608ED7F
:2B306000000000000000000000000000000000000000000000000000000000000600000000000060000600000608EFDC
:2B308B00000000000000000000000000000000000000000000000000000000000600000000000060000600000690F622
:2B30B600000000000000000000000000000000000000000000000000000000002000000000000000001000000008ECCB
:2B30E100000000000000000000000000000000000000000000000000000000800100000000000098810900802108EC8C
:2B310C00020000000000000000000000000000000000000000000000000000800000000000000008800000800008ED19
:2B313700000000000000000000000000000000000000000000000000000000000100000000000010000100000180E7F3
:2B316200000000000000000000000000000000000000000000000000000000800600000000000068800600800680E7E1
:2B318D00000000000000000000000000000000000000000000000000000000800600000000000068800600800680E7B6
:2B31B800020000000000000000000000000000000000000000000000000000000600000000000060000600000608ED83
:2B31E300000000000000000000000000000000000000000000000000000000000600000000000060000600000680E7E8
:2B320E00000000000000000000000000000000000000000000000000000000000000000000000000011000002080E5FF
:2B323900000000000000000000000000000000000000000000000000000000801100000000000018800100800900E6D1
:2B326400000000000000000000000000000000000000000000000000000000800000000000000008800000800080E750
:2B328F00020000000000000000000000000000000000000000000000000000000100000000000010000100000108ED0A
:2B32BA00000000000000000000000000000000000000000000000000000000800600000000000068800600800680E788
:2B32E500000000000000000000000000000000000000000000000000000000800600000000000068800600800680E75D
:2B331000000000000000000000000000000000000000000000000000000000000600000000000060000600000680E7B9
:2B333B00000000000000000000000000000000000000000000000000000000000600000000000060000600000608EFFE
:2B336600020000000000000000000000000000000000000000000000000000001000000000000000010000001080E4B5
:2B339100020000000000000000000000000000000000000000000000000000800900000000000098801100800180E478
:2B33BC00020000000000000000000000000000000000000000000000000000800000000000000008800000800080E5F7
:2B33E700020000000000000000000000000000000000000000000000000000000100000000000010000100000180E541
:2B341200000000000000000000000000000000000000000000000000000000800600000000000068800600800608EF9E
:2B343D00000000000000000000000000000000000000000000000000000000800600000000000068800600800680E703
:2B346800000000000000000000000000000000000000000000000000000000000600000000000060000600000680E760
:2B349300000000000000000000000000000000000000000000000000000000000600000000000060000600000680E735
:2B34BE00020000000000000000000000000000000000000000000000000000000200000000000020000200000280E556
:2B34E900000000000000000000000000000000000000000000000000000000000000000000000000000000000080E751
:2B351400800008800008800008800008800008800008000000000020000220000020000220000200000020000080E74F
:2B353F00800008800008800008800008800008800008000000000020000220000220000220000220000220000280E7FE
:2B356A000000000000000000000000000000000000000000000000000000280000000000000000000000C0802000832B
:2B359500000000000000000000000000000000000000000000000000000000000000000000000000000000000080E7A4
:2B35C000000000000000000000000000000000000000000000000000000000000000000000000000000000000080E779
:2B35EB00000000000000000000000000000000000000000000000000000000000000000000000000000000000080E74E
:2B361600000000000000000000000000000000000000000000000000000008000000000000000000000080802000E57C
:2B364100000000000000000000000000000000000000000000000000000000000000000000000020000000000180D4E9
:2B366C00000000000000000000000000000000000000000000000000000000000000000000000000000000000082C7EA
:2B369700000000000000000000000000000000000000000000000000000000000000000000000000000000000080E7A1
:2B36C200000000000000000000000000000000000000000000000000000000000000000000000000000000000080E776
:2B36ED000000000000000000000000000000000000000000000000000000000000000000000000000000000000A0C54D
:2B371800000000000000000000000000000000000000000000000000000000000000000000000000000004000081B74A
:2B374300000000000000000000000000000000000000000000000000000000000000000000000000000000000080E7F4
:2B376E00000000000000000000000000000000000000000000000000000000000000000000000000000000000080E7C9
:2B379900000000000000000000000000000000000000000000000000000000000000000000000000000000000080E79E
:2B37C4000000000000000000000000000000000000000000000000000000000000000000000000000000000000A0C575
:2B37EF00000000000000000000000000000000000000000000000000000000000000000000000000000000000080E748
:2B381A00000000000000000000000000000000000000000000000000000000000000000000000000000000000080E71C
:2B384500000000000000000000000000000000000000000000000000000000000000000000000000000000000080E7F1
:2B387000000000000000000000000000000000000000000000000000000000002000000000000000000000000080E5A8
:2B389B00000000000000000000000000000000000000000000000000000000000000000000000000000000000080E79B
:2B38C600000000000000000000000000000000000000000000000000000000000000000000000000000000000080E770
:2B38F100000000000000000000000000000000000000000000000000000000000000000000000000000000000080E745
:2B391C00000000000000000000000000000000000000000000000000000000000000000000000000000000000080E719
:2B394700401004411004411004411004411004411004010000000010044110044110044110044110044110044180E7F2
:2B397200601886611886611886611886611886611886010000000018866118866118866118866118866118866180E7CF
:02399D00FFFF2A
:00000001FF
