:020000040000FA
:2B000000FFFF62FF2500FFFFFFFFFFFFFFFFFFFFFFFFFFFFFFFFFFFFFFFFFFFFFFFFFFFFFFFFFFFFFFFFFFFFFFFFFF76
:2B002B00601886611886611886611886611806CF1BDC0100000000F03CCF1BBCC11D3C6F7087C11DDC6118DC61808E99
:2B005600401004411004411004411004411084A2100A0100000000288AA2100AA1108A422804A1100A41100A4100E448
:2B008100000000000000000000000000000000000000000000000000000000000000000000000000000000000080E7ED
:2B00AC00000000000000000000000000000000000000000000000000000000000000000000000000000000000080E7C2
:2B00D700000000000000000000000000000000000000000000000000000000000000000000000000000000000080E797
:2B010200000000000000000000000000000000000000000000000000000000000000000000000000000000000080E76B
:2B012D00000000000000000000000000000000000000000000000000000000000000000000000000000000000080E740
:2B015800000000000000000000000000000000000000000000000000000000000000000000000000000000000080E715
:2B018300000000000000000000000000000000000000000000000000000000000000000000000000000000000080E7EA
:2B01AE00000000000000000000000000000000000000000000000000000000000000000000000000000000000008EF2F
:2B01D9000000000000000000000000000000000000000000000000000000000000000000000000000000000000A0C596
:2B020400000000000000000000000000000000000000000000000000000000000000000000000000000000000080E768
:2B022F00000000000000000000000000000000000000000000000000000000000000000000000000000000000080E73D
:2B025A00000000000000000000000000000000000000000000000000000000000000000000000000000000000080E712
:2B028500000000000000000000000000000000000000000000000000000000000000000000000000000000000080E7E7
:2B02B0000000000000000000000000000000000000000000000000000000000000000000000000000000000000A0C5BE
:2B02DB00000000000000000000000000000000000000000000000000000000000000000000000000000000000080E791
:2B030600000000000000000000000000000000000000000000000000000000000000000000000000000000000080E765
:2B033100000000000000000000000000000000000000000000000000000000000000000000000000000000000080E73A
:2B035C00000000000000000000000000000000000000000000000000000000000000000000000000000000000080E70F
:2B038700000000000000000000000000000000000000000000000000000000000000000000000000000000802000EDBE
:2B03B200020000000000000000000000000000000000000000000000000000000000000000000000000000000008ED29
:2B03DD00000000000000000000000000000000000000000000000000000000000000000000000000000000000080E78E
:2B040800000000000000000000000000000000000000000000000000000000000000000000000000000000802000ED3C
:2B043300000000000000000000000000000000000000000000000000000000000000000000000000000000000080E737
:2B045E00000000000000000000000000000000000000000000000000000000000000000000000000000000000080E70C
:2B048900020000000000000000000000000000000000000000000000000000000000000000000000000000000008ED51
:2B04B400800008800008800008800008800008800008000000000020000220000220000220000220000220000280E7BA
:2B04DF00800008800008800008800008800008800008000000000020000220000220000220000220000220000280E78F
:2B050A00000000000000000000000000000000000000000000000000000000000000000000000000000000000080E75F
:2B053500020000000000000000000000000000000000000000000000000000000000000000000000000000000008EDA4
:2B056000000000000000000000000000000000000000000000000000000000000000000000000000000000000008EF79
:2B058B00000000000000000000000000000000000000000000000000000000000000000000000000000000000090F6BF
:2B05B600000000000000000000000000000000000000000000000000000000000000000000000000000000000008EF23
:2B05E100000000000000000000000000000000000000000000000000000000000000000000000000000000000008EFF8
:2B060C00020000000000000000000000000000000000000000000000000000000000000000000000000000000008EDCC
:2B063700000000000000000000000000000000000000000000000000000000000000000000000000000000000080E731
:2B066200000000000000000000000000000000000000000000000000000000000000000000000000000000000080E706
:2B068D00000000000000000000000000000000000000000000000000000000000000000000000000000000000080E7DB
:2B06B800020000000000000000000000000000000000000000000000000000000000000000000000000000000008ED20
:2B06E300000000000000000000000000000000000000000000000000000000000000000000000000000000000080E785
:2B070E00000000000000000000000000000000000000000000000000000000000000000000000000000000000080E759
:2B073900000000000000000000000000000000000000000000000000000000000000000000000000000000000080E72E
:2B076400000000000000000000000000000000000000000000000000000000000000000000000000000000000080E703
:2B078F00020000000000000000000000000000000000000000000000000000000000000000000000000000000008ED48
:2B07BA00000000000000000000000000000000000000000000000000000000000000000000000000000000000080E7AD
:2B07E500000000000000000000000000000000000000000000000000000000000000000000000000000000000080E782
:2B081000000000000000000000000000000000000000000000000000000000000000000000000000000000000080E756
:2B083B00020000000000000000000000000000000000000000000000000000000000000000000000000000000008ED9B
:2B086600000000000000000000000000000000000000000000000000000000000000000000000000000000000008EF70
:2B089100000000000000000000000000000000000000000000000000000000000000000000000000000000000090F6B6
:2B08BC00000000000000000000000000000000000000000000000000000000000000000000000000000000000008EF1A
:2B08E700000000000000000000000000000000000000000000000000000000000000000000000000000000000008EFEF
:2B091200020000000000000000000000000000000000000000000000000000000000000000000000000000000008EDC3
:2B093D00000000000000000000000000000000000000000000000000000000000000000000000000000000000080E728
:2B096800000000000000000000000000000000000000000000000000000000000000000000000000000000000080E7FD
:2B099300000000000000000000000000000000000000000000000000000000000000000000000000000000000080E7D2
:2B09BE00020000000000000000000000000000000000000000000000000000000000000000000000000000000008ED17
:2B09E900000000000000000000000000000000000000000000000000000000000000000000000000000000000008EFEC
:2B0A1400000000000000000000000000000000000000000000000000000000000000000000000000000000000090F631
:2B0A3F00000000000000000000000000000000000000000000000000000000000000000000000000000000000008EF95
:2B0A6A00000000000000000000000000000000000000000000000000000000000000000000000000000000000008EF6A
:2B0A9500020000000000000000000000000000000000000000000000000000000000000000000000000000000008ED3F
:2B0AC000000000000000000000000000000000000000000000000000000000000000000000000000000000000080E7A4
:2B0AEB00000000000000000000000000000000000000000000000000000000000000000000000000000000000080E779
:2B0B1600000000000000000000000000000000000000000000000000000000000000000000000000000000000080E74D
:2B0B4100020000000000000000000000000000000000000000000000000000000000000000000000000000000008ED92
:2B0B6C00000000000000000000000000000000000000000000000000000000000000000000000000000000000008EF67
:2B0B9700000000000000000000000000000000000000000000000000000000000000000000000000000000000090F6AD
:2B0BC200000000000000000000000000000000000000000000000000000000000000000000000000000000000008EF11
:2B0BED00000000000000000000000000000000000000000000000000000000000000000000000000000000000008EFE6
:2B0C1800020000000000000000000000000000000000000000000000000000000000000000000000000000000008EDBA
:2B0C4300000000000000000000000000000000000000000000000000000000000000000000000000000000000080E71F
:2B0C6E00000000000000000000000000000000000000000000000000000000000000000000000000000000000080E7F4
:2B0C9900000000000000000000000000000000000000000000000000000000000000000000000000000000000080E7C9
:2B0CC400020000000000000000000000000000000000000000000000000000000000000000000000000000000008ED0E
:2B0CEF00020000000000000000000000000000000000000000000000000000000000000000000000000000000008EDE3
:2B0D1A00040000000000000000000000000000000000000000000000000000000000000000000000000000000090F228
:2B0D4500020000000000000000000000000000000000000000000000000000000000000000000000000000000008ED8C
:2B0D7000020000000000000000000000000000000000000000000000000000000000000000000000000000000008ED61
:2B0D9B00020000000000000000000000000000000000000000000000000000000000000000000000000000000008ED36
:2B0DC600000000000000000000000000000000000000000000000000000000000000000000000000000000000080E79B
:2B0DF100000000000000000000000000000000000000000000000000000000000000000000000000000000000080E770
:2B0E1C00000000000000000000000000000000000000000000000000000000000000000000000000000000000080E744
:2B0E4700020000000000000000000000000000000000000000000000000000000000000000000000000000000008ED89
:2B0E7200020000000000000000000000000000000000000000000000000000000000000000000000000000000008ED5E
:2B0E9D00040000000000000000000000000000000000000000000000000000000000000000000000000000000090F2A4
:2B0EC800020000000000000000000000000000000000000000000000000000000000000000000000000000000008ED08
:2B0EF300020000000000000000000000000000000000000000000000000000000000000000000000000000000008EDDD
:2B0F1E00020000000000000000000000000000000000000000000000000000000000000000000000000000000008EDB1
:2B0F4900000000000000000000000000000000000000000000000000000000000000000000000000000000000080E716
:2B0F7400000000000000000000000000000000000000000000000000000000000000000000000000000000000080E7EB
:2B0F9F00000000000000000000000000000000000000000000000000000000000000000000000000000000000080E7C0
:2B0FCA00000000000000000000000000000000000000000000000000000000000000000000000000000000000080E795
:2B0FF500000000000000000000000000000000000000000000000000000000000000000000000000000000000080E76A
:2B102000800008800008800008800008800008800008000000000020000220000220000220000220000220000280E742
:2B104B00800008800008800008800008800008800008000000000020000220000220000220000220000220000280E717
:2B107600000000000000000000000000000000000000000000000000000000000000000000000000000000000080E7E8
:2B10A10000000000000000000000000000000000000000000000000000000000000000000000200A000810001080DD75
:2B10CC00000000000000000000000000000000000000000000000000000000000000000000000000000000000080E792
:2B10F700000000000000000000000000000000000000000000000000000000000000000000000000000000000080E767
:2B11220000000000000000000000000000000000000000000000000000000000000000000000200A000810001080DDF3
:2B114D00000000000000000000000000000000000000000000000000000000000000000000000000000000000080E710
:2B117800000000000000000000000000000000000000000000000000000000000000000000000000000000000080E7E5
:2B11A300000000000000000000000000000000000000000000000000000000000000000000000000000000000080E7BA
:2B11CE00000000000000000000000000000000000000000000000000000000000000000000000000000000000080E78F
:2B11F9000600000000000000000000000000000000000000000000000000000000000000000000000000000000B0D243
:2B122400000000000000000000000000000000000000000000000000000000000000000000000000000000000080E738
:2B124F00000000000000000000000000000000000000000000000000000000000000000000000000000000000080E70D
:2B127A00020000000000000000000000000000000000000000000000000000000000000000000000000000000080E5E2
:2B12A500000000000000000000000000000000000000000000000000000000000000000000000000000000000080E7B7
:2B12D000000000000000000000000000000000000000000000000000000000000000000000000000000000000080E78C
:2B12FB00040000000000000000000000000000000000000000000000000000000000000000000000000000000080E361
:2B132600000000000000000000000000000000000000000000000000000000000000000000000000000000000048ABA9
:2B1351000000000000000000000000000000000000000000000000000000000000000000000000000000000000B0D4ED
:2B137C00000000000000000000000000000000000000000000000000000000000000000000000000000000000080E7DF
:2B13A700000000000000000000000000000000000000000000000000000000000000000000000000000000000080E7B4
:2B13D200000000000000000000000000000000000000000000000000000000000000000000000000000000000080E789
:2B13FD00000000000000000000000000000000000000000000000000000000000000000000000200000000080080CD6E
:2B142800000000000000000000000000000000000000000000000000000000000000000000000001000000000080F721
:2B145300000000000000000000000000000000000000000000000000000000000000200000000000000000100080D7E7
:2B147E00000000000000000000000000000000000000000000000000000000000000000000000000000000000080E7DC
:2B14A900000000000000000000000000000000000000000000000000000000000000000000000000000000000080E7B1
:2B14D400000000000000000000000000000000000000000000000000000000000000000000000000000000000080E786
:2B14FF00000000000000000000000000000000000000000000000000000000000000000000000000000000000080E75B
:2B152A00000000000000000000000000000000000000000000000000000000000000000000000000000000000080E72F
:2B155500040000000000000000000000000000000000000000000000000000000000000000000000000000000080E304
:2B158000000000000000000000000000000000000000000000000000000000000000400000000000000000000080A7D9
:2B15AB00000000000000000000000000000000000000000000000000000080000800010080080800000080000000EE8E
:2B15D600000000000000000000000000000000000000000000000000000000000000000000000000000040000080A387
:2B160100000000000000000000000000000000100404000000000080200800000000000000000000000000000080D3AB
:2B162C00020000000000000000000000000000000404000000000080000800000000000000000000000000008080E918
:2B165700000000000000000000000000000000000000000000000000000000000000000000000000000000000008EF71
:2B168200000000000000000000000000000000100000000000000000200000000000000000000000000000000008DF26
:2B16AD00000000000000000000000000000000000000000000000000000000000000000000000000000000008008E7A3
:2B16D800000000000000000000000000000000000000000000000000000000000000000000000000000000000008EFF0
:2B170300020000000000000000000000000000000000000000000000000000000000000000000000000000000080E554
:2B172E00800008800008800008800008800008800008000000000020000220000220000220000220000220000280E72D
:2B175900800008800008800008800008800008800008000000000020000220000220000220000220000220000280E702
:2B178400000000000000000000000000000000000000000000000000000000000000000000000000000000000080E7D3
:2B17AF0000000000000000000000000000000000000000000000000000000000000000000000000000007810000088FF
:2B17DA000200000000000000000000000000000000000000000000000000000000000000000000000000600000088BEF
:2B1805000200000000000000000000000000000000000000000000000000000000000000000000000000700100089BA2
:2B183000020000000000000000000000000000000000000000000000000000000000000000000000000040000008A99A
:2B185B00020000000000000000000000000000000000000000000000000000000000000000000000000060020008896D
:2B18860000000000000000000000000000000000000000000000000000000000000000000000000000006010008091B6
:2B18B10000000000000000000000000000000000000000000000000000000000000000000000000000006000008081AB
:2B18DC00000000000000000000000000000000000000000000000000000000000000000080000800000000000080E7F2
:2B190700000000000000000000000000000000000000000000000000000000000000000018800100000078100000880C
:2B193200000000000000000000000000000000000000000000000000000000000000000040000000000060010080C4A5
:2B195D000200000000000000000000000000000000000000000000000000000000000000100881000000F00000889AB2
:2B198800020000000000000000000000000000000000000000000000000000000000000000000001000040010008B830
:2B19B300020000000000000000000000000000000000000000000000000000000000000000400000000060000008CB94
:2B19DE00020000000000000000000000000000000000000000000000000000000000000000208400000060000008E7E9
:2B1A09000000000000000000000000000000000000000000000000000000000000000000800000000000E01000809131
:2B1A3400000000000000000000000000000000000000000000000000000000000080000080000800000000400000A798
:2B1A5F00000000000000000000000000000000000000000000000000000000000018000018800100000058000080A330
:2B1A8A00000000000000000000000000000000000000000000000000000000000000000040000400000060000080818C
:2B1AB5000000000000000000000000000000000000000000000000000000000000900800100881000000F00200808BD8
:2B1AE0000200000000000000000000000000000000000000000000000000000000000000000000010000600400089FCD
:2B1B0B000200000000000000000000000000000000000000000000000000000000004000004000000000E00000888B3A
:2B1B3600020000000000000000000000000000000000000000000000000000000040400000000004000060080008C7C7
:2B1B61000200000000000000000000000000000000000000000000000000000000000000802008000000E0000088AB9C
:2B1B8C00000000000000000000000000000000000000000000000000000000000080000080000800000080000080E73F
:2B1BB700000000000000000000000000000000000000000000000000000000000018000018800100000018000080E7D3
:2B1BE200000000000000000000000000000000000000000000000000000000000040000000000400000040000080A331
:2B1C0D00000000000000000000000000000000000000000000000000000000000090080010088100000010080000E77C
:2B1C3800000000000000000000000000000000000000000000000000000000000000000000000001000000000080F709
:2B1C6300020000000000000000000000000000000000000000000000000000000000400000400000000000400008ADDF
:2B1C8E00020000000000000000000000000000000000000000000000000000000000000040000000000000100008B918
:2B1CB900020000000000000000000000000000000000000000000000000000000000080080080004000080000008AD35
:2B1CE400020000000000000000000000000000000000000000000000000000000000000080000800000080000088ED56
:2B1D0F00000000000000000000000000000000000000000000000000000000000078100018800D00000018000000D58F
:2B1D3A00000000000000000000000000000000000000000000000000000000000060010000001600000040000080A3A4
:2B1D65000000000000000000000000000000000000000000000000000000000000F0000010080F00000010080080E7BD
:2B1D9000000000000000000000000000000000000000000000000000000000000040000000004600000000000080C161
:2B1DBB00000000000000000000000000000000000000000000000000000000000060010000400E00000000400088EE98
:2B1DE600020000000000000000000000000000000000000000000000000000000060400040004600000000000080E545
:2B1E11000200000000000000000000000000000000000000000000000000000000E000000020060000008040008085D9
:2B1E3C00020000000000000000000000000000000000000000000000000000000080000000000800000080000000E58C
:2B1E67000200000000000000000000000000000000000000000000000000000000180000789001000000180000809302
:2B1E9200000000000000000000000000000000000000000000000000000000000040000060010000000000000008CCB0
:2B1EBD0000000000000000000000000000000000000000000000000000000000009008007000810000001008000089D0
:2B1EE800000000000000000000000000000000000000000000000000000000000000000040020001000000000080B15B
:2B1F130000000000000000000000000000000000000000000000000000000000000040006000000000000040008081C2
:2B1F3E000000000000000000000000000000000000000000000000000000000000000000E000040000004000000081D3
:2B1F69000200000000000000000000000000000000000000000000000000000000000400E0004800000000200008AB4C
:2B1F9400020000000000000000000000000000000000000000000000000000000880000000000000000080000088EDA3
:2B1FBF000200000000000000000000000000000000000000000000000000008001180000D8840701000018000008C216
:2B1FEA00020000000000000000000000000000000000000000000000000000000000000060000600000000000008ED6F
:2B201500000000000000000000000000000000000000000000000000000000000194080070011700000010080000B6AD
:2B204000000000000000000000000000000000000000000000000000000000000000000060040400000000000080C1CC
:2B206B000000000000000000000000000000000000000000000000000000000080004000E0002600000000400000ED57
:2B209600000000000000000000000000000000000000000000000000000000000040000060200602000040040080E3B0
:2B20C100000000000000000000000000000000000000000000000000000000000680400060000E00000000000080C17F
:2B20EC00020000000000000000000000000000000000000000000000000080000000000000000000000000400088ADD2
:2B2117000200000000000000000000000000000000000000000000000000180000781000789007010000D8000008C645
:2B214200020000000000000000000000000000000000000000000000000000000060020060000600000060020008ED51
:2B216D00020000000000000000000000000000000000000000000000000070400070000070022F000000F0000008DAB2
:2B219800000000000000000000000000000000000000000000000000000000000040000040002400000060040080C3D1
:2B21C3000000000000000000000000000000000000000000000000000000000800600200E00206000000E0000080EF50
:2B21EE00000000000000000000000000000000000000000000000000000000000060100060000600000060000080F719
:2B2219000A00000000000000000000000000000000000000000000000000000000E0000060048E000000E02000F8BE08
:2B2244001E0000000000000000000000000000000000000000000000000000000000000000000000000000000058A455
:2B226F00000000000000000000000000000000000000000000000000000000000000000000000000000000000080E7DD
:2B229A00800008800008800008800008800008800008000000000020000220000220000220000220000220000280E7B6
:2B22C500800008800008800008800008800008800008000000000020000220000220000220000220000220000280E78B
:2B22F000000000000000000000000000000000000000000000000000000008000800000420008400000000000080C5C6
:2B231B00000000000000000000000000000000000000000000000000000000000088000000000000202000000080CD82
:2B234600000000000000000000000000000400000400000000000008000000000400100400000401800000000080A39C
:2B237100000000000000000000000000000000000000010000000000000000000000000020008000000020022080EEF0
:2B239C00000000000000000000000000000400000400010000000008000008000888000000000000A02000022080C447
:2B23C700000000000000000000000000000000000000000000000000000010400194400050400100000010400000E302
:2B23F200000000000000000000000000000000000000000000000000000000000000000000004500000000010080B743
:2B241D00000000000000000000000000000000000000000000000000000000000000000000101000000000000080F6FE
:2B244800000000000000000000000000000000000000000000000000000000000000000010100802000000020000C479
:2B247300000000000000000000000000000000000000000000000000000000000000040000044000000000040080E78B
:2B249E000000000000000000000000000000000000000000000000000000000000000000000800000000006400808B9C
:2B24C900000000000000000000000000000000000000000000000000000000000000000000000000000000020080E581
:2B24F400000000000000000000000000000000000000000000000000000000000000000000000000000000000080E756
:2B251F00000000000000000000000000000000000000000000000000000000000040000000010004000000000080E2EA
:2B254A00000000000000000000000000000000000000000000000000000000000000000000000000000000000080E7FF
:2B257500000000000000000000000000000000000000000000000000000000000000000020000000000000200080E596
:2B25A000000000000000000000000000000000000000000000000000000000000000200020000200000020000080E549
:2B25CB00000000000000000000000000000000000000000000000000000000000000000000000000000000000080E77E
:2B25F600000000000000000000000000000000000000000000000000000000000000020000000000000000000080E553
:2B262100000000000000000000000000000000000000000000000000000000000000000000000000000000000080E727
:2B264C00000000000000000000000000000000000000000000000000000000000000000000000000000000000080E7FC
:2B267700000000000000000000000000000000000000000000000000000000000000000000000000000000000080E7D1
:2B26A200000000000000000000000000000000000000000000000000000000000000001000000000000000000080E697
:2B26CD00000000000000000000000000000000000000000000000000000000000000000000000000100000000080F75B
:2B26F800000000000000000000000000000000000000000000000000000000000000000000000000000000000080E750
:2B272300000000000000000000000000000000000000000000000000000000000000000000000000000000000080E724
:2B274E00000000000000000000000000000000000000000000000000000000000000000000000000000000000080E7F9
:2B277900000000000000000000000000000000000000000000000000000000000000000000000040000100001080B3B1
:2B27A40000000000000000000000000000000000000000000000000000000000000000000400001000020000408090A4
:2B27CF00040000000000000000000000000000000000000000000000000000000000000000000000000000000080E378
:2B27FA00000000000000000000000000000000000000000000000000000000000000000000000000000000000080E74D
:2B282500000000000000000000000000000000000020000000000080000880000000000800000080000800000800C503
:2B285000000000000000000000000000000000000000000000000000000000000000000200000000000000000800C58E
:2B287B00000000000000000000000000000000000000000000000000000002202000200808002000020000020080CF4D
:2B28A600000000000000000000000000000000000000000000000000000000000000000808000000000000000280CDA8
:2B28D100020000000000000000000000000000000000000000000000000000000000000000000000000000000008EDE5
:2B28FC00020000000000000000000000000000000000000000000000000002202000200000002000020000020008CD54
:2B292700020000000000000000000000000000000000000000000000000000000000000000000000000000000008ED8E
:2B295200020000000000000000000000000000000000000000000000000000000000000000000000000000000008ED63
:2B297D00000000000000000000000000000000000000000000000000000000000000000000000000000000000080E7C8
:2B29A800800008800008800008800008800008800008000000000020000220000220000220000220000220000280E7A1
:2B29D300800008800008800008800008800008800008000000000020000220000220000220000220000220000280E776
:2B29FE00000000000000000000000000000000000000000000000000000000000000000000000000000000000800E7BF
:2B2A2900000000000000000000000000000000000000000000000000000000000000000000000000000000800500BA43
:2B2A5400020000000000000000000000000000000000000000000000000000000000000000000000000000000008ED60
:2B2A7F00020000000000000000000000000000000000000000000000000000000000000000000000000000008108F4AD
:2B2AAA00020000000000000000000000000000000000000000000000000000000000000000000000000000000008ED0A
:2B2AD50002000000000000000000000000000000000000000000000000000000000000000000000000000000000CAD1B
:2B2B0000000000000000000000000000000000000000000000000000000000000000000000000000000000000080E743
:2B2B2B00000000000000000000000000000000000000000000000000000000000000000000000000000000000802C7AE
:2B2B5600000000000000000000000000000000000000000000000000000000000000000000000000008000000800EFDD
:2B2B8100000000000000000000000000000000000000000000000000000000000000000000000000800100800900E738
:2B2BAC00000000000000000000000000000000000000000000000000000000000000000000000000000402000482E78B
:2B2BD700020000000000000000000000000000000000000000000000000000000000000000000000000500000508EDD2
:2B2C020002000000000000000000000000000000000000000000000000000000000000000000000000000400000CEDA8
:2B2C2D00020000000000000000000000000000000000000000000000000000000000000000000000000E00000688EDF1
:2B2C5800020000000000000000000000000000000000000000000000000000000000000000000000000C00000488EDCA
:2B2C8300000000000000000000000000000000000000000000000000000000000000000000000000000600004680E377
:2B2CAE00000000000000000000000000000000000000000000000000000000000000000800000000080000000000EFFC
:2B2CD900000000000000000000000000000000000000000000000000000000000000800500000018802F00802F80A3B2
:2B2D0400000000000000000000000000000000000000000000000000000000000000000000000040000400000480A339
:2B2D2F000000000000000000000000000000000000000000000000000000000000000081000000D0080F04000F04A357
:2B2D5A00020000000000000000000000000000000000000000000000000000000000000000000000001600001608ED2B
:2B2D85000200000000000000000000000000000000000000000000000000000000000000040000E0100600000688DBBE
:2B2DB00002000000000000000000000000000000000000000000000000000000000000400000004000060400060CADAD
:2B2DDB00020000000000000000000000000000000000000000000000000000000000000000000060040600000E888F3C
:2B2E0600000000000000000000000000000000000000000000000000000000000000000800000000080000000000EFA2
:2B2E3100000000000000000000000000000000000000000000000000000000000000800900000018800501801D80F63C
:2B2E5C00000000000000000000000000000000000000000000000000000000000000000402000040000000000680A1DE
:2B2E87000000000000000000000000000000000000000000000000000000000000000005000000D0088100004F80856E
:2B2EB200000000000000000000000000000000000000000000000000000000000000008000000000200001004680BDD1
:2B2EDD00020000000000000000000000000000000000000000000000000000000000000E000000E0000000000E888BB9
:2B2F08000200000000000000000000000000000000000000000000000000000000000004040000C0000800000609DBE2
:2B2F33000200000000000000000000000000000000000000000000000000000000000006000000E0000800000E888B62
:2B2F5E00020000000000000000000000000000000000000000000000000000000000000800000000020000000808EF3D
:2B2F8900000000000000000000000000000000000000000000000000000000000000800500000078800501800580D5C0
:2B2FB400000000000000000000000000000000000000000000000000000000000000000000000040000000000080A38F
:2B2FDF000000000000000000000000000000000000000000000000000000000000000081000000F0408100008100C94B
:2B300A00000000000000000000000000000000000000000000000000000000000000000000000060200001000080B1E9
:2B3035000000000000000000000000000000000000000000000000000000000000000000040000600000000000848107
:2B3060000200000000000000000000000000000000000000000000000000000000000000010000600080000040089783
:2B308B000200000000000000000000000000000000000000000000000000000000000000000000E00408000000088F95
:2B30B6000200000000000000000000000000000000000000000000E00000800000000008000000000000000008088BEA
:2B30E100020000000000000000000000000000000000000000000018000018000000800900000078821F00800988EEF1
:2B310C00000000000000000000000000000000000000000000000000000000000000000402000040000400000482E7E1
:2B3137000000000000000000000000000000000000000000000000104000104000000005000000F0400F04000580E719
:2B3162000000000000000000000000000000000000000000000000000000600000000040000000600106000000808437
:2B318D00000000000000000000000000000000000000000000000000080000080000000E000000E0002600008E00ED78
:2B31B800000000000000000000000000000000000000000000000000000000000000000401000060044600000481E7D1
:2B31E300020000000000000000000000000000000000000000000000000000000000000E00000060000E00000608ED48
:2B320E00020000000000000000000000000000000020000000000000000000000000000000000000002000002008CF5C
:2B323900020000000000000000000000000000000016000000000000000000000000802700000058900500800508AC85
:2B326400020000000000000000000000000000000000000000000000000000000000000400000000000602000608899A
:2B328F00000000000000000000000000000000000004020000000000000000000000000F04000010080F00000782ABA0
:2B32BA000000000000000000000000000000000000000000000000000000000000000026000000000006000046808770
:2B32E500000000000000000000000000000000000000100000000000000000000000000600000000400604000E0091BF
:2B3310000000000000000000000000000000000000000800000000000000000000000006000000000046000006808D2B
:2B333B00000000000000000000000000000000000020000000000000000000000000004600000080200600000E819735
:2B336600020000000000000000000000000000000000000000000000000800000000000000000000008000000088E545
:2B339100020000000000000000000000000000000000000000000000800100000000801700000058810100801788B14D
:2B33BC00020000000000000000000000000000000000000000000000000000000000000400000060100402000408FF5F
:2B33E700020000000000000000000000000000000000000000000000000104000000000F04000070000500000F0C9E73
:2B34120000000000000000000000000000000000000000000000000000000000000000160000006004000000268086E9
:2B343D000000000000000000000000000000000000000000000000000080000000000006000000E0004600000E80EB3F
:2B3468000000000000000000000000000000000000000000000000000006000000000006000000E0000400008600AB18
:2B3493001A0000000000000000000000000000000000000000000000000000000000000E01000060000E02000678B245
:2B34BE001E000000000000000000000000000000000000000000000000000000000000000000000000000000007886C7
:2B34E900000000000000000000000000000000000000000000000000000000000000000000000000000000000080E751
:2B351400800008800008800008800008800008800008000000000020000220000220000220000220000220000280E729
:2B353F00800008800008800008800008800008800008000000000020000220000220000220000220000220000280E7FE
:2B356A00000000000000000000000000000000000040000000000000800003020060000000000000000000000000FF12
:2B3595000000000000000000000000000000000000000000000000000000000008402008080008001004000004809B58
:2B35C000000000000000000000000000000000000000000000000000000000000000000000000008000000800080E7F1
:2B35EB0000000000000000000000000000000000000000000000000000000020002202200020202000A000000080CF02
:2B361600000000000000000000000000000000000040000000000000800002220842222808202808102400800400D52C
:2B364100000000000000000000000000000000000004100000000010400114400000000504000000444000002184E093
:2B366C00000000000000000000000000000000000000000000000000000000000000000000000000005004000482C693
:2B369700000000000000000000000000000000000000000000000000000000000000000000000020000000000081D592
:2B36C200000000000000000000000000000000000000040000000000000000000000004000000000000102002080D422
:2B36ED00000000000000000000000000000000000000000000000000000000000000000002000000220002000282C741
:2B371800000000000000000000000000000000000000000000000000000000000000000100000080140800000180F375
:2B374300000000000000000000000000000000000000000000000000000000000000000000000000000000000080E7F4
:2B376E00000000000000000000000000000000000000000000000000000000000000000000000000000000000080E7C9
:2B379900000000000000000000000000000000000000000000000000000000000000000000000000000400000080A3DE
:2B37C400000000000000000000000000000000000000000000000000000000000000000000000040080000000080AB67
:2B37EF00000000000000000000000000000000000000000000000000000000000000000000000010010005008480EBAA
:2B381A0000000000000000000000000000000000000000000000000000000000000000A000000020008401008284F93F
:2B384500000000000000000000000000000000000000000000000000000000000000002000000000000000000080E5D3
:2B387000000000000000000000000000000000000000000000000000000000000000000400000000000000000080A306
:2B389B00000000000000000000000000000000000000000000000000000000000000000000000000000000000080E79B
:2B38C600000000000000000000000000000000000000000000000000000000000000000000000000000000000080E770
:2B38F100000000000000000000000000000000000000000000000000000000000000000000000000000000000080E745
:2B391C00000000000000000000000000000000000000000000000000000000000000000000000000000000000080E719
:2B394700401004411004411004411004A11004A110840200000000280441100AA1100AA1100AA12884A2108AA200EA04
:2B397200601886611886611886611886C11B86C11B06170000000070876118BCC11BDCC11DBCC17507D71D5CD705CB22
:02399D00FFFF2A
:00000001FF
