:020000040000FA
:2B000000FFFF62FF2900FFFFFFFFFFFFFFFFFFFFFFFFFFFFFFFFFFFFFFFFFFFFFFFFFFFFFFFFFFFFFFFFFFFFFFFFFF72
:2B002B0060188661188661188661188661188661188601000000001886611886611886611886611886C11D86C18387E7
:2B00560040100441100441100441100441100441100401000000001004411004411004411004411004A11004A180E75C
:2B008100000000000000000000000000000000000000000000000000000000000000000000000000000000000080E7ED
:2B00AC00000000000000000000000000000000000000000000000000000000000000000000000000000000000080E7C2
:2B00D700000000000000000000000000000000000000000000000000000000000000000000000000000000000080E797
:2B010200000000000000000000000000000000000000000000000000000000000000000000000000000000000080E76B
:2B012D00000000000000000000000000000000000000000000000000000000000000000000000000000000000080E740
:2B015800000000000000000000000000000000000000000000000000000000000000000000000000000000000080E715
:2B018300000000000000000000000000000000000000000000000000000000000000000000000000000000000080E7EA
:2B01AE00000000000000000000000000000000000000000000000000000000000000000000000000000000000080E7BF
:2B01D900000000000000000000000000000000000000000000000000000000000000000000000000000000000080E794
:2B020400000000000000000000000000000000000000000000000000000000000000000000000000000000000080E768
:2B022F00000000000000000000000000000000000000000000000000000000000000000000000000000000000080E73D
:2B025A00000000000000000000000000000000000000000000000000000000000000000000000000000000000080E712
:2B028500000000000000000000000000000000000000000000000000000000000000000000000000000000000080E7E7
:2B02B000000000000000000000000000000000000000000000000000000000000000000000000000000000000080E7BC
:2B02DB00000000000000000000000000000000000000000000000000000000000000000000000000000000000080E791
:2B030600000000000000000000000000000000000000000000000000000000000000000000000000000000000080E765
:2B033100000000000000000000000000000000000000000000000000000000000000000000000000000000000080E73A
:2B035C00000000000000000000000000000000000000000000000000000000000000000000000000000000000080E70F
:2B038700000000000000000000000000000000000000000000000000000000000000000000000000000000000080E7E4
:2B03B200020000000000000000000000000000000000000000000000000000000000000000000000000000000008ED29
:2B03DD00000000000000000000000000000000000000000000000000000000000000000000000000000000000080E78E
:2B040800000000000000000000000000000000000000000000000000000000000000000000000000000000000080E762
:2B043300000000000000000000000000000000000000000000000000000000000000000000000000000000000080E737
:2B045E00000000000000000000000000000000000000000000000000000000000000000000000000000000000080E70C
:2B048900020000000000000000000000000000000000000000000000000000000000000000000000000000000008ED51
:2B04B400800008800008800008800008800008800008000000000020000220000220000220000220000220000280E7BA
:2B04DF00800008800008800008800008800008800008000000000020000220000220000220000220000220000280E78F
:2B050A00000000000000000000000000000000000000000000000000000000000000000000000000000000000080E75F
:2B053500020000000000000000000000000000000000000000000000000000000000000000000000000000000008EDA4
:2B056000000000000000000000000000000000000000000000000000000000000000000000000000000000000080E709
:2B058B00000000000000000000000000000000000000000000000000000000000000000000000000000000000080E7DE
:2B05B600000000000000000000000000000000000000000000000000000000000000000000000000000000000080E7B3
:2B05E100000000000000000000000000000000000000000000000000000000000000000000000000000000000080E788
:2B060C00020000000000000000000000000000000000000000000000000000000000000000000000000000000008EDCC
:2B063700000000000000000000000000000000000000000000000000000000000000000000000000000000000080E731
:2B066200000000000000000000000000000000000000000000000000000000000000000000000000000000000080E706
:2B068D00000000000000000000000000000000000000000000000000000000000000000000000000000000000080E7DB
:2B06B800020000000000000000000000000000000000000000000000000000000000000000000000000000000008ED20
:2B06E300000000000000000000000000000000000000000000000000000000000000000000000000000000000080E785
:2B070E00000000000000000000000000000000000000000000000000000000000000000000000000000000000080E759
:2B073900000000000000000000000000000000000000000000000000000000000000000000000000000000000080E72E
:2B076400000000000000000000000000000000000000000000000000000000000000000000000000000000000080E703
:2B078F00020000000000000000000000000000000000000000000000000000000000000000000000000000000008ED48
:2B07BA00000000000000000000000000000000000000000000000000000000000000000000000000000000000080E7AD
:2B07E500000000000000000000000000000000000000000000000000000000000000000000000000000000000080E782
:2B081000000000000000000000000000000000000000000000000000000000000000000000000000000000000080E756
:2B083B00020000000000000000000000000000000000000000000000000000000000000000000000000000000008ED9B
:2B086600000000000000000000000000000000000000000000000000000000000000000000000000000000000080E700
:2B089100000000000000000000000000000000000000000000000000000000000000000000000000000000000080E7D5
:2B08BC00000000000000000000000000000000000000000000000000000000000000000000000000000000000080E7AA
:2B08E700000000000000000000000000000000000000000000000000000000000000000000000000000000000080E77F
:2B091200020000000000000000000000000000000000000000000000000000000000000000000000000000000008EDC3
:2B093D00000000000000000000000000000000000000000000000000000000000000000000000000000000000080E728
:2B096800000000000000000000000000000000000000000000000000000000000000000000000000000000000080E7FD
:2B099300000000000000000000000000000000000000000000000000000000000000000000000000000000000080E7D2
:2B09BE00020000000000000000000000000000000000000000000000000000000000000000000000000000000008ED17
:2B09E900000000000000000000000000000000000000000000000000000000000000000000000000000000000080E77C
:2B0A1400000000000000000000000000000000000000000000000000000000000000000000000000000000000080E750
:2B0A3F00000000000000000000000000000000000000000000000000000000000000000000000000000000000080E725
:2B0A6A00000000000000000000000000000000000000000000000000000000000000000000000000000000000080E7FA
:2B0A9500020000000000000000000000000000000000000000000000000000000000000000000000000000000008ED3F
:2B0AC000000000000000000000000000000000000000000000000000000000000000000000000000000000000080E7A4
:2B0AEB00000000000000000000000000000000000000000000000000000000000000000000000000000000000080E779
:2B0B1600000000000000000000000000000000000000000000000000000000000000000000000000000000000080E74D
:2B0B4100020000000000000000000000000000000000000000000000000000000000000000000000000000000008ED92
:2B0B6C00000000000000000000000000000000000000000000000000000000000000000000000000000000000080E7F7
:2B0B9700000000000000000000000000000000000000000000000000000000000000000000000000000000000080E7CC
:2B0BC200000000000000000000000000000000000000000000000000000000000000000000000000000000000080E7A1
:2B0BED00000000000000000000000000000000000000000000000000000000000000000000000000000000000080E776
:2B0C1800020000000000000000000000000000000000000000000000000000000000000000000000000000000008EDBA
:2B0C4300000000000000000000000000000000000000000000000000000000000000000000000000000000000080E71F
:2B0C6E00000000000000000000000000000000000000000000000000000000000000000000000000000000000080E7F4
:2B0C9900000000000000000000000000000000000000000000000000000000000000000000000000000000000080E7C9
:2B0CC400020000000000000000000000000000000000000000000000000000000000000000000000000000000008ED0E
:2B0CEF00000000000000000000000000000000000000000000000000000000000000000000000000000000000080E773
:2B0D1A00000000000000000000000000000000000000000000000000000000000000000000000000000000000080E747
:2B0D4500000000000000000000000000000000000000000000000000000000000000000000000000000000000080E71C
:2B0D7000000000000000000000000000000000000000000000000000000000000000000000000000000000000080E7F1
:2B0D9B00020000000000000000000000000000000000000000000000000000000000000000000000000000000008ED36
:2B0DC600000000000000000000000000000000000000000000000000000000000000000000000000000000000080E79B
:2B0DF100000000000000000000000000000000000000000000000000000000000000000000000000000000000080E770
:2B0E1C00000000000000000000000000000000000000000000000000000000000000000000000000000000000080E744
:2B0E4700020000000000000000000000000000000000000000000000000000000000000000000000000000000008ED89
:2B0E7200000000000000000000000000000000000000000000000000000000000000000000000000000000000080E7EE
:2B0E9D00000000000000000000000000000000000000000000000000000000000000000000000000000000000080E7C3
:2B0EC800000000000000000000000000000000000000000000000000000000000000000000000000000000000080E798
:2B0EF300000000000000000000000000000000000000000000000000000000000000000000000000000000000080E76D
:2B0F1E00020000000000000000000000000000000000000000000000000000000000000000000000000000000008EDB1
:2B0F4900000000000000000000000000000000000000000000000000000000000000000000000000000000000080E716
:2B0F7400000000000000000000000000000000000000000000000000000000000000000000000000000000000080E7EB
:2B0F9F00000000000000000000000000000000000000000000000000000000000000000000000000000000000080E7C0
:2B0FCA00000000000000000000000000000000000000000000000000000000000000000000000000000000000080E795
:2B0FF500000000000000000000000000000000000000000000000000000000000000000000000000000000000080E76A
:2B102000800008800008800008800008800008800008000000000020000220000220000220000220000220000280E742
:2B104B00800008800008800008800008800008800008000000000020000220000220000220000220000220000280E717
:2B107600000000000000000000000000000000000000000000000000000000000000000000000000000000000080E7E8
:2B10A100000000000000000000000000000000000000000000000000000000000000000000000000000000000080E7BD
:2B10CC00000000000000000000000000000000000000000000000000000000000000000000000000000000000080E792
:2B10F700000000000000000000000000000000000000000000000000000000000000000000000000000000000080E767
:2B112200000000000000000000000000000000000000000000000000000000000000000000000000000000000080E73B
:2B114D00000000000000000000000000000000000000000000000000000000000000000000000000000000000080E710
:2B117800000000000000000000000000000000000000000000000000000000000000000000000000000000000080E7E5
:2B11A300000000000000000000000000000000000000000000000000000000000000000000000000000000000080E7BA
:2B11CE00000000000000000000000000000000000000000000000000000000000000000000000000000000000080E78F
:2B11F900000000000000000000000000000000000000000000000000000000000000000000000000000000000080E764
:2B122400000000000000000000000000000000000000000000000000000000000000000000000000000000000080E738
:2B124F00000000000000000000000000000000000000000000000000000000000000000000000000000000000080E70D
:2B127A00000000000000000000000000000000000000000000000000000000000000000000000000000000000080E7E2
:2B12A500000000000000000000000000000000000000000000000000000000000000000000000000000000000080E7B7
:2B12D000000000000000000000000000000000000000000000000000000000000000000000000000000000000080E78C
:2B12FB00000000000000000000000000000000000000000000000000000000000000000000000000000000000080E761
:2B132600000000000000000000000000000000000000000000000000000000000000000000000000000000000080E735
:2B135100000000000000000000000000000000000000000000000000000000000000000000000000000000000080E70A
:2B137C00000000000000000000000000000000000000000000000000000000000000000000000000000000000080E7DF
:2B13A700000000000000000000000000000000000000000000000000000000000000000000000000000000000080E7B4
:2B13D200000000000000000000000000000000000000000000000000000000000000000000000000000000000080E789
:2B13FD00000000000000000000000000000000000000000000000000000000000000000000000000000000000080E75E
:2B142800000000000000000000000000000000000000000000000000000000000000000000000000000000000080E732
:2B145300000000000000000000000000000000000000000000000000000000000000000000000000000000000080E707
:2B147E00000000000000000000000000000000000000000000000000000000000000000000000000000000000080E7DC
:2B14A900000000000000000000000000000000000000000000000000000000000000000000000000000000000080E7B1
:2B14D400000000000000000000000000000000000000000000000000000000000000000000000000000000000080E786
:2B14FF00000000000000000000000000000000000000000000000000000000000000000000000000000000000080E75B
:2B152A00000000000000000000000000000000000000000000000000000000000000000000000000000000000080E72F
:2B155500000000000000000000000000000000000000000000000000000000000000000000000000000000000080E704
:2B158000000000000000000000000000000000000000000000000000000000000000000000000000000000000080E7D9
:2B15AB00000000000000000000000000000000000000000000000000000000000000000000000000000000000080E7AE
:2B15D600000000000000000000000000000000000000000000000000000000000000000000000000000000000080E783
:2B160100000000000000000000000000000000000000000000000000000000000000000000000000000000000080E757
:2B162C00020000000000000000000000000000000000000000000000000000000000000000000000000000000008ED9C
:2B165700000000000000000000000000000000000000000000000000000000000000000000000000000000000080E701
:2B168200000000000000000000000000000000000000000000000000000000000000000000000000000000000080E7D6
:2B16AD00000000000000000000000000000000000000000000000000000000000000000000000000000000000080E7AB
:2B16D800000000000000000000000000000000000000000000000000000000000000000000000000000000000080E780
:2B170300020000000000000000000000000000000000000000000000000000000000000000000000000000000008EDC4
:2B172E00800008800008800008800008800008800008000000000020000220000220000220000220000220000280E72D
:2B175900800008800008800008800008800008800008000000000020000220000220000220000220000220000280E702
:2B178400000000000000000000000000000000000000000000000000000000000000000000000000000000000080E7D3
:2B17AF00020000000000000000000000000000000000000000000000000000000000000000000000000000000008ED18
:2B17DA00000000000000000000000000000000000000000000000000000000000000000000000000000000000080E77D
:2B180500000000000000000000000000000000000000000000000000000000000000000000000000000000000080E751
:2B183000000000000000000000000000000000000000000000000000000000000000000000000000000000000080E726
:2B185B00000000000000000000000000000000000000000000000000000000000000000000000000000000000080E7FB
:2B188600020000000000000000000000000000000000000000000000000000000000000000000000000000000008ED40
:2B18B100000000000000000000000000000000000000000000000000000000000000000000000000000000000080E7A5
:2B18DC00000000000000000000000000000000000000000000000000000000000000000000000000000000000080E77A
:2B190700000000000000000000000000000000000000000000000000000000000000000000000000000000000080E74E
:2B193200020000000000000000000000000000000000000000000000000000000000000000000000000000000008ED93
:2B195D00000000000000000000000000000000000000000000000000000000000000000000000000000000000080E7F8
:2B198800000000000000000000000000000000000000000000000000000000000000000000000000000000000080E7CD
:2B19B300000000000000000000000000000000000000000000000000000000000000000000000000000000000080E7A2
:2B19DE00000000000000000000000000000000000000000000000000000000000000000000000000000000000080E777
:2B1A0900020000000000000000000000000000000000000000000000000000000000000000000000000000000008EDBB
:2B1A3400000000000000000000000000000000000000000000000000000000000000000000000000000000000080E720
:2B1A5F00000000000000000000000000000000000000000000000000000000000000000000000000000000000080E7F5
:2B1A8A00000000000000000000000000000000000000000000000000000000000000000000000000000000000080E7CA
:2B1AB500020000000000000000000000000000000000000000000000000000000000000000000000000000000008ED0F
:2B1AE000000000000000000000000000000000000000000000000000000000000000000000000000000000000080E774
:2B1B0B00000000000000000000000000000000000000000000000000000000000000000000000000000000000080E748
:2B1B3600000000000000000000000000000000000000000000000000000000000000000000000000000000000080E71D
:2B1B6100000000000000000000000000000000000000000000000000000000000000000000000000000000000080E7F2
:2B1B8C00020000000000000000000000000000000000000000000000000000000000000000000000000000000008ED37
:2B1BB700000000000000000000000000000000000000000000000000000000000000000000000000000000000080E79C
:2B1BE200000000000000000000000000000000000000000000000000000000000000000000000000000000000080E771
:2B1C0D00000000000000000000000000000000000000000000000000000000000000000000000000000000000080E745
:2B1C3800020000000000000000000000000000000000000000000000000000000000000000000000000000000008ED8A
:2B1C6300000000000000000000000000000000000000000000000000000000000000000000000000000000000080E7EF
:2B1C8E00000000000000000000000000000000000000000000000000000000000000000000000000000000000080E7C4
:2B1CB900000000000000000000000000000000000000000000000000000000000000000000000000000000000080E799
:2B1CE400000000000000000000000000000000000000000000000000000000000000000000000000000000000080E76E
:2B1D0F00020000000000000000000000000000000000000000000000000000000000000000000000000000000008EDB2
:2B1D3A00000000000000000000000000000000000000000000000000000000000000000000000000000000000080E717
:2B1D6500000000000000000000000000000000000000000000000000000000000000000000000000000000000080E7EC
:2B1D9000000000000000000000000000000000000000000000000000000000000000000000000000000000000080E7C1
:2B1DBB00020000000000000000000000000000000000000000000000000000000000000000000000000000000008ED06
:2B1DE600000000000000000000000000000000000000000000000000000000000000000000000000000000000080E76B
:2B1E1100000000000000000000000000000000000000000000000000000000000000000000000000000000000080E73F
:2B1E3C00000000000000000000000000000000000000000000000000000000000000000000000000000000000080E714
:2B1E6700000000000000000000000000000000000000000000000000000000000000000000000000000000000080E7E9
:2B1E9200020000000000000000000000000000000000000000000000000000000000000000000000000000000008ED2E
:2B1EBD00000000000000000000000000000000000000000000000000000000000000000000000000000000000080E793
:2B1EE800000000000000000000000000000000000000000000000000000000000000000000000000000000000080E768
:2B1F1300000000000000000000000000000000000000000000000000000000000000000000000000000000000080E73C
:2B1F3E00020000000000000000000000000000000000000000000000000000000000000000000000000000000008ED81
:2B1F6900000000000000000000000000000000000000000000000000000000000000000000000000000000000080E7E6
:2B1F9400000000000000000000000000000000000000000000000000000000000000000000000000000000000080E7BB
:2B1FBF00000000000000000000000000000000000000000000000000000000000000000000000000000000000080E790
:2B1FEA00000000000000000000000000000000000000000000000000000000000000000000000000000000000080E765
:2B201500020000000000000000000000000000000000000000000000000000000000000000000000000000000008EDA9
:2B204000000000000000000000000000000000000000000000000000000000000000000000000000000000000080E70E
:2B206B00000000000000000000000000000000000000000000000000000000000000000000000000000000000080E7E3
:2B209600000000000000000000000000000000000000000000000000000000000000000000000000000000000080E7B8
:2B20C100020000000000000000000000000000000000000000000000000000000000000000000000000000000008EDFD
:2B20EC00000000000000000000000000000000000000000000000000000000000000000000000000000000000080E762
:2B211700000000000000000000000000000000000000000000000000000000000000000000000000000000000080E736
:2B214200000000000000000000000000000000000000000000000000000000000000000000000000000000000080E70B
:2B216D00000000000000000000000000000000000000000000000000000000000000000000000000000000000080E7E0
:2B219800020000000000000000000000000000000000000000000000000000000000000000000000000000000008ED25
:2B21C300000000000000000000000000000000000000000000000000000000000000000000000000000000000080E78A
:2B21EE00000000000000000000000000000000000000000000000000000000000000000000000000000000000080E75F
:2B221900000000000000000000000000000000000000000000000000000000000000000000000000000000000080E733
:2B224400000000000000000000000000000000000000000000000000000000000000000000000000000000000080E708
:2B226F00000000000000000000000000000000000000000000000000000000000000000000000000000000000080E7DD
:2B229A00800008800008800008800008800008800008000000000020000220000220000220000220000220000280E7B6
:2B22C500800008800008800008800008800008800008000000000020000220000220000220000220000220000280E78B
:2B22F000000000000000000000000000000000000000000000000000000000000000000000000000000000000080E75C
:2B231B00000000000000000000000000000000000000000000000000000000000000000000000000000000000080E730
:2B234600000000000000000000000000000000000000000000000000000000000000000000000000000000000080E705
:2B237100000000000000000000000000000000000000000000000000000000000000000000000000000000000080E7DA
:2B239C00000000000000000000000000000000000000000000000000000000000000000000000000000000000080E7AF
:2B23C700000000000000000000000000000000000000000000000000000000000000000000000000000000000080E784
:2B23F200000000000000000000000000000000000000000000000000000000000000000000000000000000000080E759
:2B241D00000000000000000000000000000000000000000000000000000000000000000000000000000000000080E72D
:2B244800000000000000000000000000000000000000000000000000000000000000000000000000000000000080E702
:2B247300000000000000000000000000000000000000000000000000000000000000000000000000000000000080E7D7
:2B249E00000000000000000000000000000000000000000000000000000000000000000000000000000000000080E7AC
:2B24C900000000000000000000000000000000000000000000000000000000000000000000000000000000000080E781
:2B24F400000000000000000000000000000000000000000000000000000000000000000000000000000000000080E756
:2B251F00000000000000000000000000000000000000000000000000000000000000000000000000000000000080E72A
:2B254A00000000000000000000000000000000000000000000000000000000000000000000000000000000000080E7FF
:2B257500000000000000000000000000000000000000000000000000000000000000000000000000000000000080E7D4
:2B25A000000000000000000000000000000000000000000000000000000000000000000000000000000000000080E7A9
:2B25CB00000000000000000000000000000000000000000000000000000000000000000000000000000000000080E77E
:2B25F600000000000000000000000000000000000000000000000000000000000000000000000000000000000080E753
:2B262100080000000000000000000000000000000000000000000000000000000000000000000000000000000080EF17
:2B264C00000000000000000000000000000000000000000000000000000000000000000000000000000000000080E7FC
:2B267700000000000000000000000000000000000000008000000000000000000000000000000000000000000080EF49
:2B26A200000000000000000000000000000000000000000000400000000000000000000000000000000000000080A7A6
:2B26CD00000000000000000000000000000000000000000000000000000000000000000000000000000000000080E77B
:2B26F800000000000000000000000000000000000000000000000000000000000000000000000000000000000080E750
:2B272300000000000000000000000000000000000000000000000000000000000000000000000000000000000080E724
:2B274E00000000000000000000000000000000000000000000000000000000000000000000000000000000000080E7F9
:2B277900000000000000000000000000000000000000000000000000000000000000000000000000000000000080E7CE
:2B27A400080000000000000000000000000000000000000000000000000000000000000000000000000000000080EF93
:2B27CF00000000000000000000000000000000000000000000000000000000000000000000000000000000000080E778
:2B27FA00000000000000000000000000000000000000000000000000000000000000000000000000000000000080E74D
:2B282500000000000000000000000000000000000000000200000000000000000000000000000000000000000080C541
:2B285000000000000000000000000000000000000000000200000000000000000000000000000000000000000080C516
:2B287B00000000000000000000000000000000000000000000001000000000000000000000000000002000000082C4BC
:2B28A600020000000000000000000000000000000000000000000000000000000000000000000000000000000008ED10
:2B28D100000000000000000000000000000000000000000000000800000000000000000000000000000000000000E7ED
:2B28FC00000000000000000000000000000000000000000000000000000000000000000000000000002000000082C54A
:2B292700000000000000000000000000000000000000000000008002000000000000000000000000000000000080CFB4
:2B295200000000000000000000000000000000000000000000000000000000000000000000000000000000000080E7F3
:2B297D00020000000000000000000000000000000000000000000004000000000000000000000000000000000008AD74
:2B29A800800008800008800008800008800008800008000000000020000220000220000220000220000220000280E7A1
:2B29D300800008800008800008800008800008800008000000000020000220000220000220000220000220000280E776
:2B29FE00000000000000000000000000000000000000000000000003000000000000000000000000000000000080D754
:2B2A2900020000000000000000000000000000000000000000000000000000000000000000000000000000000008ED8B
:2B2A5400020000000000000000000000000000000000000000000000000000000000000000000000000000000080E5F0
:2B2A7F00040000000000000000000000000000000000000000000000000000000000000000000000000000000080E3C5
:2B2AAA00020000000000000000000000000000000000000000000000000000000000000000000000000000000080E59A
:2B2AD500020000000000000000000000000000000000000000000000000000000000000000000000000000000080E56F
:2B2B0000020000000000000000000000000000000000000000000000000000000000000000000000000000000008EDB3
:2B2B2B00000000000000000000000000000000000000000000000000000000000000000000000000000000000080E718
:2B2B5600000000000000000000000000000000000000000000000000000000000000000000000000000000000080E7ED
:2B2B810000000000000000000000000000000000000000000000C000000000000000000000000000000000000080EBFE
:2B2BAC0002000000000000000000000000000000000000000000A000000000000000000000000000000000000008E76D
:2B2BD70000000000000000000000000000000000000000000000A000000000000000000000000000000000000080EDC6
:2B2C0200000000000000000000000000000000000000000000000000000000000000000000000000000000000080E740
:2B2C2D00000000000000000000000000000000000000000000000000000000000000000000000000000000000080E715
:2B2C5800000000000000000000000000000000000000000000000000000000000000000000000000000000000080E7EA
:2B2C8300020000000000000000000000000000000000000000000000000000000000000000000000000000000008ED2F
:2B2CAE00000000000000000000000000000000000000000000002000000000000000000000000000000000000080E576
:2B2CD900000000000000000000000000000000000000000000002000000000000000000000000000000000000080E54B
:2B2D0400000000000000000000000000000000000000000000000000000000000000000000000000000000000080E73D
:2B2D2F00020000000000000000000000000000000000000000002004000000000000000000000000000000000008AF9C
:2B2D5A00000000000000000000000000000000000000000000008000000000000000000000000000000000000080EF5F
:2B2D8500000000000000000000000000000000000000000000002000000000000000000000000000000000000080E59E
:2B2DB000000000000000000000000000000000000000000000000002000000000000000000000000000000000080C7AF
:2B2DDB00000000000000000000000000000000000000000000002000000000000000000000000000000000000080E548
:2B2E0600020000000000000000000000000000000000000000000000000000000000000000000000000000000008EDAA
:2B2E3100000000000000000000000000000000000000000000002001000000000000000000000000000000000080F5E0
:2B2E5C00000000000000000000000000000000000000000000000001000000000000000000000000000000000080F7D3
:2B2E8700000000000000000000000000000000000000000000000000000000000000000000000000000000000080E7B9
:2B2EB200020000000000000000000000000000000000000000000000000000000000000000000000000000000008EDFE
:2B2EDD00000000000000000000000000000000000000000000000002000000000000000000000000000000000080C781
:2B2F0800000000000000000000000000000000000000000000008000000000000000000000000000000000000080EFAF
:2B2F3300000000000000000000000000000000000000000000000000000000000000000000000000000000000080E70C
:2B2F5E00000000000000000000000000000000000000000000000000000000000000000000000000000000000080E7E1
:2B2F8900020000000000000000000000000000000000000000008000000000000000000000000000000000000008E5AE
:2B2FB400000000000000000000000000000000000000000000000000000000000000000000000000000000000080E78B
:2B2FDF00000000000000000000000000000000000000000000004000000000000000000000000000000000000080E324
:2B300A00000000000000000000000000000000000000000000000000000000000000000000000000000000000080E734
:2B303500020000000000000000000000000000000000000000000000000000000000000000000000000000000008ED79
:2B306000020000000000000000000000000000000000000000000000000000000000000000000000000000000080E5DE
:2B308B00040000000000000000000000000000000000000000000000000000000000000000000000000000000080E3B3
:2B30B600020000000000000000000000000000000000000000000000000000000000000000000000000000000080E588
:2B30E100020000000000000000000000000000000000000000000000000000000000000000000000000000000080E55D
:2B310C00020000000000000000000000000000000000000000000000000000000000000000000000000000000008EDA1
:2B313700000000000000000000000000000000000000000000000000000000000000000000000000000000000080E706
:2B316200000000000000000000000000000000000000000000000000000000000000000000000000000000000080E7DB
:2B318D00000000000000000000000000000000000000000000000000000000000000000000000000000000000080E7B0
:2B31B800000000000000000000000000000000000000000000000000000000000000000000000000000000000008EFF5
:2B31E300020000000000000000000000000000000000000000000000000000000000000000000000000000000080E55A
:2B320E00020000000000000000000000000000000000000000000001000000000000000000000000000000000080F51D
:2B323900020000000000000000000000000000000000000000002000000000000000000000000000000000000080E7E1
:2B326400020000000000000000000000000000000000000000000000000000000000000000000000000000000080E5D8
:2B328F0000000000000000000000000000000000000000000000A000000000000000000000000000000000000008E587
:2B32BA00000000000000000000000000000000000000000000008000000000000000000000000000000000000080EFFA
:2B32E500000000000000000000000000000000000000000000000000000000000000000000000000000000000080E757
:2B331000000000000000000000000000000000000000000000000000000000000000000000000000000000000080E72B
:2B333B00000000000000000000000000000000000000000000000000000000000000000000000000000000000008EF70
:2B336600020000000000000000000000000000000000000000000000000000000000000000000000000000000080E5D5
:2B339100020000000000000000000000000000000000000000000000000000000000000000000000000000000080E5AA
:2B33BC00020000000000000000000000000000000000000000000000000000000000000000000000000000000080E57F
:2B33E700020000000000000000000000000000000000000000000000000000000000000000000000000000000080E554
:2B341200000000000000000000000000000000000000000000000000000000000000000000000000000000000008EF98
:2B343D00000000000000000000000000000000000000000000000000000000000000000000000000000000000080E7FD
:2B346800000000000000000000000000000000000000000000000000000000000000000000000000000000000080E7D2
:2B349300000000000000000000000000000000000000000000000000000000000000000000000000000000000080E7A7
:2B34BE00060000000000000000000000000000000000000000000000000000000000000000000000000000000080E17C
:2B34E900000000000000000000000000000000000000000000000000000000000000000000000000000000000080E751
:2B351400800008800008800008800008800008800008000000000020000220000220000220000220000220000280E729
:2B353F00800008800008800008800008800008800008000000000020000220000220000220000220000220000280E7FE
:2B356A00000000000000000000000000000000000000000000000000000000000000000000000000000000000080E7CF
:2B359500000000000000000000000000000000000000000000000000000000000000000000000000000000000080E7A4
:2B35C000000000000000000000000000000000000000000001000000000000000000000000000000000008800080F7E0
:2B35EB00000000000000000000000000000000000000000000000000000000000000000000000000000000002080E530
:2B361600000000000000000000000000000000000000008000000000000000000000000000000000000008802080EDF4
:2B364100000000000000000000000000000000000000002100800000000000000000000000000000000000000000FCC1
:2B366C00000000000000000000000000000000000000400000000100000000000000000000000000000000000080B6BC
:2B369700000000000000000000000000000000000000000400000000000000000000000000000000000000000080A3E1
:2B36C200000000000000000000000000000000000000000000000000000000000000000000000000000000000080E776
:2B36ED00000000000000000000000000000000000000000000000000000000000000000000000000000000000080E74B
:2B371800000000000000000000000000000000000000000000000000000000000000000000000000000000000080E71F
:2B374300000000000000000000000000000000000000000000000000000000000000000000000000000000000080E7F4
:2B376E00000000000000000000000000000000000000000000000000000000000000000000000000000000000080E7C9
:2B379900000000000000000000000000000000000000000000000000000000000000000000000000000000000080E79E
:2B37C400000000000000000000000000000000000000000000000000000000000000000000000000000000000080E773
:2B37EF00000000000000000000000000000000000000000000000000000000000000000000000000000000000080E748
:2B381A00000000000000000000000000000000000000000000000400000000000000000000000000000000000080A35C
:2B384500080000000000000000000000000000000000000000000000000000000000000000000000000000000080EFE1
:2B387000000000000000000000000000000000000000000800000000000000000000000000000000000000000000E73E
:2B389B00000000000000000000000000000000000000000000000000000000000000000000000000000000000080E79B
:2B38C600000000000000000000000000000000000000000000000000000000000000000000000000000000000080E770
:2B38F100000000000000000000000000000000000000008000000000000000000000000000000000000000000080EFBD
:2B391C00000000000000000000000000000000000000000000400000000000000000000000000000000000000080A719
:2B394700000000000000000000000000000000000000000000000000000000000000000000000000000000000080E7EE
:2B397200000000000000000000000000000000000000000000000000000000000000000000000000000000000080E7C3
:2B399D00000000000000000000000000000000000000000000000000000000000000000000000000000000000080E798
:2B39C800000000000000000000000000000000000000000000000000000000000000000000000000000000000080E76D
:2B39F300000000000000000000000000000000000000000000000000000000000000000000000000000000000080E742
:2B3A1E00000000000000000000000000000000000000000000000000000000000000000000000000000000000080E716
:2B3A4900000000000000000000000000000000000000000000000000000000000000000000000000000000000080E7EB
:2B3A7400000000000000000000000000000000000000000000000000000000000000000000000000000000000080E7C0
:2B3A9F00000000000000000000000000000000000000000200000000000000000000000000000000000000000080C5B5
:2B3ACA00000000000000000000000000000000000000000200000000000000000000000000000000000000000080C58A
:2B3AF500000000000000000000000000000000000000000000000000000000000000000000000000002000000082C53F
:2B3B2000020000000000000000000000000000000000000000000000000000000000000000000000000000000008ED83
:2B3B4B00000000000000000000000000000000000000000000000000000000000000000000000000000000000080E7E8
:2B3B7600000000000000000000000000000000000000000000000000000000000000000000000000002000000082C5BD
:2B3BA100000000000000000000000000000000000000000000008002000000000000000000000000000000000080CF28
:2B3BCC00000000000000000000000000000000000000000000000000000000000000000000000000000000000080E767
:2B3BF700020000000000000000000000000000000000000000000004000000000000000000000000000000000008ADE8
:2B3C2200800008800008800008800008800008800008000000000020000220000220000220000220000220000280E714
:2B3C4D00800008800008800008800008800008800008000000000020000220000220000220000220000220000280E7E9
:2B3C7800000000000000000000000000000000000000000000000003000000000000000000000000000000000080D7C7
:2B3CA300020000000000000000000000000000000000000000000000000000000000000000000000000000000008EDFF
:2B3CCE00000000000000000000000000000000000000000000000000000000000000000000000000000000000080E764
:2B3CF900000000000000000000000000000000000000000000000000000000000000000000000000000000000080E739
:2B3D2400000000000000000000000000000000000000000000000000000000000000000000000000000000000080E70D
:2B3D4F00000000000000000000000000000000000000000000000000000000000000000000000000000000000080E7E2
:2B3D7A00020000000000000000000000000000000000000000000000000000000000000000000000000000000008ED27
:2B3DA500000000000000000000000000000000000000000000000000000000000000000000000000000000000080E78C
:2B3DD000000000000000000000000000000000000000000000000000000000000000000000000000000000000080E761
:2B3DFB0000000000000000000000000000000000000000000000C000000000000000000000000000000000000080EB72
:2B3E260002000000000000000000000000000000000000000000A000000000000000000000000000000000000008E7E0
:2B3E510000000000000000000000000000000000000000000000A000000000000000000000000000000000000080ED39
:2B3E7C00000000000000000000000000000000000000000000000000000000000000000000000000000000000080E7B4
:2B3EA700000000000000000000000000000000000000000000000000000000000000000000000000000000000080E789
:2B3ED200000000000000000000000000000000000000000000000000000000000000000000000000000000000080E75E
:2B3EFD00020000000000000000000000000000000000000000000000000000000000000000000000000000000008EDA3
:2B3F2800000000000000000000000000000000000000000000002000000000000000000000000000000000000080E5E9
:2B3F5300000000000000000000000000000000000000000000002000000000000000000000000000000000000080E5BE
:2B3F7E00000000000000000000000000000000000000000000000000000000000000000000000000000000000080E7B1
:2B3FA900020000000000000000000000000000000000000000002004000000000000000000000000000000000008AF10
:2B3FD400000000000000000000000000000000000000000000008000000000000000000000000000000000000080EFD3
:2B3FFF00000000000000000000000000000000000000000000002000000000000000000000000000000000000080E512
:2B402A00000000000000000000000000000000000000000000000002000000000000000000000000000000000080C722
:2B405500000000000000000000000000000000000000000000002000000000000000000000000000000000000080E5BB
:2B408000020000000000000000000000000000000000000000000000000000000000000000000000000000000008ED1E
:2B40AB00000000000000000000000000000000000000000000002001000000000000000000000000000000000080F554
:2B40D600000000000000000000000000000000000000000000000000000000000000000000000000000000000080E758
:2B410100000000000000000000000000000000000000000000000004000000000000000000000000000000000080A768
:2B412C00020000000000000000000000000000000000000000000004000000000000000000000000000000000008ADAD
:2B415700000000000000000000000000000000000000000000002000000000000000000000000000000000000008ED28
:2B418200000000000000000000000000000000000000000000008000000000000000000000000000000000000090FE04
:2B41AD00000000000000000000000000000000000000000000000000000000000000000000000000000000000008EFF0
:2B41D800000000000000000000000000000000000000000000000000000000000000000000000000000000000008EFC5
:2B420300020000000000000000000000000000000000000000008000000000000000000000000000000000000008E521
:2B422E00000000000000000000000000000000000000000000002000000000000000000000000000000000000080E5E0
:2B425900000000000000000000000000000000000000000000000000000000000000000000000000000000000080E7D3
:2B428400000000000000000000000000000000000000000000000000000000000000000000000000000000000080E7A8
:2B42AF00020000000000000000000000000000000000000000000000000000000000000000000000000000000008EDED
:2B42DA00020000000000000000000000000000000000000000000000000000000000000000000000000000000080E552
:2B430500040000000000000000000000000000000000000000000000000000000000000000000000000000000080E326
:2B433000020000000000000000000000000000000000000000000000000000000000000000000000000000000080E5FB
:2B435B00020000000000000000000000000000000000000000000000000000000000000000000000000000000080E5D0
:2B438600020000000000000000000000000000000000000000000000000000000000000000000000000000000008ED15
:2B43B100000000000000000000000000000000000000000000000000000000000000000000000000000000000080E77A
:2B43DC00000000000000000000000000000000000000000000000000000000000000000000000000000000000080E74F
:2B440700000000000000000000000000000000000000000000000000000000000000000000000000000000000080E723
:2B443200000000000000000000000000000000000000000000000000000000000000000000000000000000000008EF68
:2B445D00020000000000000000000000000000000000000000000000000000000000000000000000000000000080E5CD
:2B448800020000000000000000000000000000000000000000000001000000000000000000000000000000000080F591
:2B44B300020000000000000000000000000000000000000000002000000000000000000000000000000000000080E755
:2B44DE00020000000000000000000000000000000000000000000000000000000000000000000000000000000080E54C
:2B45090000000000000000000000000000000000000000000000A000000000000000000000000000000000000008E5FA
:2B453400000000000000000000000000000000000000000000008000000000000000000000000000000000000080EF6D
:2B455F00000000000000000000000000000000000000000000000000000000000000000000000000000000000080E7CA
:2B458A00000000000000000000000000000000000000000000000000000000000000000000000000000000000080E79F
:2B45B500000000000000000000000000000000000000000000000000000000000000000000000000000000000008EFE4
:2B45E000020000000000000000000000000000000000000000000000000000000000000000000000000000000080E549
:2B460B00020000000000000000000000000000000000000000000000000000000000000000000000000000000080E51D
:2B463600020000000000000000000000000000000000000000000000000000000000000000000000000000000080E5F2
:2B466100020000000000000000000000000000000000000000000000000000000000000000000000000000000080E5C7
:2B468C00000000000000000000000000000000000000000000000000000000000000000000000000000000000008EF0C
:2B46B700000000000000000000000000000000000000000000000000000000000000000000000000000000000080E771
:2B46E200000000000000000000000000000000000000000000000000000000000000000000000000000000000080E746
:2B470D00000000000000000000000000000000000000000000000000000000000000000000000000000000000080E71A
:2B473800060000000000000000000000000000000000000000000000000000000000000000000000000000000080E1EF
:2B476300000000000000000000000000000000000000000000000000000000000000000000000000000000000080E7C4
:2B478E00800008800008800008800008800008800008000000000020000220000220000220000220000220000280E79D
:2B47B900800008800008800008800008800008800008000000000020000220000220000220000220000220000280E772
:2B47E400000000000000000000000000000000000000000000000000000000000000000000000000000000000080E743
:2B480F00000000000000000000000000000000000000000000000000000000000000000000000000000000000080E717
:2B483A00000000000000000000000000000000000000002000000200000000000000000000000000000008800080C762
:2B486500000000000000000000000000000000000000000000000000000000000000000000000000000000002080E5A3
:2B489000000000000000000000000000000000000000001000000100000000000000000000000000000008802080F5CF
:2B48BB00000000000000000000000000000000000000400001800000000000000000000000000000000000000000BF52
:2B48E600000000000000000000000000000000000000408000000000000000000000000000000000000000000080AFB8
:2B491100000000000000000000000000000000000000000400000000000000000000000000000000000000000080A354
:2B493C00000000000000000000000000000000000000000000000000000000000000000000000000000000000080E7E9
:2B496700000000000000000000000000000000000000000000000000000000000000000000000000000000000080E7BE
:2B499200000000000000000000000000000000000000000000000000000000000000000000000000000000000080E793
:2B49BD00000000000000000000000000000000000000000000000000000000000000000000000000000000000080E768
:2B49E800000000000000000000000000000000000000000000000000000000000000000000000000000000000080E73D
:2B4A1300000000000000000000000000000000000000000000000000000000000000000000000000000000000080E711
:2B4A3E00000000000000000000000000000000000000000000000000000000000000000000000000000000000080E7E6
:2B4A69000000000000000000000000000000000000000000000000000000000000000000000000000000000000C0A3BF
:2B4A9400000000000000000000000000000000000000000000000400000000000000000000000000000000000080A3D0
:2B4ABF00000000000000000000000000000000000000000000000000000000000000000000000000000000000080E765
:2B4AEA00080000000000000000000000000000000000000800000000000000000000000000000000000000000000EFA2
:2B4B1500000000000000000000000000000000000000000000000000000000000000000000000000000000000080E70E
:2B4B4000000000000000000000000000000000000000000000000000000000000000000000000000000000000080E7E3
:2B4B6B00000000000000000000000000000000000000008000000000000000000000000000000000000000000080EF30
:2B4B9600000000000000000000000000000000000000002000000000000000000000000000000000000000000080E56F
:2B4BC100000000000000000000000000000000000000000000000000000000000000000000000000000000000080E762
:2B4BEC00000000000000000000000000000000000000000000000000000000000000000000000000000000000080E737
:2B4C1700000000000000000000000000000000000000000000000000000000000000000000000000000000000080E70B
:2B4C4200000000000000000000000000000000000000000000000000000000000000000000000000000000000080E7E0
:2B4C6D00000000000000000000000000000000000000000000000000000000000000000000000000000000000080E7B5
:2B4C9800000000000000000000000000000000000000000000000000000000000000000000000000000000000080E78A
:2B4CC300000000000000000000000000000000000000000000000000000000000000000000000000000000000080E75F
:2B4CEE00000000000000000000000000000000000000000000000000000000000000000000000000000000000080E734
:2B4D1900000000000000000000000000000000000000000400000000000000000000000000000000000000000080A348
:2B4D4400000000000000000000000000000000000000000200000000000000000000000000000000000000000080C5FD
:2B4D6F00000000000000000000000000000000000000000000100000000000000000000000000000002000000082D592
:2B4D9A00020000000000000000000000000000000000000000000000000000000000000000000000000000000008EDF7
:2B4DC500000000000000000000000000000000000000000000000000000000000000000000000000000000000080E75C
:2B4DF000000000000000000000000000000000000000000000000000000000000000000000000000002000000082C531
:2B4E1B00000000000000000000000000000000000000000000008002000000000000000000000000000000000080CF9B
:2B4E4600000000000000000000000000000000000000000000000000000000000000000000000000000000000080E7DA
:2B4E7100020000000000000000000000000000000000000000000004000000000000000000000000000000000008AD5B
:2B4E9C00800008800008800008800008800008800008000000000020000220000220000220000220000220000280E788
:2B4EC700800008800008800008800008800008800008000000000020000220000220000220000220000220000280E75D
:2B4EF200000000000000000000000000000000000000000000000003000000000000000000000000000000000080D73B
:2B4F1D00020000000000000000000000000000000000000000000000000000000000000000000000000000000008ED72
:2B4F4800000000000000000000000000000000000000000000000000000000000000000000000000000000000080E7D7
:2B4F7300000000000000000000000000000000000000000000000000000000000000000000000000000000000080E7AC
:2B4F9E00000000000000000000000000000000000000000000000000000000000000000000000000000000000080E781
:2B4FC900000000000000000000000000000000000000000000000000000000000000000000000000000000000080E756
:2B4FF400020000000000000000000000000000000000000000000000000000000000000000000000000000000008ED9B
:2B501F00000000000000000000000000000000000000000000000000000000000000000000000000000000000080E7FF
:2B504A00000000000000000000000000000000000000000000000000000000000000000000000000000000000080E7D4
:2B50750000000000000000000000000000000000000000000000C000000000000000000000000000000000000080EBE5
:2B50A00002000000000000000000000000000000000000000000A000000000000000000000000000000000000008E754
:2B50CB0000000000000000000000000000000000000000000000A000000000000000000000000000000000000080EDAD
:2B50F600000000000000000000000000000000000000000000000000000000000000000000000000000000000080E728
:2B512100000000000000000000000000000000000000000000000000000000000000000000000000000000000080E7FC
:2B514C00000000000000000000000000000000000000000000000000000000000000000000000000000000000080E7D1
:2B517700020000000000000000000000000000000000000000000000000000000000000000000000000000000008ED16
:2B51A200000000000000000000000000000000000000000000000001000000000000000000000000000000000080F76A
:2B51CD00000000000000000000000000000000000000000000002000000000000000000000000000000000000080E532
:2B51F800000000000000000000000000000000000000000000000000000000000000000000000000000000000080E725
:2B522300000000000000000000000000000000000000000000002004000000000000000000000000000000000008AD87
:2B524E00020000000000000000000000000000000000000000000002000000000000000000000000000000000080C5EC
:2B527900020000000000000000000000000000000000000000000000000000000000000000000000000000000080E5A3
:2B52A400020000000000000000000000000000000000000000000002000000000000000000000000000000000080C596
:2B52CF00020000000000000000000000000000000000000000002000000000000000000000000000000000000080E72B
:2B52FA00000000000000000000000000000000000000000000000000000000000000000000000000000000000008EF92
:2B532500000000000000000000000000000000000000000000002001000000000000000000000000000000000080F5C7
:2B535000000000000000000000000000000000000000000000000000000000000000000000000000000000000080E7CB
:2B537B00000000000000000000000000000000000000000000000004000000000000000000000000000000000080A7DC
:2B53A600000000000000000000000000000000000000000000000004000000000000000000000000000000000008AF21
:2B53D100020000000000000000000000000000000000000000002000000000000000000000000000000000000080E728
:2B53FC00020000000000000000000000000000000000000000008000000000000000000000000000000000000080ED97
:2B542700020000000000000000000000000000000000000000000000000000000000000000000000000000000080E5F3
:2B545200020000000000000000000000000000000000000000000000000000000000000000000000000000000080E5C8
:2B547D0000000000000000000000000000000000000000000000A000000000000000000000000000000000000008E577
:2B54A800000000000000000000000000000000000000000000002000000000000000000000000000000000000080E554
:2B54D300000000000000000000000000000000000000000000000000000000000000000000000000000000000080E747
:2B54FE00000000000000000000000000000000000000000000000000000000000000000000000000000000000080E71C
:2B552900020000000000000000000000000000000000000000000000000000000000000000000000000000000008ED60
:2B555400000000000000000000000000000000000000000000000000000000000000000000000000000000000080E7C5
:2B557F00000000000000000000000000000000000000000000000000000000000000000000000000000000000080E79A
:2B55AA00000000000000000000000000000000000000000000000000000000000000000000000000000000000080E76F
:2B55D500000000000000000000000000000000000000000000000000000000000000000000000000000000000080E744
:2B560000020000000000000000000000000000000000000000000000000000000000000000000000000000000008ED88
:2B562B00000000000000000000000000000000000000000000000000000000000000000000000000000000000080E7ED
:2B565600000000000000000000000000000000000000000000000000000000000000000000000000000000000080E7C2
:2B568100000000000000000000000000000000000000000000000000000000000000000000000000000000000080E797
:2B56AC00020000000000000000000000000000000000000000000000000000000000000000000000000000000008EDDC
:2B56D700000000000000000000000000000000000000000000000000000000000000000000000000000000000008EFB1
:2B570200000000000000000000000000000000000000000000008000000000000000000000000000000000000090FE6E
:2B572D00000000000000000000000000000000000000000000002000000000000000000000000000000000000008ED3C
:2B575800000000000000000000000000000000000000000000000000000000000000000000000000000000000008EF2F
:2B578300020000000000000000000000000000000000000000000001000000000000000000000000000000000008FDF3
:2B57AE00000000000000000000000000000000000000000000008000000000000000000000000000000000000080EFE1
:2B57D900000000000000000000000000000000000000000000000000000000000000000000000000000000000080E73E
:2B580400000000000000000000000000000000000000000000000000000000000000000000000000000000000080E712
:2B582F00020000000000000000000000000000000000000000000000000000000000000000000000000000000008ED57
:2B585A00000000000000000000000000000000000000000000000000000000000000000000000000000000000080E7BC
:2B588500000000000000000000000000000000000000000000000000000000000000000000000000000000000080E791
:2B58B000000000000000000000000000000000000000000000000000000000000000000000000000000000000080E766
:2B58DB00000000000000000000000000000000000000000000000000000000000000000000000000000000000080E73B
:2B590600020000000000000000000000000000000000000000000000000000000000000000000000000000000008ED7F
:2B593100000000000000000000000000000000000000000000000000000000000000000000000000000000000080E7E4
:2B595C00000000000000000000000000000000000000000000000000000000000000000000000000000000000080E7B9
:2B598700020000000000000000000000000000000000000000000000000000000000000000000000000000000080E58E
:2B59B200100000000000000000000000000000000000000000000000000000000000000000000000000000000080F743
:2B59DD00000000000000000000000000000000000000000000000000000000000000000000000000000000000080E738
:2B5A0800800008800008800008800008800008800008000000000020000220000220000220000220000220000280E710
:2B5A3300800008800008800008800008800008800008000000000020000220000220000220000220000220000280E7E5
:2B5A5E00000000000000000000000000000000000000000000000000000000000000000000000000000000000080E7B6
:2B5A8900000000000000000000000000000000000000000000000000000000000000000000000000000000000080E78B
:2B5AB400000000000000000000000000000000000000000400000000000000000000000000000000000008800080A318
:2B5ADF00000000000000000000000000000000000000000000000000000000000000000000000000000000002080E517
:2B5B0A00000000000000000000000000000000000000000200000000000000000000000000000000000008802080C77F
:2B5B3500000000000000000000000000000000000000400001800100000000000000000000000000000000000000AED5
:2B5B6000000000000000000000000000000000000000008000800000000000000000000000000000000000000000E733
:2B5B8B00000000000000000000000000000000000000000000000000000000000000000000000000000000000080E788
:2B5BB600000000000000000000000000000000000000000400000000000000000000000000000000000000000080A39D
:2B5BE100000000000000000000000000000000000000000000000000000000000000000000000000000000000080E732
:2B5C0C00000000000000000000000000000000000000000000000000000000000000000000000000000000000080E706
:2B5C3700000000000000000000000000000000000000000000000000000000000000000000000000000000000090F6BC
:2B5C6200000000000000000000000000000000000000000000000000000000000000000000000000000000000080E7B0
:2B5C8D00000000000000000000000000000000000000000000000000000000000000000000000000000000000080E785
:2B5CB800000000000000000000000000000000000000000000000000000000000000000000000000000000000080E75A
:2B5CE300000000000000000000000000000000000000000000000000000000000000000000000000000000000080E72F
:2B5D0E00000000000000000000000000000000000000000000000400000000000000000000000000000000000080A343
:2B5D3900000000000000000000000000000000000000000000000000000000000000000000000000000000000080E7D8
:2B5D6400000000000000000000000000000000000000000000000000000000000000000000000000000000000080E7AD
:2B5D8F00000000000000000000000000000000000000000000000000000000000000000000000000000000000080E782
:2B5DBA00000000000000000000000000000000000000000000000000000000000000000000000000000000000080E757
:2B5DE500000000000000000000000000000000000000008000000000000000000000000000000000000000000080EFA4
:2B5E1000000000000000000000000000000000000000000000400000000000000000000000000000000000000080A700
:2B5E3B00000000000000000000000000000000000000000000000000000000000000000000000000000000000080E7D5
:2B5E6600000000000000000000000000000000000000000000000000000000000000000000000000000000000080E7AA
:2B5E9100000000000000000000000000000000000000000000000000000000000000000000000000000000000080E77F
:2B5EBC00000000000000000000000000000000000000000000000000000000000000000000000000000000000080E754
:2B5EE700000000000000000000000000000000000000000000000000000000000000000000000000000000000090F60A
:2B5F1200000000000000000000000000000000000000000000000000000000000000000000000000000000000090F6DE
:2B5F3D00000000000000000000000000000000000000000000000000000000000000000000000000000000000080E7D2
:2B5F6800000000000000000000000000000000000000000000000000000000000000000000000000000000000080E7A7
:2B5F9300000000000000000000000000000000000000000200000000000000000000000000000000000000000080C59C
:2B5FBE00000000000000000000000000000000000000000200000000000000000000000000000000000000000080C571
:2B5FE900000000000000000000000000000000000000000000080000000000000000000000000000002000000082CD16
:2B601400020000000000000000000000000000000000000000000000000000000000000000000000000000000008ED6A
:2B603F00000000000000000000000000000000000000000000040000000000000000000000000000000000000080E3CF
:2B606A00000000000000000000000000000000000000000000000000000000000000000000000000002000000082C5A4
:2B609500000000000000000000000000000000000000000000008002000000000000000000000000000000000080CF0F
:2B60C000000000000000000000000000000000000000000000000000000000000000000000000000000000000080E74E
:2B60EB00020000000000000000000000000000000000000000000004000000000000000000000000000000000008ADCF
:2B611600800008800008800008800008800008800008000000000020000220000220000220000220000220000280E7FB
:2B614100800008800008800008800008800008800008000000000020000220000220000220000220000220000280E7D0
:2B616C00000000000000000000000000000000000000000000000003000000000000000000000000000000000080D7AE
:2B619700000000000000000000000000000000000000000000000000000000000000000000000000000000000008EFE6
:2B61C200020000000000000000000000000000000000000000000000000000000000000000000000000000000080E54B
:2B61ED00020000000000000000000000000000000000000000000000000000000000000000000000000000000080E520
:2B621800020000000000000000000000000000000000000000000000000000000000000000000000000000000080E5F4
:2B624300020000000000000000000000000000000000000000000000000000000000000000000000000000000080E5C9
:2B626E00000000000000000000000000000000000000000000000000000000000000000000000000000000000008EF0E
:2B629900000000000000000000000000000000000000000000000000000000000000000000000000000000000080E773
:2B62C400000000000000000000000000000000000000000000000000000000000000000000000000000000000080E748
:2B62EF0000000000000000000000000000000000000000000000C000000000000000000000000000000000000080EB59
:2B631A0002000000000000000000000000000000000000000000A000000000000000000000000000000000000008E7C7
:2B63450000000000000000000000000000000000000000000000A000000000000000000000000000000000000008E5A0
:2B637000000000000000000000000000000000000000000000000000000000000000000000000000000000000090F67C
:2B639B00000000000000000000000000000000000000000000000000000000000000000000000000000000000008EFE0
:2B63C600000000000000000000000000000000000000000000000000000000000000000000000000000000000008EFB5
:2B63F100020000000000000000000000000000000000000000000000000000000000000000000000000000000008ED8A
:2B641C00000000000000000000000000000000000000000000002000000000000000000000000000000000000080E5D0
:2B644700000000000000000000000000000000000000000000002000000000000000000000000000000000000080E5A5
:2B647200000000000000000000000000000000000000000000000000000000000000000000000000000000000080E798
:2B649D00020000000000000000000000000000000000000000002004000000000000000000000000000000000008AFF7
:2B64C800000000000000000000000000000000000000000000008000000000000000000000000000000000000080EFBA
:2B64F300000000000000000000000000000000000000000000002000000000000000000000000000000000000080E5F9
:2B651E00000000000000000000000000000000000000000000000000000000000000000000000000000000000080E7EB
:2B654900000000000000000000000000000000000000000000004000000000000000000000000000000000000080E384
:2B657400020000000000000000000000000000000000000000000000000000000000000000000000000000000008ED05
:2B659F00000000000000000000000000000000000000000000002001000000000000000000000000000000000080F53B
:2B65CA00000000000000000000000000000000000000000000000001000000000000000000000000000000000080F72E
:2B65F500000000000000000000000000000000000000000000000000000000000000000000000000000000000080E714
:2B662000020000000000000000000000000000000000000000000004000000000000000000000000000000000008AD94
:2B664B00000000000000000000000000000000000000000000002000000000000000000000000000000000000008ED0F
:2B667600000000000000000000000000000000000000000000008000000000000000000000000000000000000090FEEB
:2B66A100000000000000000000000000000000000000000000000000000000000000000000000000000000000008EFD7
:2B66CC00000000000000000000000000000000000000000000000000000000000000000000000000000000000008EFAC
:2B66F700020000000000000000000000000000000000000000008000000000000000000000000000000000000008E509
:2B672200000000000000000000000000000000000000000000002000000000000000000000000000000000000080E5C7
:2B674D00000000000000000000000000000000000000000000000000000000000000000000000000000000000080E7BA
:2B677800000000000000000000000000000000000000000000000000000000000000000000000000000000000080E78F
:2B67A300020000000000000000000000000000000000000000000000000000000000000000000000000000000008EDD4
:2B67CE00000000000000000000000000000000000000000000000000000000000000000000000000000000000080E739
:2B67F900000000000000000000000000000000000000000000000000000000000000000000000000000000000080E70E
:2B682400000000000000000000000000000000000000000000000000000000000000000000000000000000000080E7E2
:2B684F00000000000000000000000000000000000000000000000000000000000000000000000000000000000080E7B7
:2B687A00020000000000000000000000000000000000000000000000000000000000000000000000000000000008EDFC
:2B68A500000000000000000000000000000000000000000000000000000000000000000000000000000000000080E761
:2B68D000000000000000000000000000000000000000000000000000000000000000000000000000000000000080E736
:2B68FB00000000000000000000000000000000000000000000000000000000000000000000000000000000000080E70B
:2B692600020000000000000000000000000000000000000000000000000000000000000000000000000000000008ED4F
:2B695100020000000000000000000000000000000000000000000000000000000000000000000000000000000080E5B4
:2B697C00040000000000000000000000000000000000000000000001000000000000000000000000000000000080F378
:2B69A700020000000000000000000000000000000000000000002000000000000000000000000000000000000080E73C
:2B69D200020000000000000000000000000000000000000000000002000000000000000000000000000000000080C551
:2B69FD00020000000000000000000000000000000000000000002000000000000000000000000000000000000008EF56
:2B6A2800000000000000000000000000000000000000000000008000000000000000000000000000000000000080EF54
:2B6A5300000000000000000000000000000000000000000000000000000000000000000000000000000000000080E7B1
:2B6A7E00000000000000000000000000000000000000000000000000000000000000000000000000000000000080E786
:2B6AA900000000000000000000000000000000000000000000000000000000000000000000000000000000000008EFCB
:2B6AD400020000000000000000000000000000000000000000000000000000000000000000000000000000000080E530
:2B6AFF00020000000000000000000000000000000000000000000000000000000000000000000000000000000080E505
:2B6B2A00020000000000000000000000000000000000000000000000000000000000000000000000000000000080E5D9
:2B6B5500020000000000000000000000000000000000000000000000000000000000000000000000000000000080E5AE
:2B6B8000000000000000000000000000000000000000000000000000000000000000000000000000000000000008EFF3
:2B6BAB00000000000000000000000000000000000000000000000000000000000000000000000000000000000080E758
:2B6BD600000000000000000000000000000000000000000000000000000000000000000000000000000000000080E72D
:2B6C0100080000000000000000000000000000000000000000000000000000000000000000000000000000000080EFF1
:2B6C2C00020000000000000000000000000000000000000000000000000000000000000000000000000000000080E5D6
:2B6C5700000000000000000000000000000000000000000000000000000000000000000000000000000000000080E7AB
:2B6C8200800008800008800008800008800008800008000000000020000220000220000220000220000220000280E784
:2B6CAD00800008800008800008800008800008800008000000000020000220000220000220000220000220000280E759
:2B6CD800000000000000000000000000000000000000000000000000000000000000000000000000000000000080E72A
:2B6D0300000000000000000000000000000000000000000000000000000000000000000000000000000000000080E7FE
:2B6D2E00000000000000000000000000000000000000800000000000000000000000000000000000000008800000EF43
:2B6D5900000000000000000000000000000000000000000000400000000000000000000000000000000000002080A58A
