:020000040000FA
:2F000000FFFF627D16FFFFFFFFFFFFFFFFFFFFFFFFFFFFFFFFFFFFFFFFFFFFFFFFFFFFFFFFFFFFFFFFFFFFFFFFFFFFFFFFFFFF08
:2F002F00000000000000000000000000000000000000000000000200000000000000000000000000000000000000000000009C04
:2F005E0000000000000000000000000000000000020000400000000000000000000000000000000000000000000000000000DC55
:2F008D00000000000000000000400000000000000200004000000200000000000000000000000000000000000000000000009A26
:2F00BC0000000240024002400240024002400240004002000240004002400240024002400240024002400240024002400000DE11
:2F00EB00000002400240024082400240024002400240024002400240024002400240024002400240024002400240024000009666
:2F011A00000000000000000000400000000000000200004000000200000000000000000000000000000000000000000000009A98
:2F01490000000240024002400240024002400240004002000240004002400240024002400240024002400240024002400000DE83
:2F01780000000240024002400260024002400240004002000240004002400240024002400240024002400240024002400000FC16
:2F01A70000000000000000000000004407000000000000540500000000000000000000000000000000000000000000000000AFD6
:2F01D600000000000000000000000000010000000000000001000000000000000000000000000000000000000000000000009F59
:2F02050000000000000000000000000003000000000000000000000000000000000000000000000000000000000000000000AE19
:2F023400020000000000000000000050120000000000004000010000000000000000000000000000000000000000000000409E18
:2F026300020000000000000000008010000000000000000000000000000000000000000000000000000000000000000000C0F327
:2F02920000000000000000000000000002000000000000000000000000000000000000000000000000000000000000000000BE7D
:2F02C10002000000000000000000004000000000000000400000000000000000000000000000000000000000000000000040BE8E
:2F02F0000200000000000000000000000502000000C0000008040000000000000000000000000000000000000000000000C0E466
:2F031F00020000000000000000008050020000410A00804001000000000000000000000000000000000000000000000000009C33
:2F034E0000000000000000000000000002000000010000000000000000000000000000000000000000000000000000000000BFBE
:2F037D0000000000000000000000000001000000020000000300000000000000000000000000000000000000000000000000BF8C
:2F03AC00020000000000000000000040050200500202005089000000000000000000000000000000000000000000000000C0905C
:2F03DB00060000000000000000000000050080000A00002209000000000000000000000000000000000000000000000000C0DB98
:2F040A0002000000000000000000000002000000010000000300000000000000000000000000000000000000000000000000AC0F
:2F043900020000000000000000000040020000400100004000800000000000000000000000000000000000000000000000C0DBB4
:2F04680002010000000000000000000011000010110000000242000000000000000000000000000000000000000000000040BCF0
:2F04970000000000004807000000404005000041090080400100000000000000000000000000000000000000000000000000F265
:2F04C600000000000000000000000000020000000200000002000000000000000000000000000000000000000000000000009E63
:2F04F50000000000000002000000000002000000010000000200000000000000000000000000000000000000000000000000BD14
:2F052400020000000060000100000050020400500102005089000000000000000000000000000000000000000000000000C0E320
:2F055300020000000002020000000002070080000B00002209000000000000000000000000000000000000000000000000C09A5A
:2F058200000000000000030000000000030000000300000001000000000000000000000000000000000000000000000000008CB4
:2F05B10002000000004002000000004003000040030000400200000000000000000000000000000000000000000000000040CF00
:2F05E0000200000000101A000000001000C100101300000002020000000000000000000000000000000000000000000000408AFE
:2F060F0002000000000000000000004003004040020000480400000000000000000000000000000000000000000000000000C4E5
:2F063E0000000000000000000000000003000000010000000000000000000000000000000000000000000000000000000000AFDA
:2F066D00000000000000000000000000010000000100000000000000000000000000000000000000000000000000000000008FCD
:2F069C00000000000000000000000040050200500602006000010000000000000000000000000000000000000000000000408D62
:2F06CB00020000000000000000000000060040000100001400000000000000000000000000000000000000000000000000408BD8
:2F06FA00020000000000000000000000010000000100000003000000000000000000000000000000000000000000000000009C2E
:2F07290000000000000000000000004003000040010000400200000000000000000000000000000000000000000000000040C9D2
:2F0758000000000000000000000000001300002019C000000A040000000000000000000000000000000000000000000000C0AEEA
:2F078700000000004060060000000051050080600300004105000000000000000000000000000000000000000000000000008599
:2F07B600000000000000030000000000020000000200000001000000000000000000000000000000000000000000000000009D6F
:2F07E50000000000000003000000000002000000030000000200000000000000000000000000000000000000000000000000AF2C
:2F08140002000000004003010000004002040040070200601200000000000000000000000000000000000000000000000040CD61
:2F08430002000000000407000000400009000018000000000A000000000000000000000000000000000000000000000000C0ADA1
:2F087200000000000000030000000000020000000000000001000000000000000000000000000000000000000000000000009FB2
:2F08A10002000000004003000000004003000040000000400100000000000000000000000000000000000000000000000040EFF0
:2F08D00002000000001003040000001010000000440000001200000000000000000000000000000000000000000000000040B872
:2F08FF00000000000000000000000068000000610300204000000000000000000000000000000000000000000000000000808F8F
:2F092E0000000000000000000000000003000000000000000000000000000000000000000000000000000000000000000000AEE9
:2F095D0000000000000000000000000003000000030000000000000000000000000000000000000000000000000000000000ADB8
:2F098C000200000000000000000000401B0000400000005014000000000000000000000000000000000000000000000000C086F5
:2F09BB00020000000000000000000004000000180300000000000000000000000000000000000000000000000000000000C0A488
:2F09EA00000000000000000000000000000000000300000000000000000000000000000000000000000000000000000000009D3E
:2F0A190002000000000000000000004001000040030000400300000000000000000000000000000000000000000000000040DACB
:2F0A480002000000000000000000002025C000000300000003000000000000000000000000000000000000000000000000C0F2C0
:2F0A770000000000000000000000205002004040000020600200000000000000000000000000000000000000000000000000BB21
:2F0AA600000000000000000000000000030000000000000003000000000000000000000000000000000000000000000000009D7E
:2F0AD50000000000000000000000000000000000030000000300000000000000000000000000000000000000000000000000AE3E
:2F0B0400020000000000000000000040240000500B0200401600000000000000000000000000000000000000000000000040C7A2
:2F0B330002000000000000000000002203000000030020000300000000000000000000000000000000000000000000000040F80E
:2F0B6200000000000000000000000000030000000300000003000000000000000000000000000000000000000000000000009EBD
:2F0B9100020000000000000000000040008000400300004003000000000000000000000000000000000000000000000000C0C26B
:2F0BC00002000000000000000000000015400000030000100B040000000000000000000000000000000000000000000000C09B32
:2F0BEF00000000000000000000000051060080400B000048060000000000000000000000000000000000000000000000000083E4
:2F0C1E00000000000000000000000000000000000000000001000000000000000000000000000000000000000000000000008F17
:2F0C4D0000000000000000000000000000000000030000000300000000000000000000000000000000000000000000000000AEC4
:2F0C7C0002000000000000000000004000040050000200600001000000000000000000000000000000000000000000000040FD13
:2F0CAB00020000000000000000004000080000040800001403000000000000000000000000000000000000000000000000C0DD10
:2F0CDA00000000000000000000000000000000000300000000000000000000000000000000000000000000000000000000009D4B
:2F0D090002000000000000000000004000000040010000400100000000000000000000000000000000000000000000000040EACD
:2F0D3800020000000000000000000010130000201100000009040000000000000000000000000000000000000000000000C0B8B1
:2F0D670042600500406004000000006203000058000020600100000000000000000000000000000000000000000000000080D381
:2F0D9600000000000000000000000000030000000000000002000000000000000000000000000000000000000000000000008C9D
:2F0DC50000000200000003000000000000000000000000000200000000000000000000000000000000000000000000000000AE4A
:2F0DF40000400301004003040000004014000040280000401500000000000000000000000000000000000000000000000040A450
:2F0E230002040700000003000000000400000000000020000000000000000000000000000000000000000000000000000040DF4D
:2F0E520002000200000003000000000003000000000000000300000000000000000000000000000000000000000000000000AFB5
:2F0E810000C003000040030000000040030000400300004003000000000000000000000000000000000000000000000000C0951E
:2F0EB000005002040000030000000010000000000300001008040000000000000000000000000000000000000000000000C08A41
:2F0EDF0000000000004807000000006203004040010000410400000000000000000000000000000000000000000000000080BA30
:2F0F0E0000000000000001000000000003000000000000000000000000000000000000000000000000000000000000000000BEF2
:2F0F3D0000000000000003000000000000000000030000000100000000000000000000000000000000000000000000000000BCC2
:2F0F6C0002000000006001010000004014000050050200601100000000000000000000000000000000000000000000000040BADC
:2F0F9B0002000000000202000000000000004000020000000B000000000000000000000000000000000000000000000000C0CD47
:2F0FCA0000400040004003400040004000400040034000400340004000400040004000400040004000400040004000400000DE91
:2F0FF900020000000000020000000000000000000280008002000000000000000000000000000000000000000000000000C0FA07
:2F102800020000000010180000000000000000201B40004011000000000000000000000000000000000000000000000000C08F54
:2F105700000000000000000000000000000000000000000000000000000000000000000000000000000000000000000000009ECC
:2F108600000000000000000000000000000000000000000000000000000000000000000000000000000000000000000000009E9D
:2F10B500000000000000000000000001000000100000000000000000000000000000000000000000000000000000000000009E5D
:2F10E400000000000000000000000000000000000000000000000000000000000000000000000000000000000000000000009E3F
:2F111300000000000010000000000812000008020010000000000000000000000000000000000000000000000000000000809554
:2F11420000000000000008000000000000000001000000000000000000000000000000000000000000000000000000000080866F
:2F11710000000000000000000000000000000000000200400000000000000000000000000000000000000000000000000000FC11
:2F11A000000000000000000000000000000000000000000000000000000000000000000000000000000000000000000000009E82
:2F11CF0010100000101000000000002000000000000000210010000000000000000000000000000000000000000000000000BCA4
:2F11FE000000000000000000000000000000000000000008400000000000000000000000000000000000000000000000000092E8
:2F122D000080000000000000000000200000000004000008000000000000000000000000000000000000000000000000008098CE
:2F125C0000000000000000000000000000000000400008000000000000000000000000000000000000000000000000000080D6C5
:2F128B00000000000000000000000000000000000000000000000000000000000000000000000000000000000000000000009E96
:2F12BA0000000000000000000000000000000000080002000004000000000000000000000000000000000000000000000000F601
:2F12E90000000000000002000000000000080000000000000000000000000000000000000000000000000000000000000000B616
:2F13180000010000000000000000000000000000000000008000000000000000000000000000000000000000000000000000978E
:2F13470000000000000000000000000400000000000000100000000000000000000000000000000000000000000000000000CA99
:2F1376000000000000000000000000000000C00000008000000000000000000000000000000000000000000000000000008092F6
:2F13A50000000000000000000000400000088010000000000000000000000000000000000000000000000000000000000000CF72
:2F13D40000000000000000002000000000000000000000000400000000000000000000000000000000000000000000000000D8EE
:2F140300000200000000000000000000000000000000001000000000000000000000000000000000000000000000000000008C1C
:2F14320020000040000000400000000000400000000000000000000000000000000000000000000000000000000000000000F8B3
:2F146100000000010000000100000000000100010000000000010000000000000000000000000000000000000000000000008EC9
:2F149000000000000000000000000000000000000000000000000000000000000000000000000000000000000000000000009E8F
:2F14BF000800000000000000000000000000000000000000000000000000000000000000000000000000000000000000008096E0
:2F14EE00000000000000000000000000000000000000000000000000000000000000000000000000000000000000000000009E31
:2F151D0000000000000000000000020008003000000000000000000000000000000000000000000000000000000000000080974E
:2F154C00000000000000000000000000000000000000000000000000000000000000000000000000000000000000000000009ED2
:2F157B00000000000000000000000020000000000000000000000000000000000000000000000000000000000000000000009C85
:2F15AA00000000000000000000000000000000001008020002000000000000000000000000000000000000000000000000808CEA
:2F15D900000000000000000000000000000000000000000000000000000000000000000000000000000000000000000000009E45
:2F160800000000000000000000000000000000000050000000100000000000000000000000000000000000000000000000008AC9
:2F163700000000000000000000000000000000000000000000000000000000000000000000000000000000000000000000009EE6
:2F166600000000000000000000000000000000000000000000000000000000000000000000000000000000000000000000009EB7
:2F169500000000000000000000000000000000000000000000000000000000000000000000000000000000000000000000009E88
:2F16C40002000000000000000000000000000000000000000000000000000000000000000000000000000000000000000040FABB
:2F16F30002000000000000000000000000000000000000000000000000000000000000000000000000000000000000000040FA8C
:2F172200000000000000000000000000000000000000000000000000000000000000000000000000000000000000000000009EFA
:2F17510002000000000000000000000000000000000000000000000000000000000000000000000000000000000000000040FA2D
:2F17800002000000000000000000000000000000000000000000000000000000000000000000000000000000000000000040FAFE
:2F17AF00000000000000000000000000000000000000000000000000000000000000000000000000000000000000000000009E6D
:2F17DE00000000000000000000000000000000000000000000000000000000000000000000000000000000000000000000009E3E
:2F180D00000000000000000000000000000000000000000000000000000000000000000000000000000000000000000000009E0E
:2F183C0002000000000000000000000000000000000000000000000000000000000000000000000000000000000000000040FA41
:2F186B0002000000000000000000000000000000000000000000000000000000000000000000000000000000000000000040FA12
:2F189A00000000000000000000000000000000000000000000000000000000000000000000000000000000000000000000009E81
:2F18C90002000000000000000000000000000000000000000000000000000000000000000000000000000000000000000040FAB4
:2F18F80002000000000000000000000000000000000000000000000000000000000000000000000000000000000000000040FA85
:2F192700000000000000000000000000000000000000000000000000000000000000000000000000000000000000000000009EF3
:2F195600000000000000000000000000000000000000000000000000000000000000000000000000000000000000000000009EC4
:2F198500000000000000000000000000000000000000000000000000000000000000000000000000000000000000000000009E95
:2F19B40002000000000000000000000000000000000000000000000000000000000000000000000000000000000000000040FAC8
:2F19E30002000000000000000000000000000000000000000000000000000000000000000000000000000000000000000040FA99
:2F1A1200000000000000000000000000000000000000000000000000000000000000000000000000000000000000000000009E07
:2F1A410002000000000000000000000000000000000000000000000000000000000000000000000000000000000000000040FA3A
:2F1A700002000000000000000000000000000000000000000000000000000000000000000000000000000000000000000040FA0B
:2F1A9F00000000000000000000000000000000000000000000000000000000000000000000000000000000000000000000009E7A
:2F1ACE00000000000000000000000000000000000000000000000000000000000000000000000000000000000000000000009E4B
:2F1AFD00000000000000000000000000000000000000000000000000000000000000000000000000000000000000000000009E1C
:2F1B2C0002000000000000000000000000000000000000000000000000000000000000000000000000000000000000000040FA4E
:2F1B5B0002000000000000000000000000000000000000000000000000000000000000000000000000000000000000000040FA1F
:2F1B8A00000000000000000000000000000000000000000000000000000000000000000000000000000000000000000000009E8E
:2F1BB90002000000000000000000000000000000000000000000000000000000000000000000000000000000000000000040FAC1
:2F1BE80002000000000000000000000000000000000000000000000000000000000000000000000000000000000000000040FA92
:2F1C1700000000000000000000000000000000000000000000000000000000000000000000000000000000000000000000009E00
:2F1C4600000000000000000000000000000000000000000000000000000000000000000000000000000000000000000000009ED1
:2F1C7500000000000000000000000000000000000000000000000000000000000000000000000000000000000000000000009EA2
:2F1CA40002000000000000000000000000000000000000000000000000000000000000000000000000000000000000000040FAD5
:2F1CD30002000000000000000000000000000000000000000000000000000000000000000000000000000000000000000040FAA6
:2F1D0200000000000000000000000000000000000000000000000000000000000000000000000000000000000000000000009E14
:2F1D310002000000000000000000000000000000000000000000000000000000000000000000000000000000000000000040FA47
:2F1D600002000000000000000000000000000000000000000000000000000000000000000000000000000000000000000040FA18
:2F1D8F00000000000000000000000000000000000000000000000000000000000000000000000000000000000000000000009E87
:2F1DBE00000000000000000000000000000000000000000000000000000000000000000000000000000000000000000000009E58
:2F1DED00000000000000000000000000000000000000000000000000000000000000000000000000000000000000000000009E29
:2F1E1C0002000000000000000000000000000000000000000000000000000000000000000000000000000000000000000040FA5B
:2F1E4B0002000000000000000000000000000000000000000000000000000000000000000000000000000000000000000040FA2C
:2F1E7A00000000000000000000000000000000000000000000000000000000000000000000000000000000000000000000009E9B
:2F1EA90002000000000000000000000000000000000000000000000000000000000000000000000000000000000000000040FACE
:2F1ED80002000000000000000000000000000000000000000000000000000000000000000000000000000000000000000040FA9F
:2F1F0700000000000000000000000000000000000000000000000000000000000000000000000000000000000000000000009E0D
:2F1F3600000000000000000000000000000000000000000000000000000000000000000000000000000000000000000000009EDE
:2F1F6500000000000000000000000000000000000000000000000000000000000000000000000000000000000000000000009EAF
:2F1F940002000000000000000000000000000000000000000000000000000000000000000000000000000000000000000040FAE2
:2F1FC30002000000000000000000000000000000000000000000000000000000000000000000000000000000000000000040FAB3
:2F1FF200000000000000000000000000000000000000000000000000000000000000000000000000000000000000000000009E22
:2F20210002000000000000000000000000000000000000000000000000000000000000000000000000000000000000000040FA54
:2F20500002000000000000000000000000000000000000000000000000000000000000000000000000000000000000000040FA25
:2F207F00000000000000000000000000000000000000000000000000000000000000000000000000000000000000000000009E94
:2F20AE00000000000000000000000000000000000000000000000000000000000000000000000000000000000000000000009E65
:2F20DD00000000000000000000000000000000000000000000000000000000000000000000000000000000000000000000009E36
:2F210C0002000000000000000000000000000000000000000000000000000000000000000000000000000000000000000040FA68
:2F213B0002000000000000000000000000000000000000000000000000000000000000000000000000000000000000000040FA39
:2F216A00000000000000000000000000000000000000000000000000000000000000000000000000000000000000000000009EA8
:2F21990002000000000000000000000000000000000000000000000000000000000000000000000000000000000000000040FADB
:2F21C80002000000000000000000000000000000000000000000000000000000000000000000000000000000000000000040FAAC
:2F21F700000000000000000000000000000000000000000000000000000000000000000000000000000000000000000000009E1B
:2F222600000000000000000000000000000000000000000000000000000000000000000000000000000000000000000000009EEB
:2F225500000000000000000000000000000000000000000000000000000000000000000000000000000000000000000000009EBC
:2F22840002000000000000000000000000000000000000000000000000000000000000000000000000000000000000000040FAEF
:2F22B30002000000000000000000000000000000000000000000000000000000000000000000000000000000000000000040FAC0
:2F22E200000000000000000000000000000000000000000000000000000000000000000000000000000000000000000000009E2F
:2F23110002000000000000000000000000000000000000000000000000000000000000000000000000000000000000000040FA61
:2F23400002000000000000000000000000000000000000000000000000000000000000000000000000000000000000000040FA32
:2F236F00000000000000000000000000000000000000000000000000000000000000000000000000000000000000000000009EA1
:2F239E00000000000000000000000000000000000000000000000000000000000000000000000000000000000000000000009E72
:2F23CD00000000000000000000000000000000000000000000000000000000000000000000000000000000000000000000009E43
:2F23FC0002000000000000000000000000000000000000000000000000000000000000000000000000000000000000000040FA76
:2F242B0002000000000000000000000000000000000000000000000000000000000000000000000000000000000000000040FA46
:2F245A00000000000000000000000000000000000000000000000000000000000000000000000000000000000000000000009EB5
:2F24890002000000000000000000000000000000000000000000000000000000000000000000000000000000000000000040FAE8
:2F24B80002000000000000000000000000000000000000000000000000000000000000000000000000000000000000000040FAB9
:2F24E700000000000000000000000000000000000000000000000000000000000000000000000000000000000000000000009E28
:2F251600000000000000000000000000000000000000000000000000000000000000000000000000000000000000000000009EF8
:2F254500000000000000000000000000000000000000000000000000000000000000000000000000000000000000000000009EC9
:2F257400000000000000000000000000000000000000000000000000000000000000000000000000000000000000000000009E9A
:2F25A300000000000000000000000000000000000000000000000000000000000000000000000000000000000000000000009E6B
:2F25D200000000000000000000000000000000000000000000000000000000000000000000000000000000000000000000009E3C
:2F260100000000000000000000000000000000000000000000000000000000000000000000000000000000000000000000009E0C
:2F263000000000000000000000000000000000000000000000000000000000000000000000000000000000000000000000009EDD
:2F265F00000000000000000000000000000000000000000000000000000000000000000000000000000000000000000000009EAE
:2F268E00000000000000000000000000000000000000000000000000000000000000000000000000000000000000000000009E7F
:2F26BD00000000000000000000000000000000000000000000000000000000000000000000000000000000000000000000009E50
:2F26EC00000000000000000000000000000000000000000000000000000000000000000000000000000000000000000000009E21
:2F271B00000000000000000000000000000000000000000000000000000000000000000000000000000000000000000000009EF1
:2F274A00000000000000000000000000000000000000000000000000000000000000000000000000000000000000000000009EC2
:2F277900000000000000000000000000000000000000000000000000000000000000000000000000000000000000000000009E93
:2F27A800000000000000000000000000000000000000000000000000000000000000000000000000000000000000000000009E64
:2F27D700000000000000000000000000000000000000000000000000000000000000000000000000000000000000000000009E35
:2F280600000000000000000000000000000000000000000000000000000000000000000000000000000000000000000000009E05
:2F283500000000000000000000000000000000000000000000000000000000000000000000000000000000000000000000009ED6
:2F286400000000000000000000000000000000000000000000000000000000000000000000000000000000000000000000009EA7
:2F289300000000000000000000000000000000000000000000000000000000000000000000000000000000000000000000009E78
:2F28C200000000000000000000000000000000000000000000000000000000000000000000000000000000000000000000009E49
:2F28F100000000000000000000000000000000000000000000000000000000000000000000000000000000000000000000009E1A
:2F292000000000000000000000000000000000000000000000000000000000000000000000000000000000000000000000009EEA
:2F294F00000000000000000000000000000000000000000000000000000000000000000000000000000000000000000000009EBB
:2F297E00000000000000000000000000000000000000000000000000000000000000000000000000000000000000000000009E8C
:2F29AD00000000000000000000000000000000000000000000000000000000000000000000000000000000000000000000009E5D
:2F29DC00000000000000000000000000000000000000000000000000000000000000000000000000000000000000000000009E2E
:2F2A0B00000000000000000000000000000000000000000000000000000000000000000000000000000000000000000000009EFE
:2F2A3A00000000000000000000000000000000000000000000000000000000000000000000000000000000000000000000009ECF
:2F2A6900000000000000000000000000000000000000000000000000000000000000000000000000000000000000000000009EA0
:2F2A9800000000000000000000000000000000000000000000000000000000000000000000000000000000000000000000009E71
:2F2AC70000000000000000000000000000000058030000000062030000000000000000000000000000000000000000000080851B
:2F2AF600000000000000000000000000000000000100000000000000000000000000000000000000000000000000000000009F11
:2F2B2500000000000000000000000000000000000300000000000300000000000000000000000000000000000000000000009EDD
:2F2B540002000000000000000000000000000040070400000040000000000000000000000000000000000000000000000040B9CC
:2F2B830002000000000000000000000000000004000000008010000000000000000000000000000000000000000000000040A3AA
:2F2BB200000000000000000000000000000000000000000000000000000000000000000000000000000000000000000000009E56
:2F2BE10002000000000000000000000000000040010000000040000000000000000000000000000000000000000000000040FB07
:2F2C100002000000000000000000000000000020180000000000000000000000000000000000000000000000000000000040C05B
:2F2C3F0000520200000000000000000000000048050000000000000000000000000000000000000000000000000000000080A79E
:2F2C6E00000001000000000000000000000000000000000000000000000000000000000000000000000000000000000000008FA7
:2F2C9D0000000300000000000000000000000000010000000000000000000000000000000000000000000000000000000000AC58
:2F2CCC00024028000000000000000000000000501000000000000000000000000000000000000000000000000000000000C0FD52
:2F2CFB0042200000000000000000000000000012080000000000000000000000000000000000000000000000000000000040A747
:2F2D2A00000000000000000000000000000000000100000000000000000000000000000000000000000000000000000000009FDA
:2F2D5900024002000000000000000000000000400300000000800000000000000000000000000000000000000000000000C0DFA5
:2F2D88000200090200000000000000C0000000004300000000400000000000000000000000000000000000000000000000C0C04C
:2F2DB70000440000000000000000000000000052020000000062000000000000000000000000000000000000000000000000EB08
:2F2DE60000000200000000000000000000000000010000000000030000000000000000000000000000000000000000000000BEFA
:2F2E150000000300000000000000000000000000010000000000000000000000000000000000000000000000000000000000ACDE
:2F2E440002601700000000000000000000000040290000000040030000000000000000000000000000000000000000000040C634
:2F2E730002140100000000000000000000004000000000008010000000000000000000000000000000000000000000000040E227
:2F2EA200000000000000000000000000000000000000000000000300000000000000000000000000000000000000000000009D61
:2F2ED10002400100000000000000000000000040000000000040000000000000000000000000000000000000000000000040AB24
:2F2F00000200080200000000000000C0000000100B0200C00000030000000000000000000000000000000000000000000040A511
:2F2F2F0002540300000000000000000000000048060000000048090000000000000000000000000000000000000000000000D6A5
:2F2F5E00000000000000000000000000000000000000000000000200000000000000000000000000000000000000000000009CA6
:2F2F8D00000000000000000000000000000000000300000000000200000000000000000000000000000000000000000000009F71
:2F2FBC0002401700000000000000000000000050120000000060010400000000000000000000000000000000000000000040A8DE
:2F2FEB00420001000000000000000000000000240000000000080500000000000000000000000000000000000000000000C0C0C3
:2F301A0002000100000000000000000000000000020000000000010000000000000000000000000000000000000000000000ACD5
:2F30490002400100000000000000000000000040010000000040020000000000000000000000000000000000000000000040A8AA
:2F307800061209020000000000C00000000000004700000000100201000000000000000000000000000000000000000000409814
:2F30A700024804000000000000000000000000480500000000480B0000000000000000000000000000000000000000000040F8D4
:2F30D60000000300000000000000000000000000020000000000010000000000000000000000000000000000000000000000AE17
:2F31050000000300000000000000000000000000020000000000030000000000000000000000000000000000000000000000ACE7
:2F31340002508000000000000000000000000050110000000060020400000000000000000000000000000000000000000040C6CD
:2F316300022403000000000000000000000000240100000000080400000000000000000000000000000000000000000000C4C25D
:2F31920002000000000000000000000000000000010000000000020000000000000000000000000000000000000000000040F9D0
:2F31C10002400000000000000000000000000040020000000040000000000000000000000000000000000000000000000040B823
:2F31F0000A0203000000000000000000000000004600000000100101000000000000000000000000000000000000000000D095E4
:2F321F00005202520A00000000000000000000410300000080400100000000000000000000000000000000000000000000008B40
:2F324E00000001000200000000000000000000000100000000000000000000000000000000000000000000000000000000008CC1
:2F327D00000001000100000000000000000000000300000000000000000000000000000000000000000000000000000000008D90
:2F32AC00024029400102000000000000000000602900000000500402000000000000000000000000000000000000000000C0F2B4
:2F32DB0042200000000000000000000000000014020000004000000000000000000000000000000000000000000000000040C903
:2F330A00000000000000000000000000000000000300000000000000000000000000000000000000000000000000000000009DF4
:2F33390002400040000000000000000000000040000000000040020000000000000000000000000000000000000000000040FC25
:2F33680002000B048800000000000000000000000A0200000020080400000000000000000000000000000000000000000040CF56
:2F33970002680700000040400200000000000052030000000044010000000000000000000000000000000000000000000040B08A
:2F33C60000000300000000000100000000000000020000000000030000000000000000000000000000000000000000000000BD12
:2F33F500000000000000000001000000000000000200000000000300000000000000000000000000000000000000000000008E15
:2F34240000401300000000600502000000000040140000000060070200000000000000000000000000000000000000000040AE14
:2F34530042000A000000000401000000000040000800000000020000000000000000000000000000000000000000000040D0B0EF
:2F34820002000000000000000200000000000000000000000000030000000000000000000000000000000000000000000040DBF9
:2F34B100004002000000004001000000000000C00100000000400000000000000000000000000000000000000000000000C0E8C0
:2F34E000001011000000001089000000000000501200000000108900000000000000000000000000000000000000000000408444
:2F350F00004807410B0000000000000000000051010000000044010000000000000000000000000000000000000000000000BF9C
:2F353E00000000000300000000000000000000000200000000000200000000000000000000000000000000000000000000009DBA
:2F356D00000000000100000000000000000000000300000000000200000000000000000000000000000000000000000000009E8B
:2F359C0002508060010200000000000000000040040400000060060200000000000000000000000000000000000000000040A13A
:2F35CB0002240000000000000000000000000004030000000002000000000000000000000000000000000000000000000040BDA5
:2F35FA0000000300000000000000000000000000000000000000030000000000000000000000000000000000000000000000AEEE
:2F362900024003400200000000000000000000400200008000400000000000000000000000000000000000000000000000C0C564
:2F3658000200030089000000000000C0000000E01A00004000108B00000000000000000000000000000000000000000000C0EA76
:2F36870000480500000000000000406002000051020000000041020000000000000000000000000000000000000000520400E257
:2F36B600000002000000000000000000030000000100000000000100000000000000000000000000000000000000000000008C52
:2F36E50000000200000000000000000003000000000000000000010000000000000000000000000000000000000000000300BEEF
:2F3714000250820000000000000000402B0000400704000000500502000000000000000000000000000000000000004043C09CC6
:2F3743000224090000000000000000040B000004000000004020000000000000000000000000000000000000000000000340E68C
:2F377200000001000000000000000000030000000000000000000000000000000000000000000000000000000000000003008C95
:2F37A10002400200000000000000004003000040000000000040000000000000000000000000000000000000000000400340DF90
:2F37D000020011000000000000000010030200201800000000000B04000000000000000000000000000000000000000003409F79
:2F37FF00025202410900000000000000000000528140000000410200000000000000000000000000000000000000006204C0DFA0
:2F382E00000003000100000000000000000000000200030000000300000000000000000000000000000000000000000000009DC2
:2F385D00000003000200000000000000000000000200000000000300000000000000000000000000000000000000000003009D92
:2F388C0000402B60020200000000000000000040156003000050070200000000000000000000000000000000000000404380C961
:2F38BB00402003120200000000000000000040008A0000004020030000000000000000000000000000000000000000000380EACD
:2F38EA0000400340024000400040004000400040014000400040034000400040004000400040004000400040004000400300DE45
:2F391900000003000100000000000000000000000100000000000300000000000000000000000000000000000000000003009DD7
:2F39480000000B04890000000000000000000010121000C000000B0400000000000000000000000000000000000000000380DA5A
:2F397700000000000000000000000000000000000000000000000000000000000000000000000000000000000000000000009E83
:2F39A600000000000000000000000000000000000000000000000000000000000000000000000000000000000000000000009E54
:2F39D500000000000000000000000000000000000000000000000000000000000000000000000000000000000000000000009E25
:2F3A0400000000000000000000000000000000000000000000000000000000000000000000000000000000000000000000009EF5
:2F3A330000000410000000000000000000000800001000000010000000000000000000000000000000000000000000000080DBCD
:2F3A6200000000000000000000000000000000000000000000000000000000000000000000000000000000000000000000009E97
:2F3A9100000000000000000000000000000000000000000000000000000000000000000000000000000000000000000000009E68
:2F3AC000000000000000000000000000000000000000000000000000000000000000000000000000000000000000000000009E39
:2F3AEF0010000010000000100000101000000000000000001020001000000000000000000000000000000000000000001000BC4C
:2F3B1E0000000000800000000000000000000000400000000000000000000000000000000000000000000000000000000080D662
:2F3B4D0000000008000000000000000000000080000000000000000000000000000000000000000000000000000000000000962B
:2F3B7C00000000000000000000000000000000000000000000000000000000000000000000000000000000000000000000009E7C
:2F3BAB00004000000000000000000001000000480000000000000400000000000000000000000000000000000000000100909736
:2F3BDA0000000800000000000000000408000000280000000004000000000000000000000000000000000000000000000000BAC2
:2F3C0900000000000000000000000000000000000000000000000000000000000000000000000000000000000000000000009EEE
:2F3C380000410000000000008000000010000000800000008000000000000000000000000000000000000000000000000080C646
:2F3C670000080000000000200000000000000000000000000000000000000000000000000000000000000000000000000000B650
:2F3C9600000000000000000000000000000000000000000000000000000000000000000000000000000000000000000000009E61
:2F3CC50000008000000000000000000000000002000000080010000000000000000000000000000000000000000000000000AF87
:2F3CF400000000000000000000000000000000000400000000000001000000000000000000000000000000000000000000008B11
:2F3D230008000000000000000000000400000010000100008000004000000000000000000000000000000000000000000080DE36
:2F3D520000001000000000000008000000000040380000000000000800000000000000000000000000000000000000000000EBBF
:2F3D8100000000000000000000000000000000000000000000000000000000000000000000000000000000000000000000009E75
:2F3DB00000000000000000000000000000000000000000002001080000000000000000000000000000000000000000080400C8E7
:2F3DDF00000000000000000000000000000000000000000000000000000000000000000000000000000000000000000000009E17
:2F3E0E0000000000000000000000000000000000000000000084000000000000000000000000000000000000000000000080DEA3
:2F3E3D0008100000000000000000000000100010000000000000400000000000000000000000000000000000000000120080D577
:2F3E6C00000000100000000000000000000000000000000000010000000000000000000000000000000000000000000000009F77
:2F3E9B0000000030000000000000000000000000000000000000000000000000000000000000000000000000000000000000AD1B
:2F3ECA00001000010000100000000000000000002000000012000000000000000000000000000000000000000000000000008CEA
:2F3EF900000000000000000000000000000000000000000000000000000000000000000000000000000000000000000000009EFC
:2F3F280000000000001000000040000000000000000000000000000000000000000000000000000000000000000000000000DB3F
:2F3F570002000000000000000000000000000000000000000000000000000000000000000000000000000000000000000040FAFF
:2F3F8600000000000000000000000000000000000000000000000000000000000000000000000000000000000000000000009E6E
:2F3FB500000000000000000000000000000000000000000000000000000000000000000000000000000000000000000000009E3F
:2F3FE400000000000000000000000000000000000000000000000000000000000000000000000000000000000000000000009E10
:2F401300000000000000000000000000000000000000000000000000000000000000000000000000000000000000000000009EE0
:2F404200000000000000000000000000000000000000000000000000000000000000000000000000000000000000000000009EB1
:2F407100000000000000000000000000000000000000000000000000000000000000000000000000000000000000000000009E82
:2F40A000000000000000000000000000000000000000000000000000000000000000000000000000000000000000000000009E53
:2F40CF0000000000000000000000000000640200004102000000000000000000000000000000000000000000000000000000ED2C
:2F40FE0000000000000000000000000000000200000001000000000000000000000000000000000000000000000000000000ACE4
:2F412D00000000000000000000000000000003000000030000000000000000000000000000000000000000000000000000009DC0
:2F415C0002000000000000000000000000408B000060440000000000000000000000000000000000000000000000000000C08380
:2F418B00020000000000000000000000000005000012000000000000000000000000000000000000000000000000000000408C20
:2F41BA0000000000000000000000000000000200000000000000000000000000000000000000000000000000000000000000BC18
:2F41E90002000000000000000000000000400000004000000000000000000000000000000000000000000000000000000040BE27
:2F421800020000C0000000000000000000001000000008040000000000000000000000000000000000000000000000000040B3A6
:2F424700000000000000000000420A0000480200204003000000000000000000000000000000000000000000000000000040CA45
:2F42760000000000000000000000020000000100000003000000000000000000000000000000000000000000000000000000BD56
:2F42A500000000000000000000000300000003000000030000000000000000000000000000000000000000000000000000009E43
:2F42D400020000000000000000502300005045000050880000000000000000000000000000000000000000000000000000408019
:2F430300020000000000000000000300000200000008000000000000000000000000000000000000000000000000000040C0FF7D
:2F43320000000000000000000000030000000200000000000000000000000000000000000000000000000000000000000040FB1C
:2F43610002000000000000000040030000400000004000000000000000000000000000000000000000000000000000000040F92F
:2F439000020000000000000000004B0000101B000020030000C0000000000000000000000000000000000000000000000060C77C
:2F43BF00020000000000000000640A0000440800004201000000000000000000000000000000000000000000000000000080E070
:2F43EE0000000000000000000000010000000100000002000000000000000000000000000000000000000000000000000000AEEE
:2F441D0000000000000000000000030000000100000002000000000000000000000000000000000000000000000000000000ACBE
:2F444C0000000000000000000040200000608300006046000000000000000000000000000000000000000000000000000040C751
:2F447B000200000000000000000200000008020040200300000000000000000000000000000000000000000000000000004082DF
:2F44AA0002000000000000000000000000000300000003000000000000000000000000000000000000000000000000000000BD1E
:2F44D90000000000000000000040020000400000004003000000000000000000000000000000000000000000000000000040E8C7
:2F450800000000000000000000104900002015000000080400000000000000000000000000000000000000000000000000C0FA30
:2F45370000000000000000000068040040600200004409000000000000000000000000000000000000000000000000000000AA50
:2F45660000000000000000000000000000000300000001000000000000000000000000000000000000000000000000000000BD65
:2F459500000000000000000000000100000003000000030000000000000000000000000000000000000000000000000000009C54
:2F45C40002000000000000000040100000404700006003040000000000000000000000000000000000000000000000000040AF99
:2F45F3000200000000000000002400000004030000000A0000000000000000000000000000000000000000000000000000C0871B
:2F46220000000000000000000000010000000300000001000000000000000000000000000000000000000000000000000000BCA8
:2F46510002000000000000000040000000400300004000000000000000000000000000000000000000000000000000000040C96C
:2F468000020000C00000000000004900001007020000100000000000000000000000000000000000000000000000000000C0A176
:2F46AF0002000000000000000048000040600300804005000000000000000000000000000000000000000000000000000000B971
:2F46DE00000000000000000000000300000003000000020000000000000000000000000000000000000000000000000000008E17
:2F470D0000000000000000000000020000000000000002000000000000000000000000000000000000000000000000000000BCBD
:2F473C00000000000000000000601900004004020050110000000000000000000000000000000000000000000000000000408569
:2F476B0002000000000000000011040000000000000101000000000000000000000000000000000000000000000000000040FEC8
:2F479A0002000000000000000000000000000000000001000000000000000000000000000000000000000000000000000000AE3F
:2F47C90000000000000000000040030000400000004002000000000000000000000000000000000000000000000000000040F9C3
:2F47F8000000000000000000000003010000000000101A0000000000000000000000000000000000000000000000000000C0F0B4
:2F482700000000000000000080600B00004803008040060000000000000000000000000000000000000000000000000000C0A8FE
:2F48560000000000000000000000030000000300000001000000000000000000000000000000000000000000000000000000BE6E
:2F48850000000000000000000000000000000300000000000000000000000000000000000000000000000000000000000000AD54
:2F48B40002000000000000000040100000600300005010000000000000000000000000000000000000000000000000000000AD13
:2F48E30002000000000000000000030000040300000100000000000000000000000000000000000000000000000000000040DF7A
:2F49120000000000000000000000030000000000000000000000000000000000000000000000000000000000000000000040D95A
:2F494100020000000000000000400000004003800040010000000000000000000000000000000000000000000000000000809DE4
:2F49700002000000000000000000000000200040001019000000000000000000000000000000000000000000000000000080D23B
:2F499F00020000000000000080600B00004409002040030000000000000000000000000000000000000000000000000000809A32
:2F49CE0000000000000000000000030000000200000000000000000000000000000000000000000000000000000000000000BFF6
:2F49FD0000000000000000000000030000000200000000000000000000000000000000000000000000000000000000000000BFC7
:2F4A2C000000000000000000004013000060810000508B000000000000000000000000000000000000000000000000000040C943
:2F4A5B00020000000000000000000300000801000008000000000000000000000000000000000000000000000000000000C0E076
:2F4A8A00020000000000000000000300000001000000030000000000000000000000000000000000000000000000000000009C58
:2F4AB900000000000000000000400000004002000040038000000000000000000000000000000000000000000000000000C0C009
:2F4AE80000000000000000000000000000201600002000400000000000000000000000000000000000000000000000000040DFEA
:2F4B170000000000404001000068050000480000004409000000000000000000000000000000000000000000000000000040F5B7
:2F4B460000000000000002000000000000000100000001000000000000000000000000000000000000000000000000000000BF7D
:2F4B750000000000000002000000020000000300000002000000000000000000000000000000000000000000000000000000AF59
:2F4BA40002000000006005010040100000504500006002040000000000000000000000000000000000000000000000000040DA15
:2F4BD3000200000000040A00002403000002020000000A000000000000000000000000000000000000000000000000000062FD0F
:2F4C020000000000000001000000020000000300000001000000000000000000000000000000000000000000000000000040EB51
:2F4C310002000000004001000040030000400200004001000000000000000000000000000000000000000000000000000040DF2C
:2F4C6000020000000010020200004A0000101B000000120000000000000000000000000000000000000000000000000000C08048
:2F4C8F00020000000000000000480400404002000052020000000000000000000000000000000000000000000000000000C0937F
:2F4CBE0000000000000000000000000000000100000002000000000000000000000000000000000000000000000000000000AF15
:2F4CED0000000000000000000000000000000100000003000000000000000000000000000000000000000000000000000000BFD5
:2F4D1C0000000000000000000060030100500502004047000000000000000000000000000000000000000000000000000000FF27
:2F4D4B0002000000000000000011000000020000000003000000000000000000000000000000000000000000000000000040C918
:2F4D7A000240004000400040004003400040004000400340004000400040004000400040004000400040004000400040004089B9
:2F4DA90000000000000000000000030000000000008003800000000000000000000000000000000000000000000000000080ADA8
:2F4DD8000000000000000000000003000010470000400B44000000000000000000000000000000000000000000000000008086BD
:2F4E0700000000000000000000000000000000000000000000000000000000000000000000000000000000000000000000009EDE
:2F4E3600000000000000000000000000000000000000000000000000000000000000000000000000000000000000000000009EAF
:2F4E65000000000000000000000000000000400000000000000000000000000000000000000000000000000000000000008892C4
:2F4E9400000000000000000000000000000000000000000000000000000000000000000000000000000000000000000000009E51
:2F4EC300000000000002000000300800081000000020000000000000000000000000000000000000000000000000000000809D31
:2F4EF2000000000000000000001000000000080000010000000000000000000000000000000000000000000000000000000896DA
:2F4F2100000000000000000000000000000000000000000000000000000000000000000000000000000000000000000000009EC3
:2F4F5000000000000000000000000000000000000000000000000000000000000000000000000000000000000000000000009E94
:2F4F7F0000000000001000000000000010300000100000100000000000000000000000000000000000000000000000000000BED5
:2F4FAE00000000000000000000000000000000000000000000000000000000000000000000000000000000000000000000009E36
:2F4FDD0010000000000000080000000000000000000800000000000000000000000000000000000000000000000000000080877E
:2F500C00000000000000000000000000000000000000000000000000000000000000000000000000000000000000000000009ED7
:2F503B00000000000000000000000000000000000000000000000000000000000000000000000000000000000000000000009EA8
:2F506A0000000000000000000000000000000000080400000000000000000000000000000000000000000000000000000000D239
:2F509900000000000000000000000000000000000000000000000000000000000000000000000000000000000000000000009E4A
:2F50C800000000000000000000000000000080008000000000000000000000000000000000000000000000000000000000809E9B
:2F50F700000000000000000000000000000000000000000000000000000000000000000000000000000000000000000000009EEC
:2F512600000000000000000000000200000000001000000000000000000000000000000000000000000000000000000000008CBC
:2F51550000000004000000008002000000000000000000000008000000000000000000000000000000000000000000000080FE1F
:2F518400000000000000000000000000000000000000000000000000000000000000000000000000000000000000000000009E5E
:2F51B30000000000000000000001000000000000000000400000000000000000000000000000000000000000000000001002EF8B
:2F51E20000000000000000000040000000000000000000002000000000000000000000000000000000000000000000000000D866
:2F521100000000800000000000000001000000000000000000000000000000000000000000000000000000000000000000808FDE
:2F524000000000000000000000000000000000000000000000000000000000000000000000000000000000000000000000009EA1
:2F526F0010000000000000000000000000100000003040000000000000000000000000000000000000000000000000000000D8A8
:2F529E00000000000000000000000000000000000000000000000000000000000000000000000000000000000000000000009E43
:2F52CD0000000000000000000000000000400000000008000000000000000000000000000000000000000000000000000080D614
:2F52FC00000000000000001000000000000000000010000000000000000000000000000000000000000000000000000000008FD4
:2F532B000A000000000000000000000000000400000000000000000000000000000000000000000000000000000000000080F2D3
:2F535A0000000000100000000000000000001008000812000200000000000000000000000000000000000000000000000000944C
:2F538900000000000000000000000000000000000000000000000000000000000000000000000000000000000000000000009E57
:2F53B800000000000000000000000000000000000000000000000000000000000000000000000000000000000000000000009E28
:2F53E700000000000000000000000000000000000000000000000000000000000000000000000000000000000000000000009EF9
:2F541600000000000000000000000000000000000000000000000000000000000000000000000000000000000000000000009EC9
:2F544500000000000000000000000000000000000000000000000000000000000000000000000000000000000000000000009E9A
:2F54740002000000000000000000000000000000000000000000000000000000000000000000000000000000000000000040FACD
:2F54A30002000000000000000000000000000000000000000000000000000000000000000000000000000000000000000040FA9E
:2F54D200000000000000000000000000000000000000000000000000000000000000000000000000000000000000000000009E0D
:2F55010002000000000000000000000000000000000000000000000000000000000000000000000000000000000000000040FA3F
:2F55300002000000000000000000000000000000000000000000000000000000000000000000000000000000000000000040FA10
:2F555F00000000000000000000000000000000000000000000000000000000000000000000000000000000000000000000009E7F
:2F558E00000000000000000000000000000000000000000000000000000000000000000000000000000000000000000000009E50
:2F55BD00000000000000000000000000000000000000000000000000000000000000000000000000000000000000000000009E21
:2F55EC0002000000000000000000000000000000000000000000000000000000000000000000000000000000000000000040FA54
:2F561B0002000000000000000000000000000000000000000000000000000000000000000000000000000000000000000040FA24
:2F564A00000000000000000000000000000000000000000000000000000000000000000000000000000000000000000000009E93
:2F56790002000000000000000000000000000000000000000000000000000000000000000000000000000000000000000040FAC6
:2F56A80002000000000000000000000000000000000000000000000000000000000000000000000000000000000000000040FA97
:2F56D700000000000000000000000000000000000000000000000000000000000000000000000000000000000000000000009E06
:2F570600000000000000000000000000000000000000000000000000000000000000000000000000000000000000000000009ED6
:2F573500000000000000000000000000000000000000000000000000000000000000000000000000000000000000000000009EA7
:2F57640002000000000000000000000000000000000000000000000000000000000000000000000000000000000000000040FADA
:2F57930002000000000000000000000000000000000000000000000000000000000000000000000000000000000000000040FAAB
:2F57C200000000000000000000000000000000000000000000000000000000000000000000000000000000000000000000009E1A
:2F57F10002000000000000000000000000000000000000000000000000000000000000000000000000000000000000000040FA4D
:2F58200002000000000000000000000000000000000000000000000000000000000000000000000000000000000000000040FA1D
:2F584F00000000000000000000000000000000000000000000000000000000000000000000000000000000000000000000009E8C
:2F587E00000000000000000000000000000000000000000000000000000000000000000000000000000000000000000000009E5D
:2F58AD00000000000000000000000000000000000000000000000000000000000000000000000000000000000000000000009E2E
:2F58DC0002000000000000000000000000000000000000000000000000000000000000000000000000000000000000000040FA61
:2F590B0002000000000000000000000000000000000000000000000000000000000000000000000000000000000000000040FA31
:2F593A00000000000000000000000000000000000000000000000000000000000000000000000000000000000000000000009EA0
:2F59690002000000000000000000000000000000000000000000000000000000000000000000000000000000000000000040FAD3
:2F59980002000000000000000000000000000000000000000000000000000000000000000000000000000000000000000040FAA4
:2F59C700000000000000000000000000000000000000000000000000000000000000000000000000000000000000000000009E13
:2F59F600000000000000000000000000000000000000000000000000000000000000000000000000000000000000000000009EE4
:2F5A2500000000000000000000000000000000000000000000000000000000000000000000000000000000000000000000009EB4
:2F5A540002000000000000000000000000000000000000000000000000000000000000000000000000000000000000000040FAE7
:2F5A830002000000000000000000000000000000000000000000000000000000000000000000000000000000000000000040FAB8
:2F5AB200000000000000000000000000000000000000000000000000000000000000000000000000000000000000000000009E27
:2F5AE10002000000000000000000000000000000000000000000000000000000000000000000000000000000000000000040FA5A
:2F5B100002000000000000000000000000000000000000000000000000000000000000000000000000000000000000000040FA2A
:2F5B3F00000000000000000000000000000000000000000000000000000000000000000000000000000000000000000000009E99
:2F5B6E00000000000000000000000000000000000000000000000000000000000000000000000000000000000000000000009E6A
:2F5B9D00000000000000000000000000000000000000000000000000000000000000000000000000000000000000000000009E3B
:2F5BCC0002000000000000000000000000000000000000000000000000000000000000000000000000000000000000000040FA6E
:2F5BFB0002000000000000000000000000000000000000000000000000000000000000000000000000000000000000000040FA3F
:2F5C2A00000000000000000000000000000000000000000000000000000000000000000000000000000000000000000000009EAD
:2F5C590002000000000000000000000000000000000000000000000000000000000000000000000000000000000000000040FAE0
:2F5C880002000000000000000000000000000000000000000000000000000000000000000000000000000000000000000040FAB1
:2F5CB700000000000000000000000000000000000000000000000000000000000000000000000000000000000000000000009E20
:2F5CE600000000000000000000000000000000000000000000000000000000000000000000000000000000000000000000009EF1
:2F5D1500000000000000000000000000000000000000000000000000000000000000000000000000000000000000000000009EC1
:2F5D440002000000000000000000000000000000000000000000000000000000000000000000000000000000000000000040FAF4
:2F5D730002000000000000000000000000000000000000000000000000000000000000000000000000000000000000000040FAC5
:2F5DA200000000000000000000000000000000000000000000000000000000000000000000000000000000000000000000009E34
:2F5DD10002000000000000000000000000000000000000000000000000000000000000000000000000000000000000000040FA67
:2F5E000002000000000000000000000000000000000000000000000000000000000000000000000000000000000000000040FA37
:2F5E2F00000000000000000000000000000000000000000000000000000000000000000000000000000000000000000000009EA6
:2F5E5E00000000000000000000000000000000000000000000000000000000000000000000000000000000000000000000009E77
:2F5E8D00000000000000000000000000000000000000000000000000000000000000000000000000000000000000000000009E48
:2F5EBC0002000000000000000000000000000000000000000000000000000000000000000000000000000000000000000040FA7B
:2F5EEB0002000000000000000000000000000000000000000000000000000000000000000000000000000000000000000040FA4C
:2F5F1A00000000000000000000000000000000000000000000000000000000000000000000000000000000000000000000009EBA
:2F5F490002000000000000000000000000000000000000000000000000000000000000000000000000000000000000000040FAED
:2F5F780002000000000000000000000000000000000000000000000000000000000000000000000000000000000000000040FABE
:2F5FA700000000000000000000000000000000000000000000000000000000000000000000000000000000000000000000009E2D
:2F5FD600000000000000000000000000000000000000000000000000000000000000000000000000000000000000000000009EFE
:2F600500000000000000000000000000000000000000000000000000000000000000000000000000000000000000000000009ECE
:2F60340002000000000000000000000000000000000000000000000000000000000000000000000000000000000000000040FA01
:2F60630002000000000000000000000000000000000000000000000000000000000000000000000000000000000000000040FAD2
:2F609200000000000000000000000000000000000000000000000000000000000000000000000000000000000000000000009E41
:2F60C10002000000000000000000000000000000000000000000000000000000000000000000000000000000000000000040FA74
:2F60F00002000000000000000000000000000000000000000000000000000000000000000000000000000000000000000040FA45
:2F611F00000000000000000000000000000000000000000000000000000000000000000000000000000000000000000000009EB3
:2F614E00000000000000000000000000000000000000000000000000000000000000000000000000000000000000000000009E84
:2F617D00000000000000000000000000000000000000000000000000000000000000000000000000000000000000000000009E55
:2F61AC0002000000000000000000000000000000000000000000000000000000000000000000000000000000000000000040FA88
:2F61DB0002000000000000000000000000000000000000000000000000000000000000000000000000000000000000000040FA59
:2F620A00000000000000000000000000000000000000000000000000000000000000000000000000000000000000000000009EC7
:2F62390002000000000000000000000000000000000000000000000000000000000000000000000000000000000000000040FAFA
:2F62680002000000000000000000000000000000000000000000000000000000000000000000000000000000000000000040FACB
:2F629700000000000000000000000000000000000000000000000000000000000000000000000000000000000000000000009E3A
:2F62C600000000000000000000000000000000000000000000000000000000000000000000000000000000000000000000009E0B
:2F62F500000000000000000000000000000000000000000000000000000000000000000000000000000000000000000000009EDC
:2F632400000000000000000000000000000000000000000000000000000000000000000000000000000000000000000000009EAC
:2F635300000000000000000000000000000000000000000000000000000000000000000000000000000000000000000000009E7D
:2F638200000000000000000000000000000000000000000000000000000000000000000000000000000000000000000000009E4E
:2F63B100000000000000000000000000000000000000000000000000000000000000000000000000000000000000000000009E1F
:2F63E000000000000000000000000000000000000000000000000000000000000000000000000000000000000000000000009EF0
:2F640F00000000000000000000000000000000000000000000000000000000000000000000000000000000000000000000009EC0
:2F643E00000000000000000000000000000000000000000000000000000000000000000000000000000000000000000000009E91
:2F646D00000000000000000000000000000000000000000000000000000000000000000000000000000000000000000000009E62
:2F649C00000000000000000000000000000000000000000000000000000000000000000000000000000000000000000000009E33
:2F64CB00000000000000000000000000000000000000000000000000000000000000000000000000000000000000000000009E04
:2F64FA00000000000000000000000000000000000000000000000000000000000000000000000000000000000000000000009ED5
:2F652900000000000000000000000000000000000000000000000000000000000000000000000000000000000000000000009EA5
:2F655800000000000000000000000000000000000000000000000000000000000000000000000000000000000000000000009E76
:2F658700000000000000000000000000000000000000000000000000000000000000000000000000000000000000000000009E47
:2F65B600000000000000000000000000000000000000000000000000000000000000000000000000000000000000000000009E18
:2F65E500000000000000000000000000000000000000000000000000000000000000000000000000000000000000000000009EE9
:2F661400000000000000000000000000000000000000000000000000000000000000000000000000000000000000000000009EB9
:2F664300000000000000000000000000000000000000000000000000000000000000000000000000000000000000000000009E8A
:2F667200000000000000000000000000000000000000000000000000000000000000000000000000000000000000000000009E5B
:2F66A100000000000000000000000000000000000000000000000000000000000000000000000000000000000000000000009E2C
:2F66D000000000000000000000000000000000000000000000000000000000000000000000000000000000000000000000009EFD
:2F66FF00000000000000000000000000000000000000000000000000000000000000000000000000000000000000000000009ECE
:2F672E00000000000000000000000000000000000000000000000000000000000000000000000000000000000000000000009E9E
:2F675D00000000000000000000000000000000000000000000000000000000000000000000000000000000000000000000009E6F
:2F678C00000000000000000000000000000000000000000000000000000000000000000000000000000000000000000000009E40
:2F67BB00000000000000000000000000000000000000000000000000000000000000000000000000000000000000000000009E11
:2F67EA00000000000000000000000000000000000000000000000000000000000000000000000000000000000000000000009EE2
:2F681900000000000000000000000000000000000000000000000000000000000000000000000000000000000000000000009EB2
:2F684800000000000000000000000000000000000000000000000000000000000000000000000000000000000000000000009E83
:2F687700000000000000000000000000000000000000000000000000000000000000000000000000000000000000000000009E54
:2F68A600000000000000000000000000000000000000000000000000000000000000000000000000000000000000000000009E25
:2F68D500000000000000000000000000000000000000000000000000000000000000000000000000000000000000000000009EF6
:2F69040002000000000000000000000000000000000000000000000000000000000000000000000000000000000000000040FA28
:2F69330002000000000000000000000000000000000000000000000000000000000000000000000000000000000000000040FAF9
:2F696200000000000000000000000000000000000000000000000000000000000000000000000000000000000000000000009E68
:2F69910002000000000000000000000000000000000000000000000000000000000000000000000000000000000000000040FA9B
:2F69C00002000000000000000000000000000000000000000000000000000000000000000000000000000000000000000040FA6C
:2F69EF00000000000000000000000000000000000000000000000000000000000000000000000000000000000000000000009EDB
:2F6A1E00000000000000000000000000000000000000000000000000000000000000000000000000000000000000000000009EAB
:2F6A4D00000000000000000000000000000000000000000000000000000000000000000000000000000000000000000000009E7C
:2F6A7C0002000000000000000000000000000000000000000000000000000000000000000000000000000000000000000040FAAF
:2F6AAB0002000000000000000000000000000000000000000000000000000000000000000000000000000000000000000040FA80
:2F6ADA00000000000000000000000000000000000000000000000000000000000000000000000000000000000000000000009EEF
:2F6B090002000000000000000000000000000000000000000000000000000000000000000000000000000000000000000040FA21
:2F6B380002000000000000000000000000000000000000000000000000000000000000000000000000000000000000000040FAF2
:2F6B6700000000000000000000000000000000000000000000000000000000000000000000000000000000000000000000009E61
:2F6B9600000000000000000000000000000000000000000000000000000000000000000000000000000000000000000000009E32
:2F6BC500000000000000000000000000000000000000000000000000000000000000000000000000000000000000000000009E03
:2F6BF40002000000000000000000000000000000000000000000000000000000000000000000000000000000000000000040FA36
:2F6C230002000000000000000000000000000000000000000000000000000000000000000000000000000000000000000040FA06
:2F6C5200000000000000000000000000000000000000000000000000000000000000000000000000000000000000000000009E75
:2F6C810002000000000000000000000000000000000000000000000000000000000000000000000000000000000000000040FAA8
:2F6CB00002000000000000000000000000000000000000000000000000000000000000000000000000000000000000000040FA79
:2F6CDF00000000000000000000000000000000000000000000000000000000000000000000000000000000000000000000009EE8
:2F6D0E00000000000000000000000000000000000000000000000000000000000000000000000000000000000000000000009EB8
:2F6D3D00000000000000000000000000000000000000000000000000000000000000000000000000000000000000000000009E89
:2F6D6C0002000000000000000000000000000000000000000000000000000000000000000000000000000000000000000040FABC
:2F6D9B0002000000000000000000000000000000000000000000000000000000000000000000000000000000000000000040FA8D
:2F6DCA00000000000000000000000000000000000000000000000000000000000000000000000000000000000000000000009EFC
:2F6DF90002000000000000000000000000000000000000000000000000000000000000000000000000000000000000000040FA2F
:2F6E280002000000000000000000000000000000000000000000000000000000000000000000000000000000000000000040FAFF
:2F6E5700000000000000000000000000000000000000000000000000000000000000000000000000000000000000000000009E6E
:2F6E8600000000000000000000000000000000000000000000000000000000000000000000000000000000000000000000009E3F
