:020000040000FA
:2B000000FFFF62FF2500FFFFFFFFFFFFFFFFFFFFFFFFFFFFFFFFFFFFFFFFFFFFFFFFFFFFFFFFFFFFFFFFFFFFFFFFFF76
:2B002B00601886611886611886611886611886611886010000000018866118866118866118866118866118866180E74F
:2B005600401004411004411004411004411004411004010000000010044110044110044110044110044110044180E71C
:2B008100000000000000000000000000000000000000000000000000000000000000000000000000000000000080E7ED
:2B00AC00000000000000000000000000000000000000000000000000000000000000000000000000000000000080E7C2
:2B00D700000000000000000000000000000000000000000000000000000000000000000000000000000000000080E797
:2B010200000000000000000000000000000000000000000000000000000000000000000000000000000000000080E76B
:2B012D00000000000000000000000000000000000000000000000000000000000000000000000000000000000080E740
:2B015800000000000000000000000000000000000000000000000000000000000000000000000000000000000080E715
:2B018300000000000000000000000000000000000000000000000000000000000000000000000000000000000080E7EA
:2B01AE00000000000000000000000000000000000000000000000000000000000000000000000000000000000080E7BF
:2B01D900000000000000000000000000000000000000000000000000000000000000000000000000000000000080E794
:2B020400000000000000000000000000000000000000000000000000000000000000000000000000000000000080E768
:2B022F00000000000000000000000000000000000000000000000000000000000000000000000000000000000080E73D
:2B025A00000000000000000000000000000000000000000000000000000000000000000000000000000000000080E712
:2B028500000000000000000000000000000000000000000000000000000000000000000000000000000000000080E7E7
:2B02B000000000000000000000000000000000000000000000000000000000000000000000000000000000000080E7BC
:2B02DB00000000000000000000000000000000000000000000000000000000000000000000000000000000000080E791
:2B030600000000000000000000000000000000000000000000000000000000000000000000000000000000000080E765
:2B033100000000000000000000000000000000000000000000000000000000000000000000000000000000000080E73A
:2B035C00000000000000000000000000000000000000000000000000000000000000000000000000000000000080E70F
:2B038700000000000000000000000000000000000000000000000000000000000000000000000000000000000080E7E4
:2B03B200020000000000000000000000000000000000000000000000000000000000000000000000000000000008ED29
:2B03DD00000000000000000000000000000000000000000000000000000000000000000000000000000000000080E78E
:2B040800000000000000000000000000000000000000000000000000000000000000000000000000000000000080E762
:2B043300000000000000000000000000000000000000000000000000000000000000000000000000000000000080E737
:2B045E00000000000000000000000000000000000000000000000000000000000000000000000000000000000080E70C
:2B048900020000000000000000000000000000000000000000000000000000000000000000000000000000000008ED51
:2B04B400800008800008800008800008800008800008000000000020000220000220000220000220000220000280E7BA
:2B04DF00800008800008800008800008800008800008000000000020000220000220000220000220000220000280E78F
:2B050A00000000000000000000000000000000000000000000000000000000000000000000000000000000000080E75F
:2B053500020000000000000000000000000000000000000000000000000000000000000000000000000000000008EDA4
:2B056000000000000000000000000000000000000000000000000000000000000000000000000000000000000080E709
:2B058B00000000000000000000000000000000000000000000000000000000000000000000000000000000000080E7DE
:2B05B600000000000000000000000000000000000000000000000000000000000000000000000000000000000080E7B3
:2B05E100000000000000000000000000000000000000000000000000000000000000000000000000000000000080E788
:2B060C00020000000000000000000000000000000000000000000000000000000000000000000000000000000008EDCC
:2B063700000000000000000000000000000000000000000000000000000000000000000000000000000000000080E731
:2B066200000000000000000000000000000000000000000000000000000000000000000000000000000000000080E706
:2B068D00000000000000000000000000000000000000000000000000000000000000000000000000000000000080E7DB
:2B06B800020000000000000000000000000000000000000000000000000000000000000000000000000000000008ED20
:2B06E300000000000000000000000000000000000000000000000000000000000000000000000000000000000080E785
:2B070E00000000000000000000000000000000000000000000000000000000000000000000000000000000000080E759
:2B073900000000000000000000000000000000000000000000000000000000000000000000000000000000000080E72E
:2B076400000000000000000000000000000000000000000000000000000000000000000000000000000000000080E703
:2B078F00020000000000000000000000000000000000000000000000000000000000000000000000000000000008ED48
:2B07BA00000000000000000000000000000000000000000000000000000000000000000000000000000000000080E7AD
:2B07E500000000000000000000000000000000000000000000000000000000000000000000000000000000000080E782
:2B081000000000000000000000000000000000000000000000000000000000000000000000000000000000000080E756
:2B083B00020000000000000000000000000000000000000000000000000000000000000000000000000000000008ED9B
:2B086600000000000000000000000000000000000000000000000000000000000000000000000000000000000080E700
:2B089100000000000000000000000000000000000000000000000000000000000000000000000000000000000080E7D5
:2B08BC00000000000000000000000000000000000000000000000000000000000000000000000000000000000080E7AA
:2B08E700000000000000000000000000000000000000000000000000000000000000000000000000000000000080E77F
:2B091200020000000000000000000000000000000000000000000000000000000000000000000000000000000008EDC3
:2B093D00000000000000000000000000000000000000000000000000000000000000000000000000000000000080E728
:2B096800000000000000000000000000000000000000000000000000000000000000000000000000000000000080E7FD
:2B099300000000000000000000000000000000000000000000000000000000000000000000000000000000000080E7D2
:2B09BE00020000000000000000000000000000000000000000000000000000000000000000000000000000000008ED17
:2B09E900000000000000000000000000000000000000000000000000000000000000000000000000000000000080E77C
:2B0A1400000000000000000000000000000000000000000000000000000000000000000000000000000000000080E750
:2B0A3F00000000000000000000000000000000000000000000000000000000000000000000000000000000000080E725
:2B0A6A00000000000000000000000000000000000000000000000000000000000000000000000000000000000080E7FA
:2B0A9500020000000000000000000000000000000000000000000000000000000000000000000000000000000008ED3F
:2B0AC000000000000000000000000000000000000000000000000000000000000000000000000000000000000080E7A4
:2B0AEB00000000000000000000000000000000000000000000000000000000000000000000000000000000000080E779
:2B0B1600000000000000000000000000000000000000000000000000000000000000000000000000000000000080E74D
:2B0B4100020000000000000000000000000000000000000000000000000000000000000000000000000000000008ED92
:2B0B6C00000000000000000000000000000000000000000000000000000000000000000000000000000000000080E7F7
:2B0B9700000000000000000000000000000000000000000000000000000000000000000000000000000000000080E7CC
:2B0BC200000000000000000000000000000000000000000000000000000000000000000000000000000000000080E7A1
:2B0BED00000000000000000000000000000000000000000000000000000000000000000000000000000000000080E776
:2B0C1800020000000000000000000000000000000000000000000000000000000000000000000000000000000008EDBA
:2B0C4300000000000000000000000000000000000000000000000000000000000000000000000000000000000080E71F
:2B0C6E00000000000000000000000000000000000000000000000000000000000000000000000000000000000080E7F4
:2B0C9900000000000000000000000000000000000000000000000000000000000000000000000000000000000080E7C9
:2B0CC400020000000000000000000000000000000000000000000000000000000000000000000000000000000008ED0E
:2B0CEF00000000000000000000000000000000000000000000000000000000000000000000000000000000000080E773
:2B0D1A00000000000000000000000000000000000000000000000000000000000000000000000000000000000080E747
:2B0D4500000000000000000000000000000000000000000000000000000000000000000000000000000000000080E71C
:2B0D7000000000000000000000000000000000000000000000000000000000000000000000000000000000000080E7F1
:2B0D9B00020000000000000000000000000000000000000000000000000000000000000000000000000000000008ED36
:2B0DC600000000000000000000000000000000000000000000000000000000000000000000000000000000000080E79B
:2B0DF100000000000000000000000000000000000000000000000000000000000000000000000000000000000080E770
:2B0E1C00000000000000000000000000000000000000000000000000000000000000000000000000000000000080E744
:2B0E4700020000000000000000000000000000000000000000000000000000000000000000000000000000000008ED89
:2B0E7200000000000000000000000000000000000000000000000000000000000000000000000000000000000080E7EE
:2B0E9D00000000000000000000000000000000000000000000000000000000000000000000000000000000000080E7C3
:2B0EC800000000000000000000000000000000000000000000000000000000000000000000000000000000000080E798
:2B0EF300000000000000000000000000000000000000000000000000000000000000000000000000000000000080E76D
:2B0F1E00020000000000000000000000000000000000000000000000000000000000000000000000000000000008EDB1
:2B0F4900000000000000000000000000000000000000000000000000000000000000000000000000000000000080E716
:2B0F7400000000000000000000000000000000000000000000000000000000000000000000000000000000000080E7EB
:2B0F9F00000000000000000000000000000000000000000000000000000000000000000000000000000000000080E7C0
:2B0FCA00000000000000000000000000000000000000000000000000000000000000000000000000000000000080E795
:2B0FF500000000000000000000000000000000000000000000000000000000000000000000000000000000000080E76A
:2B102000800008800008800008800008800008800008000000000020000220000220000220000220000220000280E742
:2B104B00800008800008800008800008800008800008000000000020000220000220000220000220000220000280E717
:2B107600000000000000000000000000000000000000000000000000000000000000000000000000000000000080E7E8
:2B10A100000000000000000000000000000000000000000000000000000000000000000000000000000000000080E7BD
:2B10CC00000000000000000000000000000000000000000000000000000000000000000000000000000000000080E792
:2B10F700000000000000000000000000000000000000000000000000000000000000000000000000000000000080E767
:2B112200000000000000000000000000000000000000000000000000000000000000000000000000000000000080E73B
:2B114D00000000000000000000000000000000000000000000000000000000000000000000000000000000000080E710
:2B117800000000000000000000000000000000000000000000000000000000000000000000000000000000000080E7E5
:2B11A300000000000000000000000000000000000000000000000000000000000000000000000000000000000080E7BA
:2B11CE00000000000000000000000000000000000000000000000000000000000000000000000000000000000080E78F
:2B11F900000000000000000000000000000000000000000000000000000000000000000000000000000000000080E764
:2B122400000000000000000000000000000000000000000000000000000000000000000000000000000000000080E738
:2B124F00000000000000000000000000000000000000000000000000000000000000000000000000000000000080E70D
:2B127A00000000000000000000000000000000000000000000000000000000000000000000000000000000000080E7E2
:2B12A500000000000000000000000000000000000000000000000000000000000000000000000000000000000080E7B7
:2B12D000000000000000000000000000000000000000000000000000000000000000000000000000000000000080E78C
:2B12FB00000000000000000000000000000000000000000000000000000000000000000000000000000000000080E761
:2B132600000000000000000000000000000000000000000000000000000000000000000000000000000000000080E735
:2B135100000000000000000000000000000000000000000000000000000000000000000000000000000000000080E70A
:2B137C00000000000000000000000000000000000000000000000000000000000000000000000000000000000080E7DF
:2B13A700000000000000000000000000000000000000000000000000000000000000000000000000000000000080E7B4
:2B13D200000000000000000000000000000000000000000000000000000000000000000000000000000000000080E789
:2B13FD00000000000000000000000000000000000000000000000000000000000000000000000000000000000080E75E
:2B142800000000000000000000000000000000000000000000000000000000000000000000000000000000000080E732
:2B145300000000000000000000000000000000000000000000000000000000000000000000000000000000000080E707
:2B147E00000000000000000000000000000000000000000000000000000000000000000000000000000000000080E7DC
:2B14A900000000000000000000000000000000000000000000000000000000000000000000000000000000000080E7B1
:2B14D400000000000000000000000000000000000000000000000000000000000000000000000000000000000080E786
:2B14FF00000000000000000000000000000000000000000000000000000000000000000000000000000000000080E75B
:2B152A00000000000000000000000000000000000000000000000000000000000000000000000000000000000080E72F
:2B155500000000000000000000000000000000000000000000000000000000000000000000000000000000000080E704
:2B158000000000000000000000000000000000000000000000000000000000000000000000000000000000000080E7D9
:2B15AB00000000000000000000000000000000000000000000000000000000000000000000000000000000000080E7AE
:2B15D600000000000000000000000000000000000000000000000000000000000000000000000000000000000080E783
:2B160100000000000000000000000000000000000000000000000000000000000000000000000000000000000080E757
:2B162C00020000000000000000000000000000000000000000000000000000000000000000000000000000000008ED9C
:2B165700000000000000000000000000000000000000000000000000000000000000000000000000000000000080E701
:2B168200000000000000000000000000000000000000000000000000000000000000000000000000000000000080E7D6
:2B16AD00000000000000000000000000000000000000000000000000000000000000000000000000000000000080E7AB
:2B16D800000000000000000000000000000000000000000000000000000000000000000000000000000000000080E780
:2B170300020000000000000000000000000000000000000000000000000000000000000000000000000000000008EDC4
:2B172E00800008800008800008800008800008800008000000000020000220000220000220000220000220000280E72D
:2B175900800008800008800008800008800008800008000000000020000220000220000220000220000220000280E702
:2B178400000000000000000000000000000000000000000000000000000000000000000000000000000000000080E7D3
:2B17AF00020000000000000000000000000000000000000000000000000000000000000000000000000000000008ED18
:2B17DA00000000000000000000000000000000000000000000000000000000000000000000000000000000000080E77D
:2B180500000000000000000000000000000000000000000000000000000000000000000000000000000000000080E751
:2B183000000000000000000000000000000000000000000000000000000000000000000000000000000000000080E726
:2B185B00000000000000000000000000000000000000000000000000000000000000000000000000000000000080E7FB
:2B188600020000000000000000000000000000000000000000000000000000000000000000000000000000000008ED40
:2B18B100000000000000000000000000000000000000000000000000000000000000000000000000000000000080E7A5
:2B18DC00000000000000000000000000000000000000000000000000000000000000000000000000000000000080E77A
:2B190700000000000000000000000000000000000000000000000000000000000000000000000000000000000080E74E
:2B193200020000000000000000000000000000000000000000000000000000000000000000000000000000000008ED93
:2B195D00000000000000000000000000000000000000000000000000000000000000000000000000000000000080E7F8
:2B198800000000000000000000000000000000000000000000000000000000000000000000000000000000000080E7CD
:2B19B300000000000000000000000000000000000000000000000000000000000000000000000000000000000080E7A2
:2B19DE00000000000000000000000000000000000000000000000000000000000000000000000000000000000080E777
:2B1A0900020000000000000000000000000000000000000000000000000000000000000000000000000000000008EDBB
:2B1A3400000000000000000000000000000000000000000000000000000000000000000000000000000000000080E720
:2B1A5F00000000000000000000000000000000000000000000000000000000000000000000000000000000000080E7F5
:2B1A8A00000000000000000000000000000000000000000000000000000000000000000000000000000000000080E7CA
:2B1AB500020000000000000000000000000000000000000000000000000000000000000000000000000000000008ED0F
:2B1AE000000000000000000000000000000000000000000000000000000000000000000000000000000000000080E774
:2B1B0B00000000000000000000000000000000000000000000000000000000000000000000000000000000000080E748
:2B1B3600000000000000000000000000000000000000000000000000000000000000000000000000000000000080E71D
:2B1B6100000000000000000000000000000000000000000000000000000000000000000000000000000000000080E7F2
:2B1B8C00020000000000000000000000000000000000000000000000000000000000000000000000000000000008ED37
:2B1BB700000000000000000000000000000000000000000000000000000000000000000000000000000000000080E79C
:2B1BE200000000000000000000000000000000000000000000000000000000000000000000000000000000000080E771
:2B1C0D00000000000000000000000000000000000000000000000000000000000000000000000000000000000080E745
:2B1C3800020000000000000000000000000000000000000000000000000000000000000000000000000000000008ED8A
:2B1C6300000000000000000000000000000000000000000000000000000000000000000000000000000000000080E7EF
:2B1C8E00000000000000000000000000000000000000000000000000000000000000000000000000000000000080E7C4
:2B1CB900000000000000000000000000000000000000000000000000000000000000000000000000000000000080E799
:2B1CE400000000000000000000000000000000000000000000000000000000000000000000000000000000000080E76E
:2B1D0F00020000000000000000000000000000000000000000000000000000000000000000000000000000000008EDB2
:2B1D3A00000000000000000000000000000000000000000000000000000000000000000000000000000000000080E717
:2B1D6500000000000000000000000000000000000000000000000000000000000000000000000000000000000080E7EC
:2B1D9000000000000000000000000000000000000000000000000000000000000000000000000000000000000080E7C1
:2B1DBB00020000000000000000000000000000000000000000000000000000000000000000000000000000000008ED06
:2B1DE600000000000000000000000000000000000000000000000000000000000000000000000000000000000080E76B
:2B1E1100000000000000000000000000000000000000000000000000000000000000000000000000000000000080E73F
:2B1E3C00000000000000000000000000000000000000000000000000000000000000000000000000000000000080E714
:2B1E6700000000000000000000000000000000000000000000000000000000000000000000000000000000000080E7E9
:2B1E9200020000000000000000000000000000000000000000000000000000000000000000000000000000000008ED2E
:2B1EBD00000000000000000000000000000000000000000000000000000000000000000000000000000000000080E793
:2B1EE800000000000000000000000000000000000000000000000000000000000000000000000000000000000080E768
:2B1F1300000000000000000000000000000000000000000000000000000000000000000000000000000000000080E73C
:2B1F3E00020000000000000000000000000000000000000000000000000000000000000000000000000000000008ED81
:2B1F6900000000000000000000000000000000000000000000000000000000000000000000000000000000000080E7E6
:2B1F9400000000000000000000000000000000000000000000000000000000000000000000000000000000000080E7BB
:2B1FBF00000000000000000000000000000000000000000000000000000000000000000000000000000000000080E790
:2B1FEA00000000000000000000000000000000000000000000000000000000000000000000000000000000000080E765
:2B201500020000000000000000000000000000000000000000000000000000000000000000000000000000000008EDA9
:2B204000000000000000000000000000000000000000000000000000000000000000000000000000000000000080E70E
:2B206B00000000000000000000000000000000000000000000000000000000000000000000000000000000000080E7E3
:2B209600000000000000000000000000000000000000000000000000000000000000000000000000000000000080E7B8
:2B20C100020000000000000000000000000000000000000000000000000000000000000000000000000000000008EDFD
:2B20EC00000000000000000000000000000000000000000000000000000000000000000000000000000000000080E762
:2B211700000000000000000000000000000000000000000000000000000000000000000000000000000000000080E736
:2B214200000000000000000000000000000000000000000000000000000000000000000000000000000000000080E70B
:2B216D00000000000000000000000000000000000000000000000000000000000000000000000000000000000080E7E0
:2B219800020000000000000000000000000000000000000000000000000000000000000000000000000000000008ED25
:2B21C300000000000000000000000000000000000000000000000000000000000000000000000000000000000080E78A
:2B21EE00000000000000000000000000000000000000000000000000000000000000000000000000000000000080E75F
:2B221900000000000000000000000000000000000000000000000000000000000000000000000000000000000080E733
:2B224400000000000000000000000000000000000000000000000000000000000000000000000000000000000080E708
:2B226F00000000000000000000000000000000000000000000000000000000000000000000000000000000000080E7DD
:2B229A00800008800008800008800008800008800008000000000020000220000220000220000220000220000280E7B6
:2B22C500800008800008800008800008800008800008000000000020000220000220000220000220000220000280E78B
:2B22F000000000000000000000000000000000000000000000000000000000000000000000000000000000000080E75C
:2B231B00000000000000000000000000000000000000000000000000000000000000000000000000000000000080E730
:2B234600000000000000000000000000000000000000000000000000000000000000000000000000000000000080E705
:2B237100000000000000000000000000000000000000000000000000000000000000000000000000000000000080E7DA
:2B239C00000000000000000000000000000000000000000000000000000000000000000000000000000000000080E7AF
:2B23C700000000000000000000000000000000000000000000000000000000000000000000000000000000000080E784
:2B23F200000000000000000000000000000000000000000000000000000000000000000000000000000000000080E759
:2B241D00000000000000000000000000000000000000000000000000000000000000000000000000000000000080E72D
:2B244800000000000000000000000000000000000000000000000000000000000000000000000000000000000080E702
:2B247300000000000000000000000000000000000000000000000000000000000000000000000000000000000080E7D7
:2B249E00000000000000000000000000000000000000000000000000000000000000000000000000000000000080E7AC
:2B24C900000000000000000000000000000000000000000000000000000000000000000000000000000000000080E781
:2B24F400000000000000000000000000000000000000000000000000000000000000000000000000000000000080E756
:2B251F00000000000000000000000000000000000000000000000000000000000000000000000000000000000080E72A
:2B254A00000000000000000000000000000000000000000000000000000000000000000000000000000000000080E7FF
:2B257500000000000000000000000000000000000000000000000000000000000000000000000000000000000080E7D4
:2B25A000000000000000000000000000000000000000000000000000000000000000000000000000000000000080E7A9
:2B25CB00000000000000000000000000000000000000000000000000000000000000000000000000000000000080E77E
:2B25F600000000000000000000000000000000000000000000000000000000000000000000000000000000000080E753
:2B262100000000000000000000000000000000000000000000000000000000000000000000000000000000000080E727
:2B264C00100000000000000000000000000000000000000000000000000000000000000000000000000000000080F7DC
:2B267700000000000000000000000000000000000000000000000000000000000000000000000000000000000080E7D1
:2B26A200000000000000000000000000000000000000000000000000000000000000000000000000000000000080E7A6
:2B26CD000000000000000000000000000000000000000000000000000000000000000000000000000000000000A0C57D
:2B26F800000000000000000000000000000000000000000000000000000000000000000000000000000000000080E750
:2B272300020000000000000000000000000000000000000000000000000000000000000000000000000000000008ED94
:2B274E00000000000000000000000000000000000000000000000000000000000000000000000000000000000080E7F9
:2B277900000000000000000000000000000000000000000000000000000000000000000000000000000000000080E7CE
:2B27A4001000000000000000000000000000000000000000000000000000000000000000000000000000000000A0D585
:2B27CF00000000000000000000000000000000000000000000000000000000000000000000000000000000000080E778
:2B27FA00000000000000000000000000000000000000000000000000000000000000000000000000000000000080E74D
:2B282500000000000000000000000000000220000220000000000000000000000000000000000000000880000800E7CD
:2B285000000000000000000000000000000000000110000000000000000000000000000000000000000040000480E7A1
:2B287B00000000000000000000000000000000200000080000000000000000000000000000000000000008002000C51D
:2B28A600020000000000000000000000000000000000000000000000000000000000000000000000000000000008ED10
:2B28D100020000000000000000000000000000000000000000000000000000000000000000000000000000000080E575
:2B28FC00040000000000000000000000000000000000000000000000000000000000000000000000000000000080E34A
:2B292700020000000000000000000000000000200000080000000000000000000000000000000000000008002000C76C
:2B295200020000000000000000000000000000000000000000000000000000000000000000000000000000000080E5F3
:2B297D00020000000000000000000000000000000000000000000000000000000000000000000000000000000008ED38
:2B29A800800008800008800008800008800008800008000000000020000220000220000220000220000220000280E7A1
:2B29D300800008800008800008800008800008800008000000000020000220000220000220000220000220000280E776
:2B29FE00000000000000000000000000000000000000000000000000000000000000000000000000000000000E00811F
:2B2A2900020000000000000000000000000000000086000000000000000000000000000000000000000000800708F279
:2B2A5400000000000000000000000000000000000000080000000000000000000000000000000000000000000008E760
:2B2A7F00000000000000000000000000000000000004000000000000000000000000000000000000000000000794810C
:2B2AAA000000000000000000000000000000000000000400000000000000000000000000000000000000000006088D62
:2B2AD500000000000000000000000000000000000020000000000000000000000000000000000000000000008608A385
:2B2B0000020000000000000000000000000000000000080000000000000000000000000000000000000000000608830F
:2B2B2B00000000000000000000000000000000000030000000000000000000000000000000000000000000000680B217
:2B2B5600000000000000000000000000000000000000000000000000000000000000000000000000000000000080E7ED
:2B2B8100000000000000000000000000000000000000000000000000000000000000000000000000000000801100FF99
:2B2BAC00020000000000000000000000000000000000000000000000000000000000000000000000000000001008ECF8
:2B2BD700000000000000000000000000000000000000000000000000000000000000000000000000000000000900F6D4
:2B2C0200000000000000000000000000000000000000000000000000000000000000000000000000000000000080E740
:2B2C2D00000000000000000000000000000000000000000000000000000000000000000000000000000000002080E5F7
:2B2C5800000000000000000000000000000000000000000000000000000000000000000000000000000000000080E7EA
:2B2C83000200000000000000000000000000000000000000000000000000000000000000000000000000000006088B8B
:2B2CAE00000000000000000000000000000000000000080000000000000000000000000000000000000000001080EE75
:2B2CD9000000000000000000000000000000000000060000000000000000000000000000000000000000008001009EAB
:2B2D0400000000000000000000000000000000000040000000000000000000000000000000000000000000000082835F
:2B2D2F00020000000000000000000000000000000004000000000000000000000000000000000000000000000108BCAE
:2B2D5A00020000000000000000000000000000000000040000000000000000000000000000000000000000000008E957
:2B2D8500040000000000000000000000000000000020000000000000000000000000000000000000000000002090D27D
:2B2DB000020000000000000000000000000000000000080000000000000000000000000000000000000000002008E7DF
:2B2DDB00020000000000000000000000000000000030000000000000000000000000000000000000000000000C889A6D
:2B2E0600020000000000000000000000000000000090000000000000000000000000000000000000000000000E089A5F
:2B2E31000000000000000000000000000000006006260000000000000000000000000000000000000000588207808306
:2B2E5C00000000000000000000000000000000004010000000000000000000000000000000000000000000200680B4A1
:2B2E8700000000000000000000000000000000400244000000000000000000000000000000000000000050000784E3DC
:2B2EB200020000000000000000000000000000008050000000000000000000000000000000000000000000100008A06B
:2B2EDD000200000000000000000000000000000002180000000000000000000000000000000000000000C0008680F4F4
:2B2F0800040000000000000000000000000000000010010000000000000000000000000000000000000000000680956E
:2B2F33000200000000000000000000000000008001000000000000000000000000000000000000000000E0010680FD8C
:2B2F5E00020000000000000000000000000000000238000000000000000000000000000000000000000000002000FEEE
:2B2F8900020000000000000000000000000000E0011E000000000000000000000000000000000000000000800188F41F
:2B2FB400000000000000000000000000000000000018000000000000000000000000000000000000000000001400BB0B
:2B2FDF00000000000000000000000000000000400005100000000000000000000000000000000000000000000900F673
:2B300A00000000000000000000000000000000000018000000000000000000000000000000000000000000000000FE85
:2B303500020000000000000000000000000000002018020000000000000000000000000000000000000000002088F696
:2B30600002000000000000000000000000000000001800000000000000000000000000000000000000000000468896C7
:2B308B000400000000000000000000000000000000180000000000000000000000000000000000000000000006108D5B
:2B30B6000200000000000000000000000000000004200000000000000000000000000000000000000000C00004888BF2
:2B30E100020000000000000000000000000000600306000000000000000000000000000000000000000018802988DC34
:2B310C0002000000000000000000000000000000000100000000000000000000000000000000000000000000040A99EE
:2B313700000000000000000000000000000000400104100000000000000000000000000000000000000010080180EE91
:2B316200000000000000000000000000000000000400000000000000000000000000000000000000000000002480E5B5
:2B318D00000000000000000000000000000000000100020000000000000000000000000000000000000000400800B418
:2B31B800020000000000000000000000000000801100000000000000000000000000000000000000000000044488B1D8
:2B31E3000000000000000000000000000000000001180000000000000000000000000000000000000000000006008919
:2B320E00000000000000000000000000000000000040000000000000000000000000000000000000000040010800E626
:2B3239000000000000000000000000000000006004260000000000000000000000000000000000000000D8800700A3DE
:2B326400000000000000000000000000000000000000000000000000000000000000000000000000000040200680E574
:2B328F0002000000000000000000000000000040205400000000000000000000000000000000000000005000070CD823
:2B32BA00000000000000000000000000000000000080000000000000000000000000000000000000000040100600D53E
:2B32E5000000000000000000000000000000000000180000000000000000000000000000000000000000C0008680D40C
:2B331000000000000000000000000000000000800100010000000000000000000000000000000000000040000600DDED
:2B333B00020000000000000000000000000000800110000000000000000000000000000000000000000060010688E401
:2B336600000000000000000000000000800338000100000000000000000000000000000000000000000880001080F771
:2B33910000000000000000000000000060001E600846000000000000000000000000000000000000800118800980A3A0
:2B33BC0000000000000000000000000080011800014100000000000000000000000000000000000000060400208086DB
:2B33E700000000000000000000000000C0011D50001C000000000000000000000000000000000000000510080980A328
:2B341200020000000000000000000000800118008100080000000000000000000000000000000000000000000008FC67
:2B343D00000000000000000000000000802100020000000000000000000000000000000000000000008040402000F0B1
:2B346800000000000000000000000000000018801100000000000000000000000000000000000000000200040080C04A
:2B349300000000000000000000000000800118800100000000000000000000000000000000000000000604000600BE26
:2B34BE00000000000000000000000000000000000000000000000000000000000000000000000000000000000080E77C
:2B34E900000000000000000000000000000000000000000000000000000000000000000000000000000000000080E751
:2B351400800008800008800008800008800008800008000000000020000220000220000220000220000220000280E729
:2B353F00800008800008800008800008800008800008000000000020000220000220000220000220000220000280E7FE
:2B356A00000000000000000000000000200002C0008002000000000000000000000000000000000080000000A104FEAF
:2B359500000000000000000000000000000000000010000000000000000000000000000000000000000000000080F685
:2B35C000000000000000000000000000000000000000000000000000000000000000000000000000000000000080E779
:2B35EB00000000000000000000000000000000000000000000000000000000000000000000000000000000000080E74E
:2B361600000000000000000000000000200002400090000000000000000000000000000000000000800000002184ED85
:2B364100000000000000000000000000400005500005100000000000000000000000000000000000000114400184B624
:2B366C00000000000000000000000000000000000001000000000000000000000000000000000000000004000080B7F7
:2B369700000000000000000000000000000000000000000000000000000000000000000000000000000000000080E7A1
:2B36C200000000000000000000000000000000000880000000000000000000000000000000000000000000020080E5EE
:2B36ED000800000000000000000000000000000000000000000000000000000000000000000000000000000000A0CD3D
:2B371800000000000000000000000000000000006000060000000000000000000000000000000000000000088080E731
:2B374300000000000000000000000000000000000000000000000000000000000000000000000000000000000080E7F4
:2B376E00000000000000000000000000000000000000000000000000000000000000000000000000000000000080E7C9
:2B379900000000000000000000000000000000000000000000000000000000000000000000000000000000000080E79E
:2B37C4000800000000000000000000000000000000000000000000000000000000000000000000000000000000A0CD65
:2B37EF00100000000000000000000000000000000000000000000000000000000000000000000000000000000080F728
:2B381A00000000000000000000000000000000000000000000000000000000000000000000000000000000000080E71C
:2B384500000000000000000000000000000000000000000000000000000000000000000000000000000000000080E7F1
:2B387000000000000000000000000000000000000000000000000000000000000000000000000000000000000080E7C6
:2B389B00000000000000000000000000000000000000000000000000000000000000000000000000000000000080E79B
:2B38C600000000000000000000000000000000000020020000000000000000000000000000000000000000000080C76E
:2B38F100000000000000000000000000000000000000000000000000000000000000000000000000000000000080E745
:2B391C00000000000000000000000000000000000000000000000000000000000000000000000000000000000080E719
:2B394700401004411004411004411004411004411084030000000010044110044110044110044110044110044100E5F2
:2B397200601886611886611886611886611886611886050000000018866118866118866118866118866118866180E3CF
:02399D00FFFF2A
:00000001FF
