:020000040000FA
:2B000000FFFF62FF2500FFFFFFFFFFFFFFFFFFFFFFFFFFFFFFFFFFFFFFFFFFFFFFFFFFFFFFFFFFFFFFFFFFFFFFFFFF76
:2B002B00601886611886611886611886611886611886010000000018866118BCC11D0677708761188661188661808725
:2B0056004010044110044110044110044110044110040100000000100441100AA110844228044110044110044180E71D
:2B008100000000000000000000000000000000000000000000000000000000000000000000000000000000000080E7ED
:2B00AC00000000000000000000000000000000000000000000000000000000000000000000000000000000000080E7C2
:2B00D700000000000000000000000000000000000000000000000000000000000000000000000000000000000080E797
:2B010200000000000000000000000000000000000000000000000000000000000000000000000000000000000080E76B
:2B012D00000000000000000000000000000000000000000000000000000000000000000000000000000200000080C560
:2B015800000000000000000000000000000000000000000000000000000000000000000000000000000000000080E715
:2B018300000000000000000000000000000000000000000000000000000000000000000000000000000000100080F7CA
:2B01AE00000000000000000000000000000000000000000000000000000000000000000000000000008000000080EF37
:2B01D900000000000000000000000000000000000000000000000000000000000000000000000000000002000080C7B2
:2B020400000000000000000000000000000000000000000000000000000000000000000000000000000000000080E768
:2B022F00000000000000000000000000000000000000000000000000000000000000000000000000000000000080E73D
:2B025A00000000000000000000000000000000000000000000000000000000000000000000000000000000000080E712
:2B028500000000000000000000000000000000000000000000000000000000000000000000000000002000000080E5C9
:2B02B000000000000000000000000000000000000000000000000000000000000000000000000000000040000080A3C0
:2B02DB00080000000000000000000000000000000000000000000000000000000000000000000000000000000080EF81
:2B030600000000000000000000000000000000000000000000000000000000000000000000000000000000000008EFD5
:2B033100000000000000000000000000000000000000000000000000000000000000000000000000000000010080E63A
:2B035C00000000000000000000000000000000000000000000000000000000000000000000000000000C00000000A3C7
:2B038700000000000000000000000000000000000000000000000000000000202000800008000000000001000080D52D
:2B03B200020000000000000000000000000000000000000000000000000000000000800008000000000000000208CFBD
:2B03DD00000000000000000000000000000000000000000000000000000000000000000000000000000000000080E78E
:2B040800000000000000000000000000000000000000000000000000000000202000000000000000000001000080D533
:2B043300000000000000000000000000000000000000000000000000000000000000000000000000000000000280C557
:2B045E00000000000000000000000000000000000000000000000000000000000000000000000000000000000080E70C
:2B048900020000000000000000000000000000000000000000000000000000000000000000000000000000000008ED51
:2B04B400800008800008800008800008800008800008000000000020000220000220000220000220000220000280E7BA
:2B04DF00800008800008800008800008800008800008000000000020000220000220000220000220000220000280E78F
:2B050A00000000000000000000000000000000000000000000000000000000000000000000000000000001100080E74E
:2B053500000000000000000000000000000000000000000000000000000000000000000000000000800998000080E713
:2B0560000200000000000000000000000000000000000000000000000000000000000000000000000006E0000088ED13
:2B058B00020000000000000000000000000000000000000000000000000000000000000000000000004770000008E99B
:2B05B600020000000000000000000000000000000000000000000000000000000000000000000000000000200008CD23
:2B05E100020000000000000000000000000000000000000000000000000000000000000000000000000E64000088AD46
:2B060C00000000000000000000000000000000000000000000000000000000000000000000000000000000000080E75C
:2B063700000000000000000000000000000000000000000000000000000000000000000000000000000660000080E7CB
:2B066200000000000000000000000000000000000000000000000000000000000000000000000000000000000080E706
:2B068D00000000000000000000000000000000000000000000000000000000000000000000000000000000000080E7DB
:2B06B800020000000000000000000000000000000000000000000000000000000000000000000000000000000008ED20
:2B06E300000000000000000000000000000000000000000000000000000000000000000000000000000000000080E785
:2B070E00000000000000000000000000000000000000000000000000000000000000000000000000000000000080E759
:2B073900000000000000000000000000000000000000000000000000000000000000000000000000000000000080E72E
:2B076400000000000000000000000000000000000000000000000000000000000000000000000000000000000080E703
:2B078F00020000000000000000000000000000000000000000000000000000000000000000000000000000000008ED48
:2B07BA00000000000000000000000000000000000000000000000000000000000000000000000000000000000080E7AD
:2B07E500000000000000000000000000000000000000000000000000000000000000000000000000000000000080E782
:2B081000000000000000000000000000000000000000000000000000000000000000000000000000000000000080E756
:2B083B00000000000000000000000000000000000000000000000000000000000000000000000000000000000080E72B
:2B086600020000000000000000000000000000000000000000000000000000000000000000000000000000000008ED70
:2B089100020000000000000000000000000000000000000000000000000000000000000000000000000000000008ED45
:2B08BC00020000000000000000000000000000000000000000000000000000000000000000000000000000000008ED1A
:2B08E700020000000000000000000000000000000000000000000000000000000000000000000000000000000008EDEF
:2B091200000000000000000000000000000000000000000000000000000000000000000000000000000000000080E753
:2B093D00000000000000000000000000000000000000000000000000000000000000000000000000000000000080E728
:2B096800000000000000000000000000000000000000000000000000000000000000000000000000000000000080E7FD
:2B099300000000000000000000000000000000000000000000000000000000000000000000000000000000000080E7D2
:2B09BE00020000000000000000000000000000000000000000000000000000000000000000000000000000000008ED17
:2B09E900020000000000000000000000000000000000000000000000000000000000000000000000000000000080E57C
:2B0A1400040000000000000000000000000000000000000000000000000000000000000000000000000000000080E350
:2B0A3F00020000000000000000000000000000000000000000000000000000000000000000000000000000000080E525
:2B0A6A00020000000000000000000000000020000000000000000000000000000000000000000000000001000080D7E7
:2B0A9500020000000000000000000000000026000026100000000000000000000000000000000000800900000008E463
:2B0AC00000000000000000000000000000000000001810000000000000000000000000000000000000860000000080DD
:2B0AEB0000000000000000000000000000000400003C000000000000000000000000000000000000000700000000ABEE
:2B0B1600000000000000000000000000000018000018000000000000000000000000000000000000000000000080E71D
:2B0B4100000000000000000000000000000018000018000000000000000000000000000000000000004E000000008586
:2B0B6C00020000000000000000000000000018000018000000000000000000000000000000000000000000000008ED37
:2B0B97000200000000000000000000000000180000180000000000000000000000000000000000000006000000088B68
:2B0BC200020000000000000000000000000000000000000000000000000000000000000000000000000000100008FDF1
:2B0BED00020000000000000000000000000000000000000000000000000000000000000000000000000098000008F447
:2B0C18000000000000000000000000000000000000000000000000000000000000000000000000000000600000808150
:2B0C43000000000000000000000000000000000000000000000000000000000000000000000000000000F008000098F6
:2B0C6E00000000000000000000000000000000000000000000000000000000000000000000000000000000040080E3F4
:2B0C990000000000000000000000000000000000000000000000000000000000000000000000000000006000008081CF
:2B0CC400020000000000000000000000000000000000000000000000000000000000000000000000000000000008ED0E
:2B0CEF000000000000000000000000000000000000000000000000000000000000000000000000000000600000808179
:2B0D1A00000000000000000000000000000000000000000000000000000000000000000000000000000001100080E736
:2B0D4500000000000000000000000000000000000000000000000000000000000000000000000000800998000080E7FB
:2B0D7000000000000000000000000000000000000000000000000000000000000000000000000000000664000080A7C7
:2B0D9B00020000000000000000000000000000000000000000000000000000000000000000000000000F70400088AD37
:2B0DC600000000000000000000000000000000000000000000000000000000000000000000000000000000000080E79B
:2B0DF100000000000000000000000000000000000000000000000000000000000000000000000000000EE1200080D771
:2B0E1C00000000000000000000000000000000000000000000000000000000000000000000000000000000000080E744
:2B0E4700020000000000000000000000000000000000000000000000000000000000000000000000000660000080E5B3
:2B0E7200020000000000000000000000000000000000000000000000000000000000000000000000000001100008ED4D
:2B0E9D0004000000000000000000000000000000003E100000000000000000000000000000000000800998000088A08F
:2B0EC800020000000000000000000000000000000000100000000000000000000000000000000000004660040008FD3E
:2B0EF3000200000000000000000000000000000000240000000000000000000000000000000000000007F00000888FA0
:2B0F1E00020000000000000000000000000000000018000000000000000000000000000000000000000002000000DCB0
:2B0F49000000000000000000000000000000000000780000000000000000000000000000000000000006600800009007
:2B0F7400000000000000000000000000000000000018000000000000000000000000000000000000000000000000FE3C
:2B0F9F000200000000000000000000000000000000180000000000000000000000000000000000000006600000A8D629
:2B0FCA001A00000000000000000000000000000000000000000000000000000000000000000000000000000000A0DF63
:2B0FF500000000000000000000000000000000000000000000000000000000000000000000000000000000000080E76A
:2B102000800008800008800008800008800008800008000000000020000220000220000220000220000220000280E742
:2B104B00800008800008800008800008800008800008000000000020000220000220000220000220000220000280E717
:2B1076000000000000000000000000000000000000020800000000000000000000000000000000400000000080819371
:2B10A100000000000000000000000000000000040000000000000000000000000000000000000000000000000081F3AC
:2B10CC00000000000000000000000000000000000000000000000000000000000000000000000040000001000080B385
:2B10F700000000000000000000000000000000000000000000000000000000000000000000000002000220000080C763
:2B112200000000000000000000000000000000040002080000000000000000000000000000000002000000008081F39E
:2B114D00000000000000000000000000000000000000000000000000000000000000000000000000000490400000F2B1
:2B117800000000000000000000000000000000000000000000000000000000000000000000000000000022000080E5C5
:2B11A300000000000000000000000000000000000000080000000000000000000000000000000000000000000080EFAA
:2B11CE00000000000000000000000000000004000000080000000000000000000000000000000000000000000080AFBB
:2B11F900120000000000000000000000000000000000000000000000000000000000000000000000000000000080F544
:2B122400000000000000000000000000000000000000000000000000000000000000000000000000000000000080E738
:2B124F00020000000000000000000000000000000000000000000000000000000000000000000000000000000080E50D
:2B127A00000000000000000000000000000000000000000000000000000000000000000000000000000000000080E7E2
:2B12A500000000000000000000000000000000000000000000000000000000000000000000000000000000000080E7B7
:2B12D000100000000000000000000000000000000000000000000000000000000000000000000000000000000080F76C
:2B12FB00000000000000000000000000000000000000000000000000000000000000000000000000000000000080E761
:2B132600000000000000000000000000000000000000000000000000000000000000000000000000000000080080EF25
:2B135100000000000000000000000000000000000000000000000000000000000000000000000000000000000080E70A
:2B137C00000000000000000000000000000000000000000000000000000000000000000000000000002000020080E7BD
:2B13A700000000000000000000000000000000000000000000000000000000000000000000000000000000000080E7B4
:2B13D2000000000000000000000000000000000000000000000000000000000000000000000000000000000000C0A38D
:2B13FD00000000000000000000000000000000000000000000000000000000000000000000000000000000000080E75E
:2B142800000000000000000000000000000000000000000000000000000000000000000000000000000000000080E732
:2B145300000000000000000000000000000000000000000000000000000000000000000000000000000000000090F6E8
:2B147E00000000000000000000000000000000000000000000000000000000000000000000000000000000000080E7DC
:2B14A900000000000000000000000000000000000000000000000000000000000000000000000000000000000080E7B1
:2B14D400000000000000000000000000000000000000000000000000000000000000000000000000000000000080E786
:2B14FF00000000000000000000000000000000000000000000000000000000000000000000000000000000000080E75B
:2B152A000000000000000000000000000000000000000000000000000000000000000000000000000000000000D0B214
:2B155500000000000000000000000000000000000000000000000000000000000000000000000000000000000080E704
:2B158000000000000000000000000000000000000000000000000000000000000000000000000000000000000080E7D9
:2B15AB00000000000000000000000000000000000000000000000000000000000000000000000000000000000080E7AE
:2B15D600000000000000000000000000000000000000000000000000000000000000000000000000000000000080E783
:2B160100000000000000000000000000000000000000000000000000000000000000000000000000000000000802C7ED
:2B162C00020000000000000000000000000000000000000000000000000000000000000000000000000000000008ED9C
:2B165700000000000000000000000000000000000000000000000000000000000000000000000000000000000008EF71
:2B168200000000000000000000000000000000000000000000000000000000000000000000000000000000000812D64D
:2B16AD00000000000000000000000000000000000000000000000000000000000000000000000000000000000008EF1B
:2B16D800000000000000000000000000000000000000000000000000000000000000000000000000000000000008EFF0
:2B170300020000000000000000000000000000000000000000000000000000000000000000000000000000000008EDC4
:2B172E00800008800008800008800008800008800008000000000020000220000220000220000220000220000280E72D
:2B175900800008800008800008800008800008800008000000000020000220000220000220000220000220000280E702
:2B178400000000000000000000000000000000000000000000000000000000000000000000000000000000000080E7D3
:2B17AF00020000000000000000000000000000000000000000000000000000000000000000000000000000000008ED18
:2B17DA00000000000000000000000000000000000000000000000000000000000000000000000000000000000080E77D
:2B180500000000000000000000000000000000000000000000000000000000000000000000000000000000000080E751
:2B183000000000000000000000000000000000000000000000000000000000000000000000000000000000000080E726
:2B185B00000000000000000000000000000000000000000000000000000000000000000000000000000000000080E7FB
:2B188600020000000000000000000000000000000000000000000000000000000000000000000000000000000008ED40
:2B18B100000000000000000000000000000000000000000000000000000000000000000000000000000000000080E7A5
:2B18DC00000000000000000000000000000000000000000000000000000000000000000000000000000000000080E77A
:2B190700000000000000000000000000000000000000000000000000000000000000000000000000000000000080E74E
:2B193200020000000000000000000000000000000000000000000000000000000000000000000000000000000008ED93
:2B195D00000000000000000000000000000000000000000000000000000000000000000000000000000000000008EF68
:2B198800000000000000000000000000000000000000000000000000000000000000000000000000000000000090F6AE
:2B19B300000000000000000000000000000000000000000000000000000000000000000000000000000000000008EF12
:2B19DE00000000000000000000000000000000000000000000000000000000000000000000000000000000000008EFE7
:2B1A0900020000000000000000000000000000000000000000000000000000000000000000000000000000000008EDBB
:2B1A3400000000000000000000000000000000000000000000000000000000000000000000000000000000000080E720
:2B1A5F00000000000000000000000000000000000000000000000000000000000000000000000000000000000080E7F5
:2B1A8A00000000000000000000000000000000000000000000000000000000000000000000000000000000000080E7CA
:2B1AB500020000000000000000000000000000000000000000000000000000000000000000000000000000000008ED0F
:2B1AE000000000000000000000000000000000000000000000000000000000000000000000000000000000000080E774
:2B1B0B00000000000000000000000000000000000000000000000000000000000000000000000000000000000080E748
:2B1B3600000000000000000000000000000000000000000000000000000000000000000000000000000000000080E71D
:2B1B6100000000000000000000000000000000000000000000000000000000000000000000000000000000000080E7F2
:2B1B8C00020000000000000000000000000000000000000000000000000000000000000000000000000000000008ED37
:2B1BB700000000000000000000000000000000000000000000000000000000000000000000000000000000000080E79C
:2B1BE200000000000000000000000000000000000000000000000000000000000000000000000000000000000080E771
:2B1C0D00000000000000000000000000000000000000000000000000000000000000000000000000000000000080E745
:2B1C3800020000000000000000000000000000000000000000000000000000000000000000000000000000000008ED8A
:2B1C6300000000000000000000000000000000000000000000000000000000000000000000000000000000000008EF5F
:2B1C8E00000000000000000000000000000000000000000000000000000000000000000000000000000000000090F6A5
:2B1CB900000000000000000000000000000000000000000000000000000000000000000000000000000000000008EF09
:2B1CE400000000000000000000000000000000000000000000000000000000000000000000000000000000000008EFDE
:2B1D0F00020000000000000000000000000000000000000000000000000000000000000000000000000000000008EDB2
:2B1D3A00000000000000000000000000000000000000000000000000000000000000000000000000000000000080E717
:2B1D6500000000000000000000000000000000000000000000000000000000000000000000000000000000000080E7EC
:2B1D9000000000000000000000000000000000000000000000000000000000000000000000000000000000000080E7C1
:2B1DBB00020000000000000000000000000000000000000000000000000000000000000000000000000000000008ED06
:2B1DE600000000000000000000000000000000000000000000000000000000000000000000000000000000000080E76B
:2B1E1100000000000000000000000000000000000000000000000000000000000000000000000000000000000080E73F
:2B1E3C00000000000000000000000000000000000000000000000000000000000000000000000000000000000080E714
:2B1E6700000000000000000000000000000000000000000000000000000000000000000000000000000000000080E7E9
:2B1E9200020000000000000000000000000000000000000000000000000000000000000000000000000000000008ED2E
:2B1EBD00000000000000000000000000000000000000000000000000000000000000000000000000000000000080E793
:2B1EE800000000000000000000000000000000000000000000000000000000000000000000000000000000000080E768
:2B1F1300000000000000000000000000000000000000000000000000000000000000000000000000000000000080E73C
:2B1F3E00020000000000000000000000000000000000000000000000000000000000000000000000000000000008ED81
:2B1F6900000000000000000000000000000000000000000000000000000000000000000000000000000000000008EF56
:2B1F9400000000000000000000000000000000000000000000000000000000000000000000000000000000000090F69C
:2B1FBF00000000000000000000000000000000000000000000000000000000000000000000000000000000000008EF00
:2B1FEA00000000000000000000000000000000000000000000000000000000000000000000000000000000000008EFD5
:2B201500020000000000000000000000000000000000000000000000000000000000000000000000000000000008EDA9
:2B204000000000000000000000000000000000000000000000000000000000000000000000000000000000000080E70E
:2B206B00000000000000000000000000000000000000000000000000000000000000000000000000000000000080E7E3
:2B209600000000000000000000000000000000000000000000000000000000000000000000000000000000000080E7B8
:2B20C100020000000000000000000000000000000000000000000000000000000000000000000000000000000008EDFD
:2B20EC00000000000000000000000000000000000000000000000000000000000000000000000000000000000080E762
:2B211700000000000000000000000000000000000000000000000000000000000000000000000000000000000080E736
:2B214200000000000000000000000000000000000000000000000000000000000000000000000000000000000080E70B
:2B216D00000000000000000000000000000000000000000000000000000000000000000000000000000000000080E7E0
:2B219800020000000000000000000000000000000000000000000000000000000000000000000000000000000008ED25
:2B21C300000000000000000000000000000000000000000000000000000000000000000000000000000000000080E78A
:2B21EE00000000000000000000000000000000000000000000000000000000000000000000000000000000000080E75F
:2B221900000000000000000000000000000000000000000000000000000000000000000000000000000000000080E733
:2B224400000000000000000000000000000000000000000000000000000000000000000000000000000000000080E708
:2B226F00000000000000000000000000000000000000000000000000000000000000000000000000000000000080E7DD
:2B229A00800008800008800008800008800008800008000000000020000220000220000220000220000220000280E7B6
:2B22C500800008800008800008800008800008800008000000000020000220000220000220000220000220000280E78B
:2B22F000000000000000000000000000000000000000000000000000000000000000000000000000000000000080E75C
:2B231B00000000000000000000000000000000000000000000000000000000000000000000000000000000000802C7C6
:2B234600000000000000000000000000000000000000000000000000000000000000000000000000000000000080E705
:2B237100000000000000000000000000000000000000000000000000000000000000000000000000000000000080E7DA
:2B239C00000000000000000000000000000000000000000000000000000000000000000000000000000000000802C745
:2B23C700000000000000000000000000000000000000000000000000000000000000000000000000000000000080E784
:2B23F200000000000000000000000000000000000000000000000000000000000000000000000000000000000080E759
:2B241D00000000000000000000000000000000000000000000000000000000000000000000000000000000000080E72D
:2B244800000000000000000000000000000000000000000000000000000000000000000000000000000000000080E702
:2B2473000000000000000000000000000000000000000000000000000000000000000000000000000000000000D0B2BC
:2B249E00000000000000000000000000000000000000000000000000000000000000000000000000000000000080E7AC
:2B24C900000000000000000000000000000000000000000000000000000000000000000000000000000000000080E781
:2B24F400000000000000000000000000000000000000000000000000000000000000000000000000000000000080E756
:2B251F00000000000000000000000000000000000000000000000000000000000000000000000000000000000080E72A
:2B254A000000000000000000000000000000000000000000000000000000000000000000000000000000000000D0B2E4
:2B257500000000000000000000000000000000000000000000000000000000000000000000000000000000000080E7D4
:2B25A000000000000000000000000000000000000000000000000000000000000000000000000000000000000080E7A9
:2B25CB00000000000000000000000000000000000000000000000000000000000000000000000000000000000080E77E
:2B25F600000000000000000000000000000000000000000000000000000000000000000000000000000000000080E753
:2B262100000000000000000000000000000000000000000000000000000000000000000000000000000000000080E727
:2B264C00000000000000000000000000000000000000000000000000000000000000000000000000000000000080E7FC
:2B267700000000000000000000000000000000000000000000000000000000000000000000000000000000000080E7D1
:2B26A200000000000000000000000000000000000000000000000000000000000000000000000000000000000008EF16
:2B26CD000000000000000000000000000000000000000000000000000000000000000000000000000000000000A0C57D
:2B26F800000000000000000000000000000000000000000000000000000000000000000000000000000000000080E750
:2B272300000000000000000000000000000000000000000000000000000000000000000000000000000000000080E724
:2B274E00000000000000000000000000000000000000000000000000000000000000000000000000000000000080E7F9
:2B277900120000000000000000000000000000000000000000000000000000000000000000000000000000000080F5AE
:2B27A4001000000000000000000000000000000000000000000000000000000000000000000000000000000000A0D585
:2B27CF00000000000000000000000000000000000000000000000000000000000000000000000000000000000080E778
:2B27FA00000000000000000000000000000000000000000000000000000000000000000000000000000000000080E74D
:2B282500000000000000000000000000000000000000000000000000000000000000000000000000000000000080E721
:2B285000000000000000000000000000000000000000000000000000000000000000000000000000000000000080E7F6
:2B287B00000000000000000000000000000000000000000000000000000000000000000000000000000004802501E8A0
:2B28A600020000000000000000000000000000000000000000000000000000000000000000000000000000000008ED10
:2B28D100020000000000000000000000000000000000000000000000000000000000000000000000000004800000ADA9
:2B28FC00040000000000000000000000000000000000000000000000000000000000000000000000000000000481B771
:2B292700020000000000000000000000000000000000000000000000000000000000000000000000000000002180F6EC
:2B295200020000000000000000000000000000000000000000000000000000000000000000000000000000000080E5F3
:2B297D00020000000000000000000000000000000000000000000000000000000000000000000000000000000008ED38
:2B29A800800008800008800008800008800008800008000000000020000220000220000220000220000220000280E7A1
:2B29D300800008800008800008800008800008800008000000000020000220000220000220000220000220000280E776
:2B29FE00000000000000000000000000000000000000000000000000000000000000000000000000000000000480A387
:2B2A2900020000000000000000000000000000000000000000000000000000000000000000000000000000800588B0C3
:2B2A5400000000000000000000000000000000000000000000000000000000000000000000000000000000800488A3A8
:2B2A7F00000000000000000000000000000000000000000000000000000000000000000000000000000000000590A3F4
:2B2AAA00000000000000000000000000000000000000000000000000000000000000000000000000000000800488A352
:2B2AD500000000000000000000000000000000000000000000000000000000000000000000000000000000800488A327
:2B2B0000020000000000000000000000000000000000000000000000000000000000000000000000000000000408A9F3
:2B2B2B00000000000000000000000000000000000000000000000000000000000000000000000000000000000C04E38C
:2B2B5600000000000000000000000000000000000000000000000000000000000000000000000000000000000480A32D
:2B2B8100000000000000000000000000000000000000000000000000000000000000000000000000000000800500BAEA
:2B2BAC00020000000000000000000000000000000000000000000000000000000000000000000000000000800488A14F
:2B2BD700000000000000000000000000000000000000000000000000000000000000000000000000000000000580B29C
:2B2C0200000000000000000000000000000000000000000000000000000000000000000000000000000000800400AB78
:2B2C2D00000000000000000000000000000000000000000000000000000000000000000000000000000000800400AB4D
:2B2C5800000000000000000000000000000000000000000000000000000000000000000000000000000000000480A32A
:2B2C8300020000000000000000000000000000000000000000000000000000000000000000000000000000000C8A8905
:2B2CAE00000000000000000000000000000000000000000000000000000000000000000000000000000000000480A3D4
:2B2CD900000000000000000000000000000000000000000000000000000000000000000000000000000000800500BA91
:2B2D0400000000000000000000000000000000000000000000000000000000000000000000000000000000800400AB75
:2B2D2F00020000000000000000000000000000000000000000000000000000000000000000000000000000000508B8B2
:2B2D5A00020000000000000000000000000000000000000000000000000000000000000000000000000000800488A19F
:2B2D8500040000000000000000000000000000000000000000000000000000000000000000000000000000800410BECD
:2B2DB00002000000000000000000000000000000000000000000000000000000000000000000000000000000040CE9FD
:2B2DDB00020000000000000000000000000000000000000000000000000000000000000000000000000000000C88A98E
:2B2E0600020000000000000000000000000000000000000000000000000000000000000000000000000000000408A9EA
:2B2E3100000000000000000000000000000000000000000000000000000000000000000000000000000000800500BA37
:2B2E5C00000000000000000000000000000000000000000000000000000000000000000000000000000000800400AB1C
:2B2E8700000000000000000000000000000000000000000000000000000000000000000000000000000000000580B2E9
:2B2EB200020000000000000000000000000000000000000000000000000000000000000000000000000000800488A146
:2B2EDD00020000000000000000000000000000000000000000000000000000000000000000000000000000800400A99B
:2B2F0800040000000000000000000000000000000000000000000000000000000000000000000000000000000C00A7E7
:2B2F3300020000000000000000000000000000000000000000000000000000000000000000000000000000000480A14C
:2B2F5E00020000000000000000000000000000000000000000000000000000000000000000000000000000000480A121
:2B2F8900020000000000000000000000000000000000000000000000000000000000000000000000000000800588B05E
:2B2FB400000000000000000000000000000000000000000000000000000000000000000000000000000000800400ABC3
:2B2FDF00000000000000000000000000000000000000000000000000000000000000000000000000000000000580B290
:2B300A00000000000000000000000000000000000000000000000000000000000000000000000000000000800400AB6C
:2B303500020000000000000000000000000000000000000000000000000000000000000000000000000000800488A1C1
:2B306000000000000000000000000000000000000000000000000000000000000000000000000000000000000408AB8E
:2B308B00000000000000000000000000000000000000000000000000000000000000000000000000000000004C10B608
:2B30B600000000000000000000000000000000000000000000000000000000000000000000000000000000000408AB38
:2B30E100000000000000000000000000000000000000000000000000000000000000000000000000000000800588B205
:2B310C00020000000000000000000000000000000000000000000000000000000000000000000000000000800488A1E9
:2B313700000000000000000000000000000000000000000000000000000000000000000000000000000000000580B236
:2B316200000000000000000000000000000000000000000000000000000000000000000000000000000000800400AB13
:2B318D00000000000000000000000000000000000000000000000000000000000000000000000000000000800400ABE8
:2B31B800020000000000000000000000000000000000000000000000000000000000000000000000000000000408A935
:2B31E300000000000000000000000000000000000000000000000000000000000000000000000000000000000484E356
:2B320E00000000000000000000000000000000000000000000000000000000000000000000000000000000000480A36E
:2B323900000000000000000000000000000000000000000000000000000000000000000000000000000000800500BA2B
:2B326400000000000000000000000000000000000000000000000000000000000000000000000000000000800400AB10
:2B328F00020000000000000000000000000000000000000000000000000000000000000000000000000000000508B84D
:2B32BA00000000000000000000000000000000000000000000000000000000000000000000000000000000800400ABBA
:2B32E500000000000000000000000000000000000000000000000000000000000000000000000000000000800400AB8F
:2B331000000000000000000000000000000000000000000000000000000000000000000000000000000000000481B35A
:2B333B00020000000000000000000000000000000000000000000000000000000000000000000000000000000408A9B0
:2B336600020000000000000000000000000000002000000000000000000000000000000000000000000000000408AB63
:2B339100040000000000000000000000000000600200000000000000000000000000000000000000000000800510ED29
:2B33BC00020000000000000000000000000000000000000000000000000000000000000000000000000000800488A137
:2B33E700020000000000000000000000000000400000000000000000000000000000000000000000000000000508F874
:2B341200020000000000000000000000000000800100000000000000000000000000000000000000000000800408B8C8
:2B343D00000000000000000000000000000000800100000000000000000000000000000000000000000000800480B22D
:2B3468000000000000000000000000000000008001000000000000000000000000000000000000000000000004029A18
:2B349300100000000000000000000000000000800100000000000000000000000000000000000000000000000C08A2C7
:2B34BE00120000000000000000000000000000000000000000000000000000000000000000000000000000000081E56B
:2B34E900000000000000000000000000000000000000000000000000000000000000000000000000000000000800E7C9
:2B351400800008800008800008800008800008800008000000000020000220000220000220000220000220000080C54D
:2B353F00800008800008800008800008800008800008000000000020000220000220000220000220000220000280E7FE
:2B356A00000000000000000000000000000000200000000000000000000000000000000000000000000028002000EFDF
:2B359500000000000000000000000000000000000000000000000000000000000000000000000000000000000481B3D3
:2B35C000000000000000000000000000000000080000000000000000000000000000000000000008000800800000EF59
:2B35EB00000000000000000000000000000000000000000000000000000000000000000000000000002000020082C74A
:2B361600000000000000000000000000000000280000000000000000000000000000000000000008002808822483B14F
:2B364100000000000000000000000000000000000000000000000000000000000000000000000000000000000280C517
:2B366C00000000000000000000000000000000000000000000000000000000000000000000000000000000000080E7CC
:2B369700000000000000000000000000000000000000000000000000000000000000000000000000000000000080E7A1
:2B36C20000000000000000000000000000000000040000000000000000000000000000000000000000000000008283D4
:2B36ED001000000000000000000000000000000000000000000000000000000000000000000000000000000000A0D52D
:2B371800020000000000000000000000000000000000000000000000000000000000000000000000000000000009FD7E
:2B374300000000000000000000000000000000000000000000000000000000000000000000000000000000000080E7F4
:2B376E00000000000000000000000000000000000000000000000000000000000000000000000000000000000080E7C9
:2B379900000000000000000000000000000000000000000000000000000000000000000000000000000000000080E79E
:2B37C4000000000000000000000000000000000000000000000000000000000000000000000000000000000000A0C575
:2B37EF000000000000000000000000000000000000000000000000000000000000000000000000000000000001869692
:2B381A00000000000000000000000000000000000000000000000000000000000000000000000000000000004080E3E0
:2B384500100000000000000000000000000000000000000000000000000000000000000000000000000000000081E7E0
:2B387000000000000000000000000000000000000000000000000000000000000000000000000000000000002080E5A8
:2B389B00000000000000000000000000000000000000000000000000000000000000000000000008812224822001BCD4
:2B38C600000000000000000000000000000000000000000000000000000000000000000000000020008200088282ED3C
:2B38F100000000000000000000000000000000000000000000000000000000000000000000000000000000000080E745
:2B391C00000000000000000000000000000000000000000000000000000000000000000000000000000000000080E719
:2B39470040100441100441100441100441100441100401000000001004411004411004411004A13884E3108EE300C9BA
:2B39720060188661188661188661188661188661188601000000001886611886611886611886C15B876D1DD67503A971
:02399D00FFFF2A
:00000001FF
