:020000040000FA
:2B000000FFFF62FF2500FFFFFFFFFFFFFFFFFFFFFFFFFFFFFFFFFFFFFFFFFFFFFFFFFFFFFFFFFFFFFFFFFFFFFFFFFF76
:2B002B00601BD6611DD6611DD6611D8675180677199601000000001886751BD66118D66118866118866118866100A39F
:2B005600E0100EE1100EE1100EE11084431084E2100E01000000001084E3100E41100E4110044110044110044180EE94
:2B008100000000000000000000000000000000000000000000000000000000000000000000000000000000000080E7ED
:2B00AC00000000000000000000000000000000000000000000000000000000000000000000000000000000000080E7C2
:2B00D700800008800208800008800000020000800008000000000000008A04480000090000000000000000000080E417
:2B01020080000620000AA00002820010000000202008000000000000800000000000020000000000000000000080B4F0
:2B012D00040000000000000000000000000000000000000000000000000000000000000000000000000000000080E340
:2B015800000000000000000000000000000000001000000000000000000000000000000000000000000000000080E606
:2B018300000080000800000800000000000000000000000000000000000000000000000000000000000000000020C5DC
:2B01AE00100400004000000000000000000000000000000000000000000000000000000000000000000000000080B79B
:2B01D900080000000000000000000000000000000000000000000000000000000000000000000000000000000008E704
:2B020400000000000000000000000000000000000100000000000000000000000000000000000000000000000080F658
:2B022F00020000020000000000000000000000000000000000000000000000000000000000000000000000000080E739
:2B025A00000000000000000000000000000000000000000000000000000000000000000000000000000000000080E712
:2B028500000008000000080100000000000000000000000000000000000000000000000000000000000000000000F647
:2B02B000080000000000000100000000000000800000000000000000000000000000000000000000000000000000F6A4
:2B02DB00140000000000000000000000000000000000000000000000000000000000000000000000000000000080F371
:2B0306000010000000000000000000000000000000000000000000000000000000000000000000000000000000C0A25A
:2B033100000000000000000000000000000000000000000000000000000000000000000000000000000000000080E73A
:2B035C00000100000008000020000220000200000000000000000000000000000000000000000000000000000000FE2B
:2B0387004000100112210908102002A00800C0208080000000000000000104000000040000000000000000000080AFC4
:2B03B2000200088001000000002000000800000480100000000000000001011000400000000000000000000000089CE3
:2B03DD00020000000000000000000000000000000000000000000000000000000000000000000000000000000080E58E
:2B0408000400100013000008100000A00000C0040010000000000000000005100040040000000000000000000000A21B
:2B0433004200000300210B00100003000000002000800200000000000000000000000000000000000000000000009FD9
:2B045E00020000020000002000000000000000800000000000000000000000000000000000000000000000000000EDE2
:2B048900020020000000000200000000000000000000000000000000000000000000000000000000000000000008ED2F
:2B04B400800000800008000008800008800008000008000000000020000220000220000220000220000220000200EF3A
:2B04DF00800008800008800008800008800008800008000000000020000220000220000220000220000220000280E78F
:2B050A00000000000000040000000000000000000000000000000000000000000000000000000000000000000080E35F
:2B053500020000604226000000000000000000000000000000000000000000000000000000000000000000000008E9E0
:2B056000020000A0011A000000000000000000000000000000000000000000000000000000000000000000000008EDBE
:2B058B00040000C0813C080000000000000000000000000000000000000000000000000000000000000000000090D05C
:2B05B600020000200002020000000000000000000000000000000000000000000000000000000000000000000008EFFD
:2B05E100020000A0831A000000000000000000000000000000000000000000000000000000000000000000000008C7E1
:2B060C00020000000000000000000000000000000000000000000000000000000000000000000000000000000008EDCC
:2B063700000000800118000000000000000000000000000000000000000000000000000000000000000000000080E798
:2B066200000000000000000000000000000000000000000000000000000000000000000000000000000000000080E706
:2B068D00000000000000000000000000000000000000000000000000000000000000000000000000000000000080E7DB
:2B06B800020000000000000000000000000000000000000000000000000000000000000000000000000000000008ED20
:2B06E300020000000000000000000000000000000000000000000000000000000000000000000000000000000080E585
:2B070E00040000000000000000000000000000000000000000000000000000000000000000000000000000000080E359
:2B073900020000000000000000000000000000000000000000000000000000000000000000000000000000000080E52E
:2B076400020000000000000000000000000000000000000000000000000000000000000000000000000000000080E503
:2B078F00020000000000000000000000000000000000000000000000000000000000000000000000000000000008ED48
:2B07BA00004000000000040000000000020000001000000000000000000000000000000000000000000000000080E45A
:2B07E500E00126704226000000000006000000E00300000000000000000000000000000000000000000000000080F3AE
:2B08100020401AA0811A040000000098000000200000000000000000000000000000000000000000000000000000CF7D
:2B083B00C2031CC8031C000000000004000000C08100000000000000000000000000000000000000000000000088F409
:2B086600221002200002000000000018000000204000000000000000000000000000000000000000000000000088D140
:2B08910024001AB0131A100000000018080000200000000000000000000000000000000000000000000000000090F948
:2B08BC00820100000000000000000018000000800100000000000000000000000000000000000000000000000088F479
:2B08E700820118800118000000000018000000800100000000000000000000000000000000000000000000000008ED24
:2B091200024000000000000000000000000000001000000000000000000000000000000000000000000000000008E878
:2B093D00E00126644200604200000000000000E00300000000000000000000000000000000000000000000000080835A
:2B09680020101AA80100A00100000000000000208000000000000000000000000000000000000000000000000000DF51
:2B099300C0033CC02100C01100000000000000C003000000000000000000000000000000000000000000000000009F26
:2B09BE00220002200001201000000000000000200001000000000000000000000000000000000000000000000008CCA4
:2B09E90022421AA80100A00100000000000000200200000000000000000000000000000000000000000000000088D899
:2B0A1400840100000000000000000000000000800100000000000000000000000000000000000000000000000090F22F
:2B0A3F0082011C800100C00100000000000000800100000000000000000000000000000000000000000000000088F4AE
:2B0A6A00020000000000000000002000000000000100000000000000000000000000000000000000000000000008FE38
:2B0A9500020000000000000000600000000000600100000000000000000000000000000000000000000000000008FC6F
:2B0AC0000000000000000000008005000000002001000000000000000000000000000000000000000000000000008BDA
:2B0AEB00000000000000000000400000000000400100000000000000000000000000000000000000000000000080F6E9
:2B0B1600000000000000000000800100000000200100000000000000000000000000000000000000000000000000CF43
:2B0B4100020000000000000000808100000000200100000000000000000000000000000000000000000000000088CD10
:2B0B6C00020000000000000000800100000000004100000000000000000000000000000000000000000000000088E131
:2B0B9700040000000000000000800100000000400100000000000000000000000000000000000000000000000010BAA3
:2B0BC200024000000000000000000000000000000100000000000000000000000000000000000000000000000008F8C5
:2B0BED00E20126644200604200000000000000600100000000000000000000000000000000000000000000000088A300
:2B0C180022201AB00300A08100000000000000200100000000000000000000000000000000000000000000000088FDDB
:2B0C4300C0011CC00300C0010000000000000040010000000000000000000000000000000000000000000000008094D0
:2B0C6E00200202204000200000000000000000200100000000000000000000000000000000000000000000000080F026
:2B0C990020003AA10100A02300000000000000200100000000000000000000000000000000000000000000000000CC84
:2B0CC400820100000000000000000000000000001100000000000000000000000000000000000000000000000088E405
:2B0CEF0082011C800100C00100000000000000400100000000000000000000000000000000000000000000000008BCF4
:2B0D1A00040000000000040000020000002000001000000000000000000000000000000000000000000000000490B32D
:2B0D4500020000000026600207000000600000E00300000000000000000000000000000000000000000000800508FB27
:2B0D700002000000001AA011180000008001002000010000000000000000000000000000000000000000008004889035
:2B0D9B0002000000003CC1011C080000C08100C00100000000000000000000000000000000000000000000000588C2B8
:2B0DC6000000000000022100180000008001002000000000000000000000000000000000000000000000008004008A18
:2B0DF10000000000003AA0811800000080010020120000000000000000000000000000000000000000000080040082AB
:2B0E1C00000000000000000018000000800100800100000000000000000000000000000000000000000000000400BAD3
:2B0E4700020000000018800118000000800100800100000000000000000000000000000000000000000000004C80BC43
:2B0E7200024000000000040000000000000000001000000000000000000000000000000000000000000000000408A84B
:2B0E9D00E40126100026600201000000000000E00300000000000000000000000000000000000000000000800588D6C0
:2B0EC80022001A00001AB001000000000000002020000000000000000000000000000000000000000000008004088AA2
:2B0EF300C2233C01001CC02300000000000000C00300000000000000000000000000000000000000000000000588E083
:2B0F1E002220020000022010000000000000002010000000000000000000000000000000000000000000008004008BF3
:2B0F490020021A04003AB00300000000000000200000000000000000000000000000000000000000000000800480A488
:2B0F7400800100000000000000000000000000800100000000000000000000000000000000000000000000000484E3E5
:2B0F9F008A0118000018800100000000000000800100000000000000000000000000000000000000000000000C289A9C
:2B0FCA001E0020002020000200000000000000000200000000000000000000000000000000000000000000000238E25E
:2B0FF500000001000200000000000000000000000200000000000000000000000000000000000000000000000080F755
:2B102000000000000000000008800008800008000008000000000020000220000220000220000220000220000080C576
:2B104B00800008800008800008800008800008800008000000000020000220000220000220000220000220000280E717
:2B10760000203014010014002006000A00008022008C020000000000000000000000000000000000000040000080E7CF
:2B10A1000001000C815001C000040000000800010000000000000000000400000000000000000000000040000400FA36
:2B10CC00000000200000000202000000000002000000000000000000010000000000000000000000000000000080E46E
:2B10F70000A308040238884000020800000000002000080000000000000400000000000000000000000000000480C79C
:2B112200008220388360198222040802000882210084080000000000010000000000000000000000000040000280B16F
:2B114D00000400800008000000022000022000000000000000000000000000000000000000000000000000000080A384
:2B117800800200100000000000000000000000000001000000000000000000000000000000000000000000000000CDEC
:2B11A300000000004000040000000000000000800000000000000000000000000000000000000000000000000200CD8E
:2B11CE00000000401000010000000000000000008400000000000000000000000000000000000000000000000082CBD4
:2B11F90008000018020000A4000000000000000000000000000000000000000000000000000000000000000000B0A8AD
:2B122400120000040081900000000000000000404000000000000000000000000000000000000000000000000080BDBB
:2B124F00000000000000000000000000000000000000000000000000000000000000000000000000000000000080E70D
:2B127A000000000000000000000000000000000000000000000000000000000000000000000000000000000000C0A3E6
:2B12A500400001002000000000000000000000002000000000000000000000000000000000000000000000000080B766
:2B12D000080000000000000000000000000000000000000000000000000000000000000000000000000000000080EF7C
:2B12FB00000804010004500000000000000000000000000000000000000000000000000000000000000000000000B6B1
:2B1326000400400004200024000000000000000000000000000000000000000000000000000000000000000000A0A5CB
:2B135100000000000000000000000000000000000000000000000000000000000000000000000000000000000080E70A
:2B137C00000800000000000000000000000000000000000000000000000000000000000000000000000000000010F638
:2B13A700020000000000000000000004800000000000000000000000000000000000000000000000000000000000ADE8
:2B13D200040010001008090000000000000200000000000000000000000000000000000000000000000000000000D0E9
:2B13FD000000800000000100000000000B04000000000000000000000000000000000000000000000000000000208B8A
:2B142800080000000404000000000080000000000000000000000000000000000000000000000000000000000040AF1A
:2B145300000000080004000000000000000000000000000000000000000000000000000000000000000000000018B694
:2B147E00000000410000000000000000000000000000000000000000000000000000000000000000000000000080A6DC
:2B14A900000000000000000000000000000000000000000000000000000000000000000000000000000000000080E7B1
:2B14D400000000000000000000000000000000000000000000000000000000000000000000000000000000000080E786
:2B14FF00000000800008000000000000000001000000000000000000000000000000000000000000000000000080F7C2
:2B152A00040000000180040000000004000000000000000000000000000000000000000000000000000000000060D0D9
:2B155500080000000000000000000000000000000000000000000000000000000000000000000000000000000090FED5
:2B158000080000000000000000000000000000000000000000000000000000000000000000000000000000000018F62A
:2B15AB00000000000000000000000000000000000000000000000000000000000000000000000000000000000080E7AE
:2B15D600000000000000000220000200000020000200000000000000000000000000000000000000000000000080C55F
:2B1601004002443102C22100022080A2000000080220000000000000000000040000000000000000000000000080D15F
:2B162C0002020420200220000280000004000000400000000000004000000000004000000000000000000000008885D6
:2B165700000040000200000000000000000000080020000000000000000000000000000000000000000000000008A353
:2B168200000000000080000000008000040000004200000000000040000000040040000000000000000000000010D88B
:2B16AD004000001500500100002000A2000000000000000000000000000000000000000000000000000000000088CC56
:2B16D800000000000000000000000000000000000000000000000000000000000000000000000000000000000008EFF0
:2B170300020000000000000000000000000000000000000000000000000000000000000000000000000000000008EDC4
:2B172E00800008800008800008800008800008800008000000000020000220000220000220000220000220000280E72D
:2B175900800008800008800008800008800008800008000000000020000220000220000220000220000220000280E702
:2B178400000000000000000000000000000000000000000000000000000000000000000000000000000000000080E7D3
:2B17AF00020000000000000000000000000000000000000000000000000000000000000000000000000000000008ED18
:2B17DA00020000000000000000000000000000000000000000000000000000000000000000000000000000000008EDED
:2B180500040000000000000000000000000000000000000000000000000000000000000000000000000000000090F232
:2B183000020000000000000000000000000000000000000000000000000000000000000000000000000000000008ED96
:2B185B00020000000000000000000000000000000000000000000000000000000000000000000000000000000008ED6B
:2B188600020000000000000000000000000000000000000000000000000000000000000000000000000000000008ED40
:2B18B100000000000000000000000000000000000000000000000000000000000000000000000000000000000080E7A5
:2B18DC00004000042020000000000000000000000000000000000000000000000000000000000000000000000080C716
:2B190700600226600226000000000026040000000000000000000000000000000000000000000000000000000080A15A
:2B193200A2011AA4811A04000000001A000000000000000000000000000000000000000000000000000000000088DC0C
:2B195D00C2131CC0011C00000000003C100000000000000000000000000000000000000000000000000000000088A518
:2B198800240002300202100000000002000000000000000000000000000000000000000000000000000000000090F048
:2B19B300A2011BA0013A00000000001A080000000000000000000000000000000000000000000000000000000088EED8
:2B19DE00020000000000000000000000000000000000000000000000000000000000000000000000000000000008EDE7
:2B1A0900820118800118000000000018000000000000000000000000000000000000000000000000000000000088F4EA
:2B1A3400000000000000000000000000000000000000000000000000000000000000000000000000000000000080E720
:2B1A5F00000000000000000000000026040000000000000000000000000000000000000000000000000000000080A111
:2B1A8A0000000000000000000000003A000000000000000000000000000000000000000000000000000000000000FCFB
:2B1AB50002000000000000000000003C00000000000000000000000000000000000000000000000000000000008896AA
:2B1AE000020000000000000000000002000000000000000000000000000000000000000000000000000000000008CD02
:2B1B0B0004000000000000000000001A020000000000000000000000000000000000000000000000000000000010C9B6
:2B1B3600020000000000000000000000000000000000000000000000000000000000000000000000000000000008ED8D
:2B1B6100020000000000000000000018000000000000000000000000000000000000000000000000000000000088F4C3
:2B1B8C00024000002000000000002000000000000000000000000000000000000000000000000000000000000008E9BB
:2B1BB700600200600200000000600026040000000000000000000000000000000000000000000000000000000080C174
:2B1BE200A00100A0010000000080011A000000000000000000000000000000000000000000000000000000000080C7B4
:2B1C0D00C04300C02100000000C0811C040000000000000000000000000000000000000000000000000000000080CF18
:2B1C3800220001200200000000800122000000000000000000000000000000000000000000000000000000000088C44D
:2B1C6300A20300A0030000000080011A000000000000000000000000000000000000000000000000000000000008CD9E
:2B1C8E00040000000000000000800100000000000000000000000000000000000000000000000000000000000010EBAB
:2B1CB900820100800100000000800118000000000000000000000000000000000000000000000000000000000008ED6E
:2B1CE400020000002020000000000000000000020000000000000000000000000000000000000000000000000008CFBA
:2B1D0F00020000600226000000000000604206000000000000000000000000000000000000000000000000000008CBA4
:2B1D3A00000000A0011A000000000000A00118000000000000000000000000000000000000000000000000000080C7C3
:2B1D6500000000C0013D020000000000C0231C080000000000000000000000000000000000000000000000000080FFCD
:2B1D9000000000200002010000000000200018000000000000000000000000000000000000000000000000000000DFEE
:2B1DBB00020000A0133A000000000000A08318000000000000000000000000000000000000000000000000000008E6E5
:2B1DE600020000000000000000000000000018000000000000000000000000000000000000000000000000000000FCBC
:2B1E1100040000800118000000000000800118000000000000000000000000000000000000000000000000000080E30D
:2B1E3C00024000040020000000000000000000000000000000000000000000000000000000000000000000000080C7CE
:2B1E6700620226000026000000000026644200000000000000000000000000000000000000000000000000000080A7AD
:2B1E9200A2033A00001A00000000001AA40100000000000000000000000000000000000000000000000000000088D015
:2B1EBD00C0031C00003C01000000003CC001010000000000000000000000000000000000000000000000000000008D53
:2B1EE800208002000002000000000002308000000000000000000000000000000000000000000000000000000080D722
:2B1F1300A0031A02001A04000000001AA00300000000000000000000000000000000000000000000000000000000D831
:2B1F3E00020000000000000000000000000000000000000000000000000000000000000000000000000000000008ED81
:2B1F6900820118000018000000000018800100000000000000000000000000000000000000000000000000000088F485
:2B1F9400044000040020002000000000000000000000000000000000000000000000000000000000000000000090D238
:2B1FBF0062022600002660000000000060420000000000000000000000000000000000000000000000000000000889B4
:2B1FEA00A2811A01003A800100000000A00100000000000000000000000000000000000000000000000000000088DFCB
:2B201500C2013C00001CC08100000000C01300000000000000000000000000000000000000000000000000000088BD2C
:2B204000200002010002880100000000204000000000000000000000000000000000000000000000000000000000F374
:2B206B00A0831A00003A800100000000A00300000000000000000000000000000000000000000000000000000000D4DB
:2B209600000000000000800100000000000000000000000000000000000000000000000000000000000000000000FEA0
:2B20C100820118000018800100000000800100000000000000000000000000000000000000000000000000000088F4C3
:2B20EC00020000042000000000020000000000002000000000000000000000000000000000000000000000000008EB8E
:2B211700040026600200000006000000604200600000000000000000000000000000000000000000000000000090B4C5
:2B21420002001AA01100000018000000A02100800100000000000000000000000000000000000000000000000088D7EC
:2B216D0002003CD00300000064000000C00100400600000000000000000000000000000000000000000000000088A49F
:2B219800020002204000000018000000200000800100000000000000000000000000000000000000000000000008C92E
:2B21C30000003AA40100000018080000A04100808100000000000000000000000000000000000000000000000000FC14
:2B21EE00000000000000000018000000000000800100000000000000000000000000000000000000000000000080E7C6
:2B2219000600188001000000180000008001008001000000000000000000000000000000000000000000000000E89663
:2B2244001600000010000400000000001000010000000000000000000000000000000000000000000000000000C0B0C4
:2B226F00001000010020000000000020000200000000000000000000000000000000000000000000000000000080C5AC
:2B229A00000000000000800008800000000008800008000000000020000220000220000220000220000220000280E74E
:2B22C500800008800008800008800008800008800008000000000020000220000220000220000220000220000280E78B
:2B22F00080004014000000020200008020C2082C000000000000000000000000000000000000000000000000000097BE
:2B231B00004100000110040000000000000000000000000000000000000000000000000000000000000000000080F6CB
:2B2346002003240840300480000000000000020000000000000000000000000000000000000000000000000000808522
:2B237100804900820110060000000000000008000000000000000000000000000000000000000000000000000080FE59
:2B239C00200A64180020008202000080208202280000000000000000000000000000000000000000000000000080F10F
:2B23C700000000000000002000022080000800022000000000000000000000000000000000000000000000000080E59A
:2B23F200000888100000000000000000100000000000000000000000000000000000000000000000000000000000EF21
:2B241D00800005000000000000000000001000000000000000000000000000000000000000000000000000000000BE41
:2B24480040C000000000000000000000004800000000000000000000000000000000000000000000000000000000AF72
:2B2473001C4110400241000000000000004000000000000000000000000000000000000000000000000000000090DCA2
:2B249E00002000000000000000000000088000000000000000000000000000000000000000000000000000000080E506
:2B24C900040000000000000000000000000000000000000000000000000000000000000000000000000000000048AFED
:2B24F400000000000000000000000000000000000000000000000000000000000000000000000000000000000080E756
:2B251F00000000000000000000000000000000000000000000000000000000000000000000000000000000000080E72A
:2B254A00000000000000000000000000000000000000000000000000000000000000000000000000000000000080E7FF
:2B257500000020000000000000000020000000000000000000000000000000000000000000000000000000000080E794
:2B25A000020000802000000000000000000000000000000000000000000000000000000000000000000000000010FE60
:2B25CB00180800000000000000000000000000000000000000000000000000000000000000000000000000000000FFC6
:2B25F600000000000000000000000000000000000000000000000000000000000000000000000000000000000080E753
:2B262100000000000000000000000000000000000000000000000000000000000000000000000000000000000080E727
:2B264C001000000000000000000000000000000000400000000000000000000000000000000000000000000000A091E2
:2B267700000000000000000028800400000000000000000000000000000000000000000000000000000000000080818B
:2B26A200000000000000000080022000000000000000000000000000000000000000000000000000000000000088EFF4
:2B26CD000C0000000000000000000000000000000000000000000000000000000000000000000000000000000080EB6B
:2B26F800000000000000000000000000000000000000000000000000000000000000000000000000000000000090F631
:2B272300000000000000000000000000000000000000000000000000000000000000000000000000000000000080E724
:2B274E00020000000000000000000000000000000000000000000000000000000000000000000000000000000080E5F9
:2B2779000000000000000000000000000000000000000200000000000000000000000000000000000000000000C0A1D2
:2B27A4001C00000000000000300083000000000000080000000000000000000000000000000000000000000000D8A6B5
:2B27CF000000000000000000000000000000000000000100000000000000000000000000000000000000000000E0807E
:2B27FA000200000000000000000000000000000000000000000000000000000000000000000000000000000000C0A151
:2B282500000000000000000000000000000020000008000000000000000000000000000000000000000000000000CD93
:2B285000000000000200000200000020000220000200000000000000000000000000000000000000000000000080E7AE
:2B287B000000006000822008C220C080000014110320090000000000000000000000000000000000000000000080979E
:2B28A600020000200102222002000010000000800000000000000000000000000000000000000000000001000088F590
:2B28D100020000400000000040000000000000000000000000000000000000000000000000000000000000000008E969
:2B28FC00040000000100000000204090000010000100000000000000000000000000000000000000000001000010C6D4
:2B29270002000000008002088000C000000004910220090000000000000000000000000000000000000000000008B33E
:2B295200020000000000000000011000000000000008000000000000000000000000000000000000000000000088E5D2
:2B297D00020000000000000000000000000000000000000000000000000000000000000000000000000000000008ED38
:2B29A800800008800008800000000008800008800000000000000020000220000220000220000220000220000200EFA9
:2B29D300800008800008800008800008800008800008000000000020000220000220000220000220000220000280E776
:2B29FE00000000000000000000000000020080000010000000000000000000000000000000000000000000000000F428
:2B2A290002000000000000000000000600001E0000160000000000000000000000000000000000000000000000888539
:2B2A5400020000000000000000000098000002000012000000000000000000000000000000000000000000000008E5BC
:2B2A7F0004000000000000000000002400003C100014000000000000000000000000000000000000000000000010AAEA
:2B2AAA00020000000000000000000018000002000012000000000000000000000000000000000000000000000088E566
:2B2AD500020000000000000000000018080002040012000000000000000000000000000000000000000000000088E92B
:2B2B0000020000000000000000000018000018000010000000000000000000000000000000000000000000000008FC64
:2B2B2B000000000000000000000000180000180000340100000000000000000000000000000000000000000000809505
:2B2B5600000000000000002000080000000080000010000000000000000000000000000000000000000000000000FCA0
:2B2B810000000000000060000600000000001E000016000000000000000000000000000000000000000000000000EFA0
:2B2BAC0002000000000080011A000000000002000012000000000000000000000000000000000000000000000008DC69
:2B2BD700020000000000400A3C02000000003C010014000000000000000000000000000000000000000000000088DD93
:2B2C0200040000000000800102020000000002000012000000000000000000000000000000000000000000000010D822
:2B2C2D0002000000000080813A000000000002020012000000000000000000000000000000000000000000000008F42D
:2B2C5800020000000000800100000000000018000010100000000000000000000000000000000000000000000008ECA2
:2B2C830002000000000080011C000000000018000034000000000000000000000000000000000000000000000088C7EC
:2B2CAE00000000002000000000000000000000022000010000000000000000000000000000000000000000000080E454
:2B2CD90000000060000000000000000000000660003E000000000000000000000000000000000000000000000000DCF0
:2B2D0400000000800900000000000000000098800102020000000000000000000000000000000000000000000000DC22
:2B2D2F00020000400000000000000000000004C0813C000000000000000000000000000000000000000000000008C7E7
:2B2D5A00020000800100000000000000000018800102080000000000000000000000000000000000000000000088DCC4
:2B2D8500040000808100000000000000000018880102000000000000000000000000000000000000000000000010CBA0
:2B2DB000020000800100000000000000000018800118000000000000000000000000000000000000000000000008EDCF
:2B2DDB00020000800100000000000000000018800118000000000000000000000000000000000000000000000008EDA4
:2B2E0600020000000000000000000000000080000010000000000000000000000000000000000000000000000088FC8B
:2B2E310000000000000000000000000000001E000016000000000000000000000000000000000000000000000000EF53
:2B2E5C00000000000000000000000000000022000012000000000000000000000000000000000000000000000080D4C3
:2B2E870000000000000000000000000000003C000014000000000000000000000000000000000000000000000000CD03
:2B2EB200020000000000000000000000000022000012000000000000000000000000000000000000000000000008DED9
:2B2EDD00020000000000000000000000000002000012000000000000000000000000000000000000000000000008FCB0
:2B2F0800040000000000000000000000000018000010000000000000000000000000000000000000000000000010FA68
:2B2F3300020000000000000000000000000018000014040000000000000000000000000000000000000000000088A118
:2B2F5E00020000000000000000008000000000000000010000000000000000000000000000000000000000000008E4D9
:2B2F890002000000000000000060000000000000003E000000000000000000000000000000000000000000000088D61F
:2B2FB400000000000000000000A00300000000000002000000000000000000000000000000000000000000000000DC71
:2B2FDF00000000000000000000C0030000000000001C080000000000000000000000000000000000000000000080CD93
:2B300A00000000000000000000200000000000000002100000000000000000000000000000000000000000000080F7F2
:2B303500020000000000000000A00101000000000022000000000000000000000000000000000000000000000088C65C
:2B306000020000000000000000000000000000000018000000000000000000000000000000000000000000000088F4AF
:2B308B00040000000000000000C00100000000000018000000000000000000000000000000000000000000000090B2FB
:2B30B600020000000000000000000000002000020000010000000000000000000000000000000000000000000008ECD6
:2B30E10002000000000000002661120060000600003E000000000000000000000000000000000000000000000088B647
:2B310C0002000000000000001AA20100800118000002000000000000000000000000000000000000000000000008CF67
:2B31370000000000000000003CC01100C0811C08001C0100000000000000000000000000000000000000000000009C42
:2B316200000000000000000002200001800118000002000000000000000000000000000000000000000000000080D72D
:2B318D0000000000000000001AA20300800118000022010000000000000000000000000000000000000000000080C458
:2B31B800020000000000000000000000800118000018000000000000000000000000000000000000000000000088F4BD
:2B31E300020000000000000018800100800118000018000000000000000000000000000000000000000000000088F4F9
:2B320E00040000000000000000008000000080000000010000000000000000000000000000000000000000000010FB85
:2B32390002000000000000002661000000001E00003E000000000000000000000000000000000000000000000008EC91
:2B32640002000000000000001AA10100000002000002010000000000000000000000000000000000000000000008ED87
:2B328F0002000000000000003CC0030100003C04001C000000000000000000000000000000000000000000000008DBD3
:2B32BA00000000000000000002240000000002000002000000000000000000000000000000000000000000000080E35C
:2B32E50000000000000000003AA01100000002100002040000000000000000000000000000000000000000000080D06B
:2B331000000000000000000000000000000018000018000000000000000000000000000000000000000000000080E7FB
:2B333B00020000000000000018C00100000018000018000000000000000000000000000000000000000000000080A537
:2B336600020000000000000000080000000000000010000000000000000000000000000000000000000000000008F426
:2B339100040000000000000006601200000000000016000000000000000000000000000000000000000000000008B9BE
:2B33BC0002000000000000003AA00100000000000012000000000000000000000000000000000000000000000008FEF1
:2B33E70002000000000000001CC00101000000000014000000000000000000000000000000000000000000000008AC13
:2B341200020000000000000002210000000000000012000000000000000000000000000000000000000000000080D503
:2B343D0000000000000000003AA02300000000000012000000000000000000000000000000000000000000000080D401
:2B346800000000000000000000000000000000000010080000000000000000000000000000000000000000000080FEA3
:2B3493000E000000000000001C800100000000000014000000000000000000000000000000000000000000000018E156
:2B34BE001C0000000000000000022000000000000000020000000000000000000000000000000000000000000038C2A9
:2B34E900000000000000000000000000000040000000000000000000000000000000000000000000000000000080A355
:2B351400800008800008800000000008800000800000000000000020000220000220000220000220000220000280E7C1
:2B353F00800008800008800008800008800008800008000000000020000220000220000220000220000220000280E7FE
:2B356A00000000000000002002000088020840000020090000000000000000000000000000000000000000000000A079
:2B359500000000040000104010000000000000000000000000000000000000000000000000000000000000000080E641
:2B35C000000000000000000000000000000000000000000000000000000000000000000000000000000000000080E779
:2B35EB00000000040000006080802000002000020008000000000000000000000000040000000000000000000000E320
:2B361600000000000000100092000088000840000020090000000000000000000000040000000000000000000080A5C5
:2B364100000000002000002000000000022000132010000000000000000000000000000000000000000000000080E752
:2B366C00000000000000000040000000000000000010000000000000000000000000000000000000000000000080B2B1
:2B369700000000000000000044008000000088080000000000000000000000000000000000000000000000000080EB49
:2B36C2000000000000000000004000000000040000000A0000000000000000000000000000000000000000000080ED22
:2B36ED001E00000000000000000000000000000000000000000000000000000000000000000000000000000000B0CA1A
:2B371800000000000000000000000000000000000020000000000000000000000000000000000000000000000080C521
:2B374300020000000000000000000000000000000000000000000000000000000000000000000000000000000080E5F4
:2B376E000000000000000000000000000000000000000000000000000000000000000000000000000000000000F090B0
:2B379900000000000000000000000001000004000000000000000000000000000000000000000000000000000080B7C9
:2B37C400140000000000000000000000000000000000000000000000000000000000000000000000000000000080F353
:2B37EF00000000000000000000000100000000000000000000000000000000000000000000000000000000000080F638
:2B381A00000000000000000000000000000000000000000000000000000000000000000000000000000000000080E71C
:2B384500080000000000000000000000000000000000000000000000000000000000000000000000000000000080EFE1
:2B387000000000000000000008000000000000000000000000000000000000000000000000000000000000000000EF36
:2B389B00002C000401000040C0002000000010000000000000000008000000000080020000000000000000822400A1D0
:2B38C6008020088000008000080A2000000008800100000000000020010000000000080000000000000284088A009F94
:2B38F100000000000000000000000000000000000000000000000000000000000000000000000000000000000080E745
:2B391C00000000000000000000000000000000000000000000000000000000000000000000000000000000000080E719
:2B394700E0380EE11004E1108E43380441100EE110840200000000380441100441100E41100441108443108EE380EE1A
:2B397200605DB7611D86611BD67558876118D66119060F00000000D8866118866118D66118866118866518966581F893
:02399D00FFFF2A
:00000001FF
