:020000040000FA
:2B000000FFFF62FF2500FFFFFFFFFFFFFFFFFFFFFFFFFFFFFFFFFFFFFFFFFFFFFFFFFFFFFFFFFFFFFFFFFFFFFFFFFF76
:2B002B00601886611886611886611886611886611886010000000018866118966119866558866118866118866180E7FA
:2B0056004010044110044110044110044110044110040100000000100441100EE110844338044110044110044180E7C8
:2B008100000000000000000000000000000000000000000000000000000000000000000000000000000000000080E7ED
:2B00AC00000000000000000000000000000000000000000000000000000000000000000000000000000000000080E7C2
:2B00D700000000000000000000000000000000000000000000000000000000088000000220000000000000000080E7ED
:2B010200000000000000000000000000000000000000000000000000000040000400000220000000000000000080E705
:2B012D00000000000000000000000000000000000000000000000000000000000000000000000000000000000080E740
:2B015800000000000000000000000000000000000000000000000000000000000000000000000000000000000080E715
:2B018300000000000000040000000810000000000000000000000000000000000000000000000000000000000000F243
:2B01AE00000000000100000000040040011000000000000000000000000000000000000000000000000000000080B69A
:2B01D900000000000000000000000000000000000000000000000000000000000000000000000000000000000080E794
:2B020400000000000000000000000000000000000000000000000000000000000000000000000000000000000080E768
:2B022F00000000000000000000000000000000000000000000000000000000000000000000000000000000000080E73D
:2B025A00000000000000000000000000000000000000000000000000000000000000000000000000000000000080E712
:2B028500000000000000000200000000000000000000000000000000000000000000000000000000000000000080C507
:2B02B00000002000000000000040010000000000000000000000000000000000000000000000000000000000008094AE
:2B02DB00000000000000000000000000000000000000000000000000000000000000000000000000000000000080E791
:2B030600004000004000044000000000000000040000000000000000000000000000000000000000000000000080E3A1
:2B033100000000011000800000001000010000000000000000000000000000000000000000000000000000000000EF10
:2B035C00000000000000000000800000000000000020000000000080000000000080000800000000000000000080CD81
:2B0387002002222800300003000000000000800000A2000000000000000000000000010100000000000000000080DD2B
:2B03B200020000000000000000000000000000000000000000000000000000000000000000000000000000000008ED29
:2B03DD00000000000000000000000000000000000000000000000000000000000000000000000000000000000080E78E
:2B0408000000000000100001000000000000000000A2000000000000000000000000000000000000000000000000E531
:2B0433002002222C0020000300000000000080000000000000000000000000000000010100000000000000000000CABF
:2B045E00000000000000000000000000000000000000000000000000000000000000000000000000000000000080E70C
:2B048900020201044000101200100000040000000000000000000000000000000000000000000000000000000008F8C9
:2B04B400000000000000000000800000800008800008000000000020000220000220000220000220000220000200EFD2
:2B04DF00800008800008800008800008800008800008000000000020000220000220000220000220000220000280E78F
:2B050A00008000000000000000000000000000000000000000000000000000000000000000000000000000000080EFD7
:2B053500620200000000000000000000000000000000000000000000000000000000000000000000000000000008AF80
:2B056000A005000000000000000000000000000000000000000000000000000000000000000000000000000000009A31
:2B058B00C00100000000000000000000000000000000000000000000000000000000000000000000000000000000BEC6
:2B05B600200800000000000000000000000000000000000000000000000000000000000000000000000000000000C72B
:2B05E100A00300000000000000000000000000000000000000000000000000000000000000000000000000000000FC50
:2B060C00020000000000000000000000000000000000000000000000000000000000000000000000000000000008EDCC
:2B063700800100000000000000000000000000000000000000000000000000000000000000000000000000000000FE19
:2B066200000000000000000000000000000000080000000000000000000000000000000000000000000000000080EFF6
:2B068D00608000000000000000000000000026000000000000000000000000000000000000000000000000000080CDEF
:2B06B800A2010000000000000000000000001A000000000000000000000000000000000000000000000000000008ED65
:2B06E300C0230000000000000000000000003C100000000000000000000000000000000000000000000000000080F548
:2B070E00200000000000000000000000000002000000000000000000000000000000000000000000000000000080E737
:2B073900A005000000000000000000000000BA00000000000000000000000000000000000000000000000000000081B5
:2B076400000000000000000000000000000000000000000000000000000000000000000000000000000000000080E703
:2B078F00C20100000000000000000000000018000000000000000000000000000000000000000000000000000008ADAF
:2B07BA00000000080000040000000000000000000000000000000000000000000000080000000000000000000080E39D
:2B07E500608006000006000026080000000000000000000000000000000000000018000000000000000000000000DCDB
:2B081000A0211A02001A00001A0000000000000000000000000000000000000000600200000000000000000000808347
:2B083B00C2031C00003C08003C020000000000000000000000000000000000000010000000000000000000000008D443
:2B086600200002000002100002080000000000000000000000000000000000000060400000000000000000000080D930
:2B089100A0079A00001A00003A0000000000000000000000000000000000000000E0000000000000000000000080C582
:2B08BC0000000000000000000000000000000000000000000000000000000000006000000000000000000000008081B0
:2B08E700C0011C00001C00001C0000000000000000000000000000000000000000600000000000000000000000808170
:2B091200020000008000000000000000000000000000000000000000000000000000008000000000000000000008EDC3
:2B093D006080066800000000000000000000000000000000000000000000000000008001000000000000000000009E22
:2B096800A0019AA01100000000000000000000000000000000000000000000000000000604000000000000000080F9F5
:2B099300C0211CC00300000000000000000000000000000000000000000000000000000F00000000000000000080E901
:2B09BE00220402200000000000000000000000000000000000000000000000000000000600000000000000000008EFC9
:2B09E900A0033AA8030100000000000000000000000000000000000000000000000000060000000000000000000082D2
:2B0A140000000000000000000000000000000000000000000000000000000000000000060000000000000000008081B0
:2B0A3F00C00118C001000000000000000000000000000000000000000000000000000006000000000000000000009854
:2B0A6A00000000000000008000000000000000000000000000000000080000000000000000000000000000000080E772
:2B0A950062800000000060020000000060820000000000000000001800000000000000000000000000000000008894DC
:2B0AC000A00300000000A00100000000A00100000000000000000060400000000000000000000000000000000000DAAC
:2B0AEB00C00300000000C01100000000C003010000000000000000F0000000000000000000000000000000000080D840
:2B0B1600200800000000200400000000200000000000000000000060000000000000000000000000000000000000E503
:2B0B4100A20300000000A00100000000A021000000000000000000600000000000000000000000000000000000889208
:2B0B6C0000000000000000000000000000000000000000000000006000000000000000000000000000000000008081FD
:2B0B9700C00100000000800100000000800100000000000000000060000000000000000000000000000000000000D838
:2B0BC200008000008000000000008000080000000000000000000000080000000000000000000000000000000080EF09
:2B0BED00600200600200000006680006608200000000000000000018000000000000000000000000000000000000DCCF
:2B0C1800A20100A0110000001AB0031AA00100000000000000000060000000000000000000000000000000000008B8B5
:2B0C4300C00B00C0010000001CC0031CC11300000000000000000010010000000000000000000000000000000000D545
:2B0C6E00200000200000000002281002308000000000000000000060400000000000000000000000000000000080D03F
:2B0C9900A00500A0050000001AA0033AA003000000000000000000E0000000000000000000000000000000000000A3C9
:2B0CC4000200000000000000000000000000000000000000000000600000000000000000000000000000000000088B10
:2B0CEF0080010080010000001880011C800100000000000000000060000000000000000000000000000000000080C101
:2B0D1A00008000000000000000008000000000000000020000000000000000000000000000000000000000000080E547
:2B0D450060020000000000000060000060820060800600000000000000000000000000000000000000000000008087F2
:2B0D7000A00100000000000000A04100A00300A081580000000000000000000000000000000000000000000000009426
:2B0D9B00C20900000000000000C00100C00100C00324000000000000000000000000000000000000000000000088ADC4
:2B0DC600200400000000000000200000204000200018100000000000000000000000000000000000000000000000AE68
:2B0DF100A00300000000000000A04300A00100A01338000000000000000000000000000000000000000000000000FBCA
:2B0E1C00000000000000000000000000000000000018000000000000000000000000000000000000000000000000FE95
:2B0E4700820100000000000000800100800100800118000000000000000000000000000000000000000000000088F4E6
:2B0E7200008000008000088000008000000000000000000000000000080000000000000000000000000000000008EF4E
:2B0E9D00600200600026600000600006080000000000000000000018000000000000000000000000000000000010E765
:2B0EC800A00900A0031AB00100A0011B040000000000000000000060400000000000000000000000000000000088EF11
:2B0EF300C00100C0033CC02100C0031C0000000000000000000000F0000000000000000000000000000000000088B824
:2B0F1E002200002000022000002010020200000000000000000000600000000000000000000000000000000000088820
:2B0F4900A00700A0117AA04100A0013A000000000000000000000060000000000000000000000000000000000080A669
:2B0F740000000000000000000000000000000000000000000000006000000000000000000000000000000000008081F1
:2B0F9F00800100C00118C001008001180000000000000000000000600000000000000000000000000000000000808112
:2B0FCA00000200000000000200000000000000000000000000000000000000000000000000000000000000000080E791
:2B0FF500000020102000020020104020100001020201000000000000000000000000000000000000000000000080F168
:2B102000000000000000000000000000000000000008000000000020000220000220000220000220000220000200EFE2
:2B104B00800008800008800008800008800008800008000000000020000220000220000220000220000220000280E717
:2B1076000080002000022C8080000AB2008A0000022000000000000040140500000000000000000000000000008085BB
:2B10A100200000080080000000000100004120000802080000000000000000000008000000000000000000000000C937
:2B10CC00000000000000000000000000000000000000000000000000000000000000000000000000000000000080E792
:2B10F700000000000000800000002000002000000000000000000000000000000000000000000000000000000000EF1F
:2B112200208000280082288080000BA200CB20000A22080000000000401004000008000000000000000000000000EA1E
:2B114D00000000000000000000000000800000000000000000000000000000000000000000000000000000000000EF08
:2B1178004000000000000000000000000000000000000800000000002000000000002000020000000000000000808FB3
:2B11A300000000000000000000000000000000000000000000000000000000000000000000000000000000000080E7BA
:2B11CE00000000000000000000000000000000000000000000000000000000000000000000000000000000000080E78F
:2B11F900000400008100000100040000004000880000000000000000000000000000000000000000000000000000ABCE
:2B122400000400C00000010000028000004000004000000000000000000000000000000000000000000000000088E868
:2B124F00400000000220400000000000000020000000000000000000000000000000000000000000000000000080C56D
:2B127A00000000022000002000002000020000000000000000000000000000000000000000000000000000000080E580
:2B12A500008000080000000000080000080000008000000000000000000000000000000000000000000000000080EF97
:2B12D000000000000000000000000000000000000000000000000000000000000000000000000000000000000080E78C
:2B12FB00002200060000101040120000428201002000000000000000000000000000000000000000000000000080FCCD
:2B132600000000000000180000101000080000000000000000000000000000000000000000000000000000000080E6F6
:2B135100000000000000000000000000000000000000000000000000000000000000000000000000000000000080E70A
:2B137C00000000000000000000000000000000000000000000000000000000000000000000000000000000000080E7DF
:2B13A700000000000000000000000000000000000000000000000000000000000000000000000000000000000090F695
:2B13D200080000000040000040000000000000000000000000000000000000000000000000000000000000000080EFF9
:2B13FD00800000008000000001000018800000000200000000000000000000000000000000000000000000000000C466
:2B142800000000000020000100400000000000000210000000000000000000000000000000000000000000000080A7FF
:2B145300000000000000000000000000000000000000000000000000000000000000000000000000000000000080E707
:2B147E00020000000000000000000000000000000000000000000000000000000000000000000000000000000080E5DC
:2B14A900000000000000000000000000000000000000000000000000000000000000000000000000000000000080E7B1
:2B14D4000000000000000000000000000000000000000000000000000000000000000000000000000000000000C0A38A
:2B14FF00000000000000000100000000000000000010000000000000000000000000000000000000000000000080E74A
:2B152A000200000010100000000000000000000000000000000000000000000000000000000000000000000000C0B103
:2B155500000000000000000000000000000000000000000000000000000000000000000000000000000000000080E704
:2B158000000000000004000000000000000000000000000000000000000000000000000000000010000000000080B6F6
:2B15AB00000000000000000200000000000000000000000000000000000000000000000000000000000000000080C5CE
:2B15D600000020000000000000000000000020000000000000000000000000000000000000000000000800000000E7BB
:2B1601000080000000204000002000A2000002000000000000000000000002000000000000010010004800000080BB84
:2B162C00020000000000000000000000000008000000020000000000000000000000000000000000000000000088E718
:2B165700000000000000000000000000000000000010000000000000000000000000000000000000000000000008FE52
:2B168200008000000000000000000082000000000000000000000000000000000000000000010000000000000010DF4B
:2B16AD0000000000002040000020002000000200001002000000000000000200000000000000001000C800000088817B
:2B16D800000000000000000000000000000000000000000000000000000000000000000000000000000000000008EFF0
:2B170300020000000000000000000000000000002000000000000000000000000000000000000000000000000008EFA2
:2B172E00800008800008800008800008800008000008000000000020000220000220000220000220000220000200EF25
:2B175900800008800008800008800008800008800008000000000020000220000220000220000220000220000280E702
:2B178400000000000000000000000000000000000000000000000000000000000000000000000000000000000080E7D3
:2B17AF00020000000000000000000000000000000000000000000000804900000000000000000000000000000008F04C
:2B17DA00020000000000000000000000000000000000000000000000800000000000000000000000000000000000ED75
:2B180500040000000000000000000000000000000000000000000000000100000000000000000000000000000080F241
:2B1830000200000000000000000000000000000000000000000000008006000000000000000000000000000000008B7A
:2B185B000200000000000000000000000000000000000000000000008006000000000000000000000000000000008B4F
:2B1886000200000000000000000000000000000000000000000000000006000000000000000000000000000000088B9C
:2B18B1000000000000000000000000000000000000000000000000000006000000000000000000000000000000808105
:2B18DC00000000000000000000000000000000000000000000000000000000000000000000000000000000000080E77A
:2B190700000000000000000000000000000000000000000000000000000000000000000000000000000000000080E74E
:2B193200020000000000000000000000000000000000000000000000000000000000000000000000000000000008ED93
:2B195D00000000000000000000000000000000000000000000000000000000000000000000000000000000000008EF68
:2B198800000000000000000000000000000000000000000000000000000000000000000000000000000000000090F6AE
:2B19B300000000000000000000000000000000000000000000000000000000000000000000000000000000000008EF12
:2B19DE00000000000000000000000000000000000000000000000000000000000000000000000000000000000008EFE7
:2B1A0900020000000000000000000000000000000000000000000000000000000000000000000000000000000008EDBB
:2B1A3400000000000000020000000000010000004000000000000000000000000000000000000000002000000080E2C2
:2B1A5F00000000000026000000000026000000600000000000000000000000000000000000000098C00100000000C790
:2B1A8A0000000000001A04000000001A000000A00100000000000000000000000000000000000008008600000080BC8E
:2B1AB50002000000001C00000000001C010000C00700000000000000000000000000000000000010000100000088D398
:2B1AE000020000000002020000000002100000200200000000000000000000000000000000000068000604000000BD72
:2B1B0B0004000000001A00000000001A000000A0030000000000000000000000000000000000006800080000000096CE
:2B1B3600020000000000000000000000000000000000000000000000000000000000000000000060000600000080E5B7
:2B1B61000200000000180000000000180000008001000000000000000000000000000000000000600000000000009AAC
:2B1B8C00020000000000001000001000000000024000000000000000000000000000000000000080000000000088EBD7
:2B1BB700000000000000E00100600200000006600000000000000000000000000000000000000098000000000000C5FD
:2B1BE200000000000000202000A00100000018B005000000000000000000000000000000000000080000000000808022
:2B1C0D00000000000000C00100C0430000003CC00300000000000000000000000000000000000010000000000080D089
:2B1C3800020000000000200200200000000018200200000000000000000000000000000000000068000000000008BAD9
:2B1C6300000000000000200000A01300000018A001000000000000000000000000000000000000680000000000089BBF
:2B1C8E000000000000008001000000000000180000000000000000000000000000000000000000600000000000909012
:2B1CB9000000000000008001008001000000188001000000000000000000000000000000000000600000000000088974
:2B1CE400001000000000020000000000000000000000000000000000000000000000000000000000001000000008EDBE
:2B1D0F00620200000026000000000000000000604000000000000000000000000000000000000000800700000088F67A
:2B1D3A00A0210000001A000000000000000000A00100000000000000000000000000000000000000008000000000D4AE
:2B1D6500C0010000003C100000000000000000C00301000000000000000000000000000000000000000700000000C9B2
:2B1D9000200000000002010000000000000000200000000000000000000000000000000000000000000604000080E07B
:2B1DBB00A0210000001A000000000000000000A00500000000000000000000000000000000000000000E00000008F671
:2B1DE600020000000000000000000000000000000000000000000000000000000000000000000000000000000080E56B
:2B1E1100820100000018000000000000000000C00100000000000000000000000000000000000000000600000000DA6A
:2B1E3C00020000000000021000000000001000004000010000000000000000000000000000000000000000000080E2B4
:2B1E6700020000000026E0010000000060020060001E0000000000000000000000000000000000000000000000808562
:2B1E920000000000003A200000000000A00100A00502000000000000000000000000000000000000000000000088B04B
:2B1EBD0000000000003CC04300000000C04300C0013C040000000000000000000000000000000000000000000000BAFD
:2B1EE800000000000002240000000000202000202002000000000000000000000000000000000000000000000080C3E4
:2B1F130000000000003A202000000000A00300A00322020000000000000000000000000000000000000000000000DEE1
:2B1F3E00020000000000800100000000000000000018000000000000000000000000000000000000000000000008EDE8
:2B1F6900000000000018800100000000800100800118000000000000000000000000000000000000000000000088F61C
:2B1F9400000000000000001000000000000000020000000000000000000000000000000000000000000000000090F58B
:2B1FBF00000000604000E00100000000000006604000000000000000000000000000000098200000000000000088CFC1
:2B1FEA00000000A04100200000000000000018B02100000000000000000000000000000000040000000000000088C492
:2B201500020000C00100C0010100000000003CC00100000000000000000000000000000010000000000000000008CE38
:2B204000000000201000204000000000000018200000000000000000000000000000000000000000000000000000DBD2
:2B206B00000000A00100200200000000000018A00900000000000000000000000000000000000000000000000080FC4A
:2B2096000000000000008001000000000000180000000000000000000000000000000000600000000000000000808125
:2B20C100000000800100800100000000000018C00100000000000000000000000000000060000000000000000008C9E8
:2B20EC00020000020000000000020000000000020000000000000000000000000000000000000000100000000008FFAA
:2B211700020006000000000026000000000006604000000000000000000000000000000098200018000000000010F2F7
:2B21420002001800000000001A100000000018A00100000000000000000000000000000000200008000000000088D5F0
:2B216D0002006400000000003C000000000064C08300000000000000000000000000000090000010000000000088E5F1
:2B21980000001810000000000200000000001830080000000000000000000000000000000000006800000000000881B1
:2B21C30000003800000000003A080000000038A00100000000000000000000000000000000000068000000000000A393
:2B21EE00000018000000000000000000000018000000000000000000000000000000000060000060000000000080E76F
:2B221900000018000000000018000000000018C00100000000000000000000000000000060000060000000000090B68B
:2B2244000A00000000000800000802000000000000000000000000000002000000000000000000200000000000D09AC7
:2B226F00001200000201001000000220011200000001010000000000000000000000000000000000000000000080C4A4
:2B229A00000008000000000000000000000008000000000000000020000020000220000220000200000220000280E7F8
:2B22C500800008800008800008800008800008800008000000000020000220000220000220000220000220000280E78B
:2B22F000A0000A00E880021402000000A000200CB230040000000000000000000000000000008008000002000080B627
:2B231B00000000000002000000000000000000000000000000000000000000000000000000001000000000000800C6B7
:2B234600000000000000200000000A00000210000000040000000000000000000000000000000000000000000000D25A
:2B237100800000000000020000000000800000000000000000000000000000000000000020008000000000000080CF50
:2B239C00200002008882201402000A00200220089220000000000000000000000000000000001008000002000800A0EC
:2B23C7000000000000004000000000000008000000C0000000000000000000000000000000000000000000000080E380
:2B23F2000000000800000000000000000000004800000000000000000000000000000000000000000000020000808767
:2B241D00000000000000000000000000000000000000000000000000000000000000000000100000000000000080F70D
:2B244800000000000000000000000000000000000000000000000000000000000000000000100000000000000080F7E2
:2B2473000002000010000008000008000000004090000000000000000000000000000000000000000000000000D0D8A4
:2B249E00000200000180020200020000100000001400000000000000000000000000000000000000000000000000A3C3
:2B24C900000000000000000000000000000000000000000000000000000000000000000000000000000000000080E781
:2B24F400800000000000000000800008800000000000000000000000000000000000000000000000000000000080E7CE
:2B251F00000000000000000000000000000000000000000000000000000000000000000000000000000000000080E72A
:2B254A00000000000000000000000000000000000000000000000000000000000000000040000000000000000090B2E4
:2B257500000000000000000000840000000000004001000000000000000000000000000000000000000000000000FF77
:2B25A000000000000000000000000000000400000000000000000000000000000000000000000000000000000008AB59
:2B25CB000000000000000800000000000000000000000000000000000002000000000000000000002000000000C0A952
:2B25F600000000000000010800080000000000000000000000000000000000000000000000000000040000000000EABB
:2B262100000000000000000000000000000000000000000000000000000000000000000000000000000000000080E727
:2B264C000000000000000040000400000000000000000000000000000000000000000000000000000000000000A0C5BA
:2B267700000200000008040000C00004000008000020100000000000000000000000000000000000000000000000FB33
:2B26A200000000000000000000000000000000400000000000000000000000000000000000000000000000000080A7A6
:2B26CD00000000000000000000000000000000000000000000000000000000000000000000000000000000000080E77B
:2B26F800000000000000000000000000000000000000000000000000000000000000000000000000000000000080E750
:2B272300000000000000000000000000000000000000000000000000000000000000000000000000000000000008EF94
:2B274E00000000000000000000000000000000000000000000000000000000000000000000000000000000000080E7F9
:2B277900020000000000000000000000000000000000000000000000000000000000000000000000000000000080E5CE
:2B27A4000002000000000400000000000400000000000000000000000000000000000000000000000000000000A0E779
:2B27CF00020000000000000000000000000000000000000000000000000000000000000000000000000000001080E469
:2B27FA00000000000000000100000000000000000000000000000000000000000000000400000000000000000080B27D
:2B282500000000000000000000000000000000000000000000000000000000000000000000000000000000000080E721
:2B285000000020000200000000000020000000000000000000000000000000000000000000000800000000000000C54E
:2B287B0000C000000020000220080040000002000002000000000000000000000000000040010000000008020100DBBD
:2B28A600000000000000000000000008020000000008000000000000000000000000000000000000000000000008ED00
:2B28D100020000000020000200000000000000000000000000000000000000000000000000000000000000000080E553
:2B28FC000240000000000000000000000000020000000000000000000000000000000000400000000000000000808528
:2B29270002C000000000000020080040000000000002000000000000000000000000000040010000000008020100F914
:2B295200020000000000000000000000000000000000000000000000000000000000000000000000000000000080E5F3
:2B297D00000000000000000000000000000000000000000000000000000000000000000000000000000000000008EF38
:2B29A800800008800008800008800008800008800008000000000020000220000220000220000220000220000280E7A1
:2B29D300800008800008800008800008800008800008000000000020000220000220000220000220000220000280E776
:2B29FE00000000020000000000080000000000000000000000000000000000000000000000000000000000000080ED37
:2B2A2900020006000000000026000000000000000000000000000000000000000000000000000000000000000008CF7D
:2B2A540000001810000000001A080000000000000000000000000000000000000000000000000000000000000008D72E
:2B2A7F0000003C00000000001C000000000000000000000000000000000000000000000000000000000000000090D470
:2B2AAA00000018000000000002000000000000000000000000000000000000000000000000000000000000000088D689
:2B2AD50000001800000000003A080000000000000000000000000000000000000000000000000000000000000008E58F
:2B2B0000020018000000000000000000000000000000000000000000000000000000000000000000000000000088F414
:2B2B2B00000018000000000018000000000000000000000000000000000000000000000000000000000000000080E7E8
:2B2B5600000000000000000000000000020000000000000000000000000000000000000000000000000000000080E5ED
:2B2B81000000000000000000000000060000000000000000000000000000000000000000000000000000081000009F6C
:2B2BAC000200000000000000000000181000000000000000000000000000000000000000000000000000680000088ADA
:2B2BD70000000000000000000000003C000000000000000000000000000000000000000000000000000070080000E33C
:2B2C0200000000000000000000000018000000000000000000000000000000000000000000000000000088000000F611
:2B2C2D0000000000000000000000001800000000000000000000000000000000000000000000000000006800008090EC
:2B2C58000000000000000000000000180000000000000000000000000000000000000000000000000000600000009841
:2B2C8300020000000000000000000018000000000000000000000000000000000000000000000000000000000088F490
:2B2CAE00000000000000000000080000000000000000000000000000000000000000000000008000000000000080E70C
:2B2CD90000000000000000002600009E000000000000000000000000000000000000000000800100000000000000C5C6
:2B2D040000000000000000001A0000020000000000000000000000000000000000000000000026000000000000009AC8
:2B2D2F0002000000000000001C10001C010000000000000000000000000000000000000000000100000000000008ED38
:2B2D5A00020000000000000002010002000000000000000000000000000000000000000000000604000000000008CA6B
:2B2D850004000000000000003A000022020000000000000000000000000000000000000000000E000000000000908F94
:2B2DB00002000000000000000000001800000000000000000000000000000000000000000000060000000000008892BE
:2B2DDB000200000000000000180000180000000000000000000000000000000000000000000006000000000000088B02
:2B2E0600020000000000000000000000020000000000080000000000000000000000000000000000000000008008EF1E
:2B2E3100000000000000000000000006000000000026000000000000000000000000000000000000000008900800D5D5
:2B2E5C0000000000000000000000001800000000001A0100000000000000000000000000000000000000E8800600C6E4
:2B2E870000000000000000000000008400000000003C000000000000000000000000000000000000000070008F00D48D
:2B2EB200020000000000000000000018100000000002000000000000000000000000000000000000000068800088A2B7
:2B2EDD0002000000000000000000003800000000001A100000000000000000000000000000000000000068800E04B7B5
:2B2F08000400000000000000000000180000000000000000000000000000000000000000000000000000000006009CE0
:2B2F3300020000000000000000000018000000000018000000000000000000000000000000000000000000000080E5DC
:2B2F5E00020000002000000000000000000000000000000000000000000000000000000000000000000000008080EF37
:2B2F890002000060000000000000009E000000000000000000000000000000000000000000000000000000800808FC91
:2B2FB400000000800101000000000002080000000000000000000000000000000000000000000000000000800680A8B8
:2B2FDF00000000C0030000000000003C000000000000000000000000000000000000000000000000000000000F04D0E5
:2B300A00000000800100000000000002000000000000000000000000000000000000000000000000000000800680B062
:2B303500000000800100000000000002100000000000000000000000000000000000000000000000000000800608A8A7
:2B306000020000800100000000000018000000000000000000000000000000000000000000000000000000000008EDB5
:2B308B00020000800100000000000018000000000000000000000000000000000000000000000000000000000090F4FB
:2B30B600028000000000000000000000000000000000080000000000000000000000000000000000000000000208CF8C
:2B30E10062020000000000000000009E000000000026000000000000000000000000000000000000000000800288BED4
:2B310C00A0110000000000000000002200000000001A000000000000000000000000000000000000000000800288C6DB
:2B313700C0030000000000000000001C00000000003C08000000000000000000000000000000000000000000030085C2
:2B316200202000000000000000000002000000000002100000000000000000000000000000000000000000800200FF6D
:2B318D00A0010000000000000000002204000000003A000000000000000000000000000000000000000000800200E9AB
:2B31B800020000000000000000000018000000000000000000000000000000000000000000000000000000000288D672
:2B31E300800100000000000000000018000000000018000000000000000000000000000000000000000000000A849CE6
:2B320E00000000000000018000000000000000010000000000000000000000000000000000008000000000000080E72C
:2B32390000000000002660020000009E000026000000000000000000000000000000000000800100000000801900DD27
:2B32640000000000001AA8110000000204001A000000000000000000000000000000000000001600000000000880941A
:2B328F0002000000003CC0010000003C00001C010000000000000000000000000000000000000900000000000188EC3E
:2B32BA00000000000002201000000002000002080000000000000000000000000000000000000604000000000680AE6D
:2B32E50000000000003AA8030000002208001A000000000000000000000000000000000000000E00000000000804FA81
:2B33100000000000000000000000001800000000000000000000000000000000000000000000060000000000000098DC
:2B333B00000000000018800100000018000018000000000000000000000000000000000000000600000000000608EF9B
:2B336600020000000000000000081000000000001000080000000000000000000002084000000000000020000208C1D5
:2B339100020000000000000026600200000000600226000000000000000098840118800100000000000028800111D3BC
:2B33BC0002000000000000001AA00300000000A0411A020000000000000008800008800000000000000028000488A7BF
:2B33E70002000000000000003CC10100000000C0033C000000000000000010000110000100000000000030008108E4FD
:2B341200000000000000000002221000000000200022000000000000000068800668800600000000000028008088EC21
:2B343D0000000000000000003AA00100000000A0133A000000000000000068800668800600000000000028000A80CC42
:2B3468000000000000000000000000000000000000000000000000000000600006600006000000000000A0000000C508
:2B349300100000000000000018800100000000800118000000000000000060000660000600000000000020008CA8B3F9
:2B34BE001A0000000000008000000000000000000200000000000000000020000220000200000000000020000028DFDC
:2B34E9000020000000200100000812A0000020010200020000000000000000000000000000000000000000000200EEA8
:2B351400000008800000000000000000800000000000000000000020000200000000000020000220000210000100EF1E
:2B353F00800008800008800008800008800008800008000000000020000220000220000220000220000220000280E7FE
:2B356A000000000C002AA00200203500100300002832000000000000000000000000000000001000000008002084E4FC
:2B359500000000040000000000000000200000000000000000000000000000000000000000000400000000000480C39C
:2B35C000000000000000000000000000008800000000000000000000000000000000000000000000000000000000EF69
:2B35EB00000000000008000000000000000000002008000000000000000000000020000200000000000000000080E5FE
:2B3616000000000C0022200200201400308A00000822000000000000000020000200000000001400000008002404DDDE
:2B364100000000000000000000000040100000800000000000000000000000000000000000000000000080000800BB4B
:2B366C00000000088000000000000080080000000800000000000000000000000000000000000002000000000080CFCA
:2B369700000000000000000000000000000000000000000000000000000000000000000000000000000000044082C77B
:2B36C200000000000000000000000000000000000000000000000000000000000000000000000000000000001080E667
:2B36ED000000000000000000000600100000100000000400000000000000000000000000000000000000000000A0C721
:2B3718008040000000008020000000000000000000040C0000000000000000000000000000000000000000000008A569
:2B374300000000000000000000100000000000000000000000000000000000000000000000000000000000000080F7D4
:2B376E00000000000008000000800000000008800000000000000000000000000080000000000000000000000000E7B9
:2B379900000000000000000008000000000000000000000000000000000020000000000000000000000010000100CDFF
:2B37C4000000000000000000000000000000000000000000000000000000000000000000000000000000000000A0C575
:2B37EF00100000000000000000000000000000000000000000000000000000000000000000000000000000000080F728
:2B381A00000000000000000048000100000000020048000000000000000000000000000000000000000000000080F47C
:2B384500000000000000000000000080040000000000000000000000000000000000000000000000000000000000E3F1
:2B387000000000000000000000020000000000000000000000000000000000008000000000000000000000000080ED3E
:2B389B00000000000000000000000000000000000000000000000000000000000000000000008000000000000080EF13
:2B38C600000000000000000000000000000000000000000000000000000000000000000000008000000000000080EFE8
:2B38F100000000000000000000000000000000000000000000000000000000000000000000000000000000000080E745
:2B391C00000000000000000000000000000000000000000000000000000000000000000000000000000000000080E719
:2B39470040100441100441100441100441100441100401000000001004411004411004411004E110044110044180ED4C
:2B397200601886611886611886611886611886611886010000000018866118866118866118866119866118866180F7BE
:02399D00FFFF2A
:00000001FF
