:020000040000FA
:2B000000FFFF62FF2500FFFFFFFFFFFFFFFFFFFFFFFFFFFFFFFFFFFFFFFFFFFFFFFFFFFFFFFFFFFFFFFFFFFFFFFFFF76
:2B002B00601886611886611886611886611886611886010000000058D7751DD6611DD6755887611BB66118D66180E728
:2B0056004010044110044110044110044110044110040100000000388EE3100EE1108E433804E1100E41100E4180E7B6
:2B008100000000000000000000000000000000000000000000000000000000000000000000000000000000000080E7ED
:2B00AC00000000000000000000000000000000000000000000000000000000000000000000000000000000000080E7C2
:2B00D700000000000000000000000000000000000000000000000020288240088000080A200080000800000800008327
:2B010200000000000000000000000000000000000000000000000008018004022004420000080440000000420000EE61
:2B012D000400000000000000000000000000000000000000000000000000000000000000000000000000000000A0C142
:2B015800080000000000000000000000000000000000000000000000000000000000000000000000000000000008E785
:2B018300000000000000000000000000000000000000000000000000000000040000000000000000000000000080E3EA
:2B01AE00100000000000000000000000000000000000000000000000000002000000000000000000000000000080D7BD
:2B01D900000000000000000000000000000000000000000000000000000000000000000000000000000000000080E794
:2B020400000000000000000000000000000000000000000000000000000000400000000000000000000000000080A768
:2B022F00000000000000000000000000000000000000000000000000000000400000000000000000000000000080A73D
:2B025A00020000000000000000000000000000000000000000000000000000000000000000000000000000000080E512
:2B028500000000000000000000000000000000000000000000000000000000000000000000000000000000000080E7E7
:2B02B000140000000000000000000000000000000000000000000000004020000000000000000000000000000008DDCA
:2B02DB001000000000000000000000000000000000000000000000000000000004000000000000000000000000A091B3
:2B030600100000000000000000000000000000000000000000000000000000000000000000000000000000000080F745
:2B033100000000000000000000000000000000000000000000000000000000001000000000000000000000000080E62B
:2B035C00000000000000000000000000000000000000000000000000000000000000000000000000010000000080E60F
:2B038700000000000000000000000000000000000000000000000000800414802000020008000000004002001000DFD8
:2B03B200020000000000000000000000000000000000000000000000800200000000000008000000000000000008CFBD
:2B03DD00020000000000000000000000000000000000000000000000000000000000000000000000000000000080E58E
:2B04080004000000000000000000000000000000000000000000000000040000000002000000000000000200108084A9
:2B04330002000000000000000000000000000000000000000000000000001480200000000000000000C000000000B276
:2B045E00020000000000000000000000000000000000000000000000000000000000000000000000000000000080E50C
:2B048900020000000000000000000000000000000000000000000000000000000000000000000000000000000008ED51
:2B04B400800008800008800008800008800008800008000000000020000220000220000220000220000220000280E7BA
:2B04DF00800008800008800008800008800008800008000000000020000220000220000220000220000220000280E78F
:2B050A00000000000000000000000000000000000000000000000000000400000000000000000000000000000080A39F
:2B053500020000000000000000000000000000000000000000000000800500000000000000000000000000000088B0DC
:2B056000020000000000000000000000000000000000000000000000800400000000000000000000000000000088A1C1
:2B058B00040000000000000000000000000000000000000000000000000500000000000000000000000000000090A705
:2B05B600020000000000000000000000000000000000000000000000800400000000000000000000000000000088A16B
:2B05E100020000000000000000000000000000000000000000000000800400000000000000000000000000000088A140
:2B060C00020000000000000000000000000000000000000000000000000404000000000000000000000000000008E9C8
:2B063700000000000000000000000000000000000000000000000000000C00000000000000000000000000000000A3E9
:2B066200000000000000000000000000000000000000000000000000000000000400000000000000000000000080A346
:2B068D00000000000000000000000000000000000000000000000000000000800500000000000000000000000000BA03
:2B06B800020000000000000000000000000000000000000000000000000000800400000000000000000000000088A168
:2B06E300020000000000000000000000000000000000000000000000000000000500000000000000000000000080B0B5
:2B070E00040000000000000000000000000000000000000000000000000000800400000000000000000000000000AF89
:2B073900020000000000000000000000000000000000000000000000000000800400000000000000000000000000A966
:2B076400020000000000000000000000000000000000000000000000000000000400000000000000000000000080A143
:2B078F00020000000000000000000000000000000000000000000000000000008C00000000000000000000000088A188
:2B07BA00000000000000000000000000000000000000000000000000000400000000000000000040000000000080E769
:2B07E500000000000000000000000000000000000000000000000000800500000000000000000058000000000080E7A5
:2B081000000000000000000000000000000000000000000000000000800400000000000000000048000000000080E78A
:2B083B00020000000000000000000000000000000000000000000000000500000000000000000050000000000008ED46
:2B086600020000000000000000000000000000000000000000000000800400000000000000000048000000000008EDA4
:2B089100040000000000000000000000000000000000000000000000800400000000000000000048000000000090F2EA
:2B08BC00020000000000000000000000000000000000000000000000000402000000000000000040000000000008CDF4
:2B08E700020000000000000000000000000000000000000000000000000400000000000000000040200000000008CDAB
:2B091200020000000000000000000000000000000000000000000000000440000400000000000000000000000008A9BF
:2B093D00000000000000000000000000000000000000000000000000800558800500000000000000000000000000BA73
:2B096800000000000000000000000000000000000000000000000000800448800400000000000000000000000000AB69
:2B099300000000000000000000000000000000000000000000000000000550000500000000000000000000000080B2AD
:2B09BE00020000000000000000000000000000000000000000000000800448800400000000000000000000000088A193
:2B09E900020000000000000000000000000000000000000000000000800448800400000000000000000000000088A168
:2B0A1400040000000000000000000000000000000000000000000000000440400400000000000000000000000090F6A5
:2B0A3F00020000000000000000000000000000000000000000000000000C420044000000000000000000000000888DE3
:2B0A6A00020000000000000000000000000000000000000000000040000000000000000000000040000000000008EDEA
:2B0A9500020000000000000000000000000000000000000000000058000000000000000000000058000000000008ED8F
:2B0AC000000000000000000000000000000000000000000000000048000000000000000000000048000000000080E714
:2B0AEB00000000000000000000000000000000000000000000000050000000000000000000000050000000000080E7D9
:2B0B1600000000000000000000000000000000000000000000000048000000000000000000000048000000000080E7BD
:2B0B4100020000000000000000000000000000000000000000000048000000000000000000000048000000000008ED02
:2B0B6C00000000000000000000000000000000000000000000000040000000000000000000000040000000000008EFE7
:2B0B97000000000000000000000000000000000000000000000000C04000000000000000000000C0040000000090B22D
:2B0BC200000000000000000000000000000000000000000000000040000040000400000000000040000000000008EF4D
:2B0BED00000000000000000000000000000000000000000000000058000058800500000000000058000000000008EF59
:2B0C1800020000000000000000000000000000000000000000000048000048800400000000000048000000000008ED5E
:2B0C4300000000000000000000000000000000000000000000000050000050000500000000000050000000000080E72A
:2B0C6E00000000000000000000000000000000000000000000000048000048800400000000000048000000000080E798
:2B0C9900000000000000000000000000000000000000000000000048000048800400000000000048000000000080E76D
:2B0CC400020000000000000000000000000000000000000000000040000040040400000000000040080000000008E14A
:2B0CEF000200000000000000000000000000000000000000000000C00400C00004020000000000C0000000000088C93D
:2B0D1A00040000000000000000000000000000000000000000000040000040000000000000000040000000000090B6A4
:2B0D4500020000000000000000000000000000000000000000000058000058000000000000000058000000000088B041
:2B0D7000020000000000000000000000000000000000000000000048000048000000000000000048000000000088A155
:2B0D9B00020000000000000000000000000000000000000000000050000050000000000000000050000000000008B87B
:2B0DC600000000000000000000000000000000000000000000000048000048000000000000000048000000000000AB7F
:2B0DF100000000000000000000000000000000000000000000000048000048000000000000000048000000000000AB54
:2B0E1C000000000000000000000000000000000000000000000000C0000040000000000000000040000000000000A3C8
:2B0E47000200000000000000000000000000000000000000000000C00000404000000000000000C0080000000008E18D
:2B0E7200020000000000000000000000000000000000000000000040000440000400000000000040000000000008A9DA
:2B0E9D00040000000000000000000000000000000000000000000058800558800500000000000058000000000010AF55
:2B0EC800020000000000000000000000000000000000000000000048800448800400000000000048000000000088A1F4
:2B0EF300020000000000000000000000000000000000000000000050000550000500000000000050000000000008B818
:2B0F1E00020000000000000000000000000000000000000000000048800448800400000000000048000000000088A19D
:2B0F4900000000000000000000000000000000000000000000000048800448800400000000000048000000000000ABF2
:2B0F74000000000000000000000000000000000000000000000000C0000441004400000000000040000000000000B712
:2B0F9F00020000000000000000000000000000000000000000000040000440100C000000000000C0100000000008A904
:2B0FCA00040000000000000000000000000000000000000000000020000220000200000000000020000000000078BE5E
:2B0FF500000000000000000000000000000000000000000000000000000000000000000000000000000000000080E76A
:2B102000800008800008800008800008800008800008000000000000000000000020000220000200000220000280C5C8
:2B104B00800008800008800008800008800008800008000000000020000220000220000220000220000220000280E717
:2B107600000000000000000000000000000000000000000000000000800C310A1405000000000000008003000080AFBD
:2B10A100000000000000000000000000000000000000000000000040100041000000000040000001000400000080F7D7
:2B10CC00000000000000000000000000000000000000000000000008000000000000000000000000900000800000FFE2
:2B10F700000000000000000000000000000000000000000000000000000000002000020040022021008400000082FD26
:2B112200000000000000000000000000000000000000000000000048900851023004020000022000800002800002B55E
:2B114D00000000000000000000000000000000000000000000000000000000000000000000000020000000000080C512
:2B117800000000000000000000000000000000000000000000000000000000000200000000000000000000000080C505
:2B11A300000000000000000000000000000000000000000000000000000000008000000000000000010000000080EE32
:2B11CE00000000000000000000000000000000000000000000000000008000000000000000000000000000000080EF07
:2B11F90004000000000000000000000000000000000000000000001000000100000000000000000008000000006884C2
:2B122400000000000000000000000000000000000000000000000000000000000000000000000000000000000080E738
:2B124F000000000000000000000000000000000000000000000000000000000000000000000000000000000000A0C50F
:2B127A00100000000000000000000000000000000000000000000000000000000000000000000000000000000080F7C2
:2B12A500000000000000000000000000000000000000000000000000000000000000000000000000000000000080E7B7
:2B12D000000000000000000000000000000000000000000000000000000000000000000000000000000000000080E78C
:2B12FB00000000000000000000000000000000000000000000000020200000000000000000000000020000000080E71F
:2B132600000000000000000000000000000000000000000000000010000000000000000000000000000000000090E715
:2B135100000000000000000000000000000000000000000000000000000000000000000000000000000000000048AB7E
:2B137C00060000000000000000000000000000000000000000000000000000000000000000000000000000000080E1DF
:2B13A700000000000000000000000000000000000000000000000000000000000000000000000000000000000008EF24
:2B13D2000000000000000000000000000000000000000000000000000000000000000000000000000000000000D0B26E
:2B13FD00020000000000000000000000000000000000000000000000000000000000000000000000000000000080E55E
:2B142800000000000000000000000000000000000000000000000000000000000000000000000000000000000080E732
:2B145300040000000000000000000000000000000000000000000000000000000000000800000000000000000022E15F
:2B147E00000000000000000000000000000000000000000000000000000000000000000000000000000000000080E7DC
:2B14A900000000000000000000000000000000000000000000000000000000000000000000000000000000000080E7B1
:2B14D400000000000000000000000000000000000000000000000000000000000000000000000000000000000080E786
:2B14FF00000000000000000000000000000000000000000000000000000000000000008000000000000000000080EFD3
:2B152A00020000000000000000000000000000000000000000000000000800000000000000000000000000000070928A
:2B1555000C0000000000000000000000000000000000000000000000000000000000000000000000000000000080EBF4
:2B158000040000000000000000000000000000000000000000000000000000000000000000000000000000000082C3F7
:2B15AB00000000000000000000000000000000000000000000000000000000000000020000000000000000000080E5AE
:2B15D600000000000000000000000000000000000000000000000000000000000200000000000000000000000080C5A3
:2B160100000000000000000000000000000000000000000000000000823820000080002012000002000000000000DF51
:2B162C00020000000000000000000000000000000000000000000000000000000000000000000000000000000008ED9C
:2B165700000000000000000000000000000000000000000000000000001000000000000000000000000000000409BA91
:2B168200000000000000000000000000000000000000000000000000022000000080000010000002000000000010C7B2
:2B16AD0000000000000000000000000000000000000000000000000080082000000000A002000000000000000008EFD1
:2B16D800000000000000000000000000000000000000000000000000000000000000000000000000000000000008EFF0
:2B170300020000000000000000000000000000000000000000000000000000000000000000000000000000000008EDC4
:2B172E00800008800008800008800008800008800008000000000020000220000220000220000220000220000280E72D
:2B175900800008800008800008800008800008800008000000000020000220000220000220000220000220000280E702
:2B178400000000000000000000000000000000000000000000000000000000000000000400000000000000000480E7CB
:2B17AF00000000000000000000000000000000000000000000000000000000000000800500000000000000800508EF0E
:2B17DA00020000000000000000000000000000000000000000000000000000000000800400000000000000800408EDE5
:2B180500020000000000000000000000000000000000000000000000000000000000000500000000000000000590F428
:2B183000020000000000000000000000000000000000000000000000000000000000800400000000000000800408ED8E
:2B185B00020000000000000000000000000000000000000000000000000000000000800400000000000000800408ED63
:2B188600000000000000000000000000000000000000000000000000000000000000000400000000000000004408EBFC
:2B18B100000000000000000000000000000000000000000000000000000000000000008400000000000000000C00EF8D
:2B18DC00000000000000000000000000000000000000000000000000000000000000000000000000000000000080E77A
:2B190700000000000000000000000000000000000000000000000000000000000000000000000000000000000080E74E
:2B193200020000000000000000000000000000000000000000000000000000000000000000000000000000000008ED93
:2B195D00020000000000000000000000000000000000000000000000000000000000000000000000000000000008ED68
:2B198800040000000000000000000000000000000000000000000000000000000000000000000000000000000090F2AE
:2B19B300020000000000000000000000000000000000000000000000000000000000000000000000000000000008ED12
:2B19DE00020000000000000000000000000000000000000000000000000000000000000000000000000000000008EDE7
:2B1A0900020000000000000000000000000000000000000000000000000000000000000000000000000000000008EDBB
:2B1A3400000000000000000000000000000000000000000000000000000400000040000000000000000000000480A31C
:2B1A5F00000000000000000000000000000000000000000000000000800500000058000000000000000000800500BA40
:2B1A8A00000000000000000000000000000000000000000000000000800400000048000000000000000000800400AB36
:2B1AB500020000000000000000000000000000000000000000000000000500000050000000000000000000000508B8EA
:2B1AE000020000000000000000000000000000000000000000000000800400000048000000000000000000800488A160
:2B1B0B00040000000000000000000000000000000000000000000000800400000048000000000000000000800410BE8D
:2B1B3600020000000000000000000000000000000000000000000000000401000040000000000000000000000C88B9F0
:2B1B61000200000000000000000000000000000000000000000000000004000000C0100000000000000000000488B93E
:2B1B8C00020000000000000000000000000000000000000000000000000400000400000000000000000000000008ED2F
:2B1BB700000000000000000000000000000000000000000000000000800500800500000000000000000000000080E792
:2B1BE200000000000000000000000000000000000000000000000000800400800400000000000000000000000080E769
:2B1C0D00000000000000000000000000000000000000000000000000000500000500000000000000000000000080E73B
:2B1C3800000000000000000000000000000000000000000000000000800400800400000000000000000000000008EF82
:2B1C6300020000000000000000000000000000000000000000000000800400800400000000000000000000000008ED57
:2B1C8E00020000000000000000000000000000000000000000000000000C00000400000000000000000000000010F415
:2B1CB900020000000000000000000000000000000000000000000000000C00000C02000000000000000000000008CD0F
:2B1CE400020000000000000000000000000000000000000000000000000000000400000400000000000000000408A916
:2B1D0F00000000000000000000000000000000000000000000000000000000800500800500000000000000800588B2E0
:2B1D3A00000000000000000000000000000000000000000000000000000000800400800400000000000000800400AB47
:2B1D6500000000000000000000000000000000000000000000000000000000000500000500000000000000000580B212
:2B1D9000000000000000000000000000000000000000000000000000000000800400800400000000000000800400ABF1
:2B1DBB00020000000000000000000000000000000000000000000000000000800400800400000000000000800488A146
:2B1DE600020000000000000000000000000000000000000000000000000000000400000402000000000000000484C17D
:2B1E1100040000000000000000000000000000000000000000000000000000000401000C00000000000000000C80B74E
:2B1E3C00020000000000000000000000000000000000000000000000000400000040000000000000000000000480A110
:2B1E6700020000000000000000000000000000000000000000000000800500000058000000000000000000800500B834
:2B1E9200020000000000000000000000000000000000000000000000800400000048000000000000000000800488A1AA
:2B1EBD00000000000000000000000000000000000000000000000000000500000050000000000000000000000580B26E
:2B1EE800000000000000000000000000000000000000000000000000800400000048000000000000000000800400ABD4
:2B1F1300000000000000000000000000000000000000000000000000800400000048000000000000000000800400ABA8
:2B1F3E000200000000000000000000000000000000000000000000000084000000C0000000000000000000008488A97D
:2B1F6900020000000000000000000000000000000000000000000000000400000040000000000000000000000C88A9CA
:2B1F9400040000000000000000000000000000000000000000000000000000000440000400000000000000000490F250
:2B1FBF00020000000000000000000000000000000000000000000000000000800558800500000000000000800508ED19
:2B1FEA00020000000000000000000000000000000000000000000000000000800448800400000000000000800408ED01
:2B201500020000000000000000000000000000000000000000000000000000000550000500000000000000000508ED4A
:2B204000000000000000000000000000000000000000000000000000000000800448800400000000000000800480E73A
:2B206B00000000000000000000000000000000000000000000000000000000800448800400000000000000800480E70F
:2B209600000000000000000000000000000000000000000000000000000000000440000404000000000000000480A7A8
:2B20C100020000000000000000000000000000000000000000000000000000000444400400000000000000000C8CAD21
:2B20EC00000000000000000000000000000000000000000000000000000000000440000400000000000000000408EF86
:2B211700000000000000000000000000000000000000000000000000000000800558800500000000000000800590F630
:2B214200000000000000000000000000000000000000000000000000000000800448800400000000000000800408EFA7
:2B216D00000000000000000000000000000000000000000000000000000000000550000500000000000000000508EFF1
:2B219800020000000000000000000000000000000000000000000000000000800448800400000000000000800408ED51
:2B21C300000000000000000000000000000000000000000000000000000000800448800400000000000000800480E7B6
:2B21EE00000000000000000000000000000000000000000000000000000000004440000400000000000000000480E3D7
:2B221900020000000000000000000000000000000000000000000000000000000CC0080402000000000000004CF8B6C4
:2B2244001000000000000000000000000000000000000000000000000002000002200002000000000000000002588857
:2B226F00000000000000000000000000000000000000000000000000000000000000000000000000000000000080E7DD
:2B229A00800008800008800008800008800008800008000000000020000020000000000020000220000220000080C500
:2B22C500800008800008800008800008800008800008000000000020000220000220000220000220000220000280E78B
:2B22F00000000000000000000000000000000000000000000000000000404000000810000300000000000018088097F1
:2B231B00000000000000000000000000000000000000000000000000000000000001300000000000000000100480933F
:2B234600000000000000000000000000000000000000000000000000000040010040000400000082000800000080825B
:2B2371000000000000000000000000000000000000000000000000000000000002000002000000000020000806808B04
:2B239C00000000000000000000000000000000000000000000000000004000010009300002000082002800100880D880
:2B23C700000000000000000000000000000000000000000000000000000000000000000000000000000000000080E784
:2B23F200000000000000000000000000000000000000000000000000004000000000000004000000000000001080A24A
:2B241D00000000000000000000000000000000000000000000000000000000004001000000000000000000000080F3E0
:2B244800000000000000000000000000000000000000000000000000000100000000000001000000000000000080E601
:2B2473000800000000000000000000000000000000000000000000000000000000000000000000000000000002D098CC
:2B249E00000000000000000000000000000000000000000000000000000000000000000000000000000000000208CD3C
:2B24C900040000000000000000000000000000000000000000000000000000000000000000000000000000000080E381
:2B24F400000000000000000000000000000000000000000000000000000000000000000000000000000000000080E756
:2B251F00000000000000000000000000000000000000000000000000000000000014000000000000000000000080B647
:2B254A000000000000000000000000000000000000000000000000000000000000000000000000000000000000D0B2E4
:2B257500080000000000000000000000000000000000000000000000000000000000410000000000000000000180BFB2
:2B25A000000000000000000000000000000000000000000000000000000000000000000000000000000000000080E7A9
:2B25CB00000000000000000000000000000000000000000000000000000000000000000000000000000000000080E77E
:2B25F600000000000000000000000000000000000000000000000000000000000000000000000000000000000080E753
:2B262100100000000000000000000000000000000000000000000000000000000000000000000000000000000080F707
:2B264C00000000000000000000000000000000000000000000000000000000000000000000000000000002000008CF8A
:2B267700020000000000000000000000000000000000000000000000000000000000000000000000000000010080E4D1
:2B26A2000000000000000000000000000000000000000000000000000100000000000000000000000000000000C0A2AA
:2B26CD000C00000000000000000000000000000000000000000000000000000000000000000000000000000000B0D84E
:2B26F800000000000000000000000000000000000000000000000000000000000000000000000000000000000080E750
:2B272300000000000000000000000000000000000000000000000000000000000000000000000000000000000080E724
:2B274E00000000000000000000000000000000000000000000000000000000000000000000000000000000000080E7F9
:2B277900000000000000000000000000000000000000000000000000010000000000000000000000000000000080E6CE
:2B27A400100000000000000000000000000000000000000000000040000000000000000000400000000200000038EA56
:2B27CF000400000000000000000000000000000000000000000000000000000000000000000000000004000000389C03
:2B27FA00000000000000000000000000000000000000000000000000000000000000000000000000000000000080E74D
:2B282500000000000000000000000000000000000000000000000000000000000000000000000000000000000080E721
:2B285000000000000000000000000000000000000000000000000000000000000000000000000000000000000080E7F6
:2B287B00000000000000000000000000000000000000000000000008001100022000800000004000A00002022884BB2C
:2B28A6000200000000000000000000000000000000000000000000080000000000408000200000000000010000089B79
:2B28D100020000000000000000000000000000000000000000000000000100000000000000000000000000000008FCD5
:2B28FC00040000000000000000000000000000000000000000000000000000022040000000000000200001020094C4D0
:2B29270002000000000000000000000000000000000000000000000000140000000000002000400080000200AC08E8F1
:2B295200020000000000000000000000000000000000000000000000000000000000000000000000000000000008ED63
:2B297D00020000000000000000000000000000000000000000000000000000000000000000000000000000000008ED38
:2B29A800800008800008800008800008800008800008000000000020000220000220000220000220000220000280E7A1
:2B29D300800008800008800008800008800008800008000000000020000220000220000220000220000220000280E776
:2B29FE00000000000000000000000000000000000000000000000000000000000000000000000000000400000080A387
:2B2A2900020000000000000000000000000000000000000000000000000000000000000000000000800500000088B0C3
:2B2A5400020000000000000000000000000000000000000000000000000000000000000000000000800400000088A1A8
:2B2A7F00040000000000000000000000000000000000000000000000000000000000000000000000000500000090A7EC
:2B2AAA00020000000000000000000000000000000000000000000000000000000000000000000000800400000088A152
:2B2AD500020000000000000000000000000000000000000000000000000000000000000000000000800400000088A127
:2B2B0000020000000000000000000000000000000000000000000000000000000000000000000000004400000008ADAF
:2B2B2B00000000000000000000000000000000000000000000000000000000000000000000000000000C00000000A3D0
:2B2B5600000000000000000000000000000000000000000000000000000000000000000000000400000000000080A32D
:2B2B8100000000000000000000000000000000000000000000000000000000000000000000800500000000000000BAEA
:2B2BAC00020000000000000000000000000000000000000000000000000000000000000000800400000000000088A14F
:2B2BD700020000000000000000000000000000000000000000000000000000000000000000000500000000000008B80C
:2B2C0200040000000000000000000000000000000000000000000000000000000000000000800400000000000010BE51
:2B2C2D00020000000000000000000000000000000000000000000000000000000000000000800400000000000088A1CD
:2B2C5800020000000000000000000000000000000000000000000000000000000000000000000400000000000008A99A
:2B2C8300020000000000000000000000000000000000000000000000000000000000000000000404000000000008E92B
:2B2CAE00000000000000000000000000000000000000000000000000000000000000000000000000000040000080A398
:2B2CD900000000000000000000000000000000000000000000000000000000000000000000000000000058000000BABE
:2B2D0400000000000000000000000000000000000000000000000000000000000000000000000000000048000000ABB1
:2B2D2F00020000000000000000000000000000000000000000000000000000000000000000000000000050000008B867
:2B2D5A00020000000000000000000000000000000000000000000000000000000000000000000000000048000088A1DB
:2B2D8500040000000000000000000000000000000000000000000000000000000000000000000000000048000010BE09
:2B2DB000020000000000000000000000000000000000000000000000000000000000000000000000000040400008E985
:2B2DDB000200000000000000000000000000000000000000000000000000000000000000000000000000C0000088A9DA
:2B2E0600020000000000000000000000000000000000000000000040000000000000000000000400000440000008ED22
:2B2E3100000000000000000000000000000000000000000000000058000000000000000000800500800558000080E755
:2B2E5C00000000000000000000000000000000000000000000000048000000000000000000800400800448000080E74C
:2B2E8700000000000000000000000000000000000000000000000050000000000000000000000500000550000080E70F
:2B2EB200020000000000000000000000000000000000000000000048000000000000000000800400800448000008ED66
:2B2EDD00020000000000000000000000000000000000000000000048000000000000000000800400800448000008ED3B
:2B2F0800040000000000000000000000000000000000000000000040040000000000000000004400000440000090F24C
:2B2F3300020000000000000000000000000000000000000000000040000000000000000000000C00000C442000088D20
:2B2F5E00020000000000000000000000000000000000000000000000000000000000000040000400000000000008ED0D
:2B2F8900020000000000000000000000000000000000000000000000000000000000000058800500000000000008ED49
:2B2FB400000000000000000000000000000000000000000000000000000000000000000048800400000000000080E7BF
:2B2FDF00000000000000000000000000000000000000000000000000000000000000000050000500000000000080E70B
:2B300A00000000000000000000000000000000000000000000000000000000000000000048800400000000000080E768
:2B303500020000000000000000000000000000000000000000000000000000000000000048800400000000000008EDAD
:2B3060000200000000000000000000000000000000000000000000000000000000000000C0000404000000000088AD46
:2B308B00040000000000000000000000000000000000000000000000000000000000000040000C00000000000010F2C8
:2B30B600020000000000000000000000000000000000000000000040000000000000000040000000000440000008ED34
:2B30E100020000000000000000000000000000000000000000000058000000000000000058000000800558000008ED40
:2B310C00020000000000000000000000000000000000000000000048000000000000000048000000800448000008ED45
:2B313700000000000000000000000000000000000000000000000050000000000000000050000000000550000080E711
:2B316200000000000000000000000000000000000000000000000048000000000000000048000000800448000080E77F
:2B318D00000000000000000000000000000000000000000000000048000000000000000048000000800448000080E754
:2B31B800000000000000000000000000000000000000000000000040000000000000000040400000000444000008EFED
:2B31E3000200000000000000000000000000000000000000000000C0080000000000000040000000000C40400008A57E
:2B320E00020000000000000000000000000000000000000000000040000000000000000040000400000440000090B08B
:2B323900020000000000000000000000000000000000000000000058000000000000000058800500800558000088B01E
:2B326400020000000000000000000000000000000000000000000048000000000000000048800400800448000088A134
:2B328F00000000000000000000000000000000000000000000000050000000000000000050000500000550000008BA58
:2B32BA00000000000000000000000000000000000000000000000048000000000000000048800400800448000000AB5E
:2B32E500000000000000000000000000000000000000000000000048000000000000000048800400800448000000AB33
:2B3310000000000000000000000000000000000000000000000000C0000000000000000040000400000441000000B396
:2B333B000000000000000000000000000000000000000000000000C0000000000000000040200C010004C00800889353
:2B336600020000000000000000000000000000000000000000000040000000000000000040000000000440000008ED81
:2B339100020000000000000000000000000000000000000000000058000000000000000058000000800558000090F4FE
:2B33BC00020000000000000000000000000000000000000000000048000000000000000048000000800448000008ED93
:2B33E700020000000000000000000000000000000000000000000050000000000000000050000000000550000008EDCF
:2B341200000000000000000000000000000000000000000000000048000000000000000048000000800448000008EF3C
:2B343D00000000000000000000000000000000000000000000000048000000000000000048000000800448000080E7A1
:2B346800000000000000000000000000000000000000000000000040080000000000000040000000000440000080EFFE
:2B3493000A00000000000000000000000000000000000000000000C00000000000000000C02000000044C00400408993
:2B34BE00060000000000000000000000000000000000000000000020000000000000000020000200000220000078BC45
:2B34E900000000000000000000000000000000000000000000000000000000000000000000000000000000000080E751
:2B351400800008800008800008800008800008800008000000000000000220000220000200000020000000000280C5AF
:2B353F00800008800008800008800008800008800008000000000020000220000220000220000220000220000280E7FE
:2B356A00000000000000000000000000000000000000000000000000008005000000000000008A42012008048080F6C2
:2B359500000000000000000000000000004000000000000000000000000000000000100000000000000000000080F348
:2B35C000000000000000000000000000000000000000000000000000000000000000000080000000000000000000E779
:2B35EB00000000000000000000000000004000000000000000000020008000020000102020088000000200028800D39C
:2B361600000000000000000000000000000000000000000000000000000004020000002080000A02012008060880A878
:2B364100000000000000000000000000000000000000000000000000000000000000000000000000000000000080E7F7
:2B366C00000000000000000000000000000000000000000000000000000000000000000000000202000000000080E5CA
:2B3697000000000000000000000000000000000000000000000000000000000000000000001800000000204000809D73
:2B36C200000000000000000000000000000000000000000000000000000000000000000000000000004000000080E33A
:2B36ED00080000000000000000000000000000000000000000000000000000000000000000000004000000000080AF77
:2B371800000000000000000000000000000000000000000000000010000000000000000000000000000000000008FE70
:2B374300100000000000000000000000000000000000000000000000000000000000000000000000000000000080F7D4
:2B376E00000000000000000000000000000000000000000000000000000000000000000000000000000000000080E7C9
:2B379900000000000000000000000000000000000000000000000000000000000000000010000000000000000080F67F
:2B37C400000000000000000000000000000000000000000000000000000000000000000000000000000000000080E773
:2B37EF00000000000000000000000000000000000000000000000000000000000000000000000000000002080080CF56
:2B381A000000000000000000000000000000000000000000000000000000000000000000000000000000002000F0B0C3
:2B384500000000000000000000000000000000000000000000000000000000000000000000002000000000000080E5D3
:2B387000080000000000000000000000000000000000000000000000000000000000000000000000000000000080EFB6
:2B389B0000000000000000000000000000000100000000000000004000000000020000022000800840A400088400DBCA
:2B38C600000000000000000000000000800000000000000000000020000080088080088000088020008200088200E78C
:2B38F100000000000000000000000000000000000000000000000000000000000000000000000000000000000080E745
:2B391C00000000000000000000000000000000000000000000000000000000000000000000000000000000000080E719
:2B394700401004411004411004411004E110044110040100000000380441100EE1100EE1100EE13884E3108EE300C558
:2B397200601886611886611886611886611986611886010000000058876118D6611DD6611DD661DD86751DD67503C7EE
:02399D00FFFF2A
:00000001FF
