:020000040000FA
:2B000000FFFF62FF2500FFFFFFFFFFFFFFFFFFFFFFFFFFFFFFFFFFFFFFFFFFFFFFFFFFFFFFFFFFFFFFFFFFFFFFFFFF76
:2B002B0060188661188661198661188665188661188601000000001806CF1B96C11D5C6F7087C11DDC6118DC6100ED10
:2B005600401004411004E1100441108443100441100401000000001084A2100EA1108A422804A1100A41100A4100FC0F
:2B008100000000000000000000000000000000000000000000000000000000000000000000000000000000000080E7ED
:2B00AC00000000000000000000000000000000000000000000000000000000000000000000000000000000000080E7C2
:2B00D700000000000000800200000000020000000000000000000000000000080000000000000000000000000000C7AB
:2B0102000000000000002000000000C0000000000000000000000000000040000000000000000000000000000000C7EB
:2B012D00000000000000000000000000000000000000000000000000000000000000000000000000000000000080E740
:2B015800000000000000000000000000000000000000000000000000000000000000000000000000000000000080E715
:2B018300000000000000000000000000000000000000000000000000001110101110010000000000000000000080F688
:2B01AE00000000000000000000000000000000000000000000000000000004080000000000000000000000000080AFEB
:2B01D900000000000000000000000000000000000000000000000000000000000000000000000000000000000080E794
:2B020400000000000000000000000000000000000000000000000000000000000000000000000000000000000080E768
:2B022F00000000000000000000000000000000000000000000000000000000000000000000000000000000000080E73D
:2B025A00000000000000000000000000000000000000000000000000000000000000000000000000000000000080E712
:2B0285000000000000000000000000000000000000000000000000000008806088866000000000000000000000808FE9
:2B02B000000000000000000000000000000000000000000000000000000000108000010000000000000000000080FE14
:2B02DB00000000000000000000000000000000000000000000000000000000000000000000000000000000000080E791
:2B030600000000000000000000000000000000000000000000000000000000000000000000000000000000000080E765
:2B033100000000000000000000000000000000000000000000000000000000000000000000000000000000000080E73A
:2B035C00000000000000000000000000000000000000000000000000000000000400020000000000000000000080A14F
:2B03870000000000000000000000000000000000000000000000000000000200200000080000200002000AA22002E54C
:2B03B200000000000000000000000000000000000000000000000000000000000000000800000000000000000088EFA1
:2B03DD00020000000000000000000000000000000000000000000000000000000000000000000000000000000080E58E
:2B04080002000000000000000000000000000000000000000000000000000200200000000000200002000AA22082E74E
:2B043300020000000000000000000000000000000000000000000000000000000000000000000000000000000080E537
:2B045E00020000000000000000000000000000000000000000000000000000000000000000000000000000000080E50C
:2B048900000000000000000000000000000000000000000000000000000000000000000000000000000000000008EF51
:2B04B400800008800008800008800008800008800008000000000020000220000220000220000220000220000280E7BA
:2B04DF00800008800008800008800008800008800008000000000020000220000220000220000220000220000280E78F
:2B050A00000000000000000000000000000000000000000000000000000000000000000000000000000000000080E75F
:2B053500000000000000000000000000000000000000000000000000000098811918010000000000000000000000FF51
:2B056000020000000000000000000000000000000000000000000000000080000080000000000000000000000008ED79
:2B058B000200000000000000000000000000000000000000000000000000700087700000000000000000000000089242
:2B05B600020000000000000000000000000000000000000000000000000060000660200000000000000000000008AB7F
:2B05E1000200000000000000000000000000000000000000000000000000601046600000000000000000000000089F30
:2B060C00000000000000000000000000000000000000000000000000000000000000000000000000000000000080E75C
:2B06370000000000000000000000000000000000000000000000000000006000066000000000000000000000008081D1
:2B066200000000000000000000000000000000000000000000000000000000022000020000000000000000000080E5E4
:2B068D00000000000000000000000000000000000000000000000000000098800998000000000000000000000080FE0B
:2B06B800000000000000000000000000000000000000000000000000000000008000000000000000000000000008E7A8
:2B06E300020000000000000000000000000000000000000000000000000070080F700800000000000000000000009259
:2B070E00020000000000000000000000000000000000000000000000000060044660400000000000000000000080C331
:2B07390002000000000000000000000000000000000000000000000000006000066000000000000000000000008083CA
:2B076400020000000000000000000000000000000000000000000000000000000000000000000000000000000080E503
:2B078F0000000000000000000000000000000000000000000000000000006000066000000000000000000000000889E8
:2B07BA00000000000000000000000000000000000000000000000000000000000000000000000000000000000080E7AD
:2B07E500000000000000000000000000000000000000000000000000000098822998020000000000000000000080FC90
:2B081000000000000000000000000000000000000000000000000000000000000000000000000000000000000080E756
:2B083B00000000000000000000000000000000000000000000000000000070208F70200000000000000000000000984B
:2B086600020000000000000000000000000000000000000000000000000060000E600800000000000000000000888384
:2B0891000200000000000000000000000000000000000000000000000000E0080E600000000000000000000000088359
:2B08BC00020000000000000000000000000000000000000000000000000000000000000000000000000000000008ED1A
:2B08E7000200000000000000000000000000000000000000000000000000600006600000000000000000000000088B8B
:2B091200000000000000000000000000000000000000000000000000000000022000020000000000000000000080E531
:2B093D00000000000000000000000000000000000000000000000000000018800118000000000000000000000000FEE0
:2B096800000000000000000000000000000000000000000000000000000000000000000000000000000000000080E7FD
:2B0993000000000000000000000000000000000000000000000000000000F0200FF4080000000000000000000000F826
:2B09BE000000000000000000000000000000000000000000000000000000600006600000000000000000000000808147
:2B09E9000200000000000000000000000000000000000000000000000000E0100662040000000000000000000088BF3E
:2B0A1400020000000000000000000000000000000000000000000000000000000000000000000000000000000008EDC0
:2B0A3F000200000000000000000000000000000000000000000000000000600006600000000000000000000000088B31
:2B0A6A00020000000000000000000000000000000000000000000000000004000000000000000000000000000008ADA6
:2B0A9500000000000000000000000000000000000000000000000000800118822118020000000000000000000080E57B
:2B0AC000000000000000000000000000000000000000000000000000000800000000000000000000000000000000E71C
:2B0AEB000000000000000000000000000000000000000000000000000007F04007F4400000000000000000000080A747
:2B0B1600000000000000000000000000000000000000000000000000000662200660000000000000000000000080E75F
:2B0B4100000000000000000000000000000000000000000000000000000EE0000EE2100000000000000000000080D744
:2B0B6C00020000000000000000000000000000000000000000000000000000000000000000000000000000000008ED67
:2B0B9700020000000000000000000000000000000000000000000000000660000660000000000000000000000008ED70
:2B0BC200020000000000000000000000000000000000000000000000001000011000000000000000000000000008ECF1
:2B0BED00020000000000000000000000000000000000000000000000800118800198010000000000000000000088ECB4
:2B0C1800000000000000000000000000000000000000000000000000000000000080000000000000000000000000E74A
:2B0C4300000000000000000000000000000000000000000000000000008770404FF0000000000000000000000080ABE5
:2B0C6E00000000000000000000000000000000000000000000000000000660200662040000000000000000000080E306
:2B0C9900000000000000000000000000000000000000000000000000000664000E60000000000000000000000000A7B1
:2B0CC400000000000000000000000000000000000000000000000000000000000000000000000000000000000080E79E
:2B0CEF00020000000000000000000000000000000000000000000000000660000660000000000000000000000008ED17
:2B0D1A00020000000000000000000000000000000000000000000000000000000000010000000000000000000008ECB7
:2B0D4500020000000000000000000000000000000000000000000000801118811118000000000000000000000008EC3A
:2B0D7000020000000000000000000000000000000000000000000000000000008000000000000000000000000008E5E9
:2B0D9B000000000000000000000000000000000000000000000000000007F204077040000000000000000000000083F6
:2B0DC60000000000000000000000000000000000000000000000000000066140066210000000000000000000008087DC
:2B0DF100000000000000000000000000000000000000000000000000000EE00006E0000000000000000000000000E71C
:2B0E1C00000000000000000000000000000000000000000000000000000000000000000000000000000000000080E744
:2B0E4700000000000000000000000000000000000000000000000000000660000660000000000000000000000080E74D
:2B0E7200020000000000000000000000000000000000000000000000001000011000010000000000000000000008ED3C
:2B0E9D00020000000000000000000000000000000000000000000000800998800998000000000000000000000008EDF1
:2B0EC800020000000000000000000000000000000000000000000000000080000800000000000000000000000008ED80
:2B0EF300020000000000000000000000000000000000000000000000008FF00007F0040000000000000000000088E1EF
:2B0F1E00000000000000000000000000000000000000000000000000004660080661080000000000000000000080F318
:2B0F4900000000000000000000000000000000000000000000000000000E600006E0000000000000000000000080E7C2
:2B0F7400000000000000000000000000000000000000000000000000000000000000000000000000000000000080E7EB
:2B0F9F001E0000000000000000000000000000000000000000000000000660000660000000000000000000000028D342
:2B0FCA001E000000000000000000000000000000000000000000000000000000000000000000000000000000007886E0
:2B0FF500000000000000000000000000000000000000000000000000000000000000000000000000000000000080E76A
:2B102000800008800008800008800008800008800008000000000020000220000220000220000220000220000280E742
:2B104B00800008800008800008800008800008800008000000000020000220000220000220000220000220000280E717
:2B107600000000000000000000000000000000000000000000000000000040000000040000000000000000000080A7E4
:2B10A1000000000000000001000000000000000000000000000000000000400000000000000000000200002008009029
:2B10CC00000000000000000000000000000000000000000000000008000000000000000000000008000800800080EFF2
:2B10F700000000000000000100000000000000000000000000000000000220000000000000000000000002022080D631
:2B112200000000000000000000000000000000000000000000000008000040000000040000000008020802A22800ADCB
:2B114D00000000000000000000000000000000000000000000000000000000000040020000000000000000000080A114
:2B1178000000000000000000000000000000000000000000000000000002000000804000000000000000000000008505
:2B11A300000000000000000000000000000000000000000000000000000000070000000000000000000000000080E0BA
:2B11CE00000000000000000000000000000000000000000000000000000001004100080000000000000000000080EA42
:2B11F900000000000000000000000000000000000000000000000000000020000221000000000000000000000080D533
:2B122400000000000000000000000000000000000000000000000000000010000811000000000000000000000000F77F
:2B124F00000000000000000000000000000000000000000000000000000000000000000000000000000000000080E70D
:2B127A00000000000000000000000000000000000000000000000000000000000000000000000000000000000080E7E2
:2B12A500000000000000000000000000000000000000000000000000000000000400000000000000000000000080A3F7
:2B12D000000000000000000000000000000000000000000000000000000000000000000000000000000000000080E78C
:2B12FB00000000000000000000000000000000000000000000000000008004080000080000000000000000000080AF05
:2B132600000000000000000000000000000000000000000000000000000080201040000000000000000000000000822A
:2B135100000000000000000000000000000000000000000000000000000000000000000000000000000000000080E70A
:2B137C00000000000000000000000000000000000000000000000000002040000000000000000000000000000080A1C5
:2B13A700000000000000000000000000000000000000000000000000000000000000000000000000000000000080E7B4
:2B13D200000000000000000000000000000000000000000000000000000000000000000000000000000000000080E789
:2B13FD00000000000000000000000000000000000000000000000000000000000000000001100001000000000080F73C
:2B142800000000000000000000000000000000000000000000000000000000000000000221000200000000000080D51F
:2B145300000000000000000000000000000000000000000000000000000000000000000000000000000000000080E707
:2B147E00000000000000000000000000000000000000000000000000000000000000000000000000000000000080E7DC
:2B14A900000000000000000000000000000000000000000000000000000000000000000000000000000000000080E7B1
:2B14D400000000000000000000000000000000000000000000000000000000000000000000000000000000000080E786
:2B14FF00000000000000000000000000000000000000000000000000000000000000000886600806000000000000873F
:2B152A00000000000000000000000000000000000000000000000000000000000000000400080000000000000080AB5F
:2B155500000000000000000000000000000000000000000000000000000000000000000000000000000000000080E704
:2B158000000000000000000000000000000000000000000000000000000000000000000000000000000000000080E7D9
:2B15AB00000000000000000000000000000000000000000000000000000000000000000000000000000000000080E7AE
:2B15D600000000000000000000000000000000000000000000000000000000000000000800000000000000000000E7FB
:2B160100000000000000000000000000000000000000000000000000000800000000020008000000000008A02082EF73
:2B162C00020000000000000000000000000000000000000000000000000800000000000008000000000000000080ED14
:2B165700000000000000000000000000000000000000000000000000000000000000000000000001000000000008FF60
:2B168200000000000000000000000000000000000000000000000000000000000000020000000000000008A0200AEF7A
:2B16AD00000000000000000000000000000000000000000000000000000000000000000000000000000000000008EF1B
:2B16D800000000000000000000000000000000000000000000000000000000000000000000000000000000000008EFF0
:2B170300020000000000000000000000000000000000000000000000000000000000000000000000000000000080E554
:2B172E00800008800008800008800008800008800008000000000020000220000220000220000220000220000280E72D
:2B175900800008800008800008800008800008800008000000000020000220000220000220000220000220000280E702
:2B178400000000000000000000000000000000000000000000000000000000000000000000010000000000000080E6D3
:2B17AF00000000000000000000000000000000000000000000000000000000000000801998801900000000000080FEC7
:2B17DA00020000000000000000000000000000000000000000000000000000000000004000000800000000000088E929
:2B180500020000000000000000000000000000000000000000000000000000000000000F70200F00000000000008BA46
:2B183000020000000000000000000000000000000000000000000000000000000000000E601006010000000000888BF3
:2B185B000200000000000000000000000000000000000000000000000000000000000006E0000E000000000000088BD9
:2B188600000000000000000000000000000000000000000000000000000000000000000000000000000000000080E7D0
:2B18B100000000000000000000000000000000000000000000000000000000000000000660000600000000000080819F
:2B18DC00000000000000000000000000000000000000000000000000000000000000002000022000000000000080E53A
:2B190700000000000000000000000000000000000000000000000000000000000000800998800900000000000080FE8D
:2B193200000000000000000000000000000000000000000000000000000000000000000000004000000000000080E3E7
:2B195D000200000000000000000000000000000000000000000000000000000000000087F0200F00000000000008B2FD
:2B19880002000000000000000000000000000000000000000000000000000000000000066000860000000000000883BB
:2B19B300020000000000000000000000000000000000000000000000000000000000000662100E00000000000088BB3E
:2B19DE00020000000000000000000000000000000000000000000000000000000000000000000000000000000008EDE7
:2B1A09000000000000000000000000000000000000000000000000000000000000000006600006000000000000808145
:2B1A3400000000000000000000000000000000000000000000000000000000000000000000000000000000000080E720
:2B1A5F00000000000000000000000000000000000000000000000000000000000000802998822900000000000080FCF4
:2B1A8A00000000000000000000000000000000000000000000000000000000000000008000000000000000000080EF42
:2B1AB500000000000000000000000000000000000000000000000000000000000000000FF0408700000000000080D8E8
:2B1AE0000200000000000000000000000000000000000000000000000000000000000086602006020000000000088340
:2B1B0B000200000000000000000000000000000000000000000000000000000000000006600006000000000000088BAE
:2B1B3600020000000000000000000000000000000000000000000000000000000000000000000000000000000008ED8D
:2B1B61000200000000000000000000000000000000000000000000000000000000000006600006000000000000088B58
:2B1B8C00000000000000000000000000000000000000000000000000000000000000002000022000000000000080E587
:2B1BB700000000000000000000000000000000000000000000000000000000000000800118800100000000000000FEEB
:2B1BE200000000000000000000000000000000000000000000000000000000000000000000000000000000000080E771
:2B1C0D00000000000000000000000000000000000000000000000000000000000000000F72400702000000000000D012
:2B1C380000000000000000000000000000000000000000000000000000000000000000066040060400000000008081D0
:2B1C6300020000000000000000000000000000000000000000000000000000000000004660000E000000000000888F89
:2B1C8E00020000000000000000000000000000000000000000000000000000000000000000000000000000000008ED34
:2B1CB9000200000000000000000000000000000000000000000000000000000000000006600006000000000000088BFF
:2B1CE400020000000000000000000000000000000000000000000000000000000000000000000000000000000008EDDE
:2B1D0F00000000000000000000000000000000000000000000000000000000000000802118822100000000000000FC51
:2B1D3A00000000000000000000000000000000000000000000000000000000000000000000000000000000000080E717
:2B1D6500000000000000000000000000000000000000000000000000000000000000000FF4040F02000000000000F447
:2B1D90000000000000000000000000000000000000000000000000000000000000000006E100060000000000000091AA
:2B1DBB00000000000000000000000000000000000000000000000000000000000000000660008E000000000000888100
:2B1DE600020000000000000000000000000000000000000000000000000000000000000000000000000000000080E56B
:2B1E11000200000000000000000000000000000000000000000000000000000000000006600006000000000000808335
:2B1E3C00020000000000000000000000000000000000000000000000000000000000001000001000000000000080E5F4
:2B1E6700020000000000000000000000000000000000000000000000000000000000800198810100000000000080FD36
:2B1E9200000000000000000000000000000000000000000000000000000000000000000000040000000000000008EB2E
:2B1EBD000000000000000000000000000000000000000000000000000000000000000007F4000F0400000000008090DC
:2B1EE800000000000000000000000000000000000000000000000000000000000000000662080600000000000080A930
:2B1F1300000000000000000000000000000000000000000000000000000000000000000E60000601000000000000919D
:2B1F3E00000000000000000000000000000000000000000000000000000000000000000000000000000000000080E711
:2B1F69000200000000000000000000000000000000000000000000000000000000000006600006000000000000088B4C
:2B1F9400020000000000000000000000000000000000000000000000000000000000000000000000000000000008ED2B
:2B1FBF00020000000000000000000000000000000000000000000000000000000000801118811100000000000088F53D
:2B1FEA00020000000000000000000000000000000000000000000000000000000000000000000000000000000008EDD5
:2B201500000000000000000000000000000000000000000000000000000000000000004F70080704000000000000DCF2
:2B204000000000000000000000000000000000000000000000000000000000000000000664080E00000000000000C92C
:2B206B000000000000000000000000000000000000000000000000000000000000000006E000060000000000000081DD
:2B209600000000000000000000000000000000000000000000000000000000000000000000000000000000000080E7B8
:2B20C1000000000000000000000000000000000000000000000000000000000000000006600006000000000000808187
:2B20EC00020000000000000000000000000000000000000000000000000000000000001000011000000000000008ECB2
:2B211700020000000000000000000000000000000000000000000000000000000000800918800900000000000088F4F5
:2B214200020000000000000000000000000000000000000000000000000000000000000880000000000000000008EDF3
:2B216D00020000000000000000000000000000000000000000000000000000000000000FF0004F000000000000889ED1
:2B2198000000000000000000000000000000000000000000000000000000000000000046600446000000000000808527
:2B21C3000000000000000000000000000000000000000000000000000000000000000006600006000000000000808184
:2B21EE00000000000000000000000000000000000000000000000000000000000000000000000000000000000080E75F
:2B2219000E0000000000000000000000000000000000000000000000000000000000000660000600000000000078F0B8
:2B2244001E0000000000000000000000000000000000000000000000000000000000000000000000000000000058A455
:2B226F00000000000000000000000000000000000000000000000000000000000000000000000000000000000080E7DD
:2B229A00800008800008800008800008800008800008000000000020000220000220000220000220000220000280E7B6
:2B22C500800008800008800008800008800008800008000000000020000220000220000220000220000220000280E78B
:2B22F000000000000000000000000000000000000000000000000000000000000020000000001400000000000080808F
:2B231B00000000000000000000000010000000000000000000000000000000000000000000000000020000200800D489
:2B234600000000000000000000000000000000000000000000000000000000000000000000000000000000000080E705
:2B237100000000000000000000000010000000000000000000000000000000002020020002202000000000000080D657
:2B239C00000000000000000000000000000000000000000000000000000000002000020002203000020000200800C6B2
:2B23C700000000000000000000000000000000000000000000000000000000000000000400000000000000000080A3C4
:2B23F20000000000000000000000000000000000000000000000000000000000000000008400100200000000000086A4
:2B241D00000000000000000000000000000000000000000000000000000000000000008100041000000000000080FB84
:2B24480000000000000000000000000000000000000000000000000000000000000000000001A000000000000080EC5C
:2B247300000000000000000000000000000000000000000000000000000000000000000220000200000000000080C5D5
:2B249E00000000000000000000000000000000000000000000000000000000000000000110000100000000000080F68B
:2B24C900000000000000000000000000000000000000000000000000000000000000000000000000000000000080E781
:2B24F400000000000000000000000000000000000000000000000000000000000000000000000000000000000080E756
:2B251F00000000000000000000000000000000000000000000000000000000000000000010000000000000000080F60B
:2B254A00000000000000000000000000000000000000000000000000000000000000000000000400000000000080A33F
:2B25750000000000000000000000000000000000000000000000000000000000000000000008C100000000000080F200
:2B25A000000000000000000000000000000000000000000000000000000000000000005040400000000000000080E6DA
:2B25CB00000000000000000000000000000000000000000000000000000000000000000000000000000000000080E77E
:2B25F600000000000000000000000000000000000000000000000000000000000000000000020000000000000080E553
:2B262100000000000000000000000000000000000000000000000000000000000000000000000000000000000090F608
:2B264C00000000000000000000000000000000000000000000000000000000000000000000000000000000000080E7FC
:2B267700000000000000000000000000000000000000000000000000000000000000000000000000000000000480A311
:2B26A2000000000000000000000000000000000000000000000000000000000000000000000000000000000000C0A3AA
:2B26CD00100000000000000000000000000000000000000000000000000000000000000000000000000001000080E76A
:2B26F800000000000000000000000000000000000000000000000000000000000000000000000000000000000080E750
:2B272300000000000000000000000000000000000000000000000000000000000000000000000000000000000080E724
:2B274E00000000000000000000000000000000000000000000000000000000000000000000000000000000000080E7F9
:2B277900000000000000000000000000000000000000000000000000000000000000000000000000000104000080B6FA
:2B27A400000000000000000000000000000000000000000000000000000000000000000000000000000000000080E7A3
:2B27CF00040000000000000000000000000000000000000000000000000000000000000000000000000000000080E378
:2B27FA00000000000000000000000000000000000000000000000000000000000000000000000000000000000080E74D
:2B282500000000000000000000000000000000000000000000000000000000000000000000000080000080000800E799
:2B285000000000000000000000000000000000000000000000000000000000000000000000000000000000000080E7F6
:2B287B0000000000000000000000000000000000000000000000000000000000000000000000000400080B300081BFAB
:2B28A600020000000000000000000000000000000000000000000000000000000000000000000000000020008208E576
:2B28D100020000000000000000000000000000000000000000000000000000000000000000000000000000000008EDE5
:2B28FC00040000000000000000000000000000000000000000000000000000000000000000000004000001100091A265
:2B29270002000000000000000000000000000000000000000000000000000000000000000000000000080A200008E564
:2B295200020000000000000000000000000000000000000000000000000000000000000000000000000000000008ED63
:2B297D00020000000000000000000000000000000000000000000000000000000000000000000000000000000008ED38
:2B29A800800008800008800008800008800008800008000000000020000220000220000220000220000220000280E7A1
:2B29D300800008800008800008800008800008800008000000000020000220000220000220000220000220000280E776
:2B29FE00000000000000000000000000000000000000000000000000000000000000000000000000000080000880E7BF
:2B2A2900000000000000000000000000000000000000000000000000000000000000000000000000801918800180FFD1
:2B2A5400020000000000000000000000000000000000000000000000000000000000000000000000000800000088EDD8
:2B2A7F00020000000000000000000000000000000000000000000000000000000000000000000000000F1040018C9AA4
:2B2AAA000200000000000000000000000000000000000000000000000000000000000000000000000046000000088F22
:2B2AD5000200000000000000000000000000000000000000000000000000000000000000000000000006000880088BB3
:2B2B00000000000000000000000000000000000000000000000000000000000000000000000000000000600000808149
:2B2B2B00000000000000000000000000000000000000000000000000000000000000000000000000000600000680E70C
:2B2B5600000000000000000000000000000000000000000000000000000000000000000000000000000000000800E765
:2B2B8100000000000000000000000000000000000000000000000000000000000000000000000000800901800100F727
:2B2BAC00000000000000000000000000000000000000000000000000000000000000000000000000000800000088EF7F
:2B2BD70002000000000000000000000000000000000000000000000000000000000000000000000000070000070CAD0A
:2B2C0200020000000000000000000000000000000000000000000000000000000000000000000000000602000090B25B
:2B2C2D00020000000000000000000000000000000000000000000000000000000000000000000000000E0000808883E1
:2B2C5800020000000000000000000000000000000000000000000000000000000000000000000000000000000008ED5A
:2B2C8300000000000000000000000000000000000000000000000000000000000000000000000000000600000008898F
:2B2CAE00000000000000000000000000000000000000000000000000000000000000000000000000001000001080E774
:2B2CD900000000000000000000000000000000000000000000000000000000000000000000000000800100800180E767
:2B2D0400000000000000000000000000000000000000000000000000000000000000000000000000000800001000E6A6
:2B2D2F00000000000000000000000000000000000000000000000000000000000000000000000000000F00000F80E7F4
:2B2D5A00020000000000000000000000000000000000000000000000000000000000000000000000000602000609DD58
:2B2D8500020000000000000000000000000000000000000000000000000000000000000000000000000600000E88ED98
:2B2DB000020000000000000000000000000000000000000000000000000000000000000000000000000000000008ED01
:2B2DDB00020000000000000000000000000000000000000000000000000000000000000000000000000600000608EDCA
:2B2E0600000000000000000000000000000000000000000000000000000000000000000000000000000080000880E7B2
:2B2E31000000000000000000000000000000000000000000000000000000000000000000000000008029188007809A14
:2B2E5C0000000000000000000000000000000000000000000000000000000000000000000000000000006000008081EA
:2B2E8700000000000000000000000000000000000000000000000000000000000000000000000000000714400184D070
:2B2EB200000000000000000000000000000000000000000000000000000000000000000000000000000604000080C1AA
:2B2EDD000200000000000000000000000000000000000000000000000000000000000000000000000006000880088BA7
:2B2F0800020000000000000000000000000000000000000000000000000000000000000000000000000000000008EDA7
:2B2F33000200000000000000000000000000000000000000000000000000000000000000000000000006000000088BD8
:2B2F5E00020000000000000000000000000000000000000000000000000000000000000000000000000080000088ED51
:2B2F8900000000000000000000000000000000000000000000000000000000000000000000000000802118801100FDD6
:2B2FB400000000000000000000000000000000000000000000000000000000000000000000000000000000000080E78B
:2B2FDF00000000000000000000000000000000000000000000000000000000000000000000000000004F10402F80B0C9
:2B300A00000000000000000000000000000000000000000000000000000000000000000000000000000660000E0081A6
:2B303500000000000000000000000000000000000000000000000000000000000000000000000000000E02080E80CFFB
:2B306000020000000000000000000000000000000000000000000000000000000000000000000000000000000008ED4E
:2B308B00020000000000000000000000000000000000000000000000000000000000000000000000000600000608ED17
:2B30B6000200000000000000000000000000000000000000000000000000000000000000000000E00000010000889BE9
:2B30E100020000000000000000000000000000000000000000000000000000000000000000000018800900804108F068
:2B310C00000000000000000000000000000000000000000000000000000000000000000000000000000800002000E58B
:2B313700000000000000000000000000000000000000000000000000000000000000000000000010400700000F00B651
:2B316200000000000000000000000000000000000000000000000000000000000000000000000000000600000680E7CF
:2B318D00000000000000000000000000000000000000000000000000000000000000000000000000080E04008E80A748
:2B31B800000000000000000000000000000000000000000000000000000000000000000000000000000000000080E785
:2B31E300020000000000000000000000000000000000000000000000000000000000000000000000000600000608EDBE
:2B320E00020000000000000000000000000000000000000000000000000000000000000000000000000000000888ED16
:2B323900020000000000000000000000000000000000000000000000000000000000000000000000801100800108EC62
:2B326400020000000000000000000000000000000000000000000000000000000000000000000000000000000008ED48
:2B328F000000000000000000000000000000000000000000000000000000000000000000000000000007040001848103
:2B32BA00000000000000000000000000000000000000000000000000000000000000000000000000000604000080C19E
:2B32E500000000000000000000000000000000000000000000000000000000000000000000000000000E00008600EF3B
:2B331000000000000000000000000000000000000000000000000000000000000000000000000000000000000080E72B
:2B333B0000000000000000000000000000000000000000000000000000000000000000000000000000060000000889D0
:2B336600020000000000000000000000000000000000000000000000000000000000000000000000001000002008EE14
:2B339100020000000000000000000000000000000000000000000000000000000000000000000000800900800110F401
:2B33BC00020000000000000000000000000000000000000000000000000000000000000000000000000000000008EDEF
:2B33E700020000000000000000000000000000000000000000000000000000000000000000000000004F00002788EBD0
:2B341200000000000000000000000000000000000000000000000000000000000000000000000000004600000608EB50
:2B343D00000000000000000000000000000000000000000000000000000000000000000000000000000E00004E80E3A5
:2B346800000000000000000000000000000000000000000000000000000000000000000000000000000000000080E7D2
:2B3493000A0000000000000000000000000000000000000000000000000000000000000000000000000600000628C709
:2B34BE001E00000000000000000000000000000000000000000000000000000000000000000000000000000000F08E47
:2B34E900000000000000000000000000000000000000000000000000000000000000000000000000000000000080E751
:2B351400800008800008800008800008800008800008000000000020000220000220000220000220000220000280E729
:2B353F00800008800008800008800008800008800008000000000020000220000220000220000220000220000280E7FE
:2B356A00000000000000000000000000000000000000000000000000000000000000000000000000020000A00000CDC7
:2B359500000000000000000000000000000000000000000000000000000000000008000000000000000000100400BB34
:2B35C000000000000000000000000000000000000000000000000000800000000000000000000000000000000000EF71
:2B35EB00000000000000000000000000000000000000000000000000000000000000000000000000080000000080EF3E
:2B361600000000000000000000000000000000000000000000000000800000000008000000000000020000B0040099B2
:2B364100000000000000000000000000000000000000000000000000000000000000000000000010402010401184B554
:2B366C00000000000000000000000000000000000000000000000000000000000000000000000000000604000080C1E8
:2B369700000000000000000000000000000000000000000000000000000000000000000000000000000002000280E59F
:2B36C200000000000000000000000000000000000000000000000000000000000000000000000000008003000180CE0B
:2B36ED00000000000000000000000000000000000000000000000000000000000000000000000000000200000080C56B
:2B371800000000000000000000000000000000000000000000000000000000000000000000000000002100000008FC61
:2B374300000000000000000000000000000000000000000000000000000000000000000000000000000000000080E7F4
:2B376E00000000000000000000000000000000000000000000000000000000000000000000000000000000000080E7C9
:2B379900000000000000000000000000000000000000000000000000000000000000000000000000000000000080E79E
:2B37C400000000000000000000000000000000000000000000000000000000000000000000000000000000000080E773
:2B37EF00000000000000000000000000000000000000000000000000000000000000000000000000000000000080E748
:2B381A00000000000000000000000000000000000000000000000000000000000000000000000000000000000080E71C
:2B384500000000000000000000000000000000000000000000000000000000000000000000000000000000000080E7F1
:2B387000000000000000000000000000000000000000000000000000000000000000000000000000000000002080E5A8
:2B389B00000000000000000000000000000000000000000000000000000000020000000000000000000000000080E59B
:2B38C600000000000000000000000000000000000000000000000000000080080000000000000000000000000000EF60
:2B38F100000000000000000000000000000000000000000000000000000000000000000000000000000000000080E745
:2B391C00000000000000000000000000000000000000000000000000000000000000000000000000000000000080E719
:2B3947004010044110044110044110044110044110040100000000280441100EA1100AA1100AA12884A2108AA280EDBE
:2B39720060188661188661188661188661188661188601000000007087611896C11DDCC11BBCC17507CF1B5CD70596E3
:02399D00FFFF2A
:00000001FF
