:020000040000FA
:2B000000FFFF62FF2500FFFFFFFFFFFFFFFFFFFFFFFFFFFFFFFFFFFFFFFFFFFFFFFFFFFFFFFFFFFFFFFFFFFFFFFFFF76
:2B002B006018866118DCC11DDC611886617087611886010000000018866118866118067718866118866118866100E3D3
:2B00560040100441100AA1100A411004412804411004010000000010044110044110844210044110044110044100B7C7
:2B008100000000000000000000000000000000000000000000000000000000000000000000000000000000000080E7ED
:2B00AC00000000000000000000000000000000000000000000000000000000000000000000000000000000000080E7C2
:2B00D700000000000000000000000000000000000000000000000000000000000000000000000000000000000080E797
:2B010200000000000000000000000000000000000000000000000000000000000000000000000000000000000080E76B
:2B012D000200000000000000000000000000000000000000000000000000000000000000000000000000000000A0C73E
:2B015800000000000000000000000000000000000000000000000000000000000000000000000000000000000080E715
:2B018300000000000000000000000000000000000000000000000000000000000000000000000000010000000080E6EA
:2B01AE00000000000000000000000000000000000000000000000000000000000000000000000000000000000080E7BF
:2B01D900080000000000000000000000000000000000000000000000000000000000000000000000000000000080EF84
:2B020400000000000000000000000000000000000000000000000000000000000000000000000000000000000080E768
:2B022F00000000000000000000000000000000000000000000000000000000000000000000000000000000000080E73D
:2B025A00000000000000000000000000000000000000000000000000000000000000000000000000000000000080E712
:2B028500000000000000000000000000000000000000000000000000000000000000000000000000000000000008EF57
:2B02B000080000000000000000000000000000000000000000000000000000000000000000000000000000000080EFAC
:2B02DB00000000000000000000000000000000000000000000000000000000000000000000000000000000000080E791
:2B030600000000000000000000000000000000000000000000000000000000000000000000000000000000000080E765
:2B033100000000000000000000000000000000000000000000000000000000000000000000000000000000000080E73A
:2B035C00000000000000000000000000000000000000000000000000000000000000000000000000000000000080E70F
:2B038700000002000000000000000000000000000080000000000000000000002000800000000000000000000180DCCC
:2B03B200020000000000000000000000000000000080000000000000000000000000800000000000000000000008E531
:2B03DD00000000000000000000000000000000000000000000000000000000000000000000000000000000000080E78E
:2B040800000000000000000000000000000000000000000000000000000000000000000000000000000000000080E762
:2B04330000000A000000000000000000000000000000000000000000000000002000000000000000000000000100DC97
:2B045E00000000000000000000000000000000000000000000000000000000000000000000000000000000000080E70C
:2B048900020000000000000000000000000000000000000000000000000000000000000000000000000000000008ED51
:2B04B400800008800008800008800008800008800008000000000020000220000220000220000220000220000280E7BA
:2B04DF00800008800008800008800008800008800008000000000020000220000220000220000220000220000280E78F
:2B050A00000000000000000000000000000000000000000000000000000000000000000000000000000000000080E75F
:2B053500620A00000000000000000000000000000000000000000000000000000000000000000000000000000088AFF8
:2B056000220000000000000000000000000000000000000000000000000000000000000000000000000000000008CD79
:2B058B00440000000000000000000000000000000000000000000000000000000000000000000000000000000090B2BF
:2B05B600A20100000000000000000000000000000000000000000000000000000000000000000000000000000088D41B
:2B05E100A20100000000000000000000000000000000000000000000000000000000000000000000000000000088D4F0
:2B060C00820100000000000000000000000000000000000000000000000000000000000000000000000000000088F4C4
:2B063700800100000000000000000000000000000000000000000000000000000000000000000000000000000000FE19
:2B066200000800000000000000000000000000000000000000000000000000000200000000000000000000000000C59E
:2B068D00600000000000000000000000000000000000000000000000000000800200000000000000000000000000ADB3
:2B06B800220000000000000000000000000000000000000000000000000000800200000000000000000000000088E704
:2B06E3004000000000000000000000000000000000000000000000000000000003000000000000000000000000809495
:2B070E00A00100000000000000000000000000000000000000000000000000800200000000000000000000000080F429
:2B073900A00100000000000000000000000000000000000000000000000000800200000000000000000000000080F4FE
:2B076400800100000000000000000000000000000000000000000000000000000200000000000000000000000000DC0B
:2B078F00820100000000000000000000000000000000000000000000000000008200000000000000000000000088DED4
:2B07BA00000000000000000000000000000000000000000000000000000000000000000000000000000000000080E7AD
:2B07E50060080000000000000000000000000000000000000000000000000000000000000000000000000000000087FA
:2B081000200000000000000000000000000000000000000000000000000000000000000000000000000000000080C756
:2B083B00420000000000000000000000000000000000000000000000000000000000000000000000000000000008AD9B
:2B086600A20100000000000000000000000000000000000000000000000000000000000000000000000000000088D468
:2B089100A40100000000000000000000000000000000000000000000000000000000000000000000000000000010CBBC
:2B08BC00820100000000000000000000000000000000000000000000000000000000000000000000000000000088F412
:2B08E700820100000000000000000000000000000000000000000000000000000000000000000000000000000088F4E7
:2B091200020400000000000000000000000000000000000000000000000000000000000000000000000000000008A903
:2B093D00600000000000000000000000000000000000000000000000000000000000000000000000000000802700FA8E
:2B096800200000000000000000000000000000000000000000000000000000000000000000000000000000000080C7FD
:2B099300400000000000000000000000000000000000000000000000000000000000000000000000000000000F049056
:2B09BE00A20100000000000000000000000000000000000000000000000000000000000000000000000000000688B22B
:2B09E900A20100000000000000000000000000000000000000000000000000000000000000000000000000004E80BEB4
:2B0A1400840100000000000000000000000000000000000000000000000000000000000000000000000000000000FA38
:2B0A3F008201000000000000000000000000000000000000000000000000000000000000000000000000000006009A69
:2B0A6A00020000000000000000000000000000000000000000000000000000000000000000000000000000000080E5FA
:2B0A9500620400000000000000000000000000000000000000000000000000808600000000000000000000000088AF93
:2B0AC000200000000000000000000000000000000000000000000000000000800800000000000000000000000080CF14
:2B0AEB00400000000000000000000000000000000000000000000000000000000700000000000000000000000080D049
:2B0B1600A00100000000000000000000000000000000000000000000000000800800000000000000000000000000D6B5
:2B0B4100A20100000000000000000000000000000000000000000000000000800E00000000000000000000000088BA16
:2B0B6C0082010000000000000000000000000000000000000000000000000000060000000000000000000000008892BB
:2B0B9700840100000000000000000000000000000000000000000000000000000000000000000000000000000010EBB3
:2B0BC200020400100000000000000000000000000000000000000000000000000000000000000000000000000008B931
:2B0BED00620226000000000000000000000000000000000000000000000000800804000000000000000000000008A51A
:2B0C1800220000010000000000000000000000000000000000000000000000800000000000000000000000000088C4C2
:2B0C4300400004000000000000000000000000000000000000000000000000008500000000000000000000000080BA83
:2B0C6E00A00100000000000000000000000000000000000000000000000000800E00000000000000000000000000B07C
:2B0C9900A00100000000000000000000000000000000000000000000000000800600000000000000000000000080B0D9
:2B0CC400820118000000000000000000000000000000000000000000000000000E000000000000000000000000888B49
:2B0CEF00800118000000000000000000000000000000000000000000000000000A00000000000000000000000000C572
:2B0D1A00000000000000000000000000000000000000000000000000000000000000000000000000000000001080E638
:2B0D4500600600000000000000000000000000000000000000000000000000000000000000000000000000800980F81C
:2B0D7000200000000000000000000000000000000000000000000000000000000000000000000000000000000680A111
:2B0D9B00420000000000000000000000000000000000000000000000000000000000000000000000000000004708DEBE
:2B0DC600A00100000000000000000000000000000000000000000000000000000000000000000000000000000600B8A3
:2B0DF100A001000000000000000000000000000000000000000000000000000000000000000000000000000008849E0C
:2B0E1C00800100000000000000000000000000000000000000000000000000000000000000000000000000000600988C
:2B0E470082010000000000000000000000000000000000000000000000000000000000000000000000000000068892DD
:2B0E7200020100000000000000000000000000000000000000000000000000000000000000000000000000000008FC4E
:2B0E9D00640100000000000000000000000000000000000000000000000000808000000000000098400000000010DA03
:2B0EC800220100000000000000000000000000000000000000000000000000800E00000000000060040000000008D012
:2B0EF3004201000000000000000000000000000000000000000000000000000007000000000000F0000000000088BC56
:2B0F1E00220100000000000000000000000000000000000000000000000000800600000000000000000000000088B2C5
:2B0F49002001000000000000000000000000000000000000000000000000008006000000000000E0080000000080D698
:2B0F7400004100000000000000000000000000000000000000000000000000000000000000000000000000000080F29F
:2B0F9F000A03000000000000000000000000000000000000000000000000000000000000000000600000000000289200
:2B0FCA001A0000000000000000000000000000000000000000000000000000000000000000000000000000000028D7E3
:2B0FF500800000000000000000000000000000000000000000000000000000000200000000000000000000000000CD82
:2B102000000008800008800008800008800008800008000000000020000220004020000220000220000220000200C922
:2B104B00800008800008800008800008800008800008000000000020000220000020000220000220000220000280C53B
:2B107600000080000000000000000000000000000000000000000000000000802004000000000010000040000080F863
:2B10A100000000000010000000000000000000000000000000000000000000000000000000000000000040000080B2A2
:2B10CC00000000000000000000000000000000000000000000000000000000000000000000000000000000800000EF8A
:2B10F700000000000010000000000000000000000000000000000000000000000000000000000000000000020080F448
:2B112200000080000000000000000000000000000000000000000000000000802004000000000010000040820000F2BA
:2B114D0000000000000000000000000000000000000000000000000000000000080000000000000000000000060081E8
:2B1178000000100000000000000000000000000000000000000000000000000004000000000000200000000000809008
:2B11A300000000000000000000000000000000000000000000000000000000000002000000000000000000000082E7B6
:2B11CE00000000080000000000000000000000000000000000000000000000000100000000000000000000000080FE6F
:2B11F900080000000000000000000000000000000000000000000000000000000000000000000000000000000080EF54
:2B122400000000000000000000000000000000000000000000000000000000000000000000000000000000000080E738
:2B124F00000000000000000000000000000000000000000000000000000000000000000000000000000000000080E70D
:2B127A00100000000000000000000000000000000000000000000000000000000000000000000000000000000080F7C2
:2B12A500000000000000000000000000000000000000000000000000000000000100000000000000000000000008FE17
:2B12D000020000000000000000000000000000000000000000000000000000000000000000000000000000000080E58C
:2B12FB00000000000000000000000000000000000000000000000000000000000000000000000000200000000080C761
:2B1326000000000000000000000000000000000000000000000000000000000000000000000000000000000000A0C537
:2B135100080000000000000000000000000000000000000000000000000000000000000000000000000000000080EFFA
:2B137C00000800000000000000000000000000000000000000000000000000000000000000000000000000000000E757
:2B13A700020000000000000000000000000000000000000000000000000000000000000000000000000000000080E5B4
:2B13D200080000000000000000000000000000000000000000000000000000000000000000000000000000000080EF79
:2B13FD00000000000000000000000000000000001400000000000000000000000000000000000000000000000080A28F
:2B142800000000000000000000000000000000000000000000000000000000000000000000000000000000000080E732
:2B1453000000000000000000000000000000000001000000000000000000000000000000000000000000000000C0B2FB
:2B147E00000000000000000000000000000000000000000000000000000000000000000000000000000000000080E7DC
:2B14A900000000000000000000000000000000000000000000000000000000000000000000000000000000000080E7B1
:2B14D400000000000000000000000000000000000000000000000000000000000000000000000000000000000080E786
:2B14FF00000000000000000000000000000000000000000000000000000000000000000000000000000000000080E75B
:2B152A000800000000000000000000000000000000000000000000000000000000000000000000000000000000C0AB23
:2B155500080000000000000000000000000000000000000000000000000000000000000000000000000000000080EFF4
:2B158000000000000000000000000000000000000000000000000000000000000000000000000000000000000080E7D9
:2B15AB00000000000000000000000000000000000000000000000000000000000000000000000000000000000080E7AE
:2B15D60000000000000000000000000000000000060000000000000000000000000000000000000000000000008081E3
:2B160100000002000000000002000000000000080800020000000000000000000000000000000000000000200000CDBB
:2B162C00020000000000000002000000000000000000000000000000000000000000000000000000000000000008CDBA
:2B165700000000000000000000000000000000080000000000000000000000000000000000000000000000000008E771
:2B168200000000000000000000000000000000000000000000000000000000000000000000000000000000000090F6B7
:2B16AD0000000A000000000000000000000000002800020000000000000000000000000000000000000000200008E7CF
:2B16D800000000000000000000000000000000000000000000000000000000000000000000000000000000000008EFF0
:2B170300020000000000000000000000000000000000000000000000000000000000000000000000000000000008EDC4
:2B172E00800008800008800008800008800008800008000000000020000220000220000220000220000220000280E72D
:2B175900800008800008800008800008800008800008000000000020000220000220000220000220000220000280E702
:2B178400000000000000000000000000000000000080000000000000000000000000000000000000000000000000E7D3
:2B17AF00620A00000000000000000000000000000006000000000000000000000000000000000000000098020088D4A7
:2B17DA00220000000000000000000000000000000002000000000000000000000000000000000000000008000000EDCB
:2B180500440000000000000000000000000000000004000000000000000000000000000000000000000010000080F2EE
:2B183000A2010000000000000000000000000000001A0000000000000000000000000000000000000000680000008BDD
:2B185B00A2010000000000000000000000000000001A0000000000000000000000000000000000000000680000008BB2
:2B1886008201000000000000000000000000000000180000000000000000000000000000000000000000600000088BA9
:2B18B1008001000000000000000000000000000000180000000000000000000000000000000000000000600000808112
:2B18DC00000800000000000000000000000000000080000000000000000000000000000000000000000000020080E5F2
:2B190700600000000000000000000000000000000026000000000000000000000000000000000000000018000000DC3B
:2B193200220000000000000000000000000000000002000000000000000000000000000000000000000008000000ED71
:2B195D00400000000000000000000000000000000004000000000000000000000000000000000000000010000008FE05
:2B198800A0010000000000000000000000000000001A0000000000000000000000000000000000000000680000888108
:2B19B300A0010000000000000000000000000000001A00000000000000000000000000000000000000006800008881DD
:2B19DE008001000000000000000000000000000000180000000000000000000000000000000000000000600000088954
:2B1A090082010000000000000000000000000000001800000000000000000000000000000000000000006000008083B4
:2B1A3400000000000000000000000000000000000000000000000000000000000000000000000000000000000080E720
:2B1A5F006008000000000000000000000000006008860000000000000000000000000000000000000000180200809CD0
:2B1A8A00200000000000000000000000000000000002000000000000000000000000000000000000000008000000EF18
:2B1AB500420000000000000000000000000000404004000000000000000000000000000000000000000010000008B870
:2B1AE000A2010000000000000000000000000000001A0000000000000000000000000000000000000000680000008B2B
:2B1B0B00A4010000000000000000000000000000421A000000000000000000000000000000000000000068000000AB9B
:2B1B3600820100000000000000000000000000000418000000000000000000000000000000000000000060000080C73E
:2B1B6100820100000000000000000000000000000118000000000000000000000000000000000000000060000080924B
:2B1B8C00020400000000000000000000000000800040000000000000000000000000000000000000000000010088E4FB
:2B1BB7006000000000000000000000000000006010060000000000000000000000000000000000000000180000009F76
:2B1BE200200000000000000000000000000000000102000000000000000000000000000000000000000008000000FEAF
:2B1C0D00400000000000000000000000000000400005000000000000000000000000000000000000000010000080A6F1
:2B1C3800A2010000000000000000000000000000001A0000000000000000000000000000000000000000680000008BD1
:2B1C6300A0010000000000000000000000000080221A000000000000000000000000000000000000000068000008A9E0
:2B1C8E008001000000000000000000000000000020180000000000000000000000000000000000000000600000088B7F
:2B1CB9008001000000000000000000000000000001180000000000000000000000000000000000000000600000089866
:2B1CE400000000000000000000000000000000801000000000000000000000000000000000000000000000000088E6D7
:2B1D0F00620400000000000000000000000000600246000000000000000000000000000000000000000018010000BFC3
:2B1D3A00200000000000000000000000000000004102000000000000000000000000000000000000000008000000FA19
:2B1D650040000000000000000000000000000040020400000000000000000000000000000000000000001000008094A9
:2B1D9000A0010000000000000000000000000000201A0000000000000000000000000000000000000000680000008B5A
:2B1DBB00A2010000000000000000000000000080021A000000000000000000000000000000000000000068000008A9A5
:2B1DE6008201000000000000000000000000000040180000000000000000000000000000000000000000600000808790
:2B1E11008401000000000000000000000000000001180000000000000000000000000000000000000000600000809494
:2B1E3C00020400000000000000000000000000000041000000000000000000000000000000000000000000010080F4BF
:2B1E6700620200000000000000000000000000600226000000000000000000000000000000000000000098000080BE8E
:2B1E9200220000000000000000000000000000804102000000000000000000000000000000000000000008000008F838
:2B1EBD00400000000000000000000000000000C003040000000000000000000000000000000000000000100000008D56
:2B1EE800A0010000000000000000000000000000101A0000000000000000000000000000000000000000680000008814
:2B1F1300A0010000000000000000000000000080011A00000000000000000000000000000000000000006800008090EF
:2B1F3E008201000000000000000000000000000000180000000000000000000000000000000000000000600000088BEA
:2B1F690080010000000000000000000000000080011800000000000000000000000000000000000000006000008890BB
:2B1F9400000000000000000000000000000000000001000000000000000000000000000000000000000000000090E6AB
:2B1FBF00600600000000000000000000000000600266000000000000000000000000000000000000000098010008B573
:2B1FEA00200000000000000000000000000000800102000000000000000000000000000000000000000008000008FE1B
:2B201500420000000000000000000000000000C01104000000000000000000000000000000000000000010000088A44D
:2B204000A0010000000000000000000000000000021A000000000000000000000000000000000000000068000000ABA5
:2B206B00A0010000000000000000000000000080011A0000000000000000000000000000000000000000680000809096
:2B2096008001000000000000000000000000000000180000000000000000000000000000000000000000600000808125
:2B20C1008201000000000000000000000000008001180000000000000000000000000000000000000000600000009ADE
:2B20EC00020100000000000000000000000000000011000000000000000000000000000000000000000040000008B9B4
:2B211700640100000000000000000000000000600216000000000000000000000000000000000000000058000088F4EC
:2B214200220100000000000000000000000000801112000000000000000000000000000000000000000048000008B9A3
:2B216D00420100000000000000000000000000C00314000000000000000000000000000000000000000050000088C392
:2B219800220100000000000000000000000000008012000000000000000000000000000000000000000048000000A17E
:2B21C30020010000000000000000000000000080031200000000000000000000000000000000000000004800008090E3
:2B21EE00004100000000000000000000000000000010000000000000000000000000000000000000000040000080A70E
:2B221900020300000000000000000000000000800130080000000000000000000000000000000000000040040050E167
:2B2244000A0000000000000000000000000000000000000000000000000000000000000000000000000000000058B05D
:2B226F00800000000000000000000000000000000008000000000000000000000000000000000000000020000080C557
:2B229A00000008800008800008800008800008800000000000000020000220000220000220000220000200000280C580
:2B22C500800008800008800008800008800008800008000000000020000220000220000220000220000220000280E78B
:2B22F000000000000000000000000000000000200C000000000000000000000000000000000000000000000000008314
:2B231B00000000000000000000000000000000000000000000000000000000000000000000000000000000000080E730
:2B234600000000000020000000000000008000000000000000000000000000000000000000000000000000000080CD7F
:2B237100000000000000000000000000000000000000000000000000000000000000000000000000000000040080E3DA
:2B239C00000000000020000000000000008000200C00000000000000000000000000000000000000000000040000AD99
:2B23C700000000000000000000000000000000000000000000000000000000000000000000000000000040000080A388
:2B23F200000000000000000000000000000000801000000000000000000000000000000000000000000000000000EE42
:2B241D00000000000000000000000000000000000000040000000000000000000000000000000000000000000080E32D
:2B244800000000000000000000000000000000004800000000000000000000000000000000000000000000000000E33E
:2B247300000000000000000000000000000000000800000000000000000000000000000000000000000000000000E74F
:2B249E00020000000000000000000000000000000000000000000000000000000000000000000000000000000080E5AC
:2B24C900000000000000000000000000000000000000000000000000000000000000000000000000000000000080E781
:2B24F400000000000000000000000000000000000000000000000000000000000000000000000000000000000090F637
:2B251F00080000000000000000000000000000400000000000000000000000000000000000000000000000000080AF1A
:2B254A00000000000000000000000000000000000100000000000000000000000000000000000000000000000080F6EF
:2B257500000000000000000000000000000000000001000000000000000000000000000000000000000000000080F7C3
:2B25A000000000000000000000000000000000000000000000000000000000000000000000000000000000000080E7A9
:2B25CB00000000000000000000000000000000000000000000000000000000000000000000000000000000000080E77E
:2B25F600000800000000000000000000000000008000000000000000000000000000000000000000000000000000EF43
:2B262100000000000000000000000000000400000000000000000000000000000000000000000000000000000080A367
:2B264C00000000000000000000000000800000000000000000000000000000000000000000000000000000000020CDF6
:2B267700000000000000000000000000000000000000000000000000000000000000000000000000000000000080E7D1
:2B26A200000000000000000000000000000000000000000000000000000000000000000000000000000000000080E7A6
:2B26CD00020000000000000000000000000000000000000000000000000000000000000000000000000000000080E57B
:2B26F800000000000000000000000000000000000000000000000000000000000000000000000000000000000080E750
:2B272300100000000000000000000000000000000000000000000000000000000000000000000000000000000080F704
:2B274E00000000000000000000000000000000000000000000000000000000000000000000000000000000000080E7F9
:2B277900000000000000000000000000000001000000000000000000000000000000000000000000000000000080F7BD
:2B27A4000200000000000000000000000004000000000000000000000000000000000000000000000000000000A083E1
:2B27CF00000000000000000000000000000000000000000000000000000000000000000000000000000000000080E778
:2B27FA00000000000000000000000000000000000000000000000000000000000000000000000000000000000008EFBD
:2B282500000000000000000000000000000200000000000000000000000000000000000000000000000000000080C541
:2B285000000000000000000000000000000000000000000000000000000000000000000000000000000000000080E7F6
:2B287B00000000000004200000000000208800000000000000000000000000000000020000000000000000000000ADB7
:2B28A6000200000000042000000000000000000000000000000000000000000000000000000000000000000000088D4C
:2B28D100020000000000000000000000000000040000000000000000000000000000000000000000000000000080E175
:2B28FC00040000000000000000000000000800000000000000000000000000000000000000000000000000000000E3C2
:2B292700020000000000000000000000208000040000000000000000000000000000020000000000000000000080CB92
:2B295200020000000000000000000000000000000000000000000000000000000000000000000000000000000080E5F3
:2B297D00020000000000000000000000000000000000000000000000000000000000000000000000000000000008ED38
:2B29A800800008800008800008800008800008800008000000000020000220000220000220000220000220000280E7A1
:2B29D300800008800008800008800008800008800008000000000020000220000220000220000220000220000280E776
:2B29FE00000000000000000000000000000000000000000000000000000000000000020000000000000000000080E547
:2B2A29000200000000000000A6000000601200000000000000000000000000000018000098020000802900000008F510
:2B2A5400000000000000000002000000800100000000000000000000000000000008000008000000800000000008DE5E
:2B2A7F00000000000000000004000000C01100000000000000000000000000000010000010000000000100000010FF27
:2B2AAA0000000000000000001A000000000000000000000000000000000000000068000068000000800600000008B8D1
:2B2AD50000000000000000001A00000080030100000000000000000000000000006800006800000080060000008893C7
:2B2B000002000000000000001800000000000000000000000000000000000000006000006000000000060000008892B0
:2B2B2B00000000000000000018000000800100000000000000000000000000000060000060000000000600000080811F
:2B2B5600000000000000000080000000800000000000000000000000000000000000020000020000002000000080EDC3
:2B2B8100000000000000000006000000601000000000000000000000000000000098000018000000800100000080FF03
:2B2BAC00020000000000000002000000004100000000000000000000000000000008000008000000800000000088D0D1
:2B2BD700000000000000000004000000400000000000000000000000000000000010000010000000000100000080F6F8
:2B2C020000000000000000001A000000000000000000000000000000000000000068000068000000800600000080B007
:2B2C2D0000000000000000001A000000800001000000000000000000000000000068000068000000800600000000A8E3
:2B2C58000000000000000000180000000020000000000000000000000000000000600000600000000006000000009AB9
:2B2C8300020000000000000018000000000300000000000000000000000000000060000060000000000600000088A11A
:2B2CAE00000000000000000000000000000000000000000000000000000000000000000000000000000000000080E794
:2B2CD9000000000000000000860000000000000000000000000000000000000000180200180200008021000000809C59
:2B2D0400000000000000000002000000000000000000000000000000000000000008000008000000800000000000CF43
:2B2D2F00020000000000000004000000000000000000000000000000000000000010000010000000000100000080B41E
:2B2D5A0002000000000000001A000000000000000000000000000000000000000068000068000000800600000008BA1A
:2B2D850004000000000000001A000000000000000000000000000000000000000068000068000000800600000008BCEB
:2B2DB00002000000000000001800000000000000000000000000000000000000006000006000000000060000008892FE
:2B2DDB0002000000000000001800000000000000000000000000000000000000006000006000000000060000008892D3
:2B2E0600020000000000000040000000000000000000000000000000000000000000010000010000001000000080A02D
:2B2E3100000000000000000006000000601200000000000000000000000000000018000018000000800100000000DD70
:2B2E5C00000000000000000002000000801100000000000000000000000000000008000008000000800000000080D7D1
:2B2E8700000000000000000004000000C00300000000000000000000000000000010000010000000000100000000CD6B
:2B2EB20002000000000000001A000000000000000000000000000000000000000068000068000000800600000008BAC1
:2B2EDD0002000000000000001A000000804100000000000000000000000000000068000068000000800600000000AFE8
:2B2F08000400000000000000180000000000000000000000000000000000000000600000600000000006000000009C20
:2B2F3300020000000000000018000000800100000000000000000000000000000060000060000000000600000080830F
:2B2F5E00020000000000000040000000801000000000000000000000000000000000000000000000001000000000A9BD
:2B2F8900020000000000000026000000600200000000000000000000000000000018010018010000800900000008F4DC
:2B2FB400000000000000000002000000000101000000000000000000000000000008000008000000800000000000CE90
:2B2FDF00000000000000000004000000400000000000000000000000000000000010000010000000000100000080F6EC
:2B300A0000000000000000001A0000000002000000000000000000000000000000680000680000008006000000809217
:2B30350002000000000000001A000000800000000000000000000000000000000068000068000000800600000088B244
:2B306000020000000000000018000000000000000000000000000000000000000060000060000000000600000088924B
:2B308B000400000000000000180000000021000000000000000000000000000000600000600000000006000000109E69
:2B30B600020000000000000080000000000000000000000000000000000000000000010000010000002000000088EFD4
:2B30E100020000000000000026000000601200000000000000000000000000000098000098000000800900000008F574
:2B310C00020000000000000002000000804100000000000000000000000000000008000008000000800000000008D863
:2B313700000000000000000004000000C00100000000000000000000000000000010000010000000000100000000EF98
:2B31620000000000000000001A000000000001000000000000000000000000000068000068000000800600000080A0B1
:2B318D0000000000000000001A0000008003000000000000000000000000000000680000680000008006000000008B99
:2B31B80002000000000000001800000000000000000000000000000000000000006000006000000000060000008892F2
:2B31E3000000000000000000180000008001000000000000000000000000000000600000600000000006000000808161
:2B320E00000000000000000000000000000000000000000000000000000000000000000040000000000000000080A332
:2B323900000000000000000066000000000000000000000000000000000000000098010058000000801900000000BCBE
:2B3264000000000000000000020000000000000000000000000000000000000000080000480000008000000000008BE2
:2B328F00020000000000000004000000000000000000000000000000000000000010000050000000000100000008F8AD
:2B32BA0000000000000000001A0000000000000000000000000000000000000000680000480000008006000000809287
:2B32E50000000000000000001A000000000000000000000000000000000000000068000048000000800600000080925C
:2B331000000000000000000018000000000000000000000000000000000000000060000040040000000600000000BE12
:2B333B000200000000000000180000000000000000000000000000000000000000600000C0000000000600000008B06F
:2B336600020000000000000010000000000000000000000000000000000000000040000000020000000400000008FEDE
:2B339100040000000000000016000000601200000000000000000000000000000058000098000000800500000090D9A7
:2B33BC00020000000000000012000000800101000000000000000000000000000048000008000000800400000008DD97
:2B33E700020000000000000014000000C00100000000000000000000000000000050000010000000000500000088F403
:2B341200020000000000000012000000000000000000000000000000000000000048000068000000800400000088B20D
:2B343D00000000000000000012000000802300000000000000000000000000000048000068000000800400000080817A
:2B346800000000000000000010000000000000000000000000000000000000000040100060000000000C0000000080ED
:2B3493001200000000000000300800008001000000000000000000000000000000C0000060000000000C000000A89BD4
:2B34BE001A00000000000000000000000000000000000000000000000000000000000000000000000000000000A0DF4A
:2B34E900000000000000000008000000000000000000000000000000000000000020000020000000000200000000CDA1
:2B351400800008800008800000800008800008800008000000000020000220000200000200000220000020000200CD0D
:2B353F00800008800008800008800008800008800008000000000020000220000220000220000220000220000280E7FE
:2B356A000000000000000000000100002000000C0000000000000000000000000000000008000000002000000000C021
:2B359500000000000000000000000000000000000000000000000000000000000000000000000000000000000080E7A4
:2B35C000000002000000000000000000004000000000000000000000000000000000000000000000000000000080C35B
:2B35EB00000000000000000000000000000000000080000000000000000000000000000000000000000000040000E34E
:2B361600000002000000000000010000200000080080000000000000000000000000000008000000002000040080E052
:2B364100000000000000000000000000400100000000000000000000000000000000000000000000000000000080B6E7
:2B366C00000000000000000000000000000001000000000000000000000000000000000020000000000000000080D5BD
:2B369700000000000000000000000000001000000000000000000000000000000000000000000000000000000080E692
:2B36C200000000000000000000000000001000000000000000000000000000000000000000000000000100000080F755
:2B36ED00100000000000000000000000008000000000000000000000000000000000000000000000000000000008F723
:2B371800000000000000000000000000000000000000000000000000000000000000000000000000000000000080E71F
:2B374300000000000000000000000000000000000000000000000000000000000000000000000000000000000080E7F4
:2B376E00000000000000000000000000000000000000000000000000000000000000000000000000000000000080E7C9
:2B379900000000000000000000000000000000000000000000000000000000000000000000000000000000000080E79E
:2B37C400000000000000000000000000000000000000000000000000000000000000000000000000000000000008EFE3
:2B37EF00080000000000000000000000000000000000000000000000000000000000000000000000000000000080EF38
:2B381A000200000000000000000000000080000000000000000000000000000000000000000000000000000000A0CF92
:2B384500100000000000000000040000800000000000000000000000000000000000000000000000000000000000FBC9
:2B387000000000000000000000000000000000000000000000000000000000000000020000000000000000000080E5C6
:2B389B00000000000000000000000000000000000000000000000000000000000000000000000000000000020080E59B
:2B38C600000000000000000000000000000000000000000000000000000000000000000000000000000080080000EF60
:2B38F100000000000000000000000000000000000000000000000000000000000000000000000000000000000080E745
:2B391C00000000000000000000000000000000000000000000000000000000000000000000000000000000000080E719
:2B39470040100A4110044110044110044110044110840200000000100441100441100441100441100441108E4200BD8A
:2B3972006018DC611886611886611886611886611806170000000018866118866118866118866118866118567700B3B1
:02399D00FFFF2A
:00000001FF
