:020000040000FA
:2B000000FFFF62FF2500FFFFFFFFFFFFFFFFFFFFFFFFFFFFFFFFFFFFFFFFFFFFFFFFFFFFFFFFFFFFFFFFFFFFFFFFFF76
:2B002B00601886611886611886611886611806CF1BBC01000000001886611886611886617087C11DDC6118DC6180DCC9
:2B005600401004411004411004411004411084A2100A01000000001004411004411004412804A1100A41100A4180D1C7
:2B008100000000000000000000000000000000000000000000000000000000000000000000000000000000000080E7ED
:2B00AC00000000000000000000000000000000000000000000000000000000000000000000000000000000000080E7C2
:2B00D700000000000000000000000000000000000000000000000000000000000000000000000000000000000080E797
:2B010200000000000000000000000000000000000000000000000000000000000000000000000000000000000080E76B
:2B012D00000000000000000000000000000000000000000000000000000000000000000000000000000000000080E740
:2B015800000000000000000000000000000000000000000000000000000000000000000000000000000000000080E715
:2B018300000000000000000000000000000000000000000000000000000000000000000000000000000080000000E7EA
:2B01AE00000000000000000000000000000000000000000000000000000000000000000000000000000000000080E7BF
:2B01D900000000000000000000000000000000000000000000000000000002000000000002000000000000000080E790
:2B020400000000000000000000000000000000000000000000000000000000000000000000000000000000000080E768
:2B022F00000000000000000000000000000000000000000000000000000000000000000000000000000000000080E73D
:2B025A00000000000000000000000000000000000000000000000000000000000000000000000000000000000080E712
:2B028500000000000000000000000000000000000000000000000000000000000000000000000000000000000080E7E7
:2B02B000000000000000000000000000000000000000000000000000000000000000000000000000000080000000E7BC
:2B02DB00080000000000000000000000000000000000000000000000000000000000000000000000000000000080EF81
:2B030600000000000000000000000000000000000000000000000000000000000000000000000000000000000080E765
:2B033100000000000000000000000000000000000000000000000000000000000000000000000000000000000080E73A
:2B035C000000000000000000000000000000000000000000000000C0000C00000000000000000000000000000080E743
:2B038700000000000000000000000000000000000000000000000000000000000080000000000000800040000080ABE0
:2B03B200000000000000000000000000000000000000000000000000000000000000000000000000000020000008CD2B
:2B03DD00020000000000000000000000000000000000000000000000000000000000000000000000000000000080E58E
:2B040800020000000000000000000000000000000000000000000000000000000000000000000000800040000000A95E
:2B0433000200000000000000000000000000000000000000000000000000000000C0000000000000000000000000A13B
:2B045E00020000000000000000000000000000000000000000000000000000000000000000000000000000000080E50C
:2B048900000000000000000000000000000000000000000000000000000000000000000000000000000000000008EF51
:2B04B400800008800008800008800008800008800008000000000020000220000220000220000220000220000280E7BA
:2B04DF00800008800008800008800008800008800008000000000020000220000220000220000220000220000280E78F
:2B050A00000000000000000000000000000000000000000000000000000000000000000000000000000000000080E75F
:2B053500000000000000000000000000000000000000000000000000000000000000000000000000000000000080E734
:2B056000020000000000000000000000000000000000000000000000000000000000000000000000000000000008ED79
:2B058B00020000000000000000000000000000000000000000000000000000000000000000000000000000000008ED4E
:2B05B600020000000000000000000000000000000000000000000000000000000000000000000000000000000008ED23
:2B05E100020000000000000000000000000000000000000000000000000000000000000000000000000000000008EDF8
:2B060C00000000000000000000000000000000000000000000000000000000000000000000000000000000000080E75C
:2B063700000000000000000000000000000000000000000000000000000000000000000000000000000000000080E731
:2B066200000000000000000000000000000000000000000000000020000000000000000000000000000000000080C508
:2B068D000000000000000000000000000000000000000000000000981000000000008027000000000000000000009360
:2B06B8000000000000000000000000000000000000000000000000000000000000000006000000000000000000088980
:2B06E300020000000000000000000000000000000000000000000090040000000000000704000000000000000000C784
:2B070E000200000000000000000000000000000000000000000000800000000000000046000000000000000000008771
:2B073900020000000000000000000000000000000000000000000080000000000000000E000000000000000000808302
:2B076400020000000000000000000000000000000000000000000000000000000000000600000000000000000080835F
:2B078F000000000000000000000000000000000000000000000000000400000000000006000000000000000000088DA0
:2B07BA00000000000000000000000000000000000000000000000040000002000000000400000000000000200080E747
:2B07E5000000000000000000000000000000000000000000000000F8900700000000802F000000000000980000009380
:2B081000000000000000000000000000000000000000000000000000000600000000001600000000000000080080EE2B
:2B083B00000000000000000000000000000000000000000000000090040F02000000000700000000000010000080C393
:2B086600020000000000000000000000000000000000000000000000080000000000000600000000000060000008E50A
:2B089100020000000000000000000000000000000000000000000000000002000000000602000000000060000008EDDB
:2B08BC00020000000000000000000000000000000000000000000000400600000000000600000000000000000008AD0E
:2B08E700020000000000000000000000000000000000000000000080000600000000000601000000000000000088FDD2
:2B091200000000000000000000000000000000000000000000000060080400000000000000000000000000200080EDC1
:2B093D00000000000000000000000000000000000000000000000018800904000000800901000000000098000000B711
:2B096800000000000000000000000000000000000000000000000000400600000000000600000000000060000080C177
:2B099300000000000000000000000000000000000000000000000090000901000000000F04000000000070100000A765
:2B09BE00000000000000000000000000000000000000000000000000008000000000000600000000000000080080817F
:2B09E900020000000000000000000000000000000000000000000000080800000000000600000000000060000088E5FE
:2B0A14000200000000000000000000000000000000000000000000000026000000000006000000000000600000088998
:2B0A3F00020000000000000000000000000000000000000000000000000000000000000600000000000060000008ED2F
:2B0A6A00020000000000000000000000000000000000000000000080000004000000004000000000000000000088A96A
:2B0A9500000000000000000000000000000000000000000000000018800F0000000080010000000000000000008098F6
:2B0AC000000000000000000000000000000000000000000000000000008600000000000600000000000000000080EF10
:2B0AEB00000000000000000000000000000000000000000000000090020700000000000F02000000000000000080D4E2
:2B0B1600000000000000000000000000000000000000000000000060004000000000000600000000000000000080E3AB
:2B0B4100000000000000000000000000000000000000000000000060020000000000000600000000000000000008ED2C
:2B0B6C000200000000000000000000000000000000000000000000600406000000000006000000000000000000088F55
:2B0B9700020000000000000000000000000000000000000000000040000600000000000600000000000000000090B0A5
:2B0BC200020000000000000000000000000000000000000000000080000401000000000002000000000000000088995E
:2B0BED00020000000000000000000000000000000000000000000018800900000000800F000000000000000000889291
:2B0C1800000000000000000000000000000000000000000000000000000600000000000E00000000000000000088EF26
:2B0C43000000000000000000000000000000000000000000000000100449000000000007000000000000000000009092
:2B0C6E000000000000000000000000000000000000000000000000C0000000000000000402000000000000000000C7CE
:2B0C99000000000000000000000000000000000000000000000000E0004000000000000600000000000000000000E327
:2B0CC4000000000000000000000000000000000000000000000000600216000000000006000000000000000000808285
:2B0CEF00020000000000000000000000000000000000000000000060000000000000001E00000000000000000088ECE6
:2B0D1A00020000000000000000000000000000000000000000000000200002200000000002000000000000000008ED73
:2B0D4500020000000000000000000000000000000000000000000018800918000000800900000000000000000008ED4A
:2B0D7000020000000000000000000000000000000000000000000060100600000000000E000000000000000000889BAF
:2B0D9B000000000000000000000000000000000000000000000000F0001F10400000000F00000000000000000000C0FF
:2B0DC600000000000000000000000000000000000000000000000020000460000000000000000000000000000080E717
:2B0DF100000000000000000000000000000000000000000000000000400664000000002E00000000000000000000837C
:2B0E1C00000000000000000000000000000000000000000000000060000600000000000600000000000000000080813E
:2B0E47000000000000000000000000000000000000000000000000E00226000000000006000000000000000000888961
:2B0E7200020000000000000000000000000000000000000000000080000800000000000400000000000000020008AB12
:2B0E9D00020000000000000000000000000000000000000000000018800100000000802700000000000078000090F6EA
:2B0EC8000200000000000000000000000000000000000000000000000046000000000046000000000000600000088B7E
:2B0EF300020000000000000000000000000000000000000000000090020F00000000000F000000000000701000889981
:2B0F1E00000000000000000000000000000000000000000000000000000C00000000000000000000000040000088EFE5
:2B0F4900000000000000000000000000000000000000000000000000020E00000000000604000000000060080000CB30
:2B0F740000000000000000000000000000000000000000000000000004060000000000160000000000006010008094AE
:2B0F9F001600000000000000000000000000000000000000000000200016000000000006000000000000600000289EAF
:2B0FCA001E00000000000000000000000000000000000000000000000000000000000000000000000000000000D0AC62
:2B0FF500000000000000000000000000000000000000000000000000000000000000000000000000000000000080E76A
:2B102000800008800008800008800008800008800008000000000020000220000220000220000220000220000280E742
:2B104B00800008800008800008800008800008800008000000000020000220000220000220000220000220000280E717
:2B10760000000000000000000000000000000000000000000000004022AC0000A000000000000000000008000080CD4C
:2B10A100000000000000000000000000000000000000110000000040000000000000000400800082800800000080D6EF
:2B10CC00000000000000000000000000000000000000000000000000000000000000000000000000000000000080E792
:2B10F700000000000000000000000000000000000000000000000000000000000000008000000000000000000080EFDF
:2B112200000000000000000000000000000000000000110000000040222800002000000400800082800808000080FCD5
:2B114D000000000000000000000000000000000000000000000000C0000404000000000004000000000000000000E7C4
:2B117800000000000000000000000000000000000000000000000000201002000000000200000000000000000080C4D4
:2B11A30000000000000000000000000000000000000000000000002000A20000000000E001000000000000000080F30B
:2B11CE00000000000000000000000000000000000000000000000010008100000000000000000000000000000080EFF6
:2B11F9000000000000000000000000000000000000000000000000000000000000000001000000000000000000A0D456
:2B1224000000000000000000000000000000000000000000000000000A0200080000000000000000000000000008CFB4
:2B124F00000000000000000000000000000000000000000000000000000000000000000000000000000000000080E70D
:2B127A000000000000000000000000000000000000000000000000000000000000000000000000000000000000A0C5E4
:2B12A500000000000000000000000000000000000000000000000000000000000000000000000000000000000080E7B7
:2B12D000000000000000000000000000000000000000000000000000000000000000000000000000000000040080E38C
:2B12FB00000000000000000000000000000000000000000000000010400100400000000000000000000000040080E3D0
:2B132600000000000000000000000000000000000000000000000000000001000000008101000000000000100080EE9B
:2B135100000000000000000000000000000000000000000000000000020001000000000000000000000000000080F5F9
:2B137C00000000000000000000000000000000000000000000000000002000000000000400000000000000000080A101
:2B13A700000000000000000000000000000000000000000000000000000000000000000000000000000000000080E7B4
:2B13D200000000000000000000000000000000000000000000000000000000000000000000000000000000000080E789
:2B13FD00000000000000000000000000000000000000000000000000000000000000000000001800000000000000E6C7
:2B142800000000000000000000000000000000000000000000000000000000000000000000040000000000000080E332
:2B145300000000000000000000000200000000000000000000000000000000000000000080000000000000000000C527
:2B147E00000000000000000000000000000000000000000000000000000000000000000000000000000000000080E7DC
:2B14A900000000000000000000000000000000000000000000000000000000000000000000000000000000000080E7B1
:2B14D400000000000000000000000000000000000000000000000000000000000000000000000000000000000080E786
:2B14FF00000000000000000000000000000000000000000000000000000000000000400000000000000400000080E31B
:2B152A00000000000000000000000000000000000000000000000000000000000000000040000000400000000080E3B3
:2B155500040000000000000000000000000000000000000000000000000000000000000000000000000000000080E304
:2B158000000000000000000000000000000000000000000000000000000000000000000000000000000000000080E7D9
:2B15AB00000000000000000000000000000000000000000000000000000000000000000000000000000000000080E7AE
:2B15D600000000000000000000000000000000000000000000000000000000000000000000000000000000000080E783
:2B160100000000000000000000000000000000000000000000000000000000000000000008002008820008800000EF95
:2B162C00020000000000000000000000000000000000000000000000000000000000000008000000000200000000CFB8
:2B165700000000000000000000000000000000000000000000000000000000000000000000100000000008000088F7D1
:2B168200000000000000000000000000000000000000000000000000000000000000000000002000020000800088E72C
:2B16AD00000000000000000000000000000000000000000000000000000000000000000000100008800000000008FF73
:2B16D800000000000000000000000000000000000000000000000000000000000000000000000000000000000008EFF0
:2B170300020000000000000000000000000000000000000000000000000000000000000000000000000000000080E554
:2B172E00800008800008800008800008800008800008000000000020000220000220000220000220000220000280E72D
:2B175900800008800008800008800008800008800008000000000020000220000220000220000220000220000280E702
:2B1784000000000000000000000000000000000000000000000000000000000000000000000004020000000000808331
:2B17AF0000000000000000000000000000000000000000000000000000000000000000000080070000000000000098F0
:2B17DA00020000000000000000000000000000000000000000000000000000000000000000000400000000000008A92D
:2B180500020000000000000000000000000000000000000000000000000000000000000000000704000000000008DAC9
:2B183000020000000000000000000000000000000000000000000000000000000000000000000400000000000008A9D6
:2B185B00020000000000000000000000000000000000000000000000000000000000000000008600000000000008834F
:2B1886000000000000000000000000000000000000000000000000000000000000000000000006000000000000808130
:2B18B10000000000000000000000000000000000000000000000000000000000000000000000160000000000008080F6
:2B18DC00000000000000000000000000000000000000000000000000000000000000000000000000400400000080E33A
:2B190700000000000000000000000000000000000000000000000000000000000000000000000078800704000080A78B
:2B1932000000000000000000000000000000000000000000000000000000000000000000000000E00000000000008129
:2B195D000200000000000000000000000000000000000000000000000000000000000000000000F00001010000889B48
:2B198800020000000000000000000000000000000000000000000000000000000000000000000000200000000008CD3D
:2B19B300020000000000000000000000000000000000000000000000000000000000000000000080004800000008E94E
:2B19DE000200000000000000000000000000000000000000000000000000000000000000000000600000000000088BE9
:2B1A0900000000000000000000000000000000000000000000000000000000000000000000000060000804000000C185
:2B1A3400000000000000000000000000000000000000000000000000000000000000000000040040000400000080E3DC
:2B1A5F00000000000000000000000000000000000000000000000000000000000000000098000018900104000080AEE9
:2B1A8A00000000000000000000000000000000000000000000000000000000000000000060000060000600000080816A
:2B1AB5000000000000000000000000000000000000000000000000000000000000000000700800100801010000808074
:2B1AE000020000000000000000000000000000000000000000000000000000000000000060000080000002000088ABC4
:2B1B0B000200000000000000000000000000000000000000000000000000000000000000600000000008000000888B32
:2B1B36000200000000000000000000000000000000000000000000000000000000000000600000600006000000088B29
:2B1B610002000000000000000000000000000000000000000000000000000000000000006000008002800000008881EC
:2B1B8C000000000000000000000000000000000000000000000000000000000000000000000000002004000000808307
:2B1BB70000000000000000000000000000000000000000000000000000000000000000001808001880050200000092B2
:2B1BE200000000000000000000000000000000000000000000000000000000000000000020040080004400000000816F
:2B1C0D00000000000000000000000000000000000000000000000000000000000000000090000010000D00000080B2CD
:2B1C3800000000000000000000000000000000000000000000000000000000000000000020000040001400000080C4C9
:2B1C6300020000000000000000000000000000000000000000000000000000000000000000040060400E00000088A971
:2B1C8E000200000000000000000000000000000000000000000000000000000000000000200800600106040000088608
:2B1CB900020000000000000000000000000000000000000000000000000000000000000080000060000E00000008ED1B
:2B1CE400020000000000000000000000000000000000000000000000000000000000000000100000400000000008BDBE
:2B1D0F00000000000000000000000000000000000000000000000000000000000000000098000018800702000080B838
:2B1D3A000000000000000000000000000000000000000000000000000000000000000000000000A0000002000000E5F7
:2B1D65000000000000000000000000000000000000000000000000000000000000000000900400900007000000809414
:2B1D900000000000000000000000000000000000000000000000000000000000000000004000002000040400008085BB
:2B1DBB000000000000000000000000000000000000000000000000000000000000000000E0100000080600000088F780
:2B1DE600020000000000000000000000000000000000000000000000000000000000000060000020002600000080C5E5
:2B1E1100020000000000000000000000000000000000000000000000000000000000000060020000100600000080F7B5
:2B1E3C00020000000000000000000100000000000000000000000000000000000000000040100880000000000080A080
:2B1E6700020000000000000000602000000000000000000000000000000000000000000078800998800102000080C171
:2B1E92000000000000000000008011000000000000000000000000000000000000000000E00000614000020000088782
:2B1EBD000000000000000000004002000000000000000000000000000000000000000000700001700009000000008549
:2B1EE800000000000000000000000200000000000000000000000000000000000000000060010060000402000080A0E6
:2B1F1300000000000000000000000200000000000000000000000000000000000000000060000060000600000080A3B8
:2B1F3E000000000000000000008011000000000000000000000000000000000000000000E0000660000600000080FF1C
:2B1F69000200000000000000000000000000000000000000000000000000000000000000E0000660002E00000008EFE0
:2B1F9400020000000000000000000000000000000000000000000000000000000400000840080C00200400000008C5CF
:2B1FBF000200000000000000000000000000000000000000000000000000008007048009F8800D78800F04000008A9A0
:2B1FEA000200000000000000000000000000000000000000000000000000000006040000610004010006000000088FBD
:2B201500000000000000000000000000000000000000000000000000000000000F00000170040570404F00000080E3B5
:2B2040000000000000000000000000000000000000000000000000000000000006020006600044404006010000809329
:2B206B000000000000000000000000000000000000000000000000000000000006000006E0100EE0000600000000F763
:2B209600000000000000000000000000000000000000000000000000000000000602000060000460020600000080814A
:2B20C100000000000000000000000000000000000000000000000000000000000E000000E0048C60004600000000AB25
:2B20EC000200000000000000000000000000000000000000000000001004400000C00000400100420000000000889810
:2B2117000200000000000000000000000000000000000000000000788007790400F80000F88007F8C00102000088FF66
:2B2142000200000000000000000000000000000000000000000000000006040000401000600200600040000000089973
:2B216D000200000000000000000000000000000000000000000000F04007F0040070000070000F740109000000088E17
:2B2198000000000000000000000000000000000000000000000000600006601000400000600810602016000000809BDD
:2B21C3000000000000000000000000000000000000000000000000E00406E4000060400060000EE000080000000085A8
:2B21EE00000000000000000000000000000000000000000000000000000E00200060400060040660080000000000ED39
:2B2219000A00000000000000000000000000000000000000000000600006600000E00000600006600000000000F8F438
:2B2244001E0000000000000000000000000000000000000000000000000000000000000000000000000000000058A455
:2B226F00000000000000000000000000000000000000000000000000000000000000000000000000000000000080E7DD
:2B229A00800008800008800008800008800008800008000000000020000220000220000220000220000220000280E7B6
:2B22C500800008800008800008800008800008800008000000000020000220000220000220000220000220000280E78B
:2B22F000000000000000000000001000000000000000000000000000800CC0000000000808008001B02C00000000807A
:2B231B00000000000000000000000000000000000000000000000000000000020000000000000000000088002080EF7E
:2B234600000000000000000000000000000000000000000000000000000000000000000000000049000400800080F728
:2B23710000000000000000000000000000000000000000000000000000002000002000000000A200000202020082EFE8
:2B239C00000000000000000000001000000000000000000000000000800880020000000808002008A0288A822002C40A
:2B23C700000000000000000000000000000000000000000000000020004040000000000040000080040200000000E79E
:2B23F2000000000000000000008001000000000000000000000000000000040000100001A00201000000000000808F78
:2B241D00000000000000000000000000000000000000000000000000000024000000000020000000404000000080E36D
:2B244800000000000000000000400000000000000000000000000000000000008003000000010000008001000080861E
:2B247300000000000000000000000000000000000000000000000000000000000000000000000002200000000080E7B5
:2B249E0000000000000000000000000000000000000000000000000000000000000004401000C20038020400008082BD
:2B24C900000000000000000000000000000000000000000000000000000000000000000000000000000000000080E781
:2B24F400000000000000000000000000000000000000000000000000000000000000000000000000000000000080E756
:2B251F00000000000000000000000000000000000000000000000000000100000004000000000010000004000080E711
:2B254A00000000000000000000000000000000000000000000000000000000000000000000000000000000000080E7FF
:2B257500000000000000000000000000000000000000000000000000200000000000000010000004008802000000BEBF
:2B25A000000000000000000000000000000000000000000000000000040000000000200000000090004002000000F624
:2B25CB00000000000000000000000000000000000000000000000000000000000000000000020000000000000080E57E
:2B25F6000000000000000000000000000000000000000000000000000000000A0000000000000000000000000080ED43
:2B262100000000000000000000000000000000000000000000000000000000000000000000000000000000000080E727
:2B264C00000000000000000000000000000000000000000000000000000000000000000000000000000000000080E7FC
:2B267700000000000000000000000000000000001000000000000020000000000000000000000000000000000080C4C4
:2B26A200000000000000000000000000000000000000000000000000000000000000000000000000000000000080E7A6
:2B26CD00000000000000000000000000080000080000080000000000200000000000000000000000000000000080CF5B
:2B26F800000000000000000000000000000000000000000000000000000000000000000000000000000000000080E750
:2B272300000000000000000000000000000000000000000000000000000000000000000000000000000000000080E724
:2B274E00000000000000000000000000000000000000000000000000000000000000000000000000000000000080E7F9
:2B277900000000000000000000000000000000000000000000000000000000000000000000000000000000000080E7CE
:2B27A400000000000000000000000000000000004800000000000000200000000000000000000000000000000200E1BF
:2B27CF00000000000000000000000000000000000000000000000000000000000000000000000000000000000080E778
:2B27FA00000000000000000000000000000000000000000000000000000000000000000000000000000000000080E74D
:2B282500000000000000000000000000000000000000000000000000000000000800000000000000000000000880E711
:2B285000000000000000000000000000000000000000000000000000000000000000000000000000000000000080E7F6
:2B287B0000000000000000000000000000000048022010000000000000000000000000000020000000000803000094F9
:2B28A600004010000000000000000000000000000220000000000000000000000000000000000000000000000280D043
:2B28D100020000000000000000000000000000000000000000000000000000000000000000000000000008010088E465
:2B28FC00024010000000000000000000000000080000000000000000000000000000000000200000000000020008D25B
:2B292700020000000000000000000000000000C00000100000000000000000000000000000000000000000000088B576
:2B295200020000000000000000000000000000000000000000000000000000000000000000000000000000000008ED63
:2B297D00000000000000000000000000000000000000000000000000000000000000000000000000000000000080E7C8
:2B29A800800008800008800008800008800008800008000000000020000220000220000220000220000220000280E7A1
:2B29D300800008800008800008800008800008800008000000000020000220000220000220000220000220000280E776
:2B29FE0000000000000000000000000000000000000000000000000000000000000000000000000000000000028485A3
:2B2A2900000000000000000000000000000000000026100000000000000000000000000000000000000000800980AC97
:2B2A5400020000000000000000000000000000000098000000000000000000000000000000000000000000000008F4C1
:2B2A7F0002000000000000000000000000000000001C000000000000000000000000000000000000000000004188A1A4
:2B2AAA0002000000000000000000000000000000005000000000000000000000000000000000000000000000000A980D
:2B2AD500020000000000000000000000000000000000000000000000000000000000000000000000000000000008EDDF
:2B2B0000000000000000000000000000000000000018010000000000000000000000000000000000000000000000FF92
:2B2B2B00000000000000000000000000000000000038000000000000000000000000000000000000000000000882FCC1
:2B2B5600000000000000000000000000000000008100000000000000000000000000000000000000000000000484FA51
:2B2B8100000000000000000000000000000000E0035E000000000000000000000000000000000000000000800F80FEDB
:2B2BAC00000000000000000000000000000000804118010000000000000000000000000000000000000000000080E2C2
:2B2BD700020000000000000000000000000000C0031C000000000000000000000000000000000000000000000F89A8B2
:2B2C0200020000000000000000000000000000800119100000000000000000000000000000000000000000000008ED06
:2B2C2D00020000000000000000000000000000800118000000000000000000000000000000000000000000008008E574
:2B2C5800020000000000000000000000000000800118000000000000000000000000000000000000000000000008EDC1
:2B2C8300000000000000000000000000000000804118000000000000000000000000000000000000000000000082C308
:2B2CAE00000000000000000000000000000000001000000000000000000000000000000000000000000000000480A2C5
:2B2CD900000000000000000000000000000000E00026100000000000000000000000000000000000000000804780A6CD
:2B2D0400000000000000000000000000000000800018100000000000000000000000000000000000000000000080E696
:2B2D2F00000000000000000000000000000000C0083C000000000000000000000000000000000000000000000F828361
:2B2D5A0002000000000000000000000000000000020000000000000000000000000000000000000000000000060A89B1
:2B2D85000200000000000000000000000000008000B8000000000000000000000000000000000000000000000688B8A3
:2B2DB000020000000000000000000000000000002018000000000000000000000000000000000000000000000088F640
:2B2DDB00020000000000000000000000000000800218000000000000000000000000000000000000000000002E88BAC1
:2B2E0600000000000000000000000000000000000001000000000000000000000000000000000000000000002480B14B
:2B2E3100000000000000000000000000000000E0013E010000000000000000000000000000000000000000800D8099B0
:2B2E5C00000000000000000000000000000000008010000000000000000000000000000000000000000000000480BA7D
:2B2E8700000000000000000000000000000000C0033C100000000000000000000000000000000000000000001F008171
:2B2EB20000000000000000000000000000000080413800000000000000000000000000000000000000000000008481F7
:2B2EDD00020000000000000000000000000000800338000000000000000000000000000000000000000000000008ED18
:2B2F0800020000000000000000000000000000000018000000000000000000000000000000000000000000000088F408
:2B2F3300020000000000000000000000000000800178000000000000000000000000000000000000000000000E8CAD31
:2B2F5E000200000000000000000000000000000000100000000000000000000000000000000000000000000006089A8E
:2B2F89000000000000000000000000000000267002BF000000000000000000000000000000000000000000808100AD18
:2B2FB400000000000000000000000000000018000058000000000000000000000000000000000000000000000080A35F
:2B2FDF0000000000000000000000000000001C48043C000000000000000000000000000000000000000000000901C851
:2B300A00000000000000000000000000000010012118000000000000000000000000000000000000000000004000F918
:2B303500000000000000000000000000000018800338020000000000000000000000000000000000000000000880FC17
:2B306000020000000000000000000000000018800318080000000000000000000000000000000000000000000088DE22
:2B308B00020000000000000000000000000078800318000000000000000000000000000000000000000000000088B0CD
:2B30B600020000000000000000000000000000001120000000000000000000000000000000000000000000002008DDB7
:2B30E100020000000000000000000000000000E00106000000000000000000800D02000000000000000000800F88F63F
:2B310C00000000000000000000000000000000000218000000000000000000000002000000000000000000001000FD6F
:2B31370000000000000000000000000000000040001C100000000000000000000700000000000000000000000700EE05
:2B316200000000000000000000000000000000004018000000000000000000000000000000000000000000000000FAF0
:2B318D00000000000000000000000000000000000218000000000000000000000E04000000000000000000000E04DCFD
:2B31B800000000000000000000000000000000008018000000000000000000000000000000000000000000000000F65E
:2B31E300020000000000000000000000000000000218000000000000000000001E0000000000000000000000040AD5A4
:2B320E00020000000000000000000000000000080000000000000000000000000000000000000000000000000008E59E
:2B32390002000000000000000000000000003E6002070100000000000000000000000000000000000000008019889D02
:2B326400020000000000000000000000000018902118080000000000000000000000000000000000000000000488AA1E
:2B328F0000000000000000000000000000003CC0013C000000000000000000000000000000000000000000000D84AB9F
:2B32BA00000000000000000000000000000000001118000000000000000000000000000000000000000000000002CEF0
:2B32E500000000000000000000000000000020810318000000000000000000000000000000000000000000000E008074
:2B331000000000000000000000000000000018800118000000000000000000000000000000000000000000002400B805
:2B333B00020000000000000000000000000018800B18000000000000000000000000000000000000000000000680B86C
:2B336600020000000000000000000000001110000010000000000000000000000404000000000000000000002008FBDE
:2B339100040000000000000000000026F0010670025F0000000000F8400000800F000000000000000000008009088641
:2B33BC00020000000000000000000000840338800118100000000060400000000000000000000000000000001008DEE6
:2B33E700020000000000000000000004C00104C0431C0000000000F0000000004100000000000000000000000108E1B6
:2B3412000200000000000000000000188003001009000100000000400000000000000000000000000000000000008315
:2B343D000000000000000000000000188003008001180000000000E0040000008000000000000000000000000884EF51
:2B346800000000000000000000000000801158800358000000000060100000000000000000000000000000000080B2D3
:2B3493001E000000000000000000000080032080033800000000006000000000080100000000000000000000027AEBC2
:2B34BE001C000000000000000000000000000000000000000000000000000000000000000000000000000000007884CB
:2B34E900000000000000000000000000000000000000000000000000000000000000000000000000000000000080E751
:2B351400800008800008800008800008800008800008000000000020000220000220000220000220000220000280E729
:2B353F00800008800008800008800008800008800008000000000020000220000220000220000220000220000280E7FE
:2B356A0000000000000000000000000200C030208000120000000000001400080000000000000000000060000080E9AD
:2B359500000000000000000000000000000000000000040000000000000008000000000000002000000040000000ADF2
:2B35C000000000000000000000000000000002000200000000000000010000000000005000000000800000000000E922
:2B35EB00000000000000000000000000000000000080020000000000000000080000000002000000000020008000E7A2
:2B361600000000000000000000000002008022208280140000000000011008000000005002002000800040000000B0B4
:2B364100000000000000000000000000000000000000000000000000000000000400000000000000000000000480E7EF
:2B366C00000000000000000000000000800100100500100000000000000000000000000000000000000000000000ABE2
:2B369700000000000000000000000000400008500040100000000000000000000002000000000000000000000002AB71
:2B36C200000000000000000000000000400000440000040000000000000000008002000000000000000000008082E7EA
:2B36ED00000000000000000000000000000000008808000000000000000000000000000000000000000000008080EF33
:2B371800020000000000000000000000000000000001020000000000000000000000000000000000000000000081E719
:2B374300000000000000000000000000000000000000000000000000000000000000000000000000000000000080E7F4
:2B376E00000000000000000000000000000000000000080000000000000000000000000000000000000000000080EFB9
:2B379900000000000000000000000000000004020004000000000000000000000000000000000000000000000080E596
:2B37C40000000000000000000000000001001000021400000000000004000000000000000000000000000000008080AF
:2B37EF00000000000000000000000000000000000010000000000000000000002000000000000000000000002080F6E9
:2B381A00000000000000000000000000000000880008000000000000000000000000000000000000000000000084AFC0
:2B384500000000000000000000000000000000000000000000000000000000000001000000000000000000000081E7EF
:2B387000000000000000000000000000000000000000000000000000000000000000000000000000000000000080E7C6
:2B389B00000000000000000000000000000000000000000000000000000000000020000000200000000000000080E55D
:2B38C600800049000000000000000000000000000000000000000000000000000000080000080000000000000080B3CB
:2B38F100000000000000000000000000000000000000000000000000000000000000000000000000000000000080E745
:2B391C00000000000000000000000000000000000000000000000000000000000000000000000000000000000080E719
:2B394700E0100E41100441100441100441100AA110840200000000100441100441100EA1100EA12884A2108AA280D1C3
:2B3972006019966118866118866118866118DCC11B0617000000001886611886611896C11B96C17507D71B5CD783C20B
:02399D00FFFF2A
:00000001FF
